{
  "contractName": "Allocate",
  "abi": [
    {
      "payable": true,
      "stateMutability": "payable",
      "type": "fallback"
    },
    {
      "constant": false,
      "inputs": [],
      "name": "allocate",
      "outputs": [
        {
          "name": "",
          "type": "bool"
        }
      ],
      "payable": false,
      "stateMutability": "nonpayable",
      "type": "function"
    },
    {
      "constant": false,
      "inputs": [
        {
          "name": "money",
          "type": "uint256"
        }
      ],
      "name": "allocate2",
      "outputs": [
        {
          "name": "",
          "type": "bool"
        }
      ],
      "payable": false,
      "stateMutability": "nonpayable",
      "type": "function"
    },
    {
      "constant": false,
      "inputs": [],
      "name": "put",
      "outputs": [],
      "payable": true,
      "stateMutability": "payable",
      "type": "function"
    }
  ],
  "bytecode": "0x60806040527320715ed32aa4c815f692b87ac37a681a7fb39b386000806101000a81548173ffffffffffffffffffffffffffffffffffffffff021916908373ffffffffffffffffffffffffffffffffffffffff160217905550735129d3908627a74b37cef13c272dc77d006ada4d600160006101000a81548173ffffffffffffffffffffffffffffffffffffffff021916908373ffffffffffffffffffffffffffffffffffffffff16021790555073c366d0f3d87f8344801794e59ec75628437d1d3b600260006101000a81548173ffffffffffffffffffffffffffffffffffffffff021916908373ffffffffffffffffffffffffffffffffffffffff16021790555073c19157934700f80a837c4ba69b7ef0c8e53e3cb5600360006101000a81548173ffffffffffffffffffffffffffffffffffffffff021916908373ffffffffffffffffffffffffffffffffffffffff1602179055507324b470b066945951727e5d736d64fc2058fa7779600460006101000a81548173ffffffffffffffffffffffffffffffffffffffff021916908373ffffffffffffffffffffffffffffffffffffffff16021790555073f94ca3e3f81e2d013a749d7efa3abcefcd987c99600560006101000a81548173ffffffffffffffffffffffffffffffffffffffff021916908373ffffffffffffffffffffffffffffffffffffffff16021790555073b2847cb0f30af2141ef94e40d667bff9da27763b600660006101000a81548173ffffffffffffffffffffffffffffffffffffffff021916908373ffffffffffffffffffffffffffffffffffffffff160217905550732c2164503b8dcdf7239ae03b308eff25502f8ed9600760006101000a81548173ffffffffffffffffffffffffffffffffffffffff021916908373ffffffffffffffffffffffffffffffffffffffff16021790555073b0c49c4d3de822fb89ab58201a27921f55e434bc600860006101000a81548173ffffffffffffffffffffffffffffffffffffffff021916908373ffffffffffffffffffffffffffffffffffffffff16021790555034801561030c57600080fd5b50610a138061031c6000396000f300608060405260043610610057576000357c0100000000000000000000000000000000000000000000000000000000900463ffffffff1680633e7199c91461006c578063549262ba146100b1578063abaa9916146100bb575b600134141561006a576100686100ea565b505b005b34801561007857600080fd5b5061009760048036038101908080359060200190929190505050610556565b604051808215151515815260200191505060405180910390f35b6100b96109e5565b005b3480156100c757600080fd5b506100d06100ea565b604051808215151515815260200191505060405180910390f35b6000803073ffffffffffffffffffffffffffffffffffffffff163190506000809054906101000a900473ffffffffffffffffffffffffffffffffffffffff1673ffffffffffffffffffffffffffffffffffffffff166108fc6127106103e7840281151561015357fe5b049081150290604051600060405180830381858888f1935050505015801561017f573d6000803e3d6000fd5b50600160009054906101000a900473ffffffffffffffffffffffffffffffffffffffff1673ffffffffffffffffffffffffffffffffffffffff166108fc612710610bb584028115156101cd57fe5b049081150290604051600060405180830381858888f193505050501580156101f9573d6000803e3d6000fd5b50600260009054906101000a900473ffffffffffffffffffffffffffffffffffffffff1673ffffffffffffffffffffffffffffffffffffffff166108fc6127106103e7840281151561024757fe5b049081150290604051600060405180830381858888f19350505050158015610273573d6000803e3d6000fd5b50600360009054906101000a900473ffffffffffffffffffffffffffffffffffffffff1673ffffffffffffffffffffffffffffffffffffffff166108fc6127106101f484028115156102c157fe5b049081150290604051600060405180830381858888f193505050501580156102ed573d6000803e3d6000fd5b50600460009054906101000a900473ffffffffffffffffffffffffffffffffffffffff1673ffffffffffffffffffffffffffffffffffffffff166108fc61271060fa840281151561033a57fe5b049081150290604051600060405180830381858888f19350505050158015610366573d6000803e3d6000fd5b50600560009054906101000a900473ffffffffffffffffffffffffffffffffffffffff1673ffffffffffffffffffffffffffffffffffffffff166108fc61271060fa84028115156103b357fe5b049081150290604051600060405180830381858888f193505050501580156103df573d6000803e3d6000fd5b50600660009054906101000a900473ffffffffffffffffffffffffffffffffffffffff1673ffffffffffffffffffffffffffffffffffffffff166108fc6127106103e7840281151561042d57fe5b049081150290604051600060405180830381858888f19350505050158015610459573d6000803e3d6000fd5b50600760009054906101000a900473ffffffffffffffffffffffffffffffffffffffff1673ffffffffffffffffffffffffffffffffffffffff166108fc61271061053484028115156104a757fe5b049081150290604051600060405180830381858888f193505050501580156104d3573d6000803e3d6000fd5b50600860009054906101000a900473ffffffffffffffffffffffffffffffffffffffff1673ffffffffffffffffffffffffffffffffffffffff166108fc61271061068a840281151561052157fe5b049081150290604051600060405180830381858888f1935050505015801561054d573d6000803e3d6000fd5b50600191505090565b60008073adde8a48643a21414435d33df40cbaa84cdd8f413373ffffffffffffffffffffffffffffffffffffffff1614151561059157600080fd5b8290506000809054906101000a900473ffffffffffffffffffffffffffffffffffffffff1673ffffffffffffffffffffffffffffffffffffffff166108fc6127106103e784028115156105e057fe5b049081150290604051600060405180830381858888f1935050505015801561060c573d6000803e3d6000fd5b50600160009054906101000a900473ffffffffffffffffffffffffffffffffffffffff1673ffffffffffffffffffffffffffffffffffffffff166108fc612710610bb5840281151561065a57fe5b049081150290604051600060405180830381858888f19350505050158015610686573d6000803e3d6000fd5b50600260009054906101000a900473ffffffffffffffffffffffffffffffffffffffff1673ffffffffffffffffffffffffffffffffffffffff166108fc6127106103e784028115156106d457fe5b049081150290604051600060405180830381858888f19350505050158015610700573d6000803e3d6000fd5b50600360009054906101000a900473ffffffffffffffffffffffffffffffffffffffff1673ffffffffffffffffffffffffffffffffffffffff166108fc6127106101f4840281151561074e57fe5b049081150290604051600060405180830381858888f1935050505015801561077a573d6000803e3d6000fd5b50600460009054906101000a900473ffffffffffffffffffffffffffffffffffffffff1673ffffffffffffffffffffffffffffffffffffffff166108fc61271060fa84028115156107c757fe5b049081150290604051600060405180830381858888f193505050501580156107f3573d6000803e3d6000fd5b50600560009054906101000a900473ffffffffffffffffffffffffffffffffffffffff1673ffffffffffffffffffffffffffffffffffffffff166108fc61271060fa840281151561084057fe5b049081150290604051600060405180830381858888f1935050505015801561086c573d6000803e3d6000fd5b50600660009054906101000a900473ffffffffffffffffffffffffffffffffffffffff1673ffffffffffffffffffffffffffffffffffffffff166108fc6127106103e784028115156108ba57fe5b049081150290604051600060405180830381858888f193505050501580156108e6573d6000803e3d6000fd5b50600760009054906101000a900473ffffffffffffffffffffffffffffffffffffffff1673ffffffffffffffffffffffffffffffffffffffff166108fc612710610534840281151561093457fe5b049081150290604051600060405180830381858888f19350505050158015610960573d6000803e3d6000fd5b50600860009054906101000a900473ffffffffffffffffffffffffffffffffffffffff1673ffffffffffffffffffffffffffffffffffffffff166108fc61271061068a84028115156109ae57fe5b049081150290604051600060405180830381858888f193505050501580156109da573d6000803e3d6000fd5b506001915050919050565b5600a165627a7a72305820f76f786d8095bd806365f27688390a3bdb42985f207c6b7c8f868c7052fc06dd0029",
  "source": "pragma solidity ^0.4.21;\n\ncontract Allocate {\n    address a = address(0x20715ED32aa4c815f692b87Ac37A681a7fb39b38);\n\n    address b = address(0x5129d3908627a74b37cef13c272dc77d006ada4d);\n\n    address c = address(0xc366d0f3d87f8344801794e59ec75628437d1d3b);\n\n    address d = address(0xc19157934700f80A837c4Ba69B7eF0C8E53e3CB5);\n\n    address e = address(0x24b470b066945951727e5d736d64fc2058fa7779);\n\n    address f = address(0xf94ca3e3f81e2d013a749d7efa3abcefcd987c99);\n\n    address g = address(0xb2847cb0f30af2141ef94e40d667bff9da27763b);\n\n    address h = address(0x2c2164503B8DCDF7239AE03B308efF25502f8Ed9);\n\n    address i = address(0xb0c49c4d3de822fb89ab58201a27921f55e434bc);\n\n    \n    function allocate() public returns (bool){\n        uint bal = address(this).balance;\n        \n        address(a).transfer(bal*999/10000);\n        \n        address(b).transfer(bal*2997/10000);\n        \n        address(c).transfer(bal*999/10000);\n        \n        address(d).transfer(bal*500/10000);\n        \n        address(e).transfer(bal*250/10000);\n        \n        address(f).transfer(bal*250/10000);\n        \n        address(g).transfer(bal*999/10000);\n        \n        address(h).transfer(bal*1332/10000);\n        \n        address(i).transfer(bal*1674/10000);\n        \n        return true; \n        \n    }\n\n    function allocate2(uint money) public returns (bool){\n        require(msg.sender == 0xadde8a48643a21414435d33df40cbaa84cdd8f41);\n        uint bal = money;\n        \n        address(a).transfer(bal*999/10000);\n        \n        address(b).transfer(bal*2997/10000);\n        \n        address(c).transfer(bal*999/10000);\n        \n        address(d).transfer(bal*500/10000);\n        \n        address(e).transfer(bal*250/10000);\n        \n        address(f).transfer(bal*250/10000);\n        \n        address(g).transfer(bal*999/10000);\n        \n        address(h).transfer(bal*1332/10000);\n        \n        address(i).transfer(bal*1674/10000);\n        \n        return true; \n        \n    }\n   \n    function put() payable public{\n        \n    }\n    \n    function () payable public{\n        if(msg.value == 1 wei){\n            allocate();\n        }\n    }\n}",
  "sourcePath": "/home/tung/language/python/contractControl/deployContract/contracts/Allocate.sol",
  "compiler": {
    "name": "solc",
    "version": "0.4.24+commit.e67f0147.Emscripten.clang"
  },
  "schemaVersion": "2.0.1",
  "updatedAt": "2018-09-25T10:10:35.099Z"
}