{
  "contractName": "ContractInfo",
  "abi": [
    {
      "constant": false,
      "inputs": [
        {
          "name": "target",
          "type": "address"
        }
      ],
      "name": "setWin",
      "outputs": [],
      "payable": false,
      "stateMutability": "nonpayable",
      "type": "function"
    },
    {
      "constant": false,
      "inputs": [
        {
          "name": "target",
          "type": "address"
        }
      ],
      "name": "setLose",
      "outputs": [],
      "payable": false,
      "stateMutability": "nonpayable",
      "type": "function"
    },
    {
      "constant": false,
      "inputs": [
        {
          "name": "target",
          "type": "address"
        }
      ],
      "name": "setTime",
      "outputs": [],
      "payable": false,
      "stateMutability": "nonpayable",
      "type": "function"
    },
    {
      "constant": false,
      "inputs": [
        {
          "name": "target",
          "type": "address"
        },
        {
          "name": "balance",
          "type": "uint256"
        }
      ],
      "name": "setProfit",
      "outputs": [],
      "payable": false,
      "stateMutability": "nonpayable",
      "type": "function"
    }
  ],
  "bytecode": "0x608060405234801561001057600080fd5b5061020d806100206000396000f3006080604052600436106100615763ffffffff7c01000000000000000000000000000000000000000000000000000000006000350416635568b0ae81146100665780638cb3235214610096578063c041b059146100c4578063fee73e86146100f2575b600080fd5b34801561007257600080fd5b5061009473ffffffffffffffffffffffffffffffffffffffff60043516610123565b005b3480156100a257600080fd5b5061009473ffffffffffffffffffffffffffffffffffffffff60043516610155565b3480156100d057600080fd5b5061009473ffffffffffffffffffffffffffffffffffffffff60043516610182565b3480156100fe57600080fd5b5061009473ffffffffffffffffffffffffffffffffffffffff600435166024356101af565b73ffffffffffffffffffffffffffffffffffffffff166000908152602081905260409020600190810180549091019055565b73ffffffffffffffffffffffffffffffffffffffff16600090815260208190526040902042600290910155565b73ffffffffffffffffffffffffffffffffffffffff16600090815260208190526040902080546001019055565b73ffffffffffffffffffffffffffffffffffffffff9091166000908152602081905260409020600301805490910190555600a165627a7a72305820e52388291466bec711541a75c50bd0321e771b705f9f32be00ced4859cbb32b90029",
  "source": "pragma solidity ^0.4.21;\n\n\ncontract ContractInfo{\n\n\n    struct adinfo{\n        uint win;\n        uint lose;\n        uint time;\n        uint profit;\n        uint lottery;\n        uint income;\n    }\n\n    mapping(address => adinfo) admap;\n    \n    function setWin(address target)public{\n        admap[target].win = admap[target].win + 1;\n    }\n    function setLose(address target)public{\n        admap[target].lose = admap[target].lose + 1;\n    }\n    function setTime(address target)public{\n        admap[target].time = now;\n    }\n    function setProfit(address target, uint balance)public{\n        admap[target].profit = admap[target].profit + balance;\n    }\n}",
  "sourcePath": "/home/tung/language/python/contractControl/deployContract/contracts/ContractInfo.sol",
  "compiler": {
    "name": "solc",
    "version": "0.4.24+commit.e67f0147.Emscripten.clang"
  },
  "schemaVersion": "2.0.1",
  "updatedAt": "2018-09-25T10:33:16.060Z"
}