{
  "contractName": "Crazy10",
  "abi": [
    {
      "constant": false,
      "inputs": [],
      "name": "getProfitout",
      "outputs": [],
      "payable": false,
      "stateMutability": "nonpayable",
      "type": "function"
    },
    {
      "constant": true,
      "inputs": [
        {
          "name": "",
          "type": "address"
        }
      ],
      "name": "profit",
      "outputs": [
        {
          "name": "",
          "type": "uint256"
        }
      ],
      "payable": false,
      "stateMutability": "view",
      "type": "function"
    },
    {
      "constant": true,
      "inputs": [],
      "name": "layercontract",
      "outputs": [
        {
          "name": "",
          "type": "address"
        }
      ],
      "payable": false,
      "stateMutability": "view",
      "type": "function"
    },
    {
      "constant": true,
      "inputs": [
        {
          "name": "",
          "type": "address"
        }
      ],
      "name": "inviteInquire",
      "outputs": [
        {
          "name": "",
          "type": "uint256"
        }
      ],
      "payable": false,
      "stateMutability": "view",
      "type": "function"
    },
    {
      "constant": true,
      "inputs": [],
      "name": "winnerTime_C10",
      "outputs": [
        {
          "name": "",
          "type": "uint256"
        }
      ],
      "payable": false,
      "stateMutability": "view",
      "type": "function"
    },
    {
      "constant": true,
      "inputs": [
        {
          "name": "",
          "type": "uint256"
        }
      ],
      "name": "inviteNumber",
      "outputs": [
        {
          "name": "",
          "type": "address"
        }
      ],
      "payable": false,
      "stateMutability": "view",
      "type": "function"
    },
    {
      "constant": false,
      "inputs": [
        {
          "name": "target",
          "type": "address"
        }
      ],
      "name": "setLose",
      "outputs": [],
      "payable": false,
      "stateMutability": "nonpayable",
      "type": "function"
    },
    {
      "constant": true,
      "inputs": [],
      "name": "initTime_C10",
      "outputs": [
        {
          "name": "",
          "type": "uint256"
        }
      ],
      "payable": false,
      "stateMutability": "view",
      "type": "function"
    },
    {
      "constant": true,
      "inputs": [
        {
          "name": "",
          "type": "uint256"
        }
      ],
      "name": "resultMap_C10",
      "outputs": [
        {
          "name": "winner",
          "type": "uint256"
        },
        {
          "name": "loser",
          "type": "uint256"
        },
        {
          "name": "loser1",
          "type": "uint256"
        },
        {
          "name": "loser2",
          "type": "uint256"
        },
        {
          "name": "common3",
          "type": "uint256"
        },
        {
          "name": "common4",
          "type": "uint256"
        }
      ],
      "payable": false,
      "stateMutability": "view",
      "type": "function"
    },
    {
      "constant": true,
      "inputs": [],
      "name": "unusedTime_C10",
      "outputs": [
        {
          "name": "",
          "type": "uint256"
        }
      ],
      "payable": false,
      "stateMutability": "view",
      "type": "function"
    },
    {
      "constant": true,
      "inputs": [
        {
          "name": "target",
          "type": "address"
        }
      ],
      "name": "getlayer",
      "outputs": [
        {
          "name": "",
          "type": "address"
        }
      ],
      "payable": false,
      "stateMutability": "view",
      "type": "function"
    },
    {
      "constant": false,
      "inputs": [
        {
          "name": "newOwner",
          "type": "address"
        }
      ],
      "name": "transferAdmin",
      "outputs": [],
      "payable": false,
      "stateMutability": "nonpayable",
      "type": "function"
    },
    {
      "constant": true,
      "inputs": [
        {
          "name": "",
          "type": "uint256"
        }
      ],
      "name": "pool_Crazy10",
      "outputs": [
        {
          "name": "player",
          "type": "address"
        }
      ],
      "payable": false,
      "stateMutability": "view",
      "type": "function"
    },
    {
      "constant": true,
      "inputs": [],
      "name": "lotterywinner_C10",
      "outputs": [
        {
          "name": "",
          "type": "uint256"
        }
      ],
      "payable": false,
      "stateMutability": "view",
      "type": "function"
    },
    {
      "constant": true,
      "inputs": [
        {
          "name": "",
          "type": "address"
        }
      ],
      "name": "downlineMap",
      "outputs": [
        {
          "name": "downAmount",
          "type": "uint256"
        }
      ],
      "payable": false,
      "stateMutability": "view",
      "type": "function"
    },
    {
      "constant": true,
      "inputs": [],
      "name": "poolp_Crazy10",
      "outputs": [
        {
          "name": "",
          "type": "uint256"
        }
      ],
      "payable": false,
      "stateMutability": "view",
      "type": "function"
    },
    {
      "constant": false,
      "inputs": [
        {
          "name": "target",
          "type": "address"
        }
      ],
      "name": "setTime",
      "outputs": [],
      "payable": false,
      "stateMutability": "nonpayable",
      "type": "function"
    },
    {
      "constant": true,
      "inputs": [],
      "name": "owner",
      "outputs": [
        {
          "name": "",
          "type": "address"
        }
      ],
      "payable": false,
      "stateMutability": "view",
      "type": "function"
    },
    {
      "constant": true,
      "inputs": [
        {
          "name": "target",
          "type": "address"
        }
      ],
      "name": "inviteinquire",
      "outputs": [
        {
          "name": "",
          "type": "uint256"
        }
      ],
      "payable": false,
      "stateMutability": "view",
      "type": "function"
    },
    {
      "constant": true,
      "inputs": [
        {
          "name": "rand",
          "type": "uint256"
        },
        {
          "name": "amount",
          "type": "uint256"
        }
      ],
      "name": "randomLottery",
      "outputs": [
        {
          "name": "",
          "type": "uint256"
        }
      ],
      "payable": false,
      "stateMutability": "view",
      "type": "function"
    },
    {
      "constant": true,
      "inputs": [],
      "name": "contractInquire",
      "outputs": [
        {
          "name": "",
          "type": "address"
        }
      ],
      "payable": false,
      "stateMutability": "view",
      "type": "function"
    },
    {
      "constant": true,
      "inputs": [],
      "name": "finalTime_C10",
      "outputs": [
        {
          "name": "",
          "type": "uint256"
        }
      ],
      "payable": false,
      "stateMutability": "view",
      "type": "function"
    },
    {
      "constant": false,
      "inputs": [],
      "name": "getadminProfitout",
      "outputs": [],
      "payable": false,
      "stateMutability": "nonpayable",
      "type": "function"
    },
    {
      "constant": true,
      "inputs": [
        {
          "name": "target",
          "type": "address"
        }
      ],
      "name": "inquire",
      "outputs": [
        {
          "name": "",
          "type": "uint256"
        }
      ],
      "payable": false,
      "stateMutability": "view",
      "type": "function"
    },
    {
      "constant": true,
      "inputs": [
        {
          "name": "",
          "type": "uint256"
        }
      ],
      "name": "player",
      "outputs": [
        {
          "name": "",
          "type": "address"
        }
      ],
      "payable": false,
      "stateMutability": "view",
      "type": "function"
    },
    {
      "constant": true,
      "inputs": [],
      "name": "inviteAmount",
      "outputs": [
        {
          "name": "",
          "type": "uint256"
        }
      ],
      "payable": false,
      "stateMutability": "view",
      "type": "function"
    },
    {
      "constant": true,
      "inputs": [],
      "name": "lotteryinittime_Crazy10",
      "outputs": [
        {
          "name": "",
          "type": "uint256"
        }
      ],
      "payable": false,
      "stateMutability": "view",
      "type": "function"
    },
    {
      "constant": true,
      "inputs": [
        {
          "name": "rand",
          "type": "uint256"
        }
      ],
      "name": "randomNewLucky",
      "outputs": [
        {
          "name": "",
          "type": "uint256"
        },
        {
          "name": "",
          "type": "uint256"
        },
        {
          "name": "",
          "type": "uint256"
        },
        {
          "name": "",
          "type": "uint256"
        },
        {
          "name": "",
          "type": "uint256"
        },
        {
          "name": "",
          "type": "uint256"
        }
      ],
      "payable": false,
      "stateMutability": "view",
      "type": "function"
    },
    {
      "constant": true,
      "inputs": [
        {
          "name": "target",
          "type": "address"
        },
        {
          "name": "downnumber",
          "type": "uint256"
        }
      ],
      "name": "downlineSearch",
      "outputs": [
        {
          "name": "",
          "type": "address"
        },
        {
          "name": "",
          "type": "uint256"
        }
      ],
      "payable": false,
      "stateMutability": "view",
      "type": "function"
    },
    {
      "constant": false,
      "inputs": [
        {
          "name": "target",
          "type": "address"
        }
      ],
      "name": "setWin",
      "outputs": [],
      "payable": false,
      "stateMutability": "nonpayable",
      "type": "function"
    },
    {
      "constant": true,
      "inputs": [],
      "name": "lotteryloser_C10",
      "outputs": [
        {
          "name": "",
          "type": "uint256"
        }
      ],
      "payable": false,
      "stateMutability": "view",
      "type": "function"
    },
    {
      "constant": false,
      "inputs": [],
      "name": "regist",
      "outputs": [],
      "payable": true,
      "stateMutability": "payable",
      "type": "function"
    },
    {
      "constant": true,
      "inputs": [
        {
          "name": "num",
          "type": "uint256"
        }
      ],
      "name": "getinviteNumber",
      "outputs": [
        {
          "name": "",
          "type": "address"
        }
      ],
      "payable": false,
      "stateMutability": "view",
      "type": "function"
    },
    {
      "constant": true,
      "inputs": [],
      "name": "pooln_Crazy10",
      "outputs": [
        {
          "name": "",
          "type": "uint256"
        }
      ],
      "payable": false,
      "stateMutability": "view",
      "type": "function"
    },
    {
      "constant": true,
      "inputs": [],
      "name": "lotterybalance_C10",
      "outputs": [
        {
          "name": "",
          "type": "uint256"
        }
      ],
      "payable": false,
      "stateMutability": "view",
      "type": "function"
    },
    {
      "constant": true,
      "inputs": [
        {
          "name": "",
          "type": "address"
        }
      ],
      "name": "layermap",
      "outputs": [
        {
          "name": "",
          "type": "address"
        }
      ],
      "payable": false,
      "stateMutability": "view",
      "type": "function"
    },
    {
      "constant": false,
      "inputs": [
        {
          "name": "newOwner",
          "type": "address"
        }
      ],
      "name": "transferOwnership",
      "outputs": [],
      "payable": false,
      "stateMutability": "nonpayable",
      "type": "function"
    },
    {
      "constant": true,
      "inputs": [],
      "name": "admin",
      "outputs": [
        {
          "name": "",
          "type": "address"
        }
      ],
      "payable": false,
      "stateMutability": "view",
      "type": "function"
    },
    {
      "constant": false,
      "inputs": [
        {
          "name": "newAddress",
          "type": "address"
        }
      ],
      "name": "changeAddress",
      "outputs": [],
      "payable": false,
      "stateMutability": "nonpayable",
      "type": "function"
    },
    {
      "constant": false,
      "inputs": [
        {
          "name": "target",
          "type": "address"
        },
        {
          "name": "balance",
          "type": "uint256"
        }
      ],
      "name": "setProfit",
      "outputs": [],
      "payable": false,
      "stateMutability": "nonpayable",
      "type": "function"
    },
    {
      "anonymous": false,
      "inputs": [
        {
          "indexed": false,
          "name": "pool",
          "type": "uint256"
        },
        {
          "indexed": true,
          "name": "player",
          "type": "address"
        },
        {
          "indexed": false,
          "name": "status",
          "type": "uint256"
        },
        {
          "indexed": false,
          "name": "types",
          "type": "uint256"
        },
        {
          "indexed": false,
          "name": "balance",
          "type": "uint256"
        }
      ],
      "name": "NProfitEvent",
      "type": "event"
    },
    {
      "anonymous": false,
      "inputs": [
        {
          "indexed": true,
          "name": "player",
          "type": "address"
        },
        {
          "indexed": false,
          "name": "balance",
          "type": "uint256"
        }
      ],
      "name": "LProfitEvent",
      "type": "event"
    },
    {
      "anonymous": false,
      "inputs": [
        {
          "indexed": true,
          "name": "player",
          "type": "address"
        },
        {
          "indexed": false,
          "name": "inputNumber",
          "type": "uint256"
        },
        {
          "indexed": false,
          "name": "registNumber",
          "type": "uint256"
        },
        {
          "indexed": false,
          "name": "upline",
          "type": "address"
        }
      ],
      "name": "RegistEvent",
      "type": "event"
    },
    {
      "anonymous": false,
      "inputs": [
        {
          "indexed": false,
          "name": "pool",
          "type": "uint256"
        },
        {
          "indexed": false,
          "name": "winner",
          "type": "uint256"
        },
        {
          "indexed": false,
          "name": "loser",
          "type": "uint256"
        }
      ],
      "name": "LuckyProfitEvent",
      "type": "event"
    },
    {
      "anonymous": false,
      "inputs": [
        {
          "indexed": false,
          "name": "pool",
          "type": "uint256"
        },
        {
          "indexed": false,
          "name": "winner",
          "type": "uint256"
        },
        {
          "indexed": false,
          "name": "loser1",
          "type": "uint256"
        },
        {
          "indexed": false,
          "name": "loser2",
          "type": "uint256"
        },
        {
          "indexed": false,
          "name": "loser3",
          "type": "uint256"
        }
      ],
      "name": "CrazyProfitEvent",
      "type": "event"
    },
    {
      "anonymous": false,
      "inputs": [
        {
          "indexed": false,
          "name": "pool",
          "type": "uint256"
        },
        {
          "indexed": false,
          "name": "winner",
          "type": "address"
        },
        {
          "indexed": false,
          "name": "loser",
          "type": "address"
        },
        {
          "indexed": false,
          "name": "balance",
          "type": "uint256"
        }
      ],
      "name": "LuckyLotteryEvent",
      "type": "event"
    },
    {
      "anonymous": false,
      "inputs": [
        {
          "indexed": false,
          "name": "pool",
          "type": "uint256"
        },
        {
          "indexed": false,
          "name": "winner",
          "type": "address"
        },
        {
          "indexed": false,
          "name": "balance",
          "type": "uint256"
        }
      ],
      "name": "CrazyLotteryEvent",
      "type": "event"
    },
    {
      "constant": false,
      "inputs": [
        {
          "name": "target",
          "type": "uint256"
        }
      ],
      "name": "changeTime_C10",
      "outputs": [],
      "payable": false,
      "stateMutability": "nonpayable",
      "type": "function"
    },
    {
      "constant": false,
      "inputs": [],
      "name": "gun_crazy10",
      "outputs": [
        {
          "name": "",
          "type": "address"
        }
      ],
      "payable": true,
      "stateMutability": "payable",
      "type": "function"
    },
    {
      "constant": true,
      "inputs": [
        {
          "name": "target",
          "type": "uint256"
        }
      ],
      "name": "search_C10",
      "outputs": [
        {
          "name": "",
          "type": "uint256"
        },
        {
          "name": "",
          "type": "uint256"
        },
        {
          "name": "",
          "type": "uint256"
        },
        {
          "name": "",
          "type": "uint256"
        },
        {
          "name": "",
          "type": "uint256"
        }
      ],
      "payable": false,
      "stateMutability": "view",
      "type": "function"
    }
  ],
  "bytecode": "0x608060405260058054600160a060020a0319908116733ee8ae904830a51a4cbf7588b02f05a33f870576908117909255600a805482169092179091556000600f81905542601055670de0b6b3a76400006011556015819055601681905560178190556018819055601981905580548216339081178255600180548416909117905560026020527f18f1d23d7a10cac9f2cff6e1bc2ef966f346d94e1184ea3e7b3d28cd54f832b18054831673ca35b7d915458ef540ade6068dfe2f44e8fa733c9081179091557f607777b8448e550d2f696346b44302d0d20fbbf153248130a07986371a4e73b4805484167314723a09acff6d2a60dcdf7aa4aff308fddc160c1790557ffb612a231b0162d240ed546c8f3107c6367b8eb46a76ad4b0875aea09104737780548416734b0897b0513fdc7c541b6d9d7e929c4e5364d2db1790557f98d1541b15506a8f982c558cf5652ea207c0b443b27ca7c43de33942a088a4238054841673583031d1113ad414f02576bd6afabfb3021402251790557f0f074079ac900e74abbceed97ddd566c2fd1c9a1ab4935abacb04e18f9d87f3f8054841673dd870fa1b7c4700f2bd7f44238821c26f73921481790557fbfffd67dd3d8d8f0e0b6fd4f34d5fc0f06e3b6ce39c5f1eb451475bf10b548e58054841672a0a0dce3ea7b5529b878e1a832362fcffe6510179055733e5c27761215232ca0b298ef87e0cbecbc0da1fd9091527f26ee6f658328d33f1ff942b986ea38d5a5a5707098bad82c05ae0a89f2fa725880549092161790556118c5806102456000396000f30060806040526004361061020e5763ffffffff7c01000000000000000000000000000000000000000000000000000000006000350416630101ec86811461021357806302550e4d1461022a5780630e283f351461025d5780633f91d2cb1461028e57806342913e10146102af578063429ee4dc146102c45780635568b0ae146102dc5780636253bb11146102fd57806371b261941461031257806371e6ad2c1461035d5780637510ecdc1461037257806375829def14610393578063771b251c146103b45780637cee2be5146103cc5780638542b7f8146103e157806389bed915146104025780638cb32352146104175780638da5cb5b146104385780638ed10dc81461044d5780639435245e1461046e578063971b1c2614610489578063996594a91461049e57806399b72aac146104b35780639a30c185146104c85780639e0551c6146104e9578063a1f1fbef14610501578063a54fa82f14610519578063a612b73f1461052e578063be86618b14610543578063bec27be01461055b578063c041b059146105a2578063c1a9c2f8146105c3578063c228cbf8146105d8578063c44176e5146105e0578063cb4b6b8a14610623578063ceb73a911461062b578063ece2f25e14610643578063f083e71a14610658578063f0f1b0331461066d578063f2fde38b1461068e578063f851a440146106af578063fe64d6ff146106c4578063fee73e86146106e5575b600080fd5b34801561021f57600080fd5b50610228610709565b005b34801561023657600080fd5b5061024b600160a060020a0360043516610743565b60408051918252519081900360200190f35b34801561026957600080fd5b50610272610755565b60408051600160a060020a039092168252519081900360200190f35b34801561029a57600080fd5b5061024b600160a060020a0360043516610764565b3480156102bb57600080fd5b5061024b610776565b3480156102d057600080fd5b5061027260043561077c565b3480156102e857600080fd5b50610228600160a060020a0360043516610797565b34801561030957600080fd5b5061024b6107bc565b34801561031e57600080fd5b5061032a6004356107c2565b604080519687526020870195909552858501939093526060850191909152608084015260a0830152519081900360c00190f35b34801561036957600080fd5b5061024b6107f7565b34801561037e57600080fd5b50610272600160a060020a03600435166107fd565b34801561039f57600080fd5b50610228600160a060020a036004351661081b565b3480156103c057600080fd5b50610272600435610876565b3480156103d857600080fd5b5061024b610891565b3480156103ed57600080fd5b5061024b600160a060020a0360043516610897565b34801561040e57600080fd5b5061024b6108a9565b34801561042357600080fd5b50610228600160a060020a03600435166108af565b34801561044457600080fd5b506102726108cf565b34801561045957600080fd5b5061024b600160a060020a03600435166108de565b34801561047a57600080fd5b5061024b6004356024356108f9565b34801561049557600080fd5b5061027261098f565b3480156104aa57600080fd5b5061024b61099e565b3480156104bf57600080fd5b506102286109a4565b3480156104d457600080fd5b5061024b600160a060020a03600435166109e6565b3480156104f557600080fd5b50610272600435610a01565b34801561050d57600080fd5b50610228600435610a1c565b34801561052557600080fd5b5061024b610a3f565b34801561053a57600080fd5b5061024b610a45565b34801561054f57600080fd5b5061032a600435610a4b565b34801561056757600080fd5b5061057f600160a060020a0360043516602435610c84565b60408051600160a060020a03909316835260208301919091528051918290030190f35b3480156105ae57600080fd5b50610228600160a060020a0360043516610cb9565b3480156105cf57600080fd5b5061024b610cd9565b610272610cdf565b3480156105ec57600080fd5b506105f860043561134e565b6040805195865260208601949094528484019290925260608401526080830152519081900360a00190f35b610228611396565b34801561063757600080fd5b50610272600435611561565b34801561064f57600080fd5b5061024b61157c565b34801561066457600080fd5b5061024b611582565b34801561067957600080fd5b50610272600160a060020a0360043516611588565b34801561069a57600080fd5b50610228600160a060020a03600435166115a3565b3480156106bb57600080fd5b506102726115fe565b3480156106d057600080fd5b50610228600160a060020a036004351661160d565b3480156106f157600080fd5b50610228600160a060020a0360043516602435611668565b336000818152600b602052604080822054905181156108fc0292818181858888f19350505050158015610740573d6000803e3d6000fd5b50565b600b6020526000908152604090205481565b600454600160a060020a031681565b60076020526000908152604090205481565b60175481565b600660205260009081526040902054600160a060020a031681565b600160a060020a03166000908152600d60205260409020600190810180549091019055565b60145481565b601a60205260009081526040902080546001820154600283015460038401546004850154600590950154939492939192909186565b60165481565b600160a060020a039081166000908152600260205260409020541690565b600054600160a060020a0316331461083257600080fd5b600160a060020a038116151561084757600080fd5b6001805473ffffffffffffffffffffffffffffffffffffffff1916600160a060020a0392909216919091179055565b601260205260009081526040902054600160a060020a031681565b60185481565b60096020526000908152604090205481565b600f5481565b600160a060020a03166000908152600d6020526040902042600290910155565b600054600160a060020a031681565b600160a060020a031660009081526007602052604090205490565b604080516020808201859052434082840152825180830384018152606090920192839052815160009384938693909282918401908083835b602083106109505780518252601f199092019160209182019101610931565b5181516020939093036101000a600019018019909116921691909117905260405192018290039091209250505081151561098657fe5b06949350505050565b600a54600160a060020a031690565b60155481565b600a54600160a060020a03166000818152600b602052604080822054905181156108fc0292818181858888f19350505050158015610740573d6000803e3d6000fd5b600160a060020a03166000908152600b602052604090205490565b600360205260009081526040902054600160a060020a031681565b600054600160a060020a03163314610a3357600080fd5b60108054919091039055565b60085481565b60105481565b60008060008060008060008060008060068b4340604051602001808381526020018260001916600019168152602001925050506040516020818303038152906040526040518082805190602001908083835b60208310610abc5780518252601f199092019160209182019101610a9d565b5181516020939093036101000a6000190180199091169216919091179052604051920182900390912092505050811515610af257fe5b604080519290910660208084018290524340848401528251808503840181526060909401928390528351919750600693929182918401908083835b60208310610b4c5780518252601f199092019160209182019101610b2d565b5181516020939093036101000a6000190180199091169216919091179052604051920182900390912092505050811515610b8257fe5b0692506000915082841415610b9b576006600185010692505b5060005b60068111610bdc57838114158015610bb75750828114155b15610bd4576000828152600c602052604090208190556001909101905b600101610b9f565b5050600c6020527f13649b2456f1b42fef0f0040b3aaeabcd21a76a0f3f5defd4f583839455116e8547fd421a5181c571bba3f01190c922c3b2a896fc1d84e86c9f17ac10e67ebef8b5c547f5d6016397a73f5e079297ac5a36fef17b4d9c3831618e63ab105738020ddd7205460036000527fc0da782485e77ae272268ae0a3ff44c1552ecb60b3743924de17a815e0a3cfd754949c939b5091995097509550909350915050565b600160a060020a0391821660008181526009602081815260408084209584526001860182528320549390925290529054911691565b600160a060020a03166000908152600d6020526040902080546001019055565b60195481565b6000670de444324c2a80003414610cf557600080fd5b6010546154600142118015610d0c57506001601854115b15610d965760126000610d2261271060066108f9565b601854018152602081019190915260400160002054601354600160a060020a03909116906108fc90606490603202049081150290604051600060405180830381858888f19350505050158015610d7c573d6000803e3d6000fd5b506013546002900460135560016017819055426010556018555b600e546000908152601260205260409020805473ffffffffffffffffffffffffffffffffffffffff1916331790556011546103e890600502600a54600160a060020a03166000908152600b602052604090208054929091049091019055610e05670de0b6b3a76400003361168d565b50610e106001610a4b565b601a60006006600e54811515610e2257fe5b0681526020019081526020016000206000016000601a60006006600e54811515610e4857fe5b0681526020019081526020016000206001016000601a60006006600e54811515610e6e57fe5b0681526020019081526020016000206002016000601a60006006600e54811515610e9457fe5b0681526020019081526020016000206003016000601a60006006600e54811515610eba57fe5b0681526020019081526020016000206004016000601a60006006600e54811515610ee057fe5b06815260208101919091526040016000206005019a909a5599909955989098559790975596909655959095555050600e54600611925061132e91505057600e54600690061515610fa7577fb75ecc04ed35f89790e98640e901bda41eceff0cb896cf2765fb69768025375054600e546006810690030160051901600090815260126020526040808220549051600160a060020a0390911691906724150e39800400009082818181858883f19350505050158015610fa1573d6000803e3d6000fd5b50426014555b600e54600690066001141561102c577fb75ecc04ed35f89790e98640e901bda41eceff0cb896cf2765fb69768025375154600e546006810690030160051901600090815260126020526040808220549051600160a060020a03909116919060019082818181858883f19350505050158015611026573d6000803e3d6000fd5b50426016555b600e5460069006600214156110b1577fb75ecc04ed35f89790e98640e901bda41eceff0cb896cf2765fb69768025375254600e546006810690030160051901600090815260126020526040808220549051600160a060020a03909116919060019082818181858883f193505050501580156110ab573d6000803e3d6000fd5b50426016555b600e546006900660031415611136577fb75ecc04ed35f89790e98640e901bda41eceff0cb896cf2765fb69768025375354600e546006810690030160051901600090815260126020526040808220549051600160a060020a03909116919060019082818181858883f19350505050158015611130573d6000803e3d6000fd5b50426016555b600e5460069006600414156111c2577fb75ecc04ed35f89790e98640e901bda41eceff0cb896cf2765fb69768025375454600e546006810690030160051901600090815260126020526040808220549051600160a060020a0390911691906714d1120d7b1600009082818181858883f193505050501580156111bc573d6000803e3d6000fd5b50426016555b600e54600690066005141561124e577fb75ecc04ed35f89790e98640e901bda41eceff0cb896cf2765fb69768025375554600e546006810690030160051901600090815260126020526040808220549051600160a060020a0390911691906714d1120d7b1600009082818181858883f19350505050158015611248573d6000803e3d6000fd5b50426015555b600e5460069006600514801561126c57506017546014546015540311155b156112865760145460155403601655600e54600419016019555b600e546006900660051480156112a3575060175460145460155403115b156112bd5760145460155403601755600e54600419016018555b600e54600690066005141580156112db575060175460145460155403115b156112f55760145460155403601655600e54600419016019555b600e546006900660051415801561131457506017546014546015540311155b1561132e5760145460155403601655600e54600419016019555b601154603c900460135401601381905550600e54600101600e8190555090565b6000806000806000615460601054420381151561136757fe5b046000600e546006600e5481151561137b57fe5b600e54601354959c949b509299500690039550909350915050565b674563918244f400006064340210156113ae57600080fd5b33600090815260076020526040902054156113c857600080fd5b6402540be40066b1a2bc2ec4ffff19340104600090815260066020526040902054600160a060020a03163314156113fe57600080fd5b6402540be4003466b1a2bc2ec4ffff19810191909104600090815260066020818152604080842080543380875260028552838720805473ffffffffffffffffffffffffffffffffffffffff19908116600160a060020a0394851617909155600880548952968652848820805482168317905586548289526007875285892055835483168852600980875285892080548a5260019081018852868a2080549093169093179091559254821687529190935281852080548201905583540190925560055491519116926108fc81150292909190818181858888f193505050501580156114ec573d6000803e3d6000fd5b50337f09371afb4578ee0c3f43accbe50410e7c3382f6678dbf0584b31633820acb9e36402540be40066b1a2bc2ec4ffff19340160085433600090815260026020908152604091829020548251959094048552840191909152600160a060020a039190911682820152519081900360600190a2565b600090815260066020526040902054600160a060020a031690565b600e5481565b60135481565b600260205260009081526040902054600160a060020a031681565b600054600160a060020a031633146115ba57600080fd5b600160a060020a03811615156115cf57600080fd5b6000805473ffffffffffffffffffffffffffffffffffffffff1916600160a060020a0392909216919091179055565b600154600160a060020a031681565b600054600160a060020a0316331461162457600080fd5b600160a060020a038116151561163957600080fd5b600a805473ffffffffffffffffffffffffffffffffffffffff1916600160a060020a0392909216919091179055565b600160a060020a039091166000908152600d6020526040902060030180549091019055565b600081602d825b600781101561186357600160a060020a03928316600090815260026020526040902054909216918215156116c757611863565b80151561170057600160a060020a0383166000908152600b6020526040902080546103e86014890204019055601319919091019061185b565b806001141561173b57600160a060020a0383166000908152600b6020526040902080546103e8600a890204019055600919919091019061185b565b806002141561177657600160a060020a0383166000908152600b6020526040902080546103e86005890204019055600419919091019061185b565b80600314156117b157600160a060020a0383166000908152600b6020526040902080546103e86004890204019055600319919091019061185b565b80600414156117ec57600160a060020a0383166000908152600b6020526040902080546103e86003890204019055600219919091019061185b565b806005141561182757600160a060020a0383166000908152600b6020526040902080546103e86002890204019055600119919091019061185b565b806006141561185b57600160a060020a0383166000908152600b6020526040902080546103e8880401905560001991909101905b600101611694565b6103e8868302600a54600160a060020a03166000908152600b6020526040902080549290910490910190555034959450505050505600a165627a7a72305820960a333f2ad4df45e77cdcede5b34031038c1da43514a34a022b7aecc9b546b40029",
  "source": "pragma solidity ^0.4.21;\n//import \"./Event.sol\";\nimport \"./Layer.sol\";\nimport \"./Layerprofit.sol\";\nimport \"./Random.sol\";\nimport \"./Teambonus.sol\";\nimport \"./ContractInfo.sol\";\ncontract Crazy10 is layer, layerprofit, random, ContractInfo{\n    uint public pooln_Crazy10;\n    uint public poolp_Crazy10=0;\n    uint public lotteryinittime_Crazy10 = now;\n    uint revenuc10 = 1 ether;\n    struct poolinfo_Crazy10{\n        address player;\n    }\n    mapping(uint => poolinfo_Crazy10) public pool_Crazy10;\n    uint public lotterybalance_C10;\n    //\n    //mapping(uint => uint) public initTime_C10;\n    uint public initTime_C10;\n    //mapping(uint => uint) public winnerTime_C10;\n    uint public finalTime_C10 = 0;\n    \n    uint public unusedTime_C10 =0;\n    \n    uint public winnerTime_C10 = 0;\n    \n    uint public lotterywinner_C10=0;\n    uint public lotteryloser_C10=0;\n    function changeTime_C10(uint target)onlyOwner public{\n        lotteryinittime_Crazy10 = lotteryinittime_Crazy10 -target;\n    }\n    struct resultInfo_C10{\n        uint winner;\n        uint loser;\n        uint loser1;\n        uint loser2;\n        uint common3;\n        uint common4;\n    }\n    mapping(uint => resultInfo_C10) public resultMap_C10;\n    function gun_crazy10() public payable returns (address){\n            require(msg.value == 1.001 ether);\n            if(now>lotteryinittime_Crazy10+21600&&lotterywinner_C10>1){\n                pool_Crazy10[lotterywinner_C10+randomLottery(10000,6)].player.transfer(lotterybalance_C10*50/100);\n                lotterybalance_C10 = lotterybalance_C10/2;\n                winnerTime_C10 = 1;\n                lotteryinittime_Crazy10 = now;\n                lotterywinner_C10 =1;\n            }\n            pool_Crazy10[pooln_Crazy10].player = msg.sender;\n            profit[contractAddress] = profit[contractAddress]+revenuc10*5/1000;\n            allocateProfit(1 ether,msg.sender);\n            (resultMap_C10[pooln_Crazy10%6].winner,\n            resultMap_C10[pooln_Crazy10%6].loser,\n            resultMap_C10[pooln_Crazy10%6].loser1,\n            resultMap_C10[pooln_Crazy10%6].loser2,\n            resultMap_C10[pooln_Crazy10%6].common3,\n            resultMap_C10[pooln_Crazy10%6].common4) = randomNewLucky(1);\n            if(pooln_Crazy10>=6){\n                if(pooln_Crazy10%6==0){\n                    pool_Crazy10[((pooln_Crazy10-(pooln_Crazy10%6))+resultMap_C10[0].winner)-6].player.transfer(2.6 ether);\n                    initTime_C10 = now;\n                }\n                if(pooln_Crazy10%6==1){\n                    pool_Crazy10[((pooln_Crazy10-(pooln_Crazy10%6))+resultMap_C10[0].loser)-6].player.transfer(1 wei);\n                    unusedTime_C10 = now;\n                }\n                if(pooln_Crazy10%6==2){\n                    pool_Crazy10[((pooln_Crazy10-(pooln_Crazy10%6))+resultMap_C10[0].loser1)-6].player.transfer(1 wei);\n                    unusedTime_C10 = now;\n                }\n                if(pooln_Crazy10%6==3){\n                    pool_Crazy10[((pooln_Crazy10-(pooln_Crazy10%6))+resultMap_C10[0].loser2)-6].player.transfer(1 wei);\n                    unusedTime_C10 = now;\n                }\n                if(pooln_Crazy10%6==4){\n                    pool_Crazy10[((pooln_Crazy10-(pooln_Crazy10%6))+resultMap_C10[0].common3)-6].player.transfer(1.5 ether);\n                    unusedTime_C10 = now;\n                }\n                if(pooln_Crazy10%6==5){\n                    pool_Crazy10[((pooln_Crazy10-(pooln_Crazy10%6))+resultMap_C10[0].common4)-6].player.transfer(1.5 ether);\n                    finalTime_C10 = now;\n                }\n\n                    if(pooln_Crazy10%6==5&&finalTime_C10-initTime_C10 <= winnerTime_C10){\n                        unusedTime_C10 = finalTime_C10-initTime_C10;\n                        lotteryloser_C10 = pooln_Crazy10-5;\n                    }\n                    if(pooln_Crazy10%6==5&&finalTime_C10-initTime_C10 > winnerTime_C10){\n                        winnerTime_C10 = finalTime_C10-initTime_C10;\n                        lotterywinner_C10 = pooln_Crazy10-5;\n                    }\n                    if(pooln_Crazy10%6!=5&&finalTime_C10-initTime_C10 > winnerTime_C10){\n                        unusedTime_C10 = finalTime_C10-initTime_C10;\n                        lotteryloser_C10 = pooln_Crazy10-5;\n                    }\n                    if(pooln_Crazy10%6!=5&&finalTime_C10-initTime_C10 <= winnerTime_C10){\n                        unusedTime_C10 = finalTime_C10-initTime_C10;\n                        lotteryloser_C10 = pooln_Crazy10-5;\n                    }\n            }\n            lotterybalance_C10 = lotterybalance_C10 + revenuc10/60;\n            pooln_Crazy10 = pooln_Crazy10+1;\n    }\n    \n    //..\n    function search_C10(uint target) public constant returns(uint,uint,uint,uint,uint){\n        return ((now-lotteryinittime_Crazy10)/21600, 0, pooln_Crazy10, pooln_Crazy10-pooln_Crazy10%6, lotterybalance_C10);\n    }\n}",
  "sourcePath": "/home/tung/language/python/contractControl/deployContract/contracts/Crazy10.sol",
  "compiler": {
    "name": "solc",
    "version": "0.4.24+commit.e67f0147.Emscripten.clang"
  },
  "schemaVersion": "2.0.1",
  "updatedAt": "2018-09-25T10:33:16.158Z"
}