{
  "contractName": "Crazy1",
  "abi": [
    {
      "constant": false,
      "inputs": [],
      "name": "getProfitout",
      "outputs": [],
      "payable": false,
      "stateMutability": "nonpayable",
      "type": "function"
    },
    {
      "constant": true,
      "inputs": [
        {
          "name": "",
          "type": "address"
        }
      ],
      "name": "profit",
      "outputs": [
        {
          "name": "",
          "type": "uint256"
        }
      ],
      "payable": false,
      "stateMutability": "view",
      "type": "function"
    },
    {
      "constant": true,
      "inputs": [],
      "name": "layercontract",
      "outputs": [
        {
          "name": "",
          "type": "address"
        }
      ],
      "payable": false,
      "stateMutability": "view",
      "type": "function"
    },
    {
      "constant": true,
      "inputs": [],
      "name": "winnerTime_C1",
      "outputs": [
        {
          "name": "",
          "type": "uint256"
        }
      ],
      "payable": false,
      "stateMutability": "view",
      "type": "function"
    },
    {
      "constant": true,
      "inputs": [],
      "name": "lotteryloser_C1",
      "outputs": [
        {
          "name": "",
          "type": "uint256"
        }
      ],
      "payable": false,
      "stateMutability": "view",
      "type": "function"
    },
    {
      "constant": true,
      "inputs": [
        {
          "name": "",
          "type": "address"
        }
      ],
      "name": "inviteInquire",
      "outputs": [
        {
          "name": "",
          "type": "uint256"
        }
      ],
      "payable": false,
      "stateMutability": "view",
      "type": "function"
    },
    {
      "constant": true,
      "inputs": [
        {
          "name": "",
          "type": "uint256"
        }
      ],
      "name": "inviteNumber",
      "outputs": [
        {
          "name": "",
          "type": "address"
        }
      ],
      "payable": false,
      "stateMutability": "view",
      "type": "function"
    },
    {
      "constant": true,
      "inputs": [],
      "name": "pooln_Crazy1",
      "outputs": [
        {
          "name": "",
          "type": "uint256"
        }
      ],
      "payable": false,
      "stateMutability": "view",
      "type": "function"
    },
    {
      "constant": true,
      "inputs": [],
      "name": "unusedTime_C1",
      "outputs": [
        {
          "name": "",
          "type": "uint256"
        }
      ],
      "payable": false,
      "stateMutability": "view",
      "type": "function"
    },
    {
      "constant": false,
      "inputs": [
        {
          "name": "target",
          "type": "address"
        }
      ],
      "name": "setLose",
      "outputs": [],
      "payable": false,
      "stateMutability": "nonpayable",
      "type": "function"
    },
    {
      "constant": true,
      "inputs": [
        {
          "name": "",
          "type": "uint256"
        }
      ],
      "name": "pool_Crazy1",
      "outputs": [
        {
          "name": "player",
          "type": "address"
        }
      ],
      "payable": false,
      "stateMutability": "view",
      "type": "function"
    },
    {
      "constant": true,
      "inputs": [],
      "name": "finalTime_C1",
      "outputs": [
        {
          "name": "",
          "type": "uint256"
        }
      ],
      "payable": false,
      "stateMutability": "view",
      "type": "function"
    },
    {
      "constant": true,
      "inputs": [
        {
          "name": "target",
          "type": "address"
        }
      ],
      "name": "getlayer",
      "outputs": [
        {
          "name": "",
          "type": "address"
        }
      ],
      "payable": false,
      "stateMutability": "view",
      "type": "function"
    },
    {
      "constant": false,
      "inputs": [
        {
          "name": "newOwner",
          "type": "address"
        }
      ],
      "name": "transferAdmin",
      "outputs": [],
      "payable": false,
      "stateMutability": "nonpayable",
      "type": "function"
    },
    {
      "constant": true,
      "inputs": [],
      "name": "lotterywinner_C1",
      "outputs": [
        {
          "name": "",
          "type": "uint256"
        }
      ],
      "payable": false,
      "stateMutability": "view",
      "type": "function"
    },
    {
      "constant": true,
      "inputs": [
        {
          "name": "",
          "type": "address"
        }
      ],
      "name": "downlineMap",
      "outputs": [
        {
          "name": "downAmount",
          "type": "uint256"
        }
      ],
      "payable": false,
      "stateMutability": "view",
      "type": "function"
    },
    {
      "constant": false,
      "inputs": [
        {
          "name": "target",
          "type": "address"
        }
      ],
      "name": "setTime",
      "outputs": [],
      "payable": false,
      "stateMutability": "nonpayable",
      "type": "function"
    },
    {
      "constant": true,
      "inputs": [],
      "name": "owner",
      "outputs": [
        {
          "name": "",
          "type": "address"
        }
      ],
      "payable": false,
      "stateMutability": "view",
      "type": "function"
    },
    {
      "constant": true,
      "inputs": [
        {
          "name": "target",
          "type": "address"
        }
      ],
      "name": "inviteinquire",
      "outputs": [
        {
          "name": "",
          "type": "uint256"
        }
      ],
      "payable": false,
      "stateMutability": "view",
      "type": "function"
    },
    {
      "constant": true,
      "inputs": [
        {
          "name": "",
          "type": "uint256"
        }
      ],
      "name": "resultMap_C1",
      "outputs": [
        {
          "name": "winner",
          "type": "uint256"
        },
        {
          "name": "loser",
          "type": "uint256"
        },
        {
          "name": "loser1",
          "type": "uint256"
        },
        {
          "name": "loser2",
          "type": "uint256"
        },
        {
          "name": "common3",
          "type": "uint256"
        },
        {
          "name": "common4",
          "type": "uint256"
        }
      ],
      "payable": false,
      "stateMutability": "view",
      "type": "function"
    },
    {
      "constant": true,
      "inputs": [
        {
          "name": "rand",
          "type": "uint256"
        },
        {
          "name": "amount",
          "type": "uint256"
        }
      ],
      "name": "randomLottery",
      "outputs": [
        {
          "name": "",
          "type": "uint256"
        }
      ],
      "payable": false,
      "stateMutability": "view",
      "type": "function"
    },
    {
      "constant": true,
      "inputs": [],
      "name": "contractInquire",
      "outputs": [
        {
          "name": "",
          "type": "address"
        }
      ],
      "payable": false,
      "stateMutability": "view",
      "type": "function"
    },
    {
      "constant": false,
      "inputs": [],
      "name": "getadminProfitout",
      "outputs": [],
      "payable": false,
      "stateMutability": "nonpayable",
      "type": "function"
    },
    {
      "constant": true,
      "inputs": [
        {
          "name": "target",
          "type": "address"
        }
      ],
      "name": "inquire",
      "outputs": [
        {
          "name": "",
          "type": "uint256"
        }
      ],
      "payable": false,
      "stateMutability": "view",
      "type": "function"
    },
    {
      "constant": true,
      "inputs": [
        {
          "name": "",
          "type": "uint256"
        }
      ],
      "name": "player",
      "outputs": [
        {
          "name": "",
          "type": "address"
        }
      ],
      "payable": false,
      "stateMutability": "view",
      "type": "function"
    },
    {
      "constant": true,
      "inputs": [],
      "name": "inviteAmount",
      "outputs": [
        {
          "name": "",
          "type": "uint256"
        }
      ],
      "payable": false,
      "stateMutability": "view",
      "type": "function"
    },
    {
      "constant": true,
      "inputs": [
        {
          "name": "rand",
          "type": "uint256"
        }
      ],
      "name": "randomNewLucky",
      "outputs": [
        {
          "name": "",
          "type": "uint256"
        },
        {
          "name": "",
          "type": "uint256"
        },
        {
          "name": "",
          "type": "uint256"
        },
        {
          "name": "",
          "type": "uint256"
        },
        {
          "name": "",
          "type": "uint256"
        },
        {
          "name": "",
          "type": "uint256"
        }
      ],
      "payable": false,
      "stateMutability": "view",
      "type": "function"
    },
    {
      "constant": true,
      "inputs": [
        {
          "name": "target",
          "type": "address"
        },
        {
          "name": "downnumber",
          "type": "uint256"
        }
      ],
      "name": "downlineSearch",
      "outputs": [
        {
          "name": "",
          "type": "address"
        },
        {
          "name": "",
          "type": "uint256"
        }
      ],
      "payable": false,
      "stateMutability": "view",
      "type": "function"
    },
    {
      "constant": false,
      "inputs": [
        {
          "name": "target",
          "type": "address"
        }
      ],
      "name": "setWin",
      "outputs": [],
      "payable": false,
      "stateMutability": "nonpayable",
      "type": "function"
    },
    {
      "constant": true,
      "inputs": [],
      "name": "lotteryinittime_Crazy1",
      "outputs": [
        {
          "name": "",
          "type": "uint256"
        }
      ],
      "payable": false,
      "stateMutability": "view",
      "type": "function"
    },
    {
      "constant": true,
      "inputs": [],
      "name": "poolp_Crazy1",
      "outputs": [
        {
          "name": "",
          "type": "uint256"
        }
      ],
      "payable": false,
      "stateMutability": "view",
      "type": "function"
    },
    {
      "constant": false,
      "inputs": [],
      "name": "regist",
      "outputs": [],
      "payable": true,
      "stateMutability": "payable",
      "type": "function"
    },
    {
      "constant": true,
      "inputs": [
        {
          "name": "num",
          "type": "uint256"
        }
      ],
      "name": "getinviteNumber",
      "outputs": [
        {
          "name": "",
          "type": "address"
        }
      ],
      "payable": false,
      "stateMutability": "view",
      "type": "function"
    },
    {
      "constant": true,
      "inputs": [],
      "name": "initTime_C1",
      "outputs": [
        {
          "name": "",
          "type": "uint256"
        }
      ],
      "payable": false,
      "stateMutability": "view",
      "type": "function"
    },
    {
      "constant": true,
      "inputs": [
        {
          "name": "",
          "type": "address"
        }
      ],
      "name": "layermap",
      "outputs": [
        {
          "name": "",
          "type": "address"
        }
      ],
      "payable": false,
      "stateMutability": "view",
      "type": "function"
    },
    {
      "constant": false,
      "inputs": [
        {
          "name": "newOwner",
          "type": "address"
        }
      ],
      "name": "transferOwnership",
      "outputs": [],
      "payable": false,
      "stateMutability": "nonpayable",
      "type": "function"
    },
    {
      "constant": true,
      "inputs": [],
      "name": "lotterybalance_C1",
      "outputs": [
        {
          "name": "",
          "type": "uint256"
        }
      ],
      "payable": false,
      "stateMutability": "view",
      "type": "function"
    },
    {
      "constant": true,
      "inputs": [],
      "name": "admin",
      "outputs": [
        {
          "name": "",
          "type": "address"
        }
      ],
      "payable": false,
      "stateMutability": "view",
      "type": "function"
    },
    {
      "constant": false,
      "inputs": [
        {
          "name": "newAddress",
          "type": "address"
        }
      ],
      "name": "changeAddress",
      "outputs": [],
      "payable": false,
      "stateMutability": "nonpayable",
      "type": "function"
    },
    {
      "constant": false,
      "inputs": [
        {
          "name": "target",
          "type": "address"
        },
        {
          "name": "balance",
          "type": "uint256"
        }
      ],
      "name": "setProfit",
      "outputs": [],
      "payable": false,
      "stateMutability": "nonpayable",
      "type": "function"
    },
    {
      "anonymous": false,
      "inputs": [
        {
          "indexed": false,
          "name": "pool",
          "type": "uint256"
        },
        {
          "indexed": true,
          "name": "player",
          "type": "address"
        },
        {
          "indexed": false,
          "name": "status",
          "type": "uint256"
        },
        {
          "indexed": false,
          "name": "types",
          "type": "uint256"
        },
        {
          "indexed": false,
          "name": "balance",
          "type": "uint256"
        }
      ],
      "name": "NProfitEvent",
      "type": "event"
    },
    {
      "anonymous": false,
      "inputs": [
        {
          "indexed": true,
          "name": "player",
          "type": "address"
        },
        {
          "indexed": false,
          "name": "balance",
          "type": "uint256"
        }
      ],
      "name": "LProfitEvent",
      "type": "event"
    },
    {
      "anonymous": false,
      "inputs": [
        {
          "indexed": true,
          "name": "player",
          "type": "address"
        },
        {
          "indexed": false,
          "name": "inputNumber",
          "type": "uint256"
        },
        {
          "indexed": false,
          "name": "registNumber",
          "type": "uint256"
        },
        {
          "indexed": false,
          "name": "upline",
          "type": "address"
        }
      ],
      "name": "RegistEvent",
      "type": "event"
    },
    {
      "anonymous": false,
      "inputs": [
        {
          "indexed": false,
          "name": "pool",
          "type": "uint256"
        },
        {
          "indexed": false,
          "name": "winner",
          "type": "uint256"
        },
        {
          "indexed": false,
          "name": "loser",
          "type": "uint256"
        }
      ],
      "name": "LuckyProfitEvent",
      "type": "event"
    },
    {
      "anonymous": false,
      "inputs": [
        {
          "indexed": false,
          "name": "pool",
          "type": "uint256"
        },
        {
          "indexed": false,
          "name": "winner",
          "type": "uint256"
        },
        {
          "indexed": false,
          "name": "loser1",
          "type": "uint256"
        },
        {
          "indexed": false,
          "name": "loser2",
          "type": "uint256"
        },
        {
          "indexed": false,
          "name": "loser3",
          "type": "uint256"
        }
      ],
      "name": "CrazyProfitEvent",
      "type": "event"
    },
    {
      "anonymous": false,
      "inputs": [
        {
          "indexed": false,
          "name": "pool",
          "type": "uint256"
        },
        {
          "indexed": false,
          "name": "winner",
          "type": "address"
        },
        {
          "indexed": false,
          "name": "loser",
          "type": "address"
        },
        {
          "indexed": false,
          "name": "balance",
          "type": "uint256"
        }
      ],
      "name": "LuckyLotteryEvent",
      "type": "event"
    },
    {
      "anonymous": false,
      "inputs": [
        {
          "indexed": false,
          "name": "pool",
          "type": "uint256"
        },
        {
          "indexed": false,
          "name": "winner",
          "type": "address"
        },
        {
          "indexed": false,
          "name": "balance",
          "type": "uint256"
        }
      ],
      "name": "CrazyLotteryEvent",
      "type": "event"
    },
    {
      "constant": false,
      "inputs": [
        {
          "name": "target",
          "type": "uint256"
        }
      ],
      "name": "changeTime_C1",
      "outputs": [],
      "payable": false,
      "stateMutability": "nonpayable",
      "type": "function"
    },
    {
      "constant": false,
      "inputs": [],
      "name": "gun_crazy1",
      "outputs": [
        {
          "name": "",
          "type": "address"
        }
      ],
      "payable": true,
      "stateMutability": "payable",
      "type": "function"
    },
    {
      "constant": true,
      "inputs": [
        {
          "name": "target",
          "type": "uint256"
        }
      ],
      "name": "search_C1",
      "outputs": [
        {
          "name": "",
          "type": "uint256"
        },
        {
          "name": "",
          "type": "uint256"
        },
        {
          "name": "",
          "type": "uint256"
        },
        {
          "name": "",
          "type": "uint256"
        },
        {
          "name": "",
          "type": "uint256"
        }
      ],
      "payable": false,
      "stateMutability": "view",
      "type": "function"
    }
  ],
  "bytecode": "0x6080604052733ee8ae904830a51a4cbf7588b02f05a33f870576600560006101000a81548173ffffffffffffffffffffffffffffffffffffffff021916908373ffffffffffffffffffffffffffffffffffffffff160217905550733ee8ae904830a51a4cbf7588b02f05a33f870576600a60006101000a81548173ffffffffffffffffffffffffffffffffffffffff021916908373ffffffffffffffffffffffffffffffffffffffff1602179055506000600f554260105567016345785d8a000060115560006015556000601655600060175560006018556000601955336000806101000a81548173ffffffffffffffffffffffffffffffffffffffff021916908373ffffffffffffffffffffffffffffffffffffffff16021790555033600160006101000a81548173ffffffffffffffffffffffffffffffffffffffff021916908373ffffffffffffffffffffffffffffffffffffffff16021790555073ca35b7d915458ef540ade6068dfe2f44e8fa733c600260007347ed2c6cae34fdb231b82ec8d666646085ea3a9273ffffffffffffffffffffffffffffffffffffffff1673ffffffffffffffffffffffffffffffffffffffff16815260200190815260200160002060006101000a81548173ffffffffffffffffffffffffffffffffffffffff021916908373ffffffffffffffffffffffffffffffffffffffff1602179055507314723a09acff6d2a60dcdf7aa4aff308fddc160c6002600073ca35b7d915458ef540ade6068dfe2f44e8fa733c73ffffffffffffffffffffffffffffffffffffffff16815260200190815260200160002060006101000a81548173ffffffffffffffffffffffffffffffffffffffff021916908373ffffffffffffffffffffffffffffffffffffffff160217905550734b0897b0513fdc7c541b6d9d7e929c4e5364d2db600260007314723a09acff6d2a60dcdf7aa4aff308fddc160c73ffffffffffffffffffffffffffffffffffffffff16815260200190815260200160002060006101000a81548173ffffffffffffffffffffffffffffffffffffffff021916908373ffffffffffffffffffffffffffffffffffffffff16021790555073583031d1113ad414f02576bd6afabfb30214022560026000734b0897b0513fdc7c541b6d9d7e929c4e5364d2db73ffffffffffffffffffffffffffffffffffffffff16815260200190815260200160002060006101000a81548173ffffffffffffffffffffffffffffffffffffffff021916908373ffffffffffffffffffffffffffffffffffffffff16021790555073dd870fa1b7c4700f2bd7f44238821c26f73921486002600073583031d1113ad414f02576bd6afabfb30214022573ffffffffffffffffffffffffffffffffffffffff16815260200190815260200160002060006101000a81548173ffffffffffffffffffffffffffffffffffffffff021916908373ffffffffffffffffffffffffffffffffffffffff16021790555072a0a0dce3ea7b5529b878e1a832362fcffe65106002600073dd870fa1b7c4700f2bd7f44238821c26f739214873ffffffffffffffffffffffffffffffffffffffff16815260200190815260200160002060006101000a81548173ffffffffffffffffffffffffffffffffffffffff021916908373ffffffffffffffffffffffffffffffffffffffff16021790555073ca35b7d915458ef540ade6068dfe2f44e8fa733c60026000733e5c27761215232ca0b298ef87e0cbecbc0da1fd73ffffffffffffffffffffffffffffffffffffffff16815260200190815260200160002060006101000a81548173ffffffffffffffffffffffffffffffffffffffff021916908373ffffffffffffffffffffffffffffffffffffffff160217905550613245806105716000396000f30060806040526004361061020e576000357c0100000000000000000000000000000000000000000000000000000000900463ffffffff1680624a7fe4146102135780630101ec861461024057806302550e4d146102575780630e283f35146102ae578063240e7237146103055780632507c31c1461033057806333800f371461035b5780633f91d2cb146103a5578063429ee4dc146103fc5780634bec36e01461046957806352d2ec75146104945780635568b0ae146104bf5780636c8f2ade146105025780636f6851171461056f5780637510ecdc1461059a57806375829def1461061d5780637c642400146106605780638542b7f81461068b5780638cb32352146106e25780638da5cb5b146107255780638ed10dc81461077c5780639403c160146107d35780639435245e14610837578063971b1c261461088257806399b72aac146108d95780639a30c185146108f05780639e0551c614610947578063a54fa82f146109b4578063b78eafe6146109df578063be86618b14610a3c578063bec27be014610aa0578063c041b05914610b34578063c0b259ca14610b77578063c4fa52b314610ba2578063cb4b6b8a14610bcd578063ceb73a9114610bd7578063d55c38fc14610c44578063f0f1b03314610c6f578063f2fde38b14610cf2578063f406951414610d35578063f851a44014610d60578063fe64d6ff14610db7578063fee73e8614610dfa575b600080fd5b34801561021f57600080fd5b5061023e60048036038101908080359060200190929190505050610e47565b005b34801561024c57600080fd5b50610255610eb0565b005b34801561026357600080fd5b50610298600480360381019080803573ffffffffffffffffffffffffffffffffffffffff169060200190929190505050610f38565b6040518082815260200191505060405180910390f35b3480156102ba57600080fd5b506102c3610f50565b604051808273ffffffffffffffffffffffffffffffffffffffff1673ffffffffffffffffffffffffffffffffffffffff16815260200191505060405180910390f35b34801561031157600080fd5b5061031a610f76565b6040518082815260200191505060405180910390f35b34801561033c57600080fd5b50610345610f7c565b6040518082815260200191505060405180910390f35b610363610f82565b604051808273ffffffffffffffffffffffffffffffffffffffff1673ffffffffffffffffffffffffffffffffffffffff16815260200191505060405180910390f35b3480156103b157600080fd5b506103e6600480360381019080803573ffffffffffffffffffffffffffffffffffffffff1690602001909291905050506118f2565b6040518082815260200191505060405180910390f35b34801561040857600080fd5b506104276004803603810190808035906020019092919050505061190a565b604051808273ffffffffffffffffffffffffffffffffffffffff1673ffffffffffffffffffffffffffffffffffffffff16815260200191505060405180910390f35b34801561047557600080fd5b5061047e61193d565b6040518082815260200191505060405180910390f35b3480156104a057600080fd5b506104a9611943565b6040518082815260200191505060405180910390f35b3480156104cb57600080fd5b50610500600480360381019080803573ffffffffffffffffffffffffffffffffffffffff169060200190929190505050611949565b005b34801561050e57600080fd5b5061052d600480360381019080803590602001909291905050506119d8565b604051808273ffffffffffffffffffffffffffffffffffffffff1673ffffffffffffffffffffffffffffffffffffffff16815260200191505060405180910390f35b34801561057b57600080fd5b50610584611a16565b6040518082815260200191505060405180910390f35b3480156105a657600080fd5b506105db600480360381019080803573ffffffffffffffffffffffffffffffffffffffff169060200190929190505050611a1c565b604051808273ffffffffffffffffffffffffffffffffffffffff1673ffffffffffffffffffffffffffffffffffffffff16815260200191505060405180910390f35b34801561062957600080fd5b5061065e600480360381019080803573ffffffffffffffffffffffffffffffffffffffff169060200190929190505050611a85565b005b34801561066c57600080fd5b50610675611b60565b6040518082815260200191505060405180910390f35b34801561069757600080fd5b506106cc600480360381019080803573ffffffffffffffffffffffffffffffffffffffff169060200190929190505050611b66565b6040518082815260200191505060405180910390f35b3480156106ee57600080fd5b50610723600480360381019080803573ffffffffffffffffffffffffffffffffffffffff169060200190929190505050611b84565b005b34801561073157600080fd5b5061073a611bce565b604051808273ffffffffffffffffffffffffffffffffffffffff1673ffffffffffffffffffffffffffffffffffffffff16815260200191505060405180910390f35b34801561078857600080fd5b506107bd600480360381019080803573ffffffffffffffffffffffffffffffffffffffff169060200190929190505050611bf3565b6040518082815260200191505060405180910390f35b3480156107df57600080fd5b506107fe60048036038101908080359060200190929190505050611c3c565b60405180878152602001868152602001858152602001848152602001838152602001828152602001965050505050505060405180910390f35b34801561084357600080fd5b5061086c6004803603810190808035906020019092919080359060200190929190505050611c78565b6040518082815260200191505060405180910390f35b34801561088e57600080fd5b50610897611d29565b604051808273ffffffffffffffffffffffffffffffffffffffff1673ffffffffffffffffffffffffffffffffffffffff16815260200191505060405180910390f35b3480156108e557600080fd5b506108ee611d53565b005b3480156108fc57600080fd5b50610931600480360381019080803573ffffffffffffffffffffffffffffffffffffffff169060200190929190505050611e1f565b6040518082815260200191505060405180910390f35b34801561095357600080fd5b5061097260048036038101908080359060200190929190505050611e68565b604051808273ffffffffffffffffffffffffffffffffffffffff1673ffffffffffffffffffffffffffffffffffffffff16815260200191505060405180910390f35b3480156109c057600080fd5b506109c9611e9b565b6040518082815260200191505060405180910390f35b3480156109eb57600080fd5b50610a0a60048036038101908080359060200190929190505050611ea1565b604051808681526020018581526020018481526020018381526020018281526020019550505050505060405180910390f35b348015610a4857600080fd5b50610a6760048036038101908080359060200190929190505050611eec565b60405180878152602001868152602001858152602001848152602001838152602001828152602001965050505050505060405180910390f35b348015610aac57600080fd5b50610aeb600480360381019080803573ffffffffffffffffffffffffffffffffffffffff16906020019092919080359060200190929190505050612126565b604051808373ffffffffffffffffffffffffffffffffffffffff1673ffffffffffffffffffffffffffffffffffffffff1681526020018281526020019250505060405180910390f35b348015610b4057600080fd5b50610b75600480360381019080803573ffffffffffffffffffffffffffffffffffffffff1690602001909291905050506121ee565b005b348015610b8357600080fd5b50610b8c61227d565b6040518082815260200191505060405180910390f35b348015610bae57600080fd5b50610bb7612283565b6040518082815260200191505060405180910390f35b610bd5612289565b005b348015610be357600080fd5b50610c02600480360381019080803590602001909291905050506128ea565b604051808273ffffffffffffffffffffffffffffffffffffffff1673ffffffffffffffffffffffffffffffffffffffff16815260200191505060405180910390f35b348015610c5057600080fd5b50610c59612927565b6040518082815260200191505060405180910390f35b348015610c7b57600080fd5b50610cb0600480360381019080803573ffffffffffffffffffffffffffffffffffffffff16906020019092919050505061292d565b604051808273ffffffffffffffffffffffffffffffffffffffff1673ffffffffffffffffffffffffffffffffffffffff16815260200191505060405180910390f35b348015610cfe57600080fd5b50610d33600480360381019080803573ffffffffffffffffffffffffffffffffffffffff169060200190929190505050612960565b005b348015610d4157600080fd5b50610d4a612a3a565b6040518082815260200191505060405180910390f35b348015610d6c57600080fd5b50610d75612a40565b604051808273ffffffffffffffffffffffffffffffffffffffff1673ffffffffffffffffffffffffffffffffffffffff16815260200191505060405180910390f35b348015610dc357600080fd5b50610df8600480360381019080803573ffffffffffffffffffffffffffffffffffffffff169060200190929190505050612a66565b005b348015610e0657600080fd5b50610e45600480360381019080803573ffffffffffffffffffffffffffffffffffffffff16906020019092919080359060200190929190505050612b41565b005b6000809054906101000a900473ffffffffffffffffffffffffffffffffffffffff1673ffffffffffffffffffffffffffffffffffffffff163373ffffffffffffffffffffffffffffffffffffffff16141515610ea257600080fd5b806010540360108190555050565b3373ffffffffffffffffffffffffffffffffffffffff166108fc600b60003373ffffffffffffffffffffffffffffffffffffffff1673ffffffffffffffffffffffffffffffffffffffff168152602001908152602001600020549081150290604051600060405180830381858888f19350505050158015610f35573d6000803e3d6000fd5b50565b600b6020528060005260406000206000915090505481565b600460009054906101000a900473ffffffffffffffffffffffffffffffffffffffff1681565b60175481565b60195481565b6000670166d2f70250800034141515610f9a57600080fd5b6154606010540142118015610fb157506001601854115b156110815760126000610fc76127106006611c78565b60185401815260200190815260200160002060000160009054906101000a900473ffffffffffffffffffffffffffffffffffffffff1673ffffffffffffffffffffffffffffffffffffffff166108fc606460326013540281151561102757fe5b049081150290604051600060405180830381858888f19350505050158015611053573d6000803e3d6000fd5b50600260135481151561106257fe5b0460138190555060016017819055504260108190555060016018819055505b3360126000600e54815260200190815260200160002060000160006101000a81548173ffffffffffffffffffffffffffffffffffffffff021916908373ffffffffffffffffffffffffffffffffffffffff1602179055506103e86005601154028115156110ea57fe5b04600b6000600a60009054906101000a900473ffffffffffffffffffffffffffffffffffffffff1673ffffffffffffffffffffffffffffffffffffffff1673ffffffffffffffffffffffffffffffffffffffff1681526020019081526020016000205401600b6000600a60009054906101000a900473ffffffffffffffffffffffffffffffffffffffff1673ffffffffffffffffffffffffffffffffffffffff1673ffffffffffffffffffffffffffffffffffffffff168152602001908152602001600020819055506111c567016345785d8a000033612bd0565b506111d06001611eec565b601a60006006600e548115156111e257fe5b0681526020019081526020016000206000016000601a60006006600e5481151561120857fe5b0681526020019081526020016000206001016000601a60006006600e5481151561122e57fe5b0681526020019081526020016000206002016000601a60006006600e5481151561125457fe5b0681526020019081526020016000206003016000601a60006006600e5481151561127a57fe5b0681526020019081526020016000206004016000601a60006006600e548115156112a057fe5b06815260200190815260200160002060050160008c919050558b919050558a919050558991905055889190505587919050555050505050506006600e541015156118ca5760006006600e548115156112f457fe5b0614156113b557601260006006601a6000808152602001908152602001600020600001546006600e5481151561132657fe5b06600e54030103815260200190815260200160002060000160009054906101000a900473ffffffffffffffffffffffffffffffffffffffff1673ffffffffffffffffffffffffffffffffffffffff166108fc67039bb49f599a00009081150290604051600060405180830381858888f193505050501580156113ac573d6000803e3d6000fd5b50426014819055505b60016006600e548115156113c557fe5b06141561147f57601260006006601a6000808152602001908152602001600020600101546006600e548115156113f757fe5b06600e54030103815260200190815260200160002060000160009054906101000a900473ffffffffffffffffffffffffffffffffffffffff1673ffffffffffffffffffffffffffffffffffffffff166108fc60019081150290604051600060405180830381858888f19350505050158015611476573d6000803e3d6000fd5b50426016819055505b60026006600e5481151561148f57fe5b06141561154957601260006006601a6000808152602001908152602001600020600201546006600e548115156114c157fe5b06600e54030103815260200190815260200160002060000160009054906101000a900473ffffffffffffffffffffffffffffffffffffffff1673ffffffffffffffffffffffffffffffffffffffff166108fc60019081150290604051600060405180830381858888f19350505050158015611540573d6000803e3d6000fd5b50426016819055505b60036006600e5481151561155957fe5b06141561161357601260006006601a6000808152602001908152602001600020600301546006600e5481151561158b57fe5b06600e54030103815260200190815260200160002060000160009054906101000a900473ffffffffffffffffffffffffffffffffffffffff1673ffffffffffffffffffffffffffffffffffffffff166108fc60019081150290604051600060405180830381858888f1935050505015801561160a573d6000803e3d6000fd5b50426016819055505b60046006600e5481151561162357fe5b0614156116e457601260006006601a6000808152602001908152602001600020600401546006600e5481151561165557fe5b06600e54030103815260200190815260200160002060000160009054906101000a900473ffffffffffffffffffffffffffffffffffffffff1673ffffffffffffffffffffffffffffffffffffffff166108fc670214e8348c4f00009081150290604051600060405180830381858888f193505050501580156116db573d6000803e3d6000fd5b50426016819055505b60056006600e548115156116f457fe5b0614156117b557601260006006601a6000808152602001908152602001600020600501546006600e5481151561172657fe5b06600e54030103815260200190815260200160002060000160009054906101000a900473ffffffffffffffffffffffffffffffffffffffff1673ffffffffffffffffffffffffffffffffffffffff166108fc670214e8348c4f00009081150290604051600060405180830381858888f193505050501580156117ac573d6000803e3d6000fd5b50426015819055505b60056006600e548115156117c557fe5b061480156117db57506017546014546015540311155b156117fa57601454601554036016819055506005600e54036019819055505b60056006600e5481151561180a57fe5b0614801561181f575060175460145460155403115b1561183e57601454601554036017819055506005600e54036018819055505b60056006600e5481151561184e57fe5b0614158015611864575060175460145460155403115b1561188357601454601554036016819055506005600e54036019819055505b60056006600e5481151561189357fe5b06141580156118aa57506017546014546015540311155b156118c957601454601554036016819055506005600e54036019819055505b5b603c6011548115156118d857fe5b04601354016013819055506001600e5401600e8190555090565b60076020528060005260406000206000915090505481565b60066020528060005260406000206000915054906101000a900473ffffffffffffffffffffffffffffffffffffffff1681565b600e5481565b60165481565b6001600d60008373ffffffffffffffffffffffffffffffffffffffff1673ffffffffffffffffffffffffffffffffffffffff1681526020019081526020016000206001015401600d60008373ffffffffffffffffffffffffffffffffffffffff1673ffffffffffffffffffffffffffffffffffffffff1681526020019081526020016000206001018190555050565b60126020528060005260406000206000915090508060000160009054906101000a900473ffffffffffffffffffffffffffffffffffffffff16905081565b60155481565b6000600260008373ffffffffffffffffffffffffffffffffffffffff1673ffffffffffffffffffffffffffffffffffffffff16815260200190815260200160002060009054906101000a900473ffffffffffffffffffffffffffffffffffffffff169050919050565b6000809054906101000a900473ffffffffffffffffffffffffffffffffffffffff1673ffffffffffffffffffffffffffffffffffffffff163373ffffffffffffffffffffffffffffffffffffffff16141515611ae057600080fd5b600073ffffffffffffffffffffffffffffffffffffffff168173ffffffffffffffffffffffffffffffffffffffff1614151515611b1c57600080fd5b80600160006101000a81548173ffffffffffffffffffffffffffffffffffffffff021916908373ffffffffffffffffffffffffffffffffffffffff16021790555050565b60185481565b60096020528060005260406000206000915090508060000154905081565b42600d60008373ffffffffffffffffffffffffffffffffffffffff1673ffffffffffffffffffffffffffffffffffffffff1681526020019081526020016000206002018190555050565b6000809054906101000a900473ffffffffffffffffffffffffffffffffffffffff1681565b6000600760008373ffffffffffffffffffffffffffffffffffffffff1673ffffffffffffffffffffffffffffffffffffffff168152602001908152602001600020549050919050565b601a6020528060005260406000206000915090508060000154908060010154908060020154908060030154908060040154908060050154905086565b60008082844340604051602001808381526020018260001916600019168152602001925050506040516020818303038152906040526040518082805190602001908083835b602083101515611ce25780518252602082019150602081019050602083039250611cbd565b6001836020036101000a038019825116818451168082178552505050505050905001915050604051809103902060019004811515611d1c57fe5b0690508091505092915050565b6000600a60009054906101000a900473ffffffffffffffffffffffffffffffffffffffff16905090565b600a60009054906101000a900473ffffffffffffffffffffffffffffffffffffffff1673ffffffffffffffffffffffffffffffffffffffff166108fc600b6000600a60009054906101000a900473ffffffffffffffffffffffffffffffffffffffff1673ffffffffffffffffffffffffffffffffffffffff1673ffffffffffffffffffffffffffffffffffffffff168152602001908152602001600020549081150290604051600060405180830381858888f19350505050158015611e1c573d6000803e3d6000fd5b50565b6000600b60008373ffffffffffffffffffffffffffffffffffffffff1673ffffffffffffffffffffffffffffffffffffffff168152602001908152602001600020549050919050565b60036020528060005260406000206000915054906101000a900473ffffffffffffffffffffffffffffffffffffffff1681565b60085481565b60008060008060006154606010544203811515611eba57fe5b046000600e546006600e54811515611ece57fe5b06600e54036013548393509450945094509450945091939590929450565b60008060008060008060008060008060068b4340604051602001808381526020018260001916600019168152602001925050506040516020818303038152906040526040518082805190602001908083835b602083101515611f635780518252602082019150602081019050602083039250611f3e565b6001836020036101000a038019825116818451168082178552505050505050905001915050604051809103902060019004811515611f9d57fe5b0693506006844340604051602001808381526020018260001916600019168152602001925050506040516020818303038152906040526040518082805190602001908083835b6020831015156120085780518252602082019150602081019050602083039250611fe3565b6001836020036101000a03801982511681845116808217855250505050505090500191505060405180910390206001900481151561204257fe5b06925060009150828414156120645760066001850181151561206057fe5b0692505b600090505b6006811115156120b4578381141580156120835750828114155b156120a75780600c6000848152602001908152602001600020819055506001820191505b8080600101915050612069565b600091508383600c600080815260200190815260200160002054600c60006001815260200190815260200160002054600c60006002815260200190815260200160002054600c600060038152602001908152602001600020549950995099509950995099505050505091939550919395565b600080600960008573ffffffffffffffffffffffffffffffffffffffff1673ffffffffffffffffffffffffffffffffffffffff168152602001908152602001600020600101600084815260200190815260200160002060000160009054906101000a900473ffffffffffffffffffffffffffffffffffffffff16600960008673ffffffffffffffffffffffffffffffffffffffff1673ffffffffffffffffffffffffffffffffffffffff16815260200190815260200160002060000154915091509250929050565b6001600d60008373ffffffffffffffffffffffffffffffffffffffff1673ffffffffffffffffffffffffffffffffffffffff1681526020019081526020016000206000015401600d60008373ffffffffffffffffffffffffffffffffffffffff1673ffffffffffffffffffffffffffffffffffffffff1681526020019081526020016000206000018190555050565b60105481565b600f5481565b674563918244f4000060643402101515156122a357600080fd5b6000600760003373ffffffffffffffffffffffffffffffffffffffff1673ffffffffffffffffffffffffffffffffffffffff168152602001908152602001600020541415156122f157600080fd5b600660006402540be40066b1a2bc2ec50000340381151561230e57fe5b04815260200190815260200160002060009054906101000a900473ffffffffffffffffffffffffffffffffffffffff1673ffffffffffffffffffffffffffffffffffffffff163373ffffffffffffffffffffffffffffffffffffffff161415151561237857600080fd5b600660006402540be40066b1a2bc2ec50000340381151561239557fe5b04815260200190815260200160002060009054906101000a900473ffffffffffffffffffffffffffffffffffffffff16600260003373ffffffffffffffffffffffffffffffffffffffff1673ffffffffffffffffffffffffffffffffffffffff16815260200190815260200160002060006101000a81548173ffffffffffffffffffffffffffffffffffffffff021916908373ffffffffffffffffffffffffffffffffffffffff1602179055503360066000600854815260200190815260200160002060006101000a81548173ffffffffffffffffffffffffffffffffffffffff021916908373ffffffffffffffffffffffffffffffffffffffff160217905550600854600760003373ffffffffffffffffffffffffffffffffffffffff1673ffffffffffffffffffffffffffffffffffffffff168152602001908152602001600020819055503360096000600660006402540be40066b1a2bc2ec5000034038115156124fe57fe5b04815260200190815260200160002060009054906101000a900473ffffffffffffffffffffffffffffffffffffffff1673ffffffffffffffffffffffffffffffffffffffff1673ffffffffffffffffffffffffffffffffffffffff168152602001908152602001600020600101600060096000600660006402540be40066b1a2bc2ec50000340381151561258e57fe5b04815260200190815260200160002060009054906101000a900473ffffffffffffffffffffffffffffffffffffffff1673ffffffffffffffffffffffffffffffffffffffff1673ffffffffffffffffffffffffffffffffffffffff16815260200190815260200160002060000154815260200190815260200160002060000160006101000a81548173ffffffffffffffffffffffffffffffffffffffff021916908373ffffffffffffffffffffffffffffffffffffffff160217905550600160096000600660006402540be40066b1a2bc2ec50000340381151561266e57fe5b04815260200190815260200160002060009054906101000a900473ffffffffffffffffffffffffffffffffffffffff1673ffffffffffffffffffffffffffffffffffffffff1673ffffffffffffffffffffffffffffffffffffffff168152602001908152602001600020600001540160096000600660006402540be40066b1a2bc2ec5000034038115156126fe57fe5b04815260200190815260200160002060009054906101000a900473ffffffffffffffffffffffffffffffffffffffff1673ffffffffffffffffffffffffffffffffffffffff1673ffffffffffffffffffffffffffffffffffffffff16815260200190815260200160002060000181905550600160085401600881905550600560009054906101000a900473ffffffffffffffffffffffffffffffffffffffff1673ffffffffffffffffffffffffffffffffffffffff166108fc349081150290604051600060405180830381858888f193505050501580156127e3573d6000803e3d6000fd5b503373ffffffffffffffffffffffffffffffffffffffff167f09371afb4578ee0c3f43accbe50410e7c3382f6678dbf0584b31633820acb9e36402540be40066b1a2bc2ec50000340381151561283557fe5b04600854600260003373ffffffffffffffffffffffffffffffffffffffff1673ffffffffffffffffffffffffffffffffffffffff16815260200190815260200160002060009054906101000a900473ffffffffffffffffffffffffffffffffffffffff16604051808481526020018381526020018273ffffffffffffffffffffffffffffffffffffffff1673ffffffffffffffffffffffffffffffffffffffff168152602001935050505060405180910390a2565b60006006600083815260200190815260200160002060009054906101000a900473ffffffffffffffffffffffffffffffffffffffff169050919050565b60145481565b60026020528060005260406000206000915054906101000a900473ffffffffffffffffffffffffffffffffffffffff1681565b6000809054906101000a900473ffffffffffffffffffffffffffffffffffffffff1673ffffffffffffffffffffffffffffffffffffffff163373ffffffffffffffffffffffffffffffffffffffff161415156129bb57600080fd5b600073ffffffffffffffffffffffffffffffffffffffff168173ffffffffffffffffffffffffffffffffffffffff16141515156129f757600080fd5b806000806101000a81548173ffffffffffffffffffffffffffffffffffffffff021916908373ffffffffffffffffffffffffffffffffffffffff16021790555050565b60135481565b600160009054906101000a900473ffffffffffffffffffffffffffffffffffffffff1681565b6000809054906101000a900473ffffffffffffffffffffffffffffffffffffffff1673ffffffffffffffffffffffffffffffffffffffff163373ffffffffffffffffffffffffffffffffffffffff16141515612ac157600080fd5b600073ffffffffffffffffffffffffffffffffffffffff168173ffffffffffffffffffffffffffffffffffffffff1614151515612afd57600080fd5b80600a60006101000a81548173ffffffffffffffffffffffffffffffffffffffff021916908373ffffffffffffffffffffffffffffffffffffffff16021790555050565b80600d60008473ffffffffffffffffffffffffffffffffffffffff1673ffffffffffffffffffffffffffffffffffffffff1681526020019081526020016000206003015401600d60008473ffffffffffffffffffffffffffffffffffffffff1673ffffffffffffffffffffffffffffffffffffffff168152602001908152602001600020600301819055505050565b600080600080849250602d9150600090505b600781101561313557600260008473ffffffffffffffffffffffffffffffffffffffff1673ffffffffffffffffffffffffffffffffffffffff16815260200190815260200160002060009054906101000a900473ffffffffffffffffffffffffffffffffffffffff169250600073ffffffffffffffffffffffffffffffffffffffff168373ffffffffffffffffffffffffffffffffffffffff161415612c8757613135565b6000811415612d30576103e860148702811515612ca057fe5b04600b60008573ffffffffffffffffffffffffffffffffffffffff1673ffffffffffffffffffffffffffffffffffffffff1681526020019081526020016000205401600b60008573ffffffffffffffffffffffffffffffffffffffff1673ffffffffffffffffffffffffffffffffffffffff16815260200190815260200160002081905550601482039150613128565b6001811415612dd9576103e8600a8702811515612d4957fe5b04600b60008573ffffffffffffffffffffffffffffffffffffffff1673ffffffffffffffffffffffffffffffffffffffff1681526020019081526020016000205401600b60008573ffffffffffffffffffffffffffffffffffffffff1673ffffffffffffffffffffffffffffffffffffffff16815260200190815260200160002081905550600a82039150613127565b6002811415612e82576103e860058702811515612df257fe5b04600b60008573ffffffffffffffffffffffffffffffffffffffff1673ffffffffffffffffffffffffffffffffffffffff1681526020019081526020016000205401600b60008573ffffffffffffffffffffffffffffffffffffffff1673ffffffffffffffffffffffffffffffffffffffff16815260200190815260200160002081905550600582039150613126565b6003811415612f2b576103e860048702811515612e9b57fe5b04600b60008573ffffffffffffffffffffffffffffffffffffffff1673ffffffffffffffffffffffffffffffffffffffff1681526020019081526020016000205401600b60008573ffffffffffffffffffffffffffffffffffffffff1673ffffffffffffffffffffffffffffffffffffffff16815260200190815260200160002081905550600482039150613125565b6004811415612fd4576103e860038702811515612f4457fe5b04600b60008573ffffffffffffffffffffffffffffffffffffffff1673ffffffffffffffffffffffffffffffffffffffff1681526020019081526020016000205401600b60008573ffffffffffffffffffffffffffffffffffffffff1673ffffffffffffffffffffffffffffffffffffffff16815260200190815260200160002081905550600382039150613124565b600581141561307d576103e860028702811515612fed57fe5b04600b60008573ffffffffffffffffffffffffffffffffffffffff1673ffffffffffffffffffffffffffffffffffffffff1681526020019081526020016000205401600b60008573ffffffffffffffffffffffffffffffffffffffff1673ffffffffffffffffffffffffffffffffffffffff16815260200190815260200160002081905550600282039150613123565b6006811415613122576103e86001870281151561309657fe5b04600b60008573ffffffffffffffffffffffffffffffffffffffff1673ffffffffffffffffffffffffffffffffffffffff1681526020019081526020016000205401600b60008573ffffffffffffffffffffffffffffffffffffffff1673ffffffffffffffffffffffffffffffffffffffff168152602001908152602001600020819055506001820391505b5b5b5b5b5b5b8080600101915050612be2565b6103e882870281151561314457fe5b04600b6000600a60009054906101000a900473ffffffffffffffffffffffffffffffffffffffff1673ffffffffffffffffffffffffffffffffffffffff1673ffffffffffffffffffffffffffffffffffffffff1681526020019081526020016000205401600b6000600a60009054906101000a900473ffffffffffffffffffffffffffffffffffffffff1673ffffffffffffffffffffffffffffffffffffffff1673ffffffffffffffffffffffffffffffffffffffff16815260200190815260200160002081905550349350505050929150505600a165627a7a72305820447512fbee4472b2cdec1c6d20c71c655df333aeae88f4530907952c7e0cbb350029",
  "source": "pragma solidity ^0.4.21;\n//import \"./Event.sol\";\nimport \"./Layer.sol\";\nimport \"./Layerprofit.sol\";\nimport \"./Random.sol\";\nimport \"./Teambonus.sol\";\nimport \"./ContractInfo.sol\";\ncontract Crazy1 is layer, layerprofit, random, ContractInfo{\n    uint public pooln_Crazy1;\n    uint public poolp_Crazy1=0;\n    uint public lotteryinittime_Crazy1 = now;\n    uint revenuc1 = 0.1 ether;\n    struct poolinfo_Crazy1{\n        address player;\n    }\n    mapping(uint => poolinfo_Crazy1) public pool_Crazy1;\n    uint public lotterybalance_C1;\n    //\n    //mapping(uint => uint) public initTime_C1;\n    uint public initTime_C1;\n    //mapping(uint => uint) public winnerTime_C1;\n    uint public finalTime_C1 = 0;\n    \n    uint public unusedTime_C1 =0;\n    \n    uint public winnerTime_C1 = 0;\n    \n    uint public lotterywinner_C1=0;\n    uint public lotteryloser_C1=0;\n    function changeTime_C1(uint target)onlyOwner public{\n        lotteryinittime_Crazy1 = lotteryinittime_Crazy1 -target;\n    }\n    struct resultInfo_C1{\n        uint winner;\n        uint loser;\n        uint loser1;\n        uint loser2;\n        uint common3;\n        uint common4;\n    }\n    mapping(uint => resultInfo_C1) public resultMap_C1;\n    function gun_crazy1() public payable returns (address){\n            require(msg.value == 0.101 ether);\n            if(now>lotteryinittime_Crazy1+21600&&lotterywinner_C1>1){\n                pool_Crazy1[lotterywinner_C1+randomLottery(10000,6)].player.transfer(lotterybalance_C1*50/100);\n                lotterybalance_C1 = lotterybalance_C1/2;\n                winnerTime_C1 = 1;\n                lotteryinittime_Crazy1 = now;\n                lotterywinner_C1 =1;\n            }\n            pool_Crazy1[pooln_Crazy1].player = msg.sender;\n            profit[contractAddress] = profit[contractAddress]+revenuc1*5/1000;\n            allocateProfit(0.1 ether,msg.sender);\n            (resultMap_C1[pooln_Crazy1%6].winner,\n            resultMap_C1[pooln_Crazy1%6].loser,\n            resultMap_C1[pooln_Crazy1%6].loser1,\n            resultMap_C1[pooln_Crazy1%6].loser2,\n            resultMap_C1[pooln_Crazy1%6].common3,\n            resultMap_C1[pooln_Crazy1%6].common4) = randomNewLucky(1);\n            if(pooln_Crazy1>=6){\n                if(pooln_Crazy1%6==0){\n                    pool_Crazy1[((pooln_Crazy1-pooln_Crazy1%6)+resultMap_C1[0].winner)-6].player.transfer(0.26 ether);\n                    initTime_C1 = now;\n                }\n                if(pooln_Crazy1%6==1){\n                    pool_Crazy1[((pooln_Crazy1-pooln_Crazy1%6)+resultMap_C1[0].loser)-6].player.transfer(1 wei);\n                    unusedTime_C1 = now;\n                }\n                if(pooln_Crazy1%6==2){\n                    pool_Crazy1[((pooln_Crazy1-pooln_Crazy1%6)+resultMap_C1[0].loser1)-6].player.transfer(1 wei);\n                    unusedTime_C1 = now;\n                }\n                if(pooln_Crazy1%6==3){\n                    pool_Crazy1[((pooln_Crazy1-pooln_Crazy1%6)+resultMap_C1[0].loser2)-6].player.transfer(1 wei);\n                    unusedTime_C1 = now;\n                }\n                if(pooln_Crazy1%6==4){\n                    pool_Crazy1[((pooln_Crazy1-pooln_Crazy1%6)+resultMap_C1[0].common3)-6].player.transfer(0.15 ether);\n                    unusedTime_C1 = now;\n                }\n                if(pooln_Crazy1%6==5){\n                    pool_Crazy1[((pooln_Crazy1-pooln_Crazy1%6)+resultMap_C1[0].common4)-6].player.transfer(0.15 ether);\n                    finalTime_C1 = now;\n                }\n\n                    if(pooln_Crazy1%6==5&&finalTime_C1-initTime_C1 <= winnerTime_C1){\n                        unusedTime_C1 = finalTime_C1-initTime_C1;\n                        lotteryloser_C1 = pooln_Crazy1-5;\n                    }\n                    if(pooln_Crazy1%6==5&&finalTime_C1-initTime_C1 > winnerTime_C1){\n                        winnerTime_C1 = finalTime_C1-initTime_C1;\n                        lotterywinner_C1 = pooln_Crazy1-5;\n                    }\n                    if(pooln_Crazy1%6!=5&&finalTime_C1-initTime_C1 > winnerTime_C1){\n                        unusedTime_C1 = finalTime_C1-initTime_C1;\n                        lotteryloser_C1 = pooln_Crazy1-5;\n                    }\n                    if(pooln_Crazy1%6!=5&&finalTime_C1-initTime_C1 <= winnerTime_C1){\n                        unusedTime_C1 = finalTime_C1-initTime_C1;\n                        lotteryloser_C1 = pooln_Crazy1-5;\n                    }\n            }\n            lotterybalance_C1 = lotterybalance_C1 + revenuc1/60;\n            pooln_Crazy1 = pooln_Crazy1+1;\n    }\n    \n    //..\n    function search_C1(uint target) public constant returns(uint,uint,uint,uint,uint){\n        return ((now-lotteryinittime_Crazy1)/21600, 0, pooln_Crazy1, pooln_Crazy1-pooln_Crazy1%6, lotterybalance_C1);\n    }\n}",
  "sourcePath": "/home/tung/language/python/contractControl/deployContract/contracts/Crazy1.sol",
  "compiler": {
    "name": "solc",
    "version": "0.4.24+commit.e67f0147.Emscripten.clang"
  },
  "schemaVersion": "2.0.1",
  "updatedAt": "2018-09-25T10:10:35.101Z"
}