{
  "contractName": "Crazy50",
  "abi": [
    {
      "constant": false,
      "inputs": [],
      "name": "getProfitout",
      "outputs": [],
      "payable": false,
      "stateMutability": "nonpayable",
      "type": "function"
    },
    {
      "constant": true,
      "inputs": [
        {
          "name": "",
          "type": "address"
        }
      ],
      "name": "profit",
      "outputs": [
        {
          "name": "",
          "type": "uint256"
        }
      ],
      "payable": false,
      "stateMutability": "view",
      "type": "function"
    },
    {
      "constant": true,
      "inputs": [],
      "name": "layercontract",
      "outputs": [
        {
          "name": "",
          "type": "address"
        }
      ],
      "payable": false,
      "stateMutability": "view",
      "type": "function"
    },
    {
      "constant": true,
      "inputs": [
        {
          "name": "",
          "type": "uint256"
        }
      ],
      "name": "pool_Crazy50",
      "outputs": [
        {
          "name": "time",
          "type": "uint256"
        },
        {
          "name": "player",
          "type": "address"
        }
      ],
      "payable": false,
      "stateMutability": "view",
      "type": "function"
    },
    {
      "constant": true,
      "inputs": [
        {
          "name": "",
          "type": "address"
        }
      ],
      "name": "inviteInquire",
      "outputs": [
        {
          "name": "",
          "type": "uint256"
        }
      ],
      "payable": false,
      "stateMutability": "view",
      "type": "function"
    },
    {
      "constant": true,
      "inputs": [
        {
          "name": "",
          "type": "uint256"
        }
      ],
      "name": "inviteNumber",
      "outputs": [
        {
          "name": "",
          "type": "address"
        }
      ],
      "payable": false,
      "stateMutability": "view",
      "type": "function"
    },
    {
      "constant": true,
      "inputs": [
        {
          "name": "",
          "type": "uint256"
        }
      ],
      "name": "lotterybalance_C50",
      "outputs": [
        {
          "name": "",
          "type": "uint256"
        }
      ],
      "payable": false,
      "stateMutability": "view",
      "type": "function"
    },
    {
      "constant": false,
      "inputs": [
        {
          "name": "target",
          "type": "address"
        }
      ],
      "name": "setLose",
      "outputs": [],
      "payable": false,
      "stateMutability": "nonpayable",
      "type": "function"
    },
    {
      "constant": true,
      "inputs": [],
      "name": "settle_C50",
      "outputs": [
        {
          "name": "",
          "type": "uint256"
        }
      ],
      "payable": false,
      "stateMutability": "view",
      "type": "function"
    },
    {
      "constant": true,
      "inputs": [
        {
          "name": "target",
          "type": "address"
        }
      ],
      "name": "getlayer",
      "outputs": [
        {
          "name": "",
          "type": "address"
        }
      ],
      "payable": false,
      "stateMutability": "view",
      "type": "function"
    },
    {
      "constant": false,
      "inputs": [
        {
          "name": "newOwner",
          "type": "address"
        }
      ],
      "name": "transferAdmin",
      "outputs": [],
      "payable": false,
      "stateMutability": "nonpayable",
      "type": "function"
    },
    {
      "constant": true,
      "inputs": [],
      "name": "lotteryinittime_Crazy50",
      "outputs": [
        {
          "name": "",
          "type": "uint256"
        }
      ],
      "payable": false,
      "stateMutability": "view",
      "type": "function"
    },
    {
      "constant": true,
      "inputs": [
        {
          "name": "",
          "type": "address"
        }
      ],
      "name": "downlineMap",
      "outputs": [
        {
          "name": "downAmount",
          "type": "uint256"
        }
      ],
      "payable": false,
      "stateMutability": "view",
      "type": "function"
    },
    {
      "constant": false,
      "inputs": [
        {
          "name": "target",
          "type": "address"
        }
      ],
      "name": "setTime",
      "outputs": [],
      "payable": false,
      "stateMutability": "nonpayable",
      "type": "function"
    },
    {
      "constant": true,
      "inputs": [],
      "name": "owner",
      "outputs": [
        {
          "name": "",
          "type": "address"
        }
      ],
      "payable": false,
      "stateMutability": "view",
      "type": "function"
    },
    {
      "constant": true,
      "inputs": [
        {
          "name": "target",
          "type": "address"
        }
      ],
      "name": "inviteinquire",
      "outputs": [
        {
          "name": "",
          "type": "uint256"
        }
      ],
      "payable": false,
      "stateMutability": "view",
      "type": "function"
    },
    {
      "constant": true,
      "inputs": [
        {
          "name": "rand",
          "type": "uint256"
        },
        {
          "name": "amount",
          "type": "uint256"
        }
      ],
      "name": "randomLottery",
      "outputs": [
        {
          "name": "",
          "type": "uint256"
        }
      ],
      "payable": false,
      "stateMutability": "view",
      "type": "function"
    },
    {
      "constant": true,
      "inputs": [],
      "name": "contractInquire",
      "outputs": [
        {
          "name": "",
          "type": "address"
        }
      ],
      "payable": false,
      "stateMutability": "view",
      "type": "function"
    },
    {
      "constant": false,
      "inputs": [],
      "name": "getadminProfitout",
      "outputs": [],
      "payable": false,
      "stateMutability": "nonpayable",
      "type": "function"
    },
    {
      "constant": true,
      "inputs": [
        {
          "name": "target",
          "type": "address"
        }
      ],
      "name": "inquire",
      "outputs": [
        {
          "name": "",
          "type": "uint256"
        }
      ],
      "payable": false,
      "stateMutability": "view",
      "type": "function"
    },
    {
      "constant": true,
      "inputs": [
        {
          "name": "",
          "type": "uint256"
        }
      ],
      "name": "player",
      "outputs": [
        {
          "name": "",
          "type": "address"
        }
      ],
      "payable": false,
      "stateMutability": "view",
      "type": "function"
    },
    {
      "constant": true,
      "inputs": [],
      "name": "pooln_Crazy50",
      "outputs": [
        {
          "name": "",
          "type": "uint256"
        }
      ],
      "payable": false,
      "stateMutability": "view",
      "type": "function"
    },
    {
      "constant": true,
      "inputs": [],
      "name": "inviteAmount",
      "outputs": [
        {
          "name": "",
          "type": "uint256"
        }
      ],
      "payable": false,
      "stateMutability": "view",
      "type": "function"
    },
    {
      "constant": true,
      "inputs": [
        {
          "name": "rand",
          "type": "uint256"
        }
      ],
      "name": "randomNewLucky",
      "outputs": [
        {
          "name": "",
          "type": "uint256"
        },
        {
          "name": "",
          "type": "uint256"
        },
        {
          "name": "",
          "type": "uint256"
        },
        {
          "name": "",
          "type": "uint256"
        },
        {
          "name": "",
          "type": "uint256"
        },
        {
          "name": "",
          "type": "uint256"
        }
      ],
      "payable": false,
      "stateMutability": "view",
      "type": "function"
    },
    {
      "constant": true,
      "inputs": [
        {
          "name": "target",
          "type": "address"
        },
        {
          "name": "downnumber",
          "type": "uint256"
        }
      ],
      "name": "downlineSearch",
      "outputs": [
        {
          "name": "",
          "type": "address"
        },
        {
          "name": "",
          "type": "uint256"
        }
      ],
      "payable": false,
      "stateMutability": "view",
      "type": "function"
    },
    {
      "constant": false,
      "inputs": [
        {
          "name": "target",
          "type": "address"
        }
      ],
      "name": "setWin",
      "outputs": [],
      "payable": false,
      "stateMutability": "nonpayable",
      "type": "function"
    },
    {
      "constant": false,
      "inputs": [],
      "name": "regist",
      "outputs": [],
      "payable": true,
      "stateMutability": "payable",
      "type": "function"
    },
    {
      "constant": true,
      "inputs": [
        {
          "name": "num",
          "type": "uint256"
        }
      ],
      "name": "getinviteNumber",
      "outputs": [
        {
          "name": "",
          "type": "address"
        }
      ],
      "payable": false,
      "stateMutability": "view",
      "type": "function"
    },
    {
      "constant": true,
      "inputs": [
        {
          "name": "",
          "type": "uint256"
        }
      ],
      "name": "winnerTime_C50",
      "outputs": [
        {
          "name": "",
          "type": "uint256"
        }
      ],
      "payable": false,
      "stateMutability": "view",
      "type": "function"
    },
    {
      "constant": true,
      "inputs": [],
      "name": "poolp_Crazy50",
      "outputs": [
        {
          "name": "",
          "type": "uint256"
        }
      ],
      "payable": false,
      "stateMutability": "view",
      "type": "function"
    },
    {
      "constant": true,
      "inputs": [
        {
          "name": "",
          "type": "address"
        }
      ],
      "name": "layermap",
      "outputs": [
        {
          "name": "",
          "type": "address"
        }
      ],
      "payable": false,
      "stateMutability": "view",
      "type": "function"
    },
    {
      "constant": false,
      "inputs": [
        {
          "name": "newOwner",
          "type": "address"
        }
      ],
      "name": "transferOwnership",
      "outputs": [],
      "payable": false,
      "stateMutability": "nonpayable",
      "type": "function"
    },
    {
      "constant": true,
      "inputs": [
        {
          "name": "",
          "type": "uint256"
        }
      ],
      "name": "winner_C50",
      "outputs": [
        {
          "name": "",
          "type": "address"
        }
      ],
      "payable": false,
      "stateMutability": "view",
      "type": "function"
    },
    {
      "constant": true,
      "inputs": [],
      "name": "admin",
      "outputs": [
        {
          "name": "",
          "type": "address"
        }
      ],
      "payable": false,
      "stateMutability": "view",
      "type": "function"
    },
    {
      "constant": false,
      "inputs": [
        {
          "name": "newAddress",
          "type": "address"
        }
      ],
      "name": "changeAddress",
      "outputs": [],
      "payable": false,
      "stateMutability": "nonpayable",
      "type": "function"
    },
    {
      "constant": false,
      "inputs": [
        {
          "name": "target",
          "type": "address"
        },
        {
          "name": "balance",
          "type": "uint256"
        }
      ],
      "name": "setProfit",
      "outputs": [],
      "payable": false,
      "stateMutability": "nonpayable",
      "type": "function"
    },
    {
      "anonymous": false,
      "inputs": [
        {
          "indexed": false,
          "name": "pool",
          "type": "uint256"
        },
        {
          "indexed": true,
          "name": "player",
          "type": "address"
        },
        {
          "indexed": false,
          "name": "status",
          "type": "uint256"
        },
        {
          "indexed": false,
          "name": "types",
          "type": "uint256"
        },
        {
          "indexed": false,
          "name": "balance",
          "type": "uint256"
        }
      ],
      "name": "NProfitEvent",
      "type": "event"
    },
    {
      "anonymous": false,
      "inputs": [
        {
          "indexed": true,
          "name": "player",
          "type": "address"
        },
        {
          "indexed": false,
          "name": "balance",
          "type": "uint256"
        }
      ],
      "name": "LProfitEvent",
      "type": "event"
    },
    {
      "anonymous": false,
      "inputs": [
        {
          "indexed": true,
          "name": "player",
          "type": "address"
        },
        {
          "indexed": false,
          "name": "inputNumber",
          "type": "uint256"
        },
        {
          "indexed": false,
          "name": "registNumber",
          "type": "uint256"
        },
        {
          "indexed": false,
          "name": "upline",
          "type": "address"
        }
      ],
      "name": "RegistEvent",
      "type": "event"
    },
    {
      "anonymous": false,
      "inputs": [
        {
          "indexed": false,
          "name": "pool",
          "type": "uint256"
        },
        {
          "indexed": false,
          "name": "winner",
          "type": "uint256"
        },
        {
          "indexed": false,
          "name": "loser",
          "type": "uint256"
        }
      ],
      "name": "LuckyProfitEvent",
      "type": "event"
    },
    {
      "anonymous": false,
      "inputs": [
        {
          "indexed": false,
          "name": "pool",
          "type": "uint256"
        },
        {
          "indexed": false,
          "name": "winner",
          "type": "uint256"
        },
        {
          "indexed": false,
          "name": "loser1",
          "type": "uint256"
        },
        {
          "indexed": false,
          "name": "loser2",
          "type": "uint256"
        },
        {
          "indexed": false,
          "name": "loser3",
          "type": "uint256"
        }
      ],
      "name": "CrazyProfitEvent",
      "type": "event"
    },
    {
      "anonymous": false,
      "inputs": [
        {
          "indexed": false,
          "name": "pool",
          "type": "uint256"
        },
        {
          "indexed": false,
          "name": "winner",
          "type": "address"
        },
        {
          "indexed": false,
          "name": "loser",
          "type": "address"
        },
        {
          "indexed": false,
          "name": "balance",
          "type": "uint256"
        }
      ],
      "name": "LuckyLotteryEvent",
      "type": "event"
    },
    {
      "anonymous": false,
      "inputs": [
        {
          "indexed": false,
          "name": "pool",
          "type": "uint256"
        },
        {
          "indexed": false,
          "name": "winner",
          "type": "address"
        },
        {
          "indexed": false,
          "name": "balance",
          "type": "uint256"
        }
      ],
      "name": "CrazyLotteryEvent",
      "type": "event"
    },
    {
      "constant": false,
      "inputs": [
        {
          "name": "target",
          "type": "uint256"
        }
      ],
      "name": "changeTime_C50",
      "outputs": [],
      "payable": false,
      "stateMutability": "nonpayable",
      "type": "function"
    },
    {
      "constant": false,
      "inputs": [],
      "name": "crazygun50",
      "outputs": [
        {
          "name": "",
          "type": "address"
        }
      ],
      "payable": true,
      "stateMutability": "payable",
      "type": "function"
    },
    {
      "constant": true,
      "inputs": [
        {
          "name": "target",
          "type": "uint256"
        }
      ],
      "name": "search_C50",
      "outputs": [
        {
          "name": "",
          "type": "uint256"
        },
        {
          "name": "",
          "type": "uint256"
        },
        {
          "name": "",
          "type": "uint256"
        },
        {
          "name": "",
          "type": "uint256"
        },
        {
          "name": "",
          "type": "uint256"
        },
        {
          "name": "",
          "type": "address"
        }
      ],
      "payable": false,
      "stateMutability": "view",
      "type": "function"
    },
    {
      "constant": false,
      "inputs": [],
      "name": "crazyprofit_lucky50",
      "outputs": [],
      "payable": false,
      "stateMutability": "nonpayable",
      "type": "function"
    },
    {
      "constant": false,
      "inputs": [],
      "name": "crazygunprofit50",
      "outputs": [],
      "payable": false,
      "stateMutability": "nonpayable",
      "type": "function"
    }
  ],
  "bytecode": "0x608060405260058054600160a060020a0319908116733ee8ae904830a51a4cbf7588b02f05a33f870576908117909255600a805482169092179091556000600f819055674563918244f400006010554260115580548216339081178255600180548416909117905560026020527f18f1d23d7a10cac9f2cff6e1bc2ef966f346d94e1184ea3e7b3d28cd54f832b18054831673ca35b7d915458ef540ade6068dfe2f44e8fa733c9081179091557f607777b8448e550d2f696346b44302d0d20fbbf153248130a07986371a4e73b4805484167314723a09acff6d2a60dcdf7aa4aff308fddc160c1790557ffb612a231b0162d240ed546c8f3107c6367b8eb46a76ad4b0875aea09104737780548416734b0897b0513fdc7c541b6d9d7e929c4e5364d2db1790557f98d1541b15506a8f982c558cf5652ea207c0b443b27ca7c43de33942a088a4238054841673583031d1113ad414f02576bd6afabfb3021402251790557f0f074079ac900e74abbceed97ddd566c2fd1c9a1ab4935abacb04e18f9d87f3f8054841673dd870fa1b7c4700f2bd7f44238821c26f73921481790557fbfffd67dd3d8d8f0e0b6fd4f34d5fc0f06e3b6ce39c5f1eb451475bf10b548e58054841672a0a0dce3ea7b5529b878e1a832362fcffe6510179055733e5c27761215232ca0b298ef87e0cbecbc0da1fd9091527f26ee6f658328d33f1ff942b986ea38d5a5a5707098bad82c05ae0a89f2fa72588054909216179055611a398061022c6000396000f3006080604052600436106101f85763ffffffff7c01000000000000000000000000000000000000000000000000000000006000350416630101ec8681146101fd57806302550e4d1461021457806303c3a83d146102475780630e283f351461025c5780630fc054df1461028d57806313c5a14b146102a5578063140e3afd146102f957806337d2677b1461030e5780633f91d2cb14610347578063429ee4dc146103685780634bee806e146103805780635568b0ae146103985780636677916e146103b957806370967964146103ce5780637510ecdc146103d657806375829def146103f757806378bb51e0146104185780638542b7f81461042d5780638cb323521461044e5780638da5cb5b1461046f5780638ed10dc8146104845780639435245e146104a5578063971b1c26146104c057806399b72aac146104d55780639a30c185146104ea5780639e0551c61461050b578063a1b4240814610523578063a54fa82f14610538578063be86618b1461054d578063bec27be014610598578063c041b059146105df578063cb4b6b8a14610600578063ceb73a9114610608578063df84192014610620578063e3269b0514610638578063f0f1b0331461064d578063f2fde38b1461066e578063f7e9b7291461068f578063f851a440146106a7578063fe64d6ff146106bc578063fee73e86146106dd575b600080fd5b34801561020957600080fd5b50610212610701565b005b34801561022057600080fd5b50610235600160a060020a036004351661073b565b60408051918252519081900360200190f35b34801561025357600080fd5b5061021261074d565b34801561026857600080fd5b506102716108a5565b60408051600160a060020a039092168252519081900360200190f35b34801561029957600080fd5b506102126004356108b4565b3480156102b157600080fd5b506102bd6004356108d6565b6040805196875260208701959095528585019390935260608501919091526080840152600160a060020a031660a0830152519081900360c00190f35b34801561030557600080fd5b50610212610953565b34801561031a57600080fd5b50610326600435610c4e565b60408051928352600160a060020a0390911660208301528051918290030190f35b34801561035357600080fd5b50610235600160a060020a0360043516610c70565b34801561037457600080fd5b50610271600435610c82565b34801561038c57600080fd5b50610235600435610c9d565b3480156103a457600080fd5b50610212600160a060020a0360043516610caf565b3480156103c557600080fd5b50610235610cd4565b610271610cda565b3480156103e257600080fd5b50610271600160a060020a0360043516610d7e565b34801561040357600080fd5b50610212600160a060020a0360043516610d9c565b34801561042457600080fd5b50610235610df7565b34801561043957600080fd5b50610235600160a060020a0360043516610dfd565b34801561045a57600080fd5b50610212600160a060020a0360043516610e0f565b34801561047b57600080fd5b50610271610e2f565b34801561049057600080fd5b50610235600160a060020a0360043516610e3e565b3480156104b157600080fd5b50610235600435602435610e59565b3480156104cc57600080fd5b50610271610eef565b3480156104e157600080fd5b50610212610efe565b3480156104f657600080fd5b50610235600160a060020a0360043516610f40565b34801561051757600080fd5b50610271600435610f5b565b34801561052f57600080fd5b50610235610f76565b34801561054457600080fd5b50610235610f7c565b34801561055957600080fd5b50610565600435610f82565b604080519687526020870195909552858501939093526060850191909152608084015260a0830152519081900360c00190f35b3480156105a457600080fd5b506105bc600160a060020a03600435166024356111bb565b60408051600160a060020a03909316835260208301919091528051918290030190f35b3480156105eb57600080fd5b50610212600160a060020a03600435166111f0565b610212611210565b34801561061457600080fd5b506102716004356113db565b34801561062c57600080fd5b506102356004356113f6565b34801561064457600080fd5b50610235611408565b34801561065957600080fd5b50610271600160a060020a036004351661140e565b34801561067a57600080fd5b50610212600160a060020a0360043516611429565b34801561069b57600080fd5b50610271600435611484565b3480156106b357600080fd5b5061027161149f565b3480156106c857600080fd5b50610212600160a060020a03600435166114ae565b3480156106e957600080fd5b50610212600160a060020a0360043516602435611509565b336000818152600b602052604080822054905181156108fc0292818181858888f19350505050158015610738573d6000803e3d6000fd5b50565b600b6020526000908152604090205481565b4260165460010161546002601154011115156108a357601654600090815260146020526040902054600160a060020a031615610808576016546000908152601460209081526040808320546013909252808320549051600160a060020a0390921692600290910480156108fc02929091818181858888f193505050501580156107da573d6000803e3d6000fd5b506016546000818152601360205260408082205460019093018252902080546002909204909101905561082c565b60165460008181526013602052604080822054600190930182529020805490910190555b6016546000818152601460209081526040808320546001850184526013835292819020548151948552600160a060020a039093169184019190915282810191909152517fd25fcdf20d7fe805a994263df712b8fd66c8bf94b0fa01b2f7a96abd7f2683b89181900360600190a16016805460010190555b565b600454600160a060020a031681565b600054600160a060020a031633146108cb57600080fd5b601180549091019055565b60008060008060008061546060115442038115156108f057fe5b04601654600e54600f54601360008c81526020019081526020016000205460146000615460601154420381151561092357fe5b048152602081019190915260400160002054949c939b5091995097509550600160a060020a039091169350915050565b6000806000806000600f54600601600e541015151561096e57fe5b610978600161152e565b600f5460008181526012602090815260408083205460059094018352808320546011546154604291909103048452601590925290912054959a50939850919650945090031115610a5057600f805460059081016000908152601260208181526040808420600101546011805461546042918203819004885260148652848820805473ffffffffffffffffffffffffffffffffffffffff1916600160a060020a03909516949094179093559754808752948452828620549490960185528185205495549096039590950483526015905292902091900390555b5060005b6006811015610bea57848114158015610a6d5750838114155b8015610a795750828114155b8015610a855750818114155b15610b3457600f548101600090815260126020526040808220600101549051600160a060020a0390911691906768155a43676e00009082818181858883f19350505050158015610ad9573d6000803e3d6000fd5b50600f54604080519183018252600160208301526005828201526768155a43676e000060608301525133917fe0351ccf2813b53e9931b8d686c85fdbfe77a9669567398a7129d909a47d00a0919081900360800190a2610be2565b84811415610be257600f548101600090815260126020526040808220600101549051600160a060020a03909116919067b469471f801400009082818181858883f19350505050158015610b8b573d6000803e3d6000fd5b50600f546040805191830182526002602083015260058282015267b469471f8014000060608301525133917fe0351ccf2813b53e9931b8d686c85fdbfe77a9669567398a7129d909a47d00a0919081900360800190a25b600101610a54565b600f80546006019055601054600a9004601360006154606011544203811515610c0f57fe5b0481526020019081526020016000205401601360006154606011544203811515610c3557fe5b0481526020810191909152604001600020555050505050565b60126020526000908152604090208054600190910154600160a060020a031682565b60076020526000908152604090205481565b600660205260009081526040902054600160a060020a031681565b60136020526000908152604090205481565b600160a060020a03166000908152600d60205260409020600190810180549091019055565b60165481565b60006745671f00e9ba80003414610cf057600080fd5b600e8054600090815260126020526040808220600101805473ffffffffffffffffffffffffffffffffffffffff191633908117909155925482529020429055610d4290674563918244f4000090611801565b506010546103e890600502600a54600160a060020a03166000908152600b602052604090208054929091049091019055600e8054600101905590565b600160a060020a039081166000908152600260205260409020541690565b600054600160a060020a03163314610db357600080fd5b600160a060020a0381161515610dc857600080fd5b6001805473ffffffffffffffffffffffffffffffffffffffff1916600160a060020a0392909216919091179055565b60115481565b60096020526000908152604090205481565b600160a060020a03166000908152600d6020526040902042600290910155565b600054600160a060020a031681565b600160a060020a031660009081526007602052604090205490565b604080516020808201859052434082840152825180830384018152606090920192839052815160009384938693909282918401908083835b60208310610eb05780518252601f199092019160209182019101610e91565b5181516020939093036101000a6000190180199091169216919091179052604051920182900390912092505050811515610ee657fe5b06949350505050565b600a54600160a060020a031690565b600a54600160a060020a03166000818152600b602052604080822054905181156108fc0292818181858888f19350505050158015610738573d6000803e3d6000fd5b600160a060020a03166000908152600b602052604090205490565b600360205260009081526040902054600160a060020a031681565b600e5481565b60085481565b60008060008060008060008060008060068b4340604051602001808381526020018260001916600019168152602001925050506040516020818303038152906040526040518082805190602001908083835b60208310610ff35780518252601f199092019160209182019101610fd4565b5181516020939093036101000a600019018019909116921691909117905260405192018290039091209250505081151561102957fe5b604080519290910660208084018290524340848401528251808503840181526060909401928390528351919750600693929182918401908083835b602083106110835780518252601f199092019160209182019101611064565b5181516020939093036101000a60001901801990911692169190911790526040519201829003909120925050508115156110b957fe5b06925060009150828414156110d2576006600185010692505b5060005b60068111611113578381141580156110ee5750828114155b1561110b576000828152600c602052604090208190556001909101905b6001016110d6565b5050600c6020527f13649b2456f1b42fef0f0040b3aaeabcd21a76a0f3f5defd4f583839455116e8547fd421a5181c571bba3f01190c922c3b2a896fc1d84e86c9f17ac10e67ebef8b5c547f5d6016397a73f5e079297ac5a36fef17b4d9c3831618e63ab105738020ddd7205460036000527fc0da782485e77ae272268ae0a3ff44c1552ecb60b3743924de17a815e0a3cfd754949c939b5091995097509550909350915050565b600160a060020a0391821660008181526009602081815260408084209584526001860182528320549390925290529054911691565b600160a060020a03166000908152600d6020526040902080546001019055565b674563918244f4000060643402101561122857600080fd5b336000908152600760205260409020541561124257600080fd5b6402540be40066b1a2bc2ec4ffff19340104600090815260066020526040902054600160a060020a031633141561127857600080fd5b6402540be4003466b1a2bc2ec4ffff19810191909104600090815260066020818152604080842080543380875260028552838720805473ffffffffffffffffffffffffffffffffffffffff19908116600160a060020a0394851617909155600880548952968652848820805482168317905586548289526007875285892055835483168852600980875285892080548a5260019081018852868a2080549093169093179091559254821687529190935281852080548201905583540190925560055491519116926108fc81150292909190818181858888f19350505050158015611366573d6000803e3d6000fd5b50337f09371afb4578ee0c3f43accbe50410e7c3382f6678dbf0584b31633820acb9e36402540be40066b1a2bc2ec4ffff19340160085433600090815260026020908152604091829020548251959094048552840191909152600160a060020a039190911682820152519081900360600190a2565b600090815260066020526040902054600160a060020a031690565b60156020526000908152604090205481565b600f5481565b600260205260009081526040902054600160a060020a031681565b600054600160a060020a0316331461144057600080fd5b600160a060020a038116151561145557600080fd5b6000805473ffffffffffffffffffffffffffffffffffffffff1916600160a060020a0392909216919091179055565b601460205260009081526040902054600160a060020a031681565b600154600160a060020a031681565b600054600160a060020a031633146114c557600080fd5b600160a060020a03811615156114da57600080fd5b600a805473ffffffffffffffffffffffffffffffffffffffff1916600160a060020a0392909216919091179055565b600160a060020a039091166000908152600d6020526040902060030180549091019055565b6000806000806000806000806003894340604051602001808381526020018260001916600019168152602001925050506040516020818303038152906040526040518082805190602001908083835b6020831061159c5780518252601f19909201916020918201910161157d565b5181516020939093036101000a60001901801990911692169190911790526040519201829003909120925050508115156115d257fe5b60408051929091066020808401829052600019430140848401528251808503840181526060909401928390528351919750600293929182918401908083835b602083106116305780518252601f199092019160209182019101611611565b5181516020939093036101000a600019018019909116921691909117905260405192018290039091209250505081151561166657fe5b60408051602080820189905260011943014082840152825180830384018152606090920192839052815194909306965060029390928291908401908083835b602083106116c45780518252601f1990920191602091820191016116a5565b5181516020939093036101000a60001901801990911692169190911790526040519201829003909120925050508115156116fa57fe5b60408051602080820189905260021943014082840152825180830384018152606090920192839052815160029590940685019650909282918401908083835b602083106117585780518252601f199092019160209182019101611739565b5181516020939093036101000a600019018019909116921691909117905260405192018290039091209250505081151561178e57fe5b06600401905083600014156117b7578215156117ad57600193506117b2565b600093505b6117f2565b83600114156117db5781600214156117d257600393506117b2565b600293506117f2565b80600414156117ed57600593506117f2565b600493505b92989197509550909350915050565b600081602d825b60078110156119d757600160a060020a039283166000908152600260205260409020549092169182151561183b576119d7565b80151561187457600160a060020a0383166000908152600b6020526040902080546103e8601489020401905560131991909101906119cf565b80600114156118af57600160a060020a0383166000908152600b6020526040902080546103e8600a89020401905560091991909101906119cf565b80600214156118ea57600160a060020a0383166000908152600b6020526040902080546103e8600589020401905560041991909101906119cf565b806003141561192557600160a060020a0383166000908152600b6020526040902080546103e8600489020401905560031991909101906119cf565b806004141561196057600160a060020a0383166000908152600b6020526040902080546103e8600389020401905560021991909101906119cf565b806005141561199b57600160a060020a0383166000908152600b6020526040902080546103e8600289020401905560011991909101906119cf565b80600614156119cf57600160a060020a0383166000908152600b6020526040902080546103e8880401905560001991909101905b600101611808565b6103e8868302600a54600160a060020a03166000908152600b6020526040902080549290910490910190555034959450505050505600a165627a7a72305820eb2c50d27924c7a960e190e27fac0d2191ce990caacad125ed3fda66137ed3dc0029",
  "source": "pragma solidity ^0.4.21;\n//import \"./Event.sol\";\nimport \"./Layer.sol\";\nimport \"./Layerprofit.sol\";\nimport \"./Random.sol\";\nimport \"./Teambonus.sol\";\nimport \"./ContractInfo.sol\";\ncontract Crazy50 is layer, layerprofit, random, ContractInfo{\n    uint public pooln_Crazy50;\n    uint public poolp_Crazy50= 0;\n    uint revenuc50 = 5 ether;\n    uint public lotteryinittime_Crazy50 = now;\n    struct poolinfo_Crazy50{\n        uint time;\n        address player;\n    }\n\n    mapping(uint => poolinfo_Crazy50) public pool_Crazy50;\n    mapping(uint => uint) public lotterybalance_C50;\n    mapping(uint => address) public winner_C50;\n    mapping(uint => uint) public winnerTime_C50;\n    uint public settle_C50;\n\n    function changeTime_C50(uint target)onlyOwner public{\n        lotteryinittime_Crazy50 = lotteryinittime_Crazy50 +target;\n    }\n\n    function crazygun50() payable public returns (address){\n            require(msg.value == 5.001 ether);\n            pool_Crazy50[pooln_Crazy50].player = msg.sender;\n            pool_Crazy50[pooln_Crazy50].time = block.timestamp;\n            allocateProfit(5 ether,msg.sender);\n            profit[contractAddress] = profit[contractAddress]+revenuc50*5/1000;\n            pooln_Crazy50 = pooln_Crazy50+1;\n    }\n    function search_C50(uint target) public constant returns(uint,uint,uint,uint,uint,address){\n        return ((now-lotteryinittime_Crazy50)/21600, settle_C50, pooln_Crazy50, poolp_Crazy50, lotterybalance_C50[target],winner_C50[(now-lotteryinittime_Crazy50)/21600]);\n    }\n    function crazyprofit_lucky50()public{\n        if((lotteryinittime_Crazy50+21600*(settle_C50+1))<=now){\n            if(winner_C50[settle_C50]!=0x0000000000000000000000000000000000000000){\n                winner_C50[settle_C50].transfer(lotterybalance_C50[settle_C50]/2);\n                lotterybalance_C50[settle_C50+1] = lotterybalance_C50[settle_C50+1] + lotterybalance_C50[settle_C50]/2;\n            }else{\n                lotterybalance_C50[settle_C50+1] = lotterybalance_C50[settle_C50+1] + lotterybalance_C50[settle_C50];                \n            }\n            emit CrazyLotteryEvent(settle_C50, winner_C50[settle_C50], lotterybalance_C50[settle_C50+1]);\n            settle_C50 = settle_C50+1;\n        }\n    }\n    function crazygunprofit50() public{\n        assert(pooln_Crazy50>=poolp_Crazy50+6);\n        uint winnerc50;\n        uint loserc50;\n        uint loser2c50;\n        uint loser3c50;\n        (winnerc50, loserc50, loser2c50, loser3c50) = randomCrazy(1);\n        if(winnerTime_C50[(now-lotteryinittime_Crazy50)/21600] < (pool_Crazy50[poolp_Crazy50+5].time- pool_Crazy50[poolp_Crazy50].time)){\n            winner_C50[(now-lotteryinittime_Crazy50)/21600] = pool_Crazy50[poolp_Crazy50+5].player;\n            winnerTime_C50[(now-lotteryinittime_Crazy50)/21600] = (pool_Crazy50[poolp_Crazy50+5].time- pool_Crazy50[poolp_Crazy50].time);\n        }\n        for(uint i = 0;i < 6; i++){\n            if(i != winnerc50 && i!= loserc50 && i!= loser2c50 && i!= loser3c50){\n                pool_Crazy50[poolp_Crazy50+i].player.transfer(7.5 ether);\n                emit NProfitEvent(poolp_Crazy50+i,msg.sender, 1, 5, 7.5 ether);\n            }\n            else if(i == winnerc50){\n                pool_Crazy50[poolp_Crazy50+i].player.transfer(13 ether);\n                emit NProfitEvent(poolp_Crazy50+i,msg.sender, 2, 5, 13 ether);\n            }\n        }\n        poolp_Crazy50 = poolp_Crazy50+6;\n        lotterybalance_C50[(now-lotteryinittime_Crazy50)/21600] = lotterybalance_C50[(now-lotteryinittime_Crazy50)/21600] + revenuc50/10;\n    }\n\n}",
  "sourcePath": "/home/tung/language/python/contractControl/deployContract/contracts/Crazy50.sol",
  "compiler": {
    "name": "solc",
    "version": "0.4.24+commit.e67f0147.Emscripten.clang"
  },
  "schemaVersion": "2.0.1",
  "updatedAt": "2018-09-25T10:33:16.092Z"
}