{
  "contractName": "Crazy1",
  "abi": [
    {
      "constant": false,
      "inputs": [],
      "name": "getProfitout",
      "outputs": [],
      "payable": false,
      "stateMutability": "nonpayable",
      "type": "function"
    },
    {
      "constant": true,
      "inputs": [
        {
          "name": "",
          "type": "address"
        }
      ],
      "name": "profit",
      "outputs": [
        {
          "name": "",
          "type": "uint256"
        }
      ],
      "payable": false,
      "stateMutability": "view",
      "type": "function"
    },
    {
      "constant": true,
      "inputs": [],
      "name": "layercontract",
      "outputs": [
        {
          "name": "",
          "type": "address"
        }
      ],
      "payable": false,
      "stateMutability": "view",
      "type": "function"
    },
    {
      "constant": true,
      "inputs": [],
      "name": "winnerTime_C1",
      "outputs": [
        {
          "name": "",
          "type": "uint256"
        }
      ],
      "payable": false,
      "stateMutability": "view",
      "type": "function"
    },
    {
      "constant": true,
      "inputs": [],
      "name": "lotteryloser_C1",
      "outputs": [
        {
          "name": "",
          "type": "uint256"
        }
      ],
      "payable": false,
      "stateMutability": "view",
      "type": "function"
    },
    {
      "constant": true,
      "inputs": [
        {
          "name": "",
          "type": "address"
        }
      ],
      "name": "inviteInquire",
      "outputs": [
        {
          "name": "",
          "type": "uint256"
        }
      ],
      "payable": false,
      "stateMutability": "view",
      "type": "function"
    },
    {
      "constant": true,
      "inputs": [
        {
          "name": "",
          "type": "uint256"
        }
      ],
      "name": "inviteNumber",
      "outputs": [
        {
          "name": "",
          "type": "address"
        }
      ],
      "payable": false,
      "stateMutability": "view",
      "type": "function"
    },
    {
      "constant": true,
      "inputs": [],
      "name": "pooln_Crazy1",
      "outputs": [
        {
          "name": "",
          "type": "uint256"
        }
      ],
      "payable": false,
      "stateMutability": "view",
      "type": "function"
    },
    {
      "constant": true,
      "inputs": [],
      "name": "unusedTime_C1",
      "outputs": [
        {
          "name": "",
          "type": "uint256"
        }
      ],
      "payable": false,
      "stateMutability": "view",
      "type": "function"
    },
    {
      "constant": false,
      "inputs": [
        {
          "name": "target",
          "type": "address"
        }
      ],
      "name": "setLose",
      "outputs": [],
      "payable": false,
      "stateMutability": "nonpayable",
      "type": "function"
    },
    {
      "constant": true,
      "inputs": [
        {
          "name": "",
          "type": "uint256"
        }
      ],
      "name": "pool_Crazy1",
      "outputs": [
        {
          "name": "player",
          "type": "address"
        }
      ],
      "payable": false,
      "stateMutability": "view",
      "type": "function"
    },
    {
      "constant": true,
      "inputs": [],
      "name": "finalTime_C1",
      "outputs": [
        {
          "name": "",
          "type": "uint256"
        }
      ],
      "payable": false,
      "stateMutability": "view",
      "type": "function"
    },
    {
      "constant": true,
      "inputs": [
        {
          "name": "target",
          "type": "address"
        }
      ],
      "name": "getlayer",
      "outputs": [
        {
          "name": "",
          "type": "address"
        }
      ],
      "payable": false,
      "stateMutability": "view",
      "type": "function"
    },
    {
      "constant": false,
      "inputs": [
        {
          "name": "newOwner",
          "type": "address"
        }
      ],
      "name": "transferAdmin",
      "outputs": [],
      "payable": false,
      "stateMutability": "nonpayable",
      "type": "function"
    },
    {
      "constant": true,
      "inputs": [],
      "name": "lotterywinner_C1",
      "outputs": [
        {
          "name": "",
          "type": "uint256"
        }
      ],
      "payable": false,
      "stateMutability": "view",
      "type": "function"
    },
    {
      "constant": true,
      "inputs": [
        {
          "name": "",
          "type": "address"
        }
      ],
      "name": "downlineMap",
      "outputs": [
        {
          "name": "downAmount",
          "type": "uint256"
        }
      ],
      "payable": false,
      "stateMutability": "view",
      "type": "function"
    },
    {
      "constant": false,
      "inputs": [
        {
          "name": "target",
          "type": "address"
        }
      ],
      "name": "setTime",
      "outputs": [],
      "payable": false,
      "stateMutability": "nonpayable",
      "type": "function"
    },
    {
      "constant": true,
      "inputs": [],
      "name": "owner",
      "outputs": [
        {
          "name": "",
          "type": "address"
        }
      ],
      "payable": false,
      "stateMutability": "view",
      "type": "function"
    },
    {
      "constant": true,
      "inputs": [
        {
          "name": "target",
          "type": "address"
        }
      ],
      "name": "inviteinquire",
      "outputs": [
        {
          "name": "",
          "type": "uint256"
        }
      ],
      "payable": false,
      "stateMutability": "view",
      "type": "function"
    },
    {
      "constant": true,
      "inputs": [
        {
          "name": "",
          "type": "uint256"
        }
      ],
      "name": "resultMap_C1",
      "outputs": [
        {
          "name": "winner",
          "type": "uint256"
        },
        {
          "name": "loser",
          "type": "uint256"
        },
        {
          "name": "loser1",
          "type": "uint256"
        },
        {
          "name": "loser2",
          "type": "uint256"
        },
        {
          "name": "common3",
          "type": "uint256"
        },
        {
          "name": "common4",
          "type": "uint256"
        }
      ],
      "payable": false,
      "stateMutability": "view",
      "type": "function"
    },
    {
      "constant": true,
      "inputs": [
        {
          "name": "rand",
          "type": "uint256"
        },
        {
          "name": "amount",
          "type": "uint256"
        }
      ],
      "name": "randomLottery",
      "outputs": [
        {
          "name": "",
          "type": "uint256"
        }
      ],
      "payable": false,
      "stateMutability": "view",
      "type": "function"
    },
    {
      "constant": true,
      "inputs": [],
      "name": "contractInquire",
      "outputs": [
        {
          "name": "",
          "type": "address"
        }
      ],
      "payable": false,
      "stateMutability": "view",
      "type": "function"
    },
    {
      "constant": false,
      "inputs": [],
      "name": "getadminProfitout",
      "outputs": [],
      "payable": false,
      "stateMutability": "nonpayable",
      "type": "function"
    },
    {
      "constant": true,
      "inputs": [
        {
          "name": "target",
          "type": "address"
        }
      ],
      "name": "inquire",
      "outputs": [
        {
          "name": "",
          "type": "uint256"
        }
      ],
      "payable": false,
      "stateMutability": "view",
      "type": "function"
    },
    {
      "constant": true,
      "inputs": [
        {
          "name": "",
          "type": "uint256"
        }
      ],
      "name": "player",
      "outputs": [
        {
          "name": "",
          "type": "address"
        }
      ],
      "payable": false,
      "stateMutability": "view",
      "type": "function"
    },
    {
      "constant": true,
      "inputs": [],
      "name": "inviteAmount",
      "outputs": [
        {
          "name": "",
          "type": "uint256"
        }
      ],
      "payable": false,
      "stateMutability": "view",
      "type": "function"
    },
    {
      "constant": true,
      "inputs": [
        {
          "name": "rand",
          "type": "uint256"
        }
      ],
      "name": "randomNewLucky",
      "outputs": [
        {
          "name": "",
          "type": "uint256"
        },
        {
          "name": "",
          "type": "uint256"
        },
        {
          "name": "",
          "type": "uint256"
        },
        {
          "name": "",
          "type": "uint256"
        },
        {
          "name": "",
          "type": "uint256"
        },
        {
          "name": "",
          "type": "uint256"
        }
      ],
      "payable": false,
      "stateMutability": "view",
      "type": "function"
    },
    {
      "constant": true,
      "inputs": [
        {
          "name": "target",
          "type": "address"
        },
        {
          "name": "downnumber",
          "type": "uint256"
        }
      ],
      "name": "downlineSearch",
      "outputs": [
        {
          "name": "",
          "type": "address"
        },
        {
          "name": "",
          "type": "uint256"
        }
      ],
      "payable": false,
      "stateMutability": "view",
      "type": "function"
    },
    {
      "constant": false,
      "inputs": [
        {
          "name": "target",
          "type": "address"
        }
      ],
      "name": "setWin",
      "outputs": [],
      "payable": false,
      "stateMutability": "nonpayable",
      "type": "function"
    },
    {
      "constant": true,
      "inputs": [],
      "name": "lotteryinittime_Crazy1",
      "outputs": [
        {
          "name": "",
          "type": "uint256"
        }
      ],
      "payable": false,
      "stateMutability": "view",
      "type": "function"
    },
    {
      "constant": true,
      "inputs": [],
      "name": "poolp_Crazy1",
      "outputs": [
        {
          "name": "",
          "type": "uint256"
        }
      ],
      "payable": false,
      "stateMutability": "view",
      "type": "function"
    },
    {
      "constant": false,
      "inputs": [],
      "name": "regist",
      "outputs": [],
      "payable": true,
      "stateMutability": "payable",
      "type": "function"
    },
    {
      "constant": true,
      "inputs": [
        {
          "name": "num",
          "type": "uint256"
        }
      ],
      "name": "getinviteNumber",
      "outputs": [
        {
          "name": "",
          "type": "address"
        }
      ],
      "payable": false,
      "stateMutability": "view",
      "type": "function"
    },
    {
      "constant": true,
      "inputs": [],
      "name": "initTime_C1",
      "outputs": [
        {
          "name": "",
          "type": "uint256"
        }
      ],
      "payable": false,
      "stateMutability": "view",
      "type": "function"
    },
    {
      "constant": true,
      "inputs": [
        {
          "name": "",
          "type": "address"
        }
      ],
      "name": "layermap",
      "outputs": [
        {
          "name": "",
          "type": "address"
        }
      ],
      "payable": false,
      "stateMutability": "view",
      "type": "function"
    },
    {
      "constant": false,
      "inputs": [
        {
          "name": "newOwner",
          "type": "address"
        }
      ],
      "name": "transferOwnership",
      "outputs": [],
      "payable": false,
      "stateMutability": "nonpayable",
      "type": "function"
    },
    {
      "constant": true,
      "inputs": [],
      "name": "lotterybalance_C1",
      "outputs": [
        {
          "name": "",
          "type": "uint256"
        }
      ],
      "payable": false,
      "stateMutability": "view",
      "type": "function"
    },
    {
      "constant": true,
      "inputs": [],
      "name": "admin",
      "outputs": [
        {
          "name": "",
          "type": "address"
        }
      ],
      "payable": false,
      "stateMutability": "view",
      "type": "function"
    },
    {
      "constant": false,
      "inputs": [
        {
          "name": "newAddress",
          "type": "address"
        }
      ],
      "name": "changeAddress",
      "outputs": [],
      "payable": false,
      "stateMutability": "nonpayable",
      "type": "function"
    },
    {
      "constant": false,
      "inputs": [
        {
          "name": "target",
          "type": "address"
        },
        {
          "name": "balance",
          "type": "uint256"
        }
      ],
      "name": "setProfit",
      "outputs": [],
      "payable": false,
      "stateMutability": "nonpayable",
      "type": "function"
    },
    {
      "anonymous": false,
      "inputs": [
        {
          "indexed": false,
          "name": "pool",
          "type": "uint256"
        },
        {
          "indexed": true,
          "name": "player",
          "type": "address"
        },
        {
          "indexed": false,
          "name": "status",
          "type": "uint256"
        },
        {
          "indexed": false,
          "name": "types",
          "type": "uint256"
        },
        {
          "indexed": false,
          "name": "balance",
          "type": "uint256"
        }
      ],
      "name": "NProfitEvent",
      "type": "event"
    },
    {
      "anonymous": false,
      "inputs": [
        {
          "indexed": true,
          "name": "player",
          "type": "address"
        },
        {
          "indexed": false,
          "name": "balance",
          "type": "uint256"
        }
      ],
      "name": "LProfitEvent",
      "type": "event"
    },
    {
      "anonymous": false,
      "inputs": [
        {
          "indexed": true,
          "name": "player",
          "type": "address"
        },
        {
          "indexed": false,
          "name": "inputNumber",
          "type": "uint256"
        },
        {
          "indexed": false,
          "name": "registNumber",
          "type": "uint256"
        },
        {
          "indexed": false,
          "name": "upline",
          "type": "address"
        }
      ],
      "name": "RegistEvent",
      "type": "event"
    },
    {
      "anonymous": false,
      "inputs": [
        {
          "indexed": false,
          "name": "pool",
          "type": "uint256"
        },
        {
          "indexed": false,
          "name": "winner",
          "type": "uint256"
        },
        {
          "indexed": false,
          "name": "loser",
          "type": "uint256"
        }
      ],
      "name": "LuckyProfitEvent",
      "type": "event"
    },
    {
      "anonymous": false,
      "inputs": [
        {
          "indexed": false,
          "name": "pool",
          "type": "uint256"
        },
        {
          "indexed": false,
          "name": "winner",
          "type": "uint256"
        },
        {
          "indexed": false,
          "name": "loser1",
          "type": "uint256"
        },
        {
          "indexed": false,
          "name": "loser2",
          "type": "uint256"
        },
        {
          "indexed": false,
          "name": "loser3",
          "type": "uint256"
        }
      ],
      "name": "CrazyProfitEvent",
      "type": "event"
    },
    {
      "anonymous": false,
      "inputs": [
        {
          "indexed": false,
          "name": "pool",
          "type": "uint256"
        },
        {
          "indexed": false,
          "name": "winner",
          "type": "address"
        },
        {
          "indexed": false,
          "name": "loser",
          "type": "address"
        },
        {
          "indexed": false,
          "name": "balance",
          "type": "uint256"
        }
      ],
      "name": "LuckyLotteryEvent",
      "type": "event"
    },
    {
      "anonymous": false,
      "inputs": [
        {
          "indexed": false,
          "name": "pool",
          "type": "uint256"
        },
        {
          "indexed": false,
          "name": "winner",
          "type": "address"
        },
        {
          "indexed": false,
          "name": "balance",
          "type": "uint256"
        }
      ],
      "name": "CrazyLotteryEvent",
      "type": "event"
    },
    {
      "constant": false,
      "inputs": [
        {
          "name": "target",
          "type": "uint256"
        }
      ],
      "name": "changeTime_C1",
      "outputs": [],
      "payable": false,
      "stateMutability": "nonpayable",
      "type": "function"
    },
    {
      "constant": false,
      "inputs": [],
      "name": "gun_crazy1",
      "outputs": [
        {
          "name": "",
          "type": "address"
        }
      ],
      "payable": true,
      "stateMutability": "payable",
      "type": "function"
    },
    {
      "constant": true,
      "inputs": [
        {
          "name": "target",
          "type": "uint256"
        }
      ],
      "name": "search_C1",
      "outputs": [
        {
          "name": "",
          "type": "uint256"
        },
        {
          "name": "",
          "type": "uint256"
        },
        {
          "name": "",
          "type": "uint256"
        },
        {
          "name": "",
          "type": "uint256"
        },
        {
          "name": "",
          "type": "uint256"
        }
      ],
      "payable": false,
      "stateMutability": "view",
      "type": "function"
    }
  ],
  "bytecode": "0x608060405260058054600160a060020a0319908116733ee8ae904830a51a4cbf7588b02f05a33f870576908117909255600a805482169092179091556000600f8190554260105567016345785d8a00006011556015819055601681905560178190556018819055601981905580548216339081178255600180548416909117905560026020527f18f1d23d7a10cac9f2cff6e1bc2ef966f346d94e1184ea3e7b3d28cd54f832b18054831673ca35b7d915458ef540ade6068dfe2f44e8fa733c9081179091557f607777b8448e550d2f696346b44302d0d20fbbf153248130a07986371a4e73b4805484167314723a09acff6d2a60dcdf7aa4aff308fddc160c1790557ffb612a231b0162d240ed546c8f3107c6367b8eb46a76ad4b0875aea09104737780548416734b0897b0513fdc7c541b6d9d7e929c4e5364d2db1790557f98d1541b15506a8f982c558cf5652ea207c0b443b27ca7c43de33942a088a4238054841673583031d1113ad414f02576bd6afabfb3021402251790557f0f074079ac900e74abbceed97ddd566c2fd1c9a1ab4935abacb04e18f9d87f3f8054841673dd870fa1b7c4700f2bd7f44238821c26f73921481790557fbfffd67dd3d8d8f0e0b6fd4f34d5fc0f06e3b6ce39c5f1eb451475bf10b548e58054841672a0a0dce3ea7b5529b878e1a832362fcffe6510179055733e5c27761215232ca0b298ef87e0cbecbc0da1fd9091527f26ee6f658328d33f1ff942b986ea38d5a5a5707098bad82c05ae0a89f2fa725880549092161790556118c4806102456000396000f30060806040526004361061020d5763ffffffff7c01000000000000000000000000000000000000000000000000000000006000350416624a7fe481146102125780630101ec861461022c57806302550e4d146102415780630e283f3514610274578063240e7237146102a55780632507c31c146102ba57806333800f37146102cf5780633f91d2cb146102d7578063429ee4dc146102f85780634bec36e01461031057806352d2ec75146103255780635568b0ae1461033a5780636c8f2ade1461035b5780636f685117146103735780637510ecdc1461038857806375829def146103a95780637c642400146103ca5780638542b7f8146103df5780638cb32352146104005780638da5cb5b146104215780638ed10dc8146104365780639403c160146104575780639435245e146104a2578063971b1c26146104bd57806399b72aac146104d25780639a30c185146104e75780639e0551c614610508578063a54fa82f14610520578063b78eafe614610535578063be86618b14610578578063bec27be014610590578063c041b059146105d7578063c0b259ca146105f8578063c4fa52b31461060d578063cb4b6b8a14610622578063ceb73a911461062a578063d55c38fc14610642578063f0f1b03314610657578063f2fde38b14610678578063f406951414610699578063f851a440146106ae578063fe64d6ff146106c3578063fee73e86146106e4575b600080fd5b34801561021e57600080fd5b5061022a600435610708565b005b34801561023857600080fd5b5061022a61072b565b34801561024d57600080fd5b50610262600160a060020a0360043516610765565b60408051918252519081900360200190f35b34801561028057600080fd5b50610289610777565b60408051600160a060020a039092168252519081900360200190f35b3480156102b157600080fd5b50610262610786565b3480156102c657600080fd5b5061026261078c565b610289610792565b3480156102e357600080fd5b50610262600160a060020a0360043516610e01565b34801561030457600080fd5b50610289600435610e13565b34801561031c57600080fd5b50610262610e2e565b34801561033157600080fd5b50610262610e34565b34801561034657600080fd5b5061022a600160a060020a0360043516610e3a565b34801561036757600080fd5b50610289600435610e5f565b34801561037f57600080fd5b50610262610e7a565b34801561039457600080fd5b50610289600160a060020a0360043516610e80565b3480156103b557600080fd5b5061022a600160a060020a0360043516610e9e565b3480156103d657600080fd5b50610262610ef9565b3480156103eb57600080fd5b50610262600160a060020a0360043516610eff565b34801561040c57600080fd5b5061022a600160a060020a0360043516610f11565b34801561042d57600080fd5b50610289610f31565b34801561044257600080fd5b50610262600160a060020a0360043516610f40565b34801561046357600080fd5b5061046f600435610f5b565b604080519687526020870195909552858501939093526060850191909152608084015260a0830152519081900360c00190f35b3480156104ae57600080fd5b50610262600435602435610f90565b3480156104c957600080fd5b50610289611026565b3480156104de57600080fd5b5061022a611035565b3480156104f357600080fd5b50610262600160a060020a0360043516611077565b34801561051457600080fd5b50610289600435611092565b34801561052c57600080fd5b506102626110ad565b34801561054157600080fd5b5061054d6004356110b3565b6040805195865260208601949094528484019290925260608401526080830152519081900360a00190f35b34801561058457600080fd5b5061046f6004356110fb565b34801561059c57600080fd5b506105b4600160a060020a0360043516602435611334565b60408051600160a060020a03909316835260208301919091528051918290030190f35b3480156105e357600080fd5b5061022a600160a060020a0360043516611369565b34801561060457600080fd5b50610262611389565b34801561061957600080fd5b5061026261138f565b61022a611395565b34801561063657600080fd5b50610289600435611560565b34801561064e57600080fd5b5061026261157b565b34801561066357600080fd5b50610289600160a060020a0360043516611581565b34801561068457600080fd5b5061022a600160a060020a036004351661159c565b3480156106a557600080fd5b506102626115f7565b3480156106ba57600080fd5b506102896115fd565b3480156106cf57600080fd5b5061022a600160a060020a036004351661160c565b3480156106f057600080fd5b5061022a600160a060020a0360043516602435611667565b600054600160a060020a0316331461071f57600080fd5b60108054919091039055565b336000818152600b602052604080822054905181156108fc0292818181858888f19350505050158015610762573d6000803e3d6000fd5b50565b600b6020526000908152604090205481565b600454600160a060020a031681565b60175481565b60195481565b6000670166d2f70250800034146107a857600080fd5b60105461546001421180156107bf57506001601854115b1561084957601260006107d56127106006610f90565b601854018152602081019190915260400160002054601354600160a060020a03909116906108fc90606490603202049081150290604051600060405180830381858888f1935050505015801561082f573d6000803e3d6000fd5b506013546002900460135560016017819055426010556018555b600e546000908152601260205260409020805473ffffffffffffffffffffffffffffffffffffffff1916331790556011546103e890600502600a54600160a060020a03166000908152600b6020526040902080549290910490910190556108b867016345785d8a00003361168c565b506108c360016110fb565b601a60006006600e548115156108d557fe5b0681526020019081526020016000206000016000601a60006006600e548115156108fb57fe5b0681526020019081526020016000206001016000601a60006006600e5481151561092157fe5b0681526020019081526020016000206002016000601a60006006600e5481151561094757fe5b0681526020019081526020016000206003016000601a60006006600e5481151561096d57fe5b0681526020019081526020016000206004016000601a60006006600e5481151561099357fe5b06815260208101919091526040016000206005019a909a5599909955989098559790975596909655959095555050600e546006119250610de191505057600e54600690061515610a5a577fb75ecc04ed35f89790e98640e901bda41eceff0cb896cf2765fb69768025375054600e546006810690030160051901600090815260126020526040808220549051600160a060020a03909116919067039bb49f599a00009082818181858883f19350505050158015610a54573d6000803e3d6000fd5b50426014555b600e546006900660011415610adf577fb75ecc04ed35f89790e98640e901bda41eceff0cb896cf2765fb69768025375154600e546006810690030160051901600090815260126020526040808220549051600160a060020a03909116919060019082818181858883f19350505050158015610ad9573d6000803e3d6000fd5b50426016555b600e546006900660021415610b64577fb75ecc04ed35f89790e98640e901bda41eceff0cb896cf2765fb69768025375254600e546006810690030160051901600090815260126020526040808220549051600160a060020a03909116919060019082818181858883f19350505050158015610b5e573d6000803e3d6000fd5b50426016555b600e546006900660031415610be9577fb75ecc04ed35f89790e98640e901bda41eceff0cb896cf2765fb69768025375354600e546006810690030160051901600090815260126020526040808220549051600160a060020a03909116919060019082818181858883f19350505050158015610be3573d6000803e3d6000fd5b50426016555b600e546006900660041415610c75577fb75ecc04ed35f89790e98640e901bda41eceff0cb896cf2765fb69768025375454600e546006810690030160051901600090815260126020526040808220549051600160a060020a039091169190670214e8348c4f00009082818181858883f19350505050158015610c6f573d6000803e3d6000fd5b50426016555b600e546006900660051415610d01577fb75ecc04ed35f89790e98640e901bda41eceff0cb896cf2765fb69768025375554600e546006810690030160051901600090815260126020526040808220549051600160a060020a039091169190670214e8348c4f00009082818181858883f19350505050158015610cfb573d6000803e3d6000fd5b50426015555b600e54600690066005148015610d1f57506017546014546015540311155b15610d395760145460155403601655600e54600419016019555b600e54600690066005148015610d56575060175460145460155403115b15610d705760145460155403601755600e54600419016018555b600e5460069006600514158015610d8e575060175460145460155403115b15610da85760145460155403601655600e54600419016019555b600e5460069006600514158015610dc757506017546014546015540311155b15610de15760145460155403601655600e54600419016019555b601154603c900460135401601381905550600e54600101600e8190555090565b60076020526000908152604090205481565b600660205260009081526040902054600160a060020a031681565b600e5481565b60165481565b600160a060020a03166000908152600d60205260409020600190810180549091019055565b601260205260009081526040902054600160a060020a031681565b60155481565b600160a060020a039081166000908152600260205260409020541690565b600054600160a060020a03163314610eb557600080fd5b600160a060020a0381161515610eca57600080fd5b6001805473ffffffffffffffffffffffffffffffffffffffff1916600160a060020a0392909216919091179055565b60185481565b60096020526000908152604090205481565b600160a060020a03166000908152600d6020526040902042600290910155565b600054600160a060020a031681565b600160a060020a031660009081526007602052604090205490565b601a60205260009081526040902080546001820154600283015460038401546004850154600590950154939492939192909186565b604080516020808201859052434082840152825180830384018152606090920192839052815160009384938693909282918401908083835b60208310610fe75780518252601f199092019160209182019101610fc8565b5181516020939093036101000a600019018019909116921691909117905260405192018290039091209250505081151561101d57fe5b06949350505050565b600a54600160a060020a031690565b600a54600160a060020a03166000818152600b602052604080822054905181156108fc0292818181858888f19350505050158015610762573d6000803e3d6000fd5b600160a060020a03166000908152600b602052604090205490565b600360205260009081526040902054600160a060020a031681565b60085481565b600080600080600061546060105442038115156110cc57fe5b046000600e546006600e548115156110e057fe5b600e54601354959c949b509299500690039550909350915050565b60008060008060008060008060008060068b4340604051602001808381526020018260001916600019168152602001925050506040516020818303038152906040526040518082805190602001908083835b6020831061116c5780518252601f19909201916020918201910161114d565b5181516020939093036101000a60001901801990911692169190911790526040519201829003909120925050508115156111a257fe5b604080519290910660208084018290524340848401528251808503840181526060909401928390528351919750600693929182918401908083835b602083106111fc5780518252601f1990920191602091820191016111dd565b5181516020939093036101000a600019018019909116921691909117905260405192018290039091209250505081151561123257fe5b069250600091508284141561124b576006600185010692505b5060005b6006811161128c578381141580156112675750828114155b15611284576000828152600c602052604090208190556001909101905b60010161124f565b5050600c6020527f13649b2456f1b42fef0f0040b3aaeabcd21a76a0f3f5defd4f583839455116e8547fd421a5181c571bba3f01190c922c3b2a896fc1d84e86c9f17ac10e67ebef8b5c547f5d6016397a73f5e079297ac5a36fef17b4d9c3831618e63ab105738020ddd7205460036000527fc0da782485e77ae272268ae0a3ff44c1552ecb60b3743924de17a815e0a3cfd754949c939b5091995097509550909350915050565b600160a060020a0391821660008181526009602081815260408084209584526001860182528320549390925290529054911691565b600160a060020a03166000908152600d6020526040902080546001019055565b60105481565b600f5481565b674563918244f400006064340210156113ad57600080fd5b33600090815260076020526040902054156113c757600080fd5b6402540be40066b1a2bc2ec4ffff19340104600090815260066020526040902054600160a060020a03163314156113fd57600080fd5b6402540be4003466b1a2bc2ec4ffff19810191909104600090815260066020818152604080842080543380875260028552838720805473ffffffffffffffffffffffffffffffffffffffff19908116600160a060020a0394851617909155600880548952968652848820805482168317905586548289526007875285892055835483168852600980875285892080548a5260019081018852868a2080549093169093179091559254821687529190935281852080548201905583540190925560055491519116926108fc81150292909190818181858888f193505050501580156114eb573d6000803e3d6000fd5b50337f09371afb4578ee0c3f43accbe50410e7c3382f6678dbf0584b31633820acb9e36402540be40066b1a2bc2ec4ffff19340160085433600090815260026020908152604091829020548251959094048552840191909152600160a060020a039190911682820152519081900360600190a2565b600090815260066020526040902054600160a060020a031690565b60145481565b600260205260009081526040902054600160a060020a031681565b600054600160a060020a031633146115b357600080fd5b600160a060020a03811615156115c857600080fd5b6000805473ffffffffffffffffffffffffffffffffffffffff1916600160a060020a0392909216919091179055565b60135481565b600154600160a060020a031681565b600054600160a060020a0316331461162357600080fd5b600160a060020a038116151561163857600080fd5b600a805473ffffffffffffffffffffffffffffffffffffffff1916600160a060020a0392909216919091179055565b600160a060020a039091166000908152600d6020526040902060030180549091019055565b600081602d825b600781101561186257600160a060020a03928316600090815260026020526040902054909216918215156116c657611862565b8015156116ff57600160a060020a0383166000908152600b6020526040902080546103e86014890204019055601319919091019061185a565b806001141561173a57600160a060020a0383166000908152600b6020526040902080546103e8600a890204019055600919919091019061185a565b806002141561177557600160a060020a0383166000908152600b6020526040902080546103e86005890204019055600419919091019061185a565b80600314156117b057600160a060020a0383166000908152600b6020526040902080546103e86004890204019055600319919091019061185a565b80600414156117eb57600160a060020a0383166000908152600b6020526040902080546103e86003890204019055600219919091019061185a565b806005141561182657600160a060020a0383166000908152600b6020526040902080546103e86002890204019055600119919091019061185a565b806006141561185a57600160a060020a0383166000908152600b6020526040902080546103e8880401905560001991909101905b600101611693565b6103e8868302600a54600160a060020a03166000908152600b6020526040902080549290910490910190555034959450505050505600a165627a7a723058200de30a04e6315db022b58dce478740aa053b01ad5dbcc5958de40da36315d8950029",
  "source": "pragma solidity ^0.4.21;\n//import \"./Event.sol\";\nimport \"./Layer.sol\";\nimport \"./Layerprofit.sol\";\nimport \"./Random.sol\";\nimport \"./Teambonus.sol\";\nimport \"./ContractInfo.sol\";\ncontract Crazy1 is layer, layerprofit, random, ContractInfo{\n    uint public pooln_Crazy1;\n    uint public poolp_Crazy1=0;\n    uint public lotteryinittime_Crazy1 = now;\n    uint revenuc1 = 0.1 ether;\n    struct poolinfo_Crazy1{\n        address player;\n    }\n    mapping(uint => poolinfo_Crazy1) public pool_Crazy1;\n    uint public lotterybalance_C1;\n    //\n    //mapping(uint => uint) public initTime_C1;\n    uint public initTime_C1;\n    //mapping(uint => uint) public winnerTime_C1;\n    uint public finalTime_C1 = 0;\n    \n    uint public unusedTime_C1 =0;\n    \n    uint public winnerTime_C1 = 0;\n    \n    uint public lotterywinner_C1=0;\n    uint public lotteryloser_C1=0;\n    function changeTime_C1(uint target)onlyOwner public{\n        lotteryinittime_Crazy1 = lotteryinittime_Crazy1 -target;\n    }\n    struct resultInfo_C1{\n        uint winner;\n        uint loser;\n        uint loser1;\n        uint loser2;\n        uint common3;\n        uint common4;\n    }\n    mapping(uint => resultInfo_C1) public resultMap_C1;\n    function gun_crazy1() public payable returns (address){\n            require(msg.value == 0.101 ether);\n            if(now>lotteryinittime_Crazy1+21600&&lotterywinner_C1>1){\n                pool_Crazy1[lotterywinner_C1+randomLottery(10000,6)].player.transfer(lotterybalance_C1*50/100);\n                lotterybalance_C1 = lotterybalance_C1/2;\n                winnerTime_C1 = 1;\n                lotteryinittime_Crazy1 = now;\n                lotterywinner_C1 =1;\n            }\n            pool_Crazy1[pooln_Crazy1].player = msg.sender;\n            profit[contractAddress] = profit[contractAddress]+revenuc1*5/1000;\n            allocateProfit(0.1 ether,msg.sender);\n            (resultMap_C1[pooln_Crazy1%6].winner,\n            resultMap_C1[pooln_Crazy1%6].loser,\n            resultMap_C1[pooln_Crazy1%6].loser1,\n            resultMap_C1[pooln_Crazy1%6].loser2,\n            resultMap_C1[pooln_Crazy1%6].common3,\n            resultMap_C1[pooln_Crazy1%6].common4) = randomNewLucky(1);\n            if(pooln_Crazy1>=6){\n                if(pooln_Crazy1%6==0){\n                    pool_Crazy1[((pooln_Crazy1-pooln_Crazy1%6)+resultMap_C1[0].winner)-6].player.transfer(0.26 ether);\n                    initTime_C1 = now;\n                }\n                if(pooln_Crazy1%6==1){\n                    pool_Crazy1[((pooln_Crazy1-pooln_Crazy1%6)+resultMap_C1[0].loser)-6].player.transfer(1 wei);\n                    unusedTime_C1 = now;\n                }\n                if(pooln_Crazy1%6==2){\n                    pool_Crazy1[((pooln_Crazy1-pooln_Crazy1%6)+resultMap_C1[0].loser1)-6].player.transfer(1 wei);\n                    unusedTime_C1 = now;\n                }\n                if(pooln_Crazy1%6==3){\n                    pool_Crazy1[((pooln_Crazy1-pooln_Crazy1%6)+resultMap_C1[0].loser2)-6].player.transfer(1 wei);\n                    unusedTime_C1 = now;\n                }\n                if(pooln_Crazy1%6==4){\n                    pool_Crazy1[((pooln_Crazy1-pooln_Crazy1%6)+resultMap_C1[0].common3)-6].player.transfer(0.15 ether);\n                    unusedTime_C1 = now;\n                }\n                if(pooln_Crazy1%6==5){\n                    pool_Crazy1[((pooln_Crazy1-pooln_Crazy1%6)+resultMap_C1[0].common4)-6].player.transfer(0.15 ether);\n                    finalTime_C1 = now;\n                }\n\n                    if(pooln_Crazy1%6==5&&finalTime_C1-initTime_C1 <= winnerTime_C1){\n                        unusedTime_C1 = finalTime_C1-initTime_C1;\n                        lotteryloser_C1 = pooln_Crazy1-5;\n                    }\n                    if(pooln_Crazy1%6==5&&finalTime_C1-initTime_C1 > winnerTime_C1){\n                        winnerTime_C1 = finalTime_C1-initTime_C1;\n                        lotterywinner_C1 = pooln_Crazy1-5;\n                    }\n                    if(pooln_Crazy1%6!=5&&finalTime_C1-initTime_C1 > winnerTime_C1){\n                        unusedTime_C1 = finalTime_C1-initTime_C1;\n                        lotteryloser_C1 = pooln_Crazy1-5;\n                    }\n                    if(pooln_Crazy1%6!=5&&finalTime_C1-initTime_C1 <= winnerTime_C1){\n                        unusedTime_C1 = finalTime_C1-initTime_C1;\n                        lotteryloser_C1 = pooln_Crazy1-5;\n                    }\n            }\n            lotterybalance_C1 = lotterybalance_C1 + revenuc1/60;\n            pooln_Crazy1 = pooln_Crazy1+1;\n    }\n    \n    //..\n    function search_C1(uint target) public constant returns(uint,uint,uint,uint,uint){\n        return ((now-lotteryinittime_Crazy1)/21600, 0, pooln_Crazy1, pooln_Crazy1-pooln_Crazy1%6, lotterybalance_C1);\n    }\n}",
  "sourcePath": "/home/tung/language/python/contractControl/deployContract/contracts/Crazy1.sol",
  "compiler": {
    "name": "solc",
    "version": "0.4.24+commit.e67f0147.Emscripten.clang"
  },
  "schemaVersion": "2.0.1",
  "updatedAt": "2018-09-25T10:33:16.147Z"
}