{
  "contractName": "Crazy50",
  "abi": [
    {
      "constant": false,
      "inputs": [],
      "name": "getProfitout",
      "outputs": [],
      "payable": false,
      "stateMutability": "nonpayable",
      "type": "function"
    },
    {
      "constant": true,
      "inputs": [
        {
          "name": "",
          "type": "address"
        }
      ],
      "name": "profit",
      "outputs": [
        {
          "name": "",
          "type": "uint256"
        }
      ],
      "payable": false,
      "stateMutability": "view",
      "type": "function"
    },
    {
      "constant": true,
      "inputs": [],
      "name": "layercontract",
      "outputs": [
        {
          "name": "",
          "type": "address"
        }
      ],
      "payable": false,
      "stateMutability": "view",
      "type": "function"
    },
    {
      "constant": true,
      "inputs": [
        {
          "name": "",
          "type": "uint256"
        }
      ],
      "name": "pool_Crazy50",
      "outputs": [
        {
          "name": "time",
          "type": "uint256"
        },
        {
          "name": "player",
          "type": "address"
        }
      ],
      "payable": false,
      "stateMutability": "view",
      "type": "function"
    },
    {
      "constant": true,
      "inputs": [
        {
          "name": "",
          "type": "address"
        }
      ],
      "name": "inviteInquire",
      "outputs": [
        {
          "name": "",
          "type": "uint256"
        }
      ],
      "payable": false,
      "stateMutability": "view",
      "type": "function"
    },
    {
      "constant": true,
      "inputs": [
        {
          "name": "",
          "type": "uint256"
        }
      ],
      "name": "inviteNumber",
      "outputs": [
        {
          "name": "",
          "type": "address"
        }
      ],
      "payable": false,
      "stateMutability": "view",
      "type": "function"
    },
    {
      "constant": true,
      "inputs": [
        {
          "name": "",
          "type": "uint256"
        }
      ],
      "name": "lotterybalance_C50",
      "outputs": [
        {
          "name": "",
          "type": "uint256"
        }
      ],
      "payable": false,
      "stateMutability": "view",
      "type": "function"
    },
    {
      "constant": false,
      "inputs": [
        {
          "name": "target",
          "type": "address"
        }
      ],
      "name": "setLose",
      "outputs": [],
      "payable": false,
      "stateMutability": "nonpayable",
      "type": "function"
    },
    {
      "constant": true,
      "inputs": [],
      "name": "settle_C50",
      "outputs": [
        {
          "name": "",
          "type": "uint256"
        }
      ],
      "payable": false,
      "stateMutability": "view",
      "type": "function"
    },
    {
      "constant": true,
      "inputs": [
        {
          "name": "target",
          "type": "address"
        }
      ],
      "name": "getlayer",
      "outputs": [
        {
          "name": "",
          "type": "address"
        }
      ],
      "payable": false,
      "stateMutability": "view",
      "type": "function"
    },
    {
      "constant": false,
      "inputs": [
        {
          "name": "newOwner",
          "type": "address"
        }
      ],
      "name": "transferAdmin",
      "outputs": [],
      "payable": false,
      "stateMutability": "nonpayable",
      "type": "function"
    },
    {
      "constant": true,
      "inputs": [],
      "name": "lotteryinittime_Crazy50",
      "outputs": [
        {
          "name": "",
          "type": "uint256"
        }
      ],
      "payable": false,
      "stateMutability": "view",
      "type": "function"
    },
    {
      "constant": true,
      "inputs": [
        {
          "name": "",
          "type": "address"
        }
      ],
      "name": "downlineMap",
      "outputs": [
        {
          "name": "downAmount",
          "type": "uint256"
        }
      ],
      "payable": false,
      "stateMutability": "view",
      "type": "function"
    },
    {
      "constant": false,
      "inputs": [
        {
          "name": "target",
          "type": "address"
        }
      ],
      "name": "setTime",
      "outputs": [],
      "payable": false,
      "stateMutability": "nonpayable",
      "type": "function"
    },
    {
      "constant": true,
      "inputs": [],
      "name": "owner",
      "outputs": [
        {
          "name": "",
          "type": "address"
        }
      ],
      "payable": false,
      "stateMutability": "view",
      "type": "function"
    },
    {
      "constant": true,
      "inputs": [
        {
          "name": "target",
          "type": "address"
        }
      ],
      "name": "inviteinquire",
      "outputs": [
        {
          "name": "",
          "type": "uint256"
        }
      ],
      "payable": false,
      "stateMutability": "view",
      "type": "function"
    },
    {
      "constant": true,
      "inputs": [
        {
          "name": "rand",
          "type": "uint256"
        },
        {
          "name": "amount",
          "type": "uint256"
        }
      ],
      "name": "randomLottery",
      "outputs": [
        {
          "name": "",
          "type": "uint256"
        }
      ],
      "payable": false,
      "stateMutability": "view",
      "type": "function"
    },
    {
      "constant": true,
      "inputs": [],
      "name": "contractInquire",
      "outputs": [
        {
          "name": "",
          "type": "address"
        }
      ],
      "payable": false,
      "stateMutability": "view",
      "type": "function"
    },
    {
      "constant": false,
      "inputs": [],
      "name": "getadminProfitout",
      "outputs": [],
      "payable": false,
      "stateMutability": "nonpayable",
      "type": "function"
    },
    {
      "constant": true,
      "inputs": [
        {
          "name": "target",
          "type": "address"
        }
      ],
      "name": "inquire",
      "outputs": [
        {
          "name": "",
          "type": "uint256"
        }
      ],
      "payable": false,
      "stateMutability": "view",
      "type": "function"
    },
    {
      "constant": true,
      "inputs": [
        {
          "name": "",
          "type": "uint256"
        }
      ],
      "name": "player",
      "outputs": [
        {
          "name": "",
          "type": "address"
        }
      ],
      "payable": false,
      "stateMutability": "view",
      "type": "function"
    },
    {
      "constant": true,
      "inputs": [],
      "name": "pooln_Crazy50",
      "outputs": [
        {
          "name": "",
          "type": "uint256"
        }
      ],
      "payable": false,
      "stateMutability": "view",
      "type": "function"
    },
    {
      "constant": true,
      "inputs": [],
      "name": "inviteAmount",
      "outputs": [
        {
          "name": "",
          "type": "uint256"
        }
      ],
      "payable": false,
      "stateMutability": "view",
      "type": "function"
    },
    {
      "constant": true,
      "inputs": [
        {
          "name": "rand",
          "type": "uint256"
        }
      ],
      "name": "randomNewLucky",
      "outputs": [
        {
          "name": "",
          "type": "uint256"
        },
        {
          "name": "",
          "type": "uint256"
        },
        {
          "name": "",
          "type": "uint256"
        },
        {
          "name": "",
          "type": "uint256"
        },
        {
          "name": "",
          "type": "uint256"
        },
        {
          "name": "",
          "type": "uint256"
        }
      ],
      "payable": false,
      "stateMutability": "view",
      "type": "function"
    },
    {
      "constant": true,
      "inputs": [
        {
          "name": "target",
          "type": "address"
        },
        {
          "name": "downnumber",
          "type": "uint256"
        }
      ],
      "name": "downlineSearch",
      "outputs": [
        {
          "name": "",
          "type": "address"
        },
        {
          "name": "",
          "type": "uint256"
        }
      ],
      "payable": false,
      "stateMutability": "view",
      "type": "function"
    },
    {
      "constant": false,
      "inputs": [
        {
          "name": "target",
          "type": "address"
        }
      ],
      "name": "setWin",
      "outputs": [],
      "payable": false,
      "stateMutability": "nonpayable",
      "type": "function"
    },
    {
      "constant": false,
      "inputs": [],
      "name": "regist",
      "outputs": [],
      "payable": true,
      "stateMutability": "payable",
      "type": "function"
    },
    {
      "constant": true,
      "inputs": [
        {
          "name": "num",
          "type": "uint256"
        }
      ],
      "name": "getinviteNumber",
      "outputs": [
        {
          "name": "",
          "type": "address"
        }
      ],
      "payable": false,
      "stateMutability": "view",
      "type": "function"
    },
    {
      "constant": true,
      "inputs": [
        {
          "name": "",
          "type": "uint256"
        }
      ],
      "name": "winnerTime_C50",
      "outputs": [
        {
          "name": "",
          "type": "uint256"
        }
      ],
      "payable": false,
      "stateMutability": "view",
      "type": "function"
    },
    {
      "constant": true,
      "inputs": [],
      "name": "poolp_Crazy50",
      "outputs": [
        {
          "name": "",
          "type": "uint256"
        }
      ],
      "payable": false,
      "stateMutability": "view",
      "type": "function"
    },
    {
      "constant": true,
      "inputs": [
        {
          "name": "",
          "type": "address"
        }
      ],
      "name": "layermap",
      "outputs": [
        {
          "name": "",
          "type": "address"
        }
      ],
      "payable": false,
      "stateMutability": "view",
      "type": "function"
    },
    {
      "constant": false,
      "inputs": [
        {
          "name": "newOwner",
          "type": "address"
        }
      ],
      "name": "transferOwnership",
      "outputs": [],
      "payable": false,
      "stateMutability": "nonpayable",
      "type": "function"
    },
    {
      "constant": true,
      "inputs": [
        {
          "name": "",
          "type": "uint256"
        }
      ],
      "name": "winner_C50",
      "outputs": [
        {
          "name": "",
          "type": "address"
        }
      ],
      "payable": false,
      "stateMutability": "view",
      "type": "function"
    },
    {
      "constant": true,
      "inputs": [],
      "name": "admin",
      "outputs": [
        {
          "name": "",
          "type": "address"
        }
      ],
      "payable": false,
      "stateMutability": "view",
      "type": "function"
    },
    {
      "constant": false,
      "inputs": [
        {
          "name": "newAddress",
          "type": "address"
        }
      ],
      "name": "changeAddress",
      "outputs": [],
      "payable": false,
      "stateMutability": "nonpayable",
      "type": "function"
    },
    {
      "constant": false,
      "inputs": [
        {
          "name": "target",
          "type": "address"
        },
        {
          "name": "balance",
          "type": "uint256"
        }
      ],
      "name": "setProfit",
      "outputs": [],
      "payable": false,
      "stateMutability": "nonpayable",
      "type": "function"
    },
    {
      "anonymous": false,
      "inputs": [
        {
          "indexed": false,
          "name": "pool",
          "type": "uint256"
        },
        {
          "indexed": true,
          "name": "player",
          "type": "address"
        },
        {
          "indexed": false,
          "name": "status",
          "type": "uint256"
        },
        {
          "indexed": false,
          "name": "types",
          "type": "uint256"
        },
        {
          "indexed": false,
          "name": "balance",
          "type": "uint256"
        }
      ],
      "name": "NProfitEvent",
      "type": "event"
    },
    {
      "anonymous": false,
      "inputs": [
        {
          "indexed": true,
          "name": "player",
          "type": "address"
        },
        {
          "indexed": false,
          "name": "balance",
          "type": "uint256"
        }
      ],
      "name": "LProfitEvent",
      "type": "event"
    },
    {
      "anonymous": false,
      "inputs": [
        {
          "indexed": true,
          "name": "player",
          "type": "address"
        },
        {
          "indexed": false,
          "name": "inputNumber",
          "type": "uint256"
        },
        {
          "indexed": false,
          "name": "registNumber",
          "type": "uint256"
        },
        {
          "indexed": false,
          "name": "upline",
          "type": "address"
        }
      ],
      "name": "RegistEvent",
      "type": "event"
    },
    {
      "anonymous": false,
      "inputs": [
        {
          "indexed": false,
          "name": "pool",
          "type": "uint256"
        },
        {
          "indexed": false,
          "name": "winner",
          "type": "uint256"
        },
        {
          "indexed": false,
          "name": "loser",
          "type": "uint256"
        }
      ],
      "name": "LuckyProfitEvent",
      "type": "event"
    },
    {
      "anonymous": false,
      "inputs": [
        {
          "indexed": false,
          "name": "pool",
          "type": "uint256"
        },
        {
          "indexed": false,
          "name": "winner",
          "type": "uint256"
        },
        {
          "indexed": false,
          "name": "loser1",
          "type": "uint256"
        },
        {
          "indexed": false,
          "name": "loser2",
          "type": "uint256"
        },
        {
          "indexed": false,
          "name": "loser3",
          "type": "uint256"
        }
      ],
      "name": "CrazyProfitEvent",
      "type": "event"
    },
    {
      "anonymous": false,
      "inputs": [
        {
          "indexed": false,
          "name": "pool",
          "type": "uint256"
        },
        {
          "indexed": false,
          "name": "winner",
          "type": "address"
        },
        {
          "indexed": false,
          "name": "loser",
          "type": "address"
        },
        {
          "indexed": false,
          "name": "balance",
          "type": "uint256"
        }
      ],
      "name": "LuckyLotteryEvent",
      "type": "event"
    },
    {
      "anonymous": false,
      "inputs": [
        {
          "indexed": false,
          "name": "pool",
          "type": "uint256"
        },
        {
          "indexed": false,
          "name": "winner",
          "type": "address"
        },
        {
          "indexed": false,
          "name": "balance",
          "type": "uint256"
        }
      ],
      "name": "CrazyLotteryEvent",
      "type": "event"
    },
    {
      "constant": false,
      "inputs": [
        {
          "name": "target",
          "type": "uint256"
        }
      ],
      "name": "changeTime_C50",
      "outputs": [],
      "payable": false,
      "stateMutability": "nonpayable",
      "type": "function"
    },
    {
      "constant": false,
      "inputs": [],
      "name": "crazygun50",
      "outputs": [
        {
          "name": "",
          "type": "address"
        }
      ],
      "payable": true,
      "stateMutability": "payable",
      "type": "function"
    },
    {
      "constant": true,
      "inputs": [
        {
          "name": "target",
          "type": "uint256"
        }
      ],
      "name": "search_C50",
      "outputs": [
        {
          "name": "",
          "type": "uint256"
        },
        {
          "name": "",
          "type": "uint256"
        },
        {
          "name": "",
          "type": "uint256"
        },
        {
          "name": "",
          "type": "uint256"
        },
        {
          "name": "",
          "type": "uint256"
        },
        {
          "name": "",
          "type": "address"
        }
      ],
      "payable": false,
      "stateMutability": "view",
      "type": "function"
    },
    {
      "constant": false,
      "inputs": [],
      "name": "crazyprofit_lucky50",
      "outputs": [],
      "payable": false,
      "stateMutability": "nonpayable",
      "type": "function"
    },
    {
      "constant": false,
      "inputs": [],
      "name": "crazygunprofit50",
      "outputs": [],
      "payable": false,
      "stateMutability": "nonpayable",
      "type": "function"
    }
  ],
  "bytecode": "0x6080604052733ee8ae904830a51a4cbf7588b02f05a33f870576600560006101000a81548173ffffffffffffffffffffffffffffffffffffffff021916908373ffffffffffffffffffffffffffffffffffffffff160217905550733ee8ae904830a51a4cbf7588b02f05a33f870576600a60006101000a81548173ffffffffffffffffffffffffffffffffffffffff021916908373ffffffffffffffffffffffffffffffffffffffff1602179055506000600f55674563918244f4000060105542601155336000806101000a81548173ffffffffffffffffffffffffffffffffffffffff021916908373ffffffffffffffffffffffffffffffffffffffff16021790555033600160006101000a81548173ffffffffffffffffffffffffffffffffffffffff021916908373ffffffffffffffffffffffffffffffffffffffff16021790555073ca35b7d915458ef540ade6068dfe2f44e8fa733c600260007347ed2c6cae34fdb231b82ec8d666646085ea3a9273ffffffffffffffffffffffffffffffffffffffff1673ffffffffffffffffffffffffffffffffffffffff16815260200190815260200160002060006101000a81548173ffffffffffffffffffffffffffffffffffffffff021916908373ffffffffffffffffffffffffffffffffffffffff1602179055507314723a09acff6d2a60dcdf7aa4aff308fddc160c6002600073ca35b7d915458ef540ade6068dfe2f44e8fa733c73ffffffffffffffffffffffffffffffffffffffff16815260200190815260200160002060006101000a81548173ffffffffffffffffffffffffffffffffffffffff021916908373ffffffffffffffffffffffffffffffffffffffff160217905550734b0897b0513fdc7c541b6d9d7e929c4e5364d2db600260007314723a09acff6d2a60dcdf7aa4aff308fddc160c73ffffffffffffffffffffffffffffffffffffffff16815260200190815260200160002060006101000a81548173ffffffffffffffffffffffffffffffffffffffff021916908373ffffffffffffffffffffffffffffffffffffffff16021790555073583031d1113ad414f02576bd6afabfb30214022560026000734b0897b0513fdc7c541b6d9d7e929c4e5364d2db73ffffffffffffffffffffffffffffffffffffffff16815260200190815260200160002060006101000a81548173ffffffffffffffffffffffffffffffffffffffff021916908373ffffffffffffffffffffffffffffffffffffffff16021790555073dd870fa1b7c4700f2bd7f44238821c26f73921486002600073583031d1113ad414f02576bd6afabfb30214022573ffffffffffffffffffffffffffffffffffffffff16815260200190815260200160002060006101000a81548173ffffffffffffffffffffffffffffffffffffffff021916908373ffffffffffffffffffffffffffffffffffffffff16021790555072a0a0dce3ea7b5529b878e1a832362fcffe65106002600073dd870fa1b7c4700f2bd7f44238821c26f739214873ffffffffffffffffffffffffffffffffffffffff16815260200190815260200160002060006101000a81548173ffffffffffffffffffffffffffffffffffffffff021916908373ffffffffffffffffffffffffffffffffffffffff16021790555073ca35b7d915458ef540ade6068dfe2f44e8fa733c60026000733e5c27761215232ca0b298ef87e0cbecbc0da1fd73ffffffffffffffffffffffffffffffffffffffff16815260200190815260200160002060006101000a81548173ffffffffffffffffffffffffffffffffffffffff021916908373ffffffffffffffffffffffffffffffffffffffff16021790555061349f806105586000396000f3006080604052600436106101f9576000357c0100000000000000000000000000000000000000000000000000000000900463ffffffff1680630101ec86146101fe57806302550e4d1461021557806303c3a83d1461026c5780630e283f35146102835780630fc054df146102da57806313c5a14b14610307578063140e3afd1461039757806337d2677b146103ae5780633f91d2cb14610422578063429ee4dc146104795780634bee806e146104e65780635568b0ae146105275780636677916e1461056a57806370967964146105955780637510ecdc146105df57806375829def1461066257806378bb51e0146106a55780638542b7f8146106d05780638cb32352146107275780638da5cb5b1461076a5780638ed10dc8146107c15780639435245e14610818578063971b1c261461086357806399b72aac146108ba5780639a30c185146108d15780639e0551c614610928578063a1b4240814610995578063a54fa82f146109c0578063be86618b146109eb578063bec27be014610a4f578063c041b05914610ae3578063cb4b6b8a14610b26578063ceb73a9114610b30578063df84192014610b9d578063e3269b0514610bde578063f0f1b03314610c09578063f2fde38b14610c8c578063f7e9b72914610ccf578063f851a44014610d3c578063fe64d6ff14610d93578063fee73e8614610dd6575b600080fd5b34801561020a57600080fd5b50610213610e23565b005b34801561022157600080fd5b50610256600480360381019080803573ffffffffffffffffffffffffffffffffffffffff169060200190929190505050610eab565b6040518082815260200191505060405180910390f35b34801561027857600080fd5b50610281610ec3565b005b34801561028f57600080fd5b5061029861115c565b604051808273ffffffffffffffffffffffffffffffffffffffff1673ffffffffffffffffffffffffffffffffffffffff16815260200191505060405180910390f35b3480156102e657600080fd5b5061030560048036038101908080359060200190929190505050611182565b005b34801561031357600080fd5b50610332600480360381019080803590602001909291905050506111eb565b604051808781526020018681526020018581526020018481526020018381526020018273ffffffffffffffffffffffffffffffffffffffff1673ffffffffffffffffffffffffffffffffffffffff168152602001965050505050505060405180910390f35b3480156103a357600080fd5b506103ac61127d565b005b3480156103ba57600080fd5b506103d9600480360381019080803590602001909291905050506116d1565b604051808381526020018273ffffffffffffffffffffffffffffffffffffffff1673ffffffffffffffffffffffffffffffffffffffff1681526020019250505060405180910390f35b34801561042e57600080fd5b50610463600480360381019080803573ffffffffffffffffffffffffffffffffffffffff169060200190929190505050611715565b6040518082815260200191505060405180910390f35b34801561048557600080fd5b506104a46004803603810190808035906020019092919050505061172d565b604051808273ffffffffffffffffffffffffffffffffffffffff1673ffffffffffffffffffffffffffffffffffffffff16815260200191505060405180910390f35b3480156104f257600080fd5b5061051160048036038101908080359060200190929190505050611760565b6040518082815260200191505060405180910390f35b34801561053357600080fd5b50610568600480360381019080803573ffffffffffffffffffffffffffffffffffffffff169060200190929190505050611778565b005b34801561057657600080fd5b5061057f611807565b6040518082815260200191505060405180910390f35b61059d61180d565b604051808273ffffffffffffffffffffffffffffffffffffffff1673ffffffffffffffffffffffffffffffffffffffff16815260200191505060405180910390f35b3480156105eb57600080fd5b50610620600480360381019080803573ffffffffffffffffffffffffffffffffffffffff169060200190929190505050611996565b604051808273ffffffffffffffffffffffffffffffffffffffff1673ffffffffffffffffffffffffffffffffffffffff16815260200191505060405180910390f35b34801561066e57600080fd5b506106a3600480360381019080803573ffffffffffffffffffffffffffffffffffffffff1690602001909291905050506119ff565b005b3480156106b157600080fd5b506106ba611ada565b6040518082815260200191505060405180910390f35b3480156106dc57600080fd5b50610711600480360381019080803573ffffffffffffffffffffffffffffffffffffffff169060200190929190505050611ae0565b6040518082815260200191505060405180910390f35b34801561073357600080fd5b50610768600480360381019080803573ffffffffffffffffffffffffffffffffffffffff169060200190929190505050611afe565b005b34801561077657600080fd5b5061077f611b48565b604051808273ffffffffffffffffffffffffffffffffffffffff1673ffffffffffffffffffffffffffffffffffffffff16815260200191505060405180910390f35b3480156107cd57600080fd5b50610802600480360381019080803573ffffffffffffffffffffffffffffffffffffffff169060200190929190505050611b6d565b6040518082815260200191505060405180910390f35b34801561082457600080fd5b5061084d6004803603810190808035906020019092919080359060200190929190505050611bb6565b6040518082815260200191505060405180910390f35b34801561086f57600080fd5b50610878611c67565b604051808273ffffffffffffffffffffffffffffffffffffffff1673ffffffffffffffffffffffffffffffffffffffff16815260200191505060405180910390f35b3480156108c657600080fd5b506108cf611c91565b005b3480156108dd57600080fd5b50610912600480360381019080803573ffffffffffffffffffffffffffffffffffffffff169060200190929190505050611d5d565b6040518082815260200191505060405180910390f35b34801561093457600080fd5b5061095360048036038101908080359060200190929190505050611da6565b604051808273ffffffffffffffffffffffffffffffffffffffff1673ffffffffffffffffffffffffffffffffffffffff16815260200191505060405180910390f35b3480156109a157600080fd5b506109aa611dd9565b6040518082815260200191505060405180910390f35b3480156109cc57600080fd5b506109d5611ddf565b6040518082815260200191505060405180910390f35b3480156109f757600080fd5b50610a1660048036038101908080359060200190929190505050611de5565b60405180878152602001868152602001858152602001848152602001838152602001828152602001965050505050505060405180910390f35b348015610a5b57600080fd5b50610a9a600480360381019080803573ffffffffffffffffffffffffffffffffffffffff1690602001909291908035906020019092919050505061201f565b604051808373ffffffffffffffffffffffffffffffffffffffff1673ffffffffffffffffffffffffffffffffffffffff1681526020018281526020019250505060405180910390f35b348015610aef57600080fd5b50610b24600480360381019080803573ffffffffffffffffffffffffffffffffffffffff1690602001909291905050506120e7565b005b610b2e612176565b005b348015610b3c57600080fd5b50610b5b600480360381019080803590602001909291905050506127d7565b604051808273ffffffffffffffffffffffffffffffffffffffff1673ffffffffffffffffffffffffffffffffffffffff16815260200191505060405180910390f35b348015610ba957600080fd5b50610bc860048036038101908080359060200190929190505050612814565b6040518082815260200191505060405180910390f35b348015610bea57600080fd5b50610bf361282c565b6040518082815260200191505060405180910390f35b348015610c1557600080fd5b50610c4a600480360381019080803573ffffffffffffffffffffffffffffffffffffffff169060200190929190505050612832565b604051808273ffffffffffffffffffffffffffffffffffffffff1673ffffffffffffffffffffffffffffffffffffffff16815260200191505060405180910390f35b348015610c9857600080fd5b50610ccd600480360381019080803573ffffffffffffffffffffffffffffffffffffffff169060200190929190505050612865565b005b348015610cdb57600080fd5b50610cfa6004803603810190808035906020019092919050505061293f565b604051808273ffffffffffffffffffffffffffffffffffffffff1673ffffffffffffffffffffffffffffffffffffffff16815260200191505060405180910390f35b348015610d4857600080fd5b50610d51612972565b604051808273ffffffffffffffffffffffffffffffffffffffff1673ffffffffffffffffffffffffffffffffffffffff16815260200191505060405180910390f35b348015610d9f57600080fd5b50610dd4600480360381019080803573ffffffffffffffffffffffffffffffffffffffff169060200190929190505050612998565b005b348015610de257600080fd5b50610e21600480360381019080803573ffffffffffffffffffffffffffffffffffffffff16906020019092919080359060200190929190505050612a73565b005b3373ffffffffffffffffffffffffffffffffffffffff166108fc600b60003373ffffffffffffffffffffffffffffffffffffffff1673ffffffffffffffffffffffffffffffffffffffff168152602001908152602001600020549081150290604051600060405180830381858888f19350505050158015610ea8573d6000803e3d6000fd5b50565b600b6020528060005260406000206000915090505481565b42600160165401615460026011540111151561115a57600073ffffffffffffffffffffffffffffffffffffffff1660146000601654815260200190815260200160002060009054906101000a900473ffffffffffffffffffffffffffffffffffffffff1673ffffffffffffffffffffffffffffffffffffffff1614151561103e5760146000601654815260200190815260200160002060009054906101000a900473ffffffffffffffffffffffffffffffffffffffff1673ffffffffffffffffffffffffffffffffffffffff166108fc600260136000601654815260200190815260200160002054811515610fb457fe5b049081150290604051600060405180830381858888f19350505050158015610fe0573d6000803e3d6000fd5b5060026013600060165481526020019081526020016000205481151561100257fe5b0460136000600160165401815260200190815260200160002054016013600060016016540181526020019081526020016000208190555061108b565b601360006016548152602001908152602001600020546013600060016016540181526020019081526020016000205401601360006001601654018152602001908152602001600020819055505b7fd25fcdf20d7fe805a994263df712b8fd66c8bf94b0fa01b2f7a96abd7f2683b860165460146000601654815260200190815260200160002060009054906101000a900473ffffffffffffffffffffffffffffffffffffffff1660136000600160165401815260200190815260200160002054604051808481526020018373ffffffffffffffffffffffffffffffffffffffff1673ffffffffffffffffffffffffffffffffffffffff168152602001828152602001935050505060405180910390a16001601654016016819055505b565b600460009054906101000a900473ffffffffffffffffffffffffffffffffffffffff1681565b6000809054906101000a900473ffffffffffffffffffffffffffffffffffffffff1673ffffffffffffffffffffffffffffffffffffffff163373ffffffffffffffffffffffffffffffffffffffff161415156111dd57600080fd5b806011540160118190555050565b600080600080600080615460601154420381151561120557fe5b04601654600e54600f54601360008c81526020019081526020016000205460146000615460601154420381151561123857fe5b04815260200190815260200160002060009054906101000a900473ffffffffffffffffffffffffffffffffffffffff1695509550955095509550955091939550919395565b60008060008060006006600f5401600e541015151561129857fe5b6112a26001612b02565b8095508196508297508398505050505060126000600f54815260200190815260200160002060000154601260006005600f5401815260200190815260200160002060000154036015600061546060115442038115156112fd57fe5b04815260200190815260200160002054101561141057601260006005600f5401815260200190815260200160002060010160009054906101000a900473ffffffffffffffffffffffffffffffffffffffff1660146000615460601154420381151561136457fe5b04815260200190815260200160002060006101000a81548173ffffffffffffffffffffffffffffffffffffffff021916908373ffffffffffffffffffffffffffffffffffffffff16021790555060126000600f54815260200190815260200160002060000154601260006005600f5401815260200190815260200160002060000154036015600061546060115442038115156113fc57fe5b048152602001908152602001600020819055505b600090505b60068110156116615784811415801561142e5750838114155b801561143a5750828114155b80156114465750818114155b1561154d576012600082600f5401815260200190815260200160002060010160009054906101000a900473ffffffffffffffffffffffffffffffffffffffff1673ffffffffffffffffffffffffffffffffffffffff166108fc6768155a43676e00009081150290604051600060405180830381858888f193505050501580156114d3573d6000803e3d6000fd5b503373ffffffffffffffffffffffffffffffffffffffff167fe0351ccf2813b53e9931b8d686c85fdbfe77a9669567398a7129d909a47d00a082600f5401600160056768155a43676e00006040518085815260200184815260200183815260200182815260200194505050505060405180910390a2611654565b84811415611653576012600082600f5401815260200190815260200160002060010160009054906101000a900473ffffffffffffffffffffffffffffffffffffffff1673ffffffffffffffffffffffffffffffffffffffff166108fc67b469471f801400009081150290604051600060405180830381858888f193505050501580156115dd573d6000803e3d6000fd5b503373ffffffffffffffffffffffffffffffffffffffff167fe0351ccf2813b53e9931b8d686c85fdbfe77a9669567398a7129d909a47d00a082600f54016002600567b469471f801400006040518085815260200184815260200183815260200182815260200194505050505060405180910390a25b5b8080600101915050611415565b6006600f5401600f81905550600a60105481151561167b57fe5b0460136000615460601154420381151561169157fe5b04815260200190815260200160002054016013600061546060115442038115156116b757fe5b048152602001908152602001600020819055505050505050565b60126020528060005260406000206000915090508060000154908060010160009054906101000a900473ffffffffffffffffffffffffffffffffffffffff16905082565b60076020528060005260406000206000915090505481565b60066020528060005260406000206000915054906101000a900473ffffffffffffffffffffffffffffffffffffffff1681565b60136020528060005260406000206000915090505481565b6001600d60008373ffffffffffffffffffffffffffffffffffffffff1673ffffffffffffffffffffffffffffffffffffffff1681526020019081526020016000206001015401600d60008373ffffffffffffffffffffffffffffffffffffffff1673ffffffffffffffffffffffffffffffffffffffff1681526020019081526020016000206001018190555050565b60165481565b60006745671f00e9ba80003414151561182557600080fd5b3360126000600e54815260200190815260200160002060010160006101000a81548173ffffffffffffffffffffffffffffffffffffffff021916908373ffffffffffffffffffffffffffffffffffffffff1602179055504260126000600e548152602001908152602001600020600001819055506118ab674563918244f4000033612e2a565b506103e86005601054028115156118be57fe5b04600b6000600a60009054906101000a900473ffffffffffffffffffffffffffffffffffffffff1673ffffffffffffffffffffffffffffffffffffffff1673ffffffffffffffffffffffffffffffffffffffff1681526020019081526020016000205401600b6000600a60009054906101000a900473ffffffffffffffffffffffffffffffffffffffff1673ffffffffffffffffffffffffffffffffffffffff1673ffffffffffffffffffffffffffffffffffffffff168152602001908152602001600020819055506001600e5401600e8190555090565b6000600260008373ffffffffffffffffffffffffffffffffffffffff1673ffffffffffffffffffffffffffffffffffffffff16815260200190815260200160002060009054906101000a900473ffffffffffffffffffffffffffffffffffffffff169050919050565b6000809054906101000a900473ffffffffffffffffffffffffffffffffffffffff1673ffffffffffffffffffffffffffffffffffffffff163373ffffffffffffffffffffffffffffffffffffffff16141515611a5a57600080fd5b600073ffffffffffffffffffffffffffffffffffffffff168173ffffffffffffffffffffffffffffffffffffffff1614151515611a9657600080fd5b80600160006101000a81548173ffffffffffffffffffffffffffffffffffffffff021916908373ffffffffffffffffffffffffffffffffffffffff16021790555050565b60115481565b60096020528060005260406000206000915090508060000154905081565b42600d60008373ffffffffffffffffffffffffffffffffffffffff1673ffffffffffffffffffffffffffffffffffffffff1681526020019081526020016000206002018190555050565b6000809054906101000a900473ffffffffffffffffffffffffffffffffffffffff1681565b6000600760008373ffffffffffffffffffffffffffffffffffffffff1673ffffffffffffffffffffffffffffffffffffffff168152602001908152602001600020549050919050565b60008082844340604051602001808381526020018260001916600019168152602001925050506040516020818303038152906040526040518082805190602001908083835b602083101515611c205780518252602082019150602081019050602083039250611bfb565b6001836020036101000a038019825116818451168082178552505050505050905001915050604051809103902060019004811515611c5a57fe5b0690508091505092915050565b6000600a60009054906101000a900473ffffffffffffffffffffffffffffffffffffffff16905090565b600a60009054906101000a900473ffffffffffffffffffffffffffffffffffffffff1673ffffffffffffffffffffffffffffffffffffffff166108fc600b6000600a60009054906101000a900473ffffffffffffffffffffffffffffffffffffffff1673ffffffffffffffffffffffffffffffffffffffff1673ffffffffffffffffffffffffffffffffffffffff168152602001908152602001600020549081150290604051600060405180830381858888f19350505050158015611d5a573d6000803e3d6000fd5b50565b6000600b60008373ffffffffffffffffffffffffffffffffffffffff1673ffffffffffffffffffffffffffffffffffffffff168152602001908152602001600020549050919050565b60036020528060005260406000206000915054906101000a900473ffffffffffffffffffffffffffffffffffffffff1681565b600e5481565b60085481565b60008060008060008060008060008060068b4340604051602001808381526020018260001916600019168152602001925050506040516020818303038152906040526040518082805190602001908083835b602083101515611e5c5780518252602082019150602081019050602083039250611e37565b6001836020036101000a038019825116818451168082178552505050505050905001915050604051809103902060019004811515611e9657fe5b0693506006844340604051602001808381526020018260001916600019168152602001925050506040516020818303038152906040526040518082805190602001908083835b602083101515611f015780518252602082019150602081019050602083039250611edc565b6001836020036101000a038019825116818451168082178552505050505050905001915050604051809103902060019004811515611f3b57fe5b0692506000915082841415611f5d57600660018501811515611f5957fe5b0692505b600090505b600681111515611fad57838114158015611f7c5750828114155b15611fa05780600c6000848152602001908152602001600020819055506001820191505b8080600101915050611f62565b600091508383600c600080815260200190815260200160002054600c60006001815260200190815260200160002054600c60006002815260200190815260200160002054600c600060038152602001908152602001600020549950995099509950995099505050505091939550919395565b600080600960008573ffffffffffffffffffffffffffffffffffffffff1673ffffffffffffffffffffffffffffffffffffffff168152602001908152602001600020600101600084815260200190815260200160002060000160009054906101000a900473ffffffffffffffffffffffffffffffffffffffff16600960008673ffffffffffffffffffffffffffffffffffffffff1673ffffffffffffffffffffffffffffffffffffffff16815260200190815260200160002060000154915091509250929050565b6001600d60008373ffffffffffffffffffffffffffffffffffffffff1673ffffffffffffffffffffffffffffffffffffffff1681526020019081526020016000206000015401600d60008373ffffffffffffffffffffffffffffffffffffffff1673ffffffffffffffffffffffffffffffffffffffff1681526020019081526020016000206000018190555050565b674563918244f40000606434021015151561219057600080fd5b6000600760003373ffffffffffffffffffffffffffffffffffffffff1673ffffffffffffffffffffffffffffffffffffffff168152602001908152602001600020541415156121de57600080fd5b600660006402540be40066b1a2bc2ec5000034038115156121fb57fe5b04815260200190815260200160002060009054906101000a900473ffffffffffffffffffffffffffffffffffffffff1673ffffffffffffffffffffffffffffffffffffffff163373ffffffffffffffffffffffffffffffffffffffff161415151561226557600080fd5b600660006402540be40066b1a2bc2ec50000340381151561228257fe5b04815260200190815260200160002060009054906101000a900473ffffffffffffffffffffffffffffffffffffffff16600260003373ffffffffffffffffffffffffffffffffffffffff1673ffffffffffffffffffffffffffffffffffffffff16815260200190815260200160002060006101000a81548173ffffffffffffffffffffffffffffffffffffffff021916908373ffffffffffffffffffffffffffffffffffffffff1602179055503360066000600854815260200190815260200160002060006101000a81548173ffffffffffffffffffffffffffffffffffffffff021916908373ffffffffffffffffffffffffffffffffffffffff160217905550600854600760003373ffffffffffffffffffffffffffffffffffffffff1673ffffffffffffffffffffffffffffffffffffffff168152602001908152602001600020819055503360096000600660006402540be40066b1a2bc2ec5000034038115156123eb57fe5b04815260200190815260200160002060009054906101000a900473ffffffffffffffffffffffffffffffffffffffff1673ffffffffffffffffffffffffffffffffffffffff1673ffffffffffffffffffffffffffffffffffffffff168152602001908152602001600020600101600060096000600660006402540be40066b1a2bc2ec50000340381151561247b57fe5b04815260200190815260200160002060009054906101000a900473ffffffffffffffffffffffffffffffffffffffff1673ffffffffffffffffffffffffffffffffffffffff1673ffffffffffffffffffffffffffffffffffffffff16815260200190815260200160002060000154815260200190815260200160002060000160006101000a81548173ffffffffffffffffffffffffffffffffffffffff021916908373ffffffffffffffffffffffffffffffffffffffff160217905550600160096000600660006402540be40066b1a2bc2ec50000340381151561255b57fe5b04815260200190815260200160002060009054906101000a900473ffffffffffffffffffffffffffffffffffffffff1673ffffffffffffffffffffffffffffffffffffffff1673ffffffffffffffffffffffffffffffffffffffff168152602001908152602001600020600001540160096000600660006402540be40066b1a2bc2ec5000034038115156125eb57fe5b04815260200190815260200160002060009054906101000a900473ffffffffffffffffffffffffffffffffffffffff1673ffffffffffffffffffffffffffffffffffffffff1673ffffffffffffffffffffffffffffffffffffffff16815260200190815260200160002060000181905550600160085401600881905550600560009054906101000a900473ffffffffffffffffffffffffffffffffffffffff1673ffffffffffffffffffffffffffffffffffffffff166108fc349081150290604051600060405180830381858888f193505050501580156126d0573d6000803e3d6000fd5b503373ffffffffffffffffffffffffffffffffffffffff167f09371afb4578ee0c3f43accbe50410e7c3382f6678dbf0584b31633820acb9e36402540be40066b1a2bc2ec50000340381151561272257fe5b04600854600260003373ffffffffffffffffffffffffffffffffffffffff1673ffffffffffffffffffffffffffffffffffffffff16815260200190815260200160002060009054906101000a900473ffffffffffffffffffffffffffffffffffffffff16604051808481526020018381526020018273ffffffffffffffffffffffffffffffffffffffff1673ffffffffffffffffffffffffffffffffffffffff168152602001935050505060405180910390a2565b60006006600083815260200190815260200160002060009054906101000a900473ffffffffffffffffffffffffffffffffffffffff169050919050565b60156020528060005260406000206000915090505481565b600f5481565b60026020528060005260406000206000915054906101000a900473ffffffffffffffffffffffffffffffffffffffff1681565b6000809054906101000a900473ffffffffffffffffffffffffffffffffffffffff1673ffffffffffffffffffffffffffffffffffffffff163373ffffffffffffffffffffffffffffffffffffffff161415156128c057600080fd5b600073ffffffffffffffffffffffffffffffffffffffff168173ffffffffffffffffffffffffffffffffffffffff16141515156128fc57600080fd5b806000806101000a81548173ffffffffffffffffffffffffffffffffffffffff021916908373ffffffffffffffffffffffffffffffffffffffff16021790555050565b60146020528060005260406000206000915054906101000a900473ffffffffffffffffffffffffffffffffffffffff1681565b600160009054906101000a900473ffffffffffffffffffffffffffffffffffffffff1681565b6000809054906101000a900473ffffffffffffffffffffffffffffffffffffffff1673ffffffffffffffffffffffffffffffffffffffff163373ffffffffffffffffffffffffffffffffffffffff161415156129f357600080fd5b600073ffffffffffffffffffffffffffffffffffffffff168173ffffffffffffffffffffffffffffffffffffffff1614151515612a2f57600080fd5b80600a60006101000a81548173ffffffffffffffffffffffffffffffffffffffff021916908373ffffffffffffffffffffffffffffffffffffffff16021790555050565b80600d60008473ffffffffffffffffffffffffffffffffffffffff1673ffffffffffffffffffffffffffffffffffffffff1681526020019081526020016000206003015401600d60008473ffffffffffffffffffffffffffffffffffffffff1673ffffffffffffffffffffffffffffffffffffffff168152602001908152602001600020600301819055505050565b6000806000806000806000806003894340604051602001808381526020018260001916600019168152602001925050506040516020818303038152906040526040518082805190602001908083835b602083101515612b765780518252602082019150602081019050602083039250612b51565b6001836020036101000a038019825116818451168082178552505050505050905001915050604051809103902060019004811515612bb057fe5b0693506002846001430340604051602001808381526020018260001916600019168152602001925050506040516020818303038152906040526040518082805190602001908083835b602083101515612c1e5780518252602082019150602081019050602083039250612bf9565b6001836020036101000a038019825116818451168082178552505050505050905001915050604051809103902060019004811515612c5857fe5b069250600280856002430340604051602001808381526020018260001916600019168152602001925050506040516020818303038152906040526040518082805190602001908083835b602083101515612cc75780518252602082019150602081019050602083039250612ca2565b6001836020036101000a038019825116818451168082178552505050505050905001915050604051809103902060019004811515612d0157fe5b0601915060046002856003430340604051602001808381526020018260001916600019168152602001925050506040516020818303038152906040526040518082805190602001908083835b602083101515612d725780518252602082019150602081019050602083039250612d4d565b6001836020036101000a038019825116818451168082178552505050505050905001915050604051809103902060019004811515612dac57fe5b060190506000841415612dd5576000831415612dcb5760019350612dd0565b600093505b612e13565b6001841415612dfa576002821415612df05760039350612df5565b600293505b612e12565b6004811415612e0c5760059350612e11565b600493505b5b5b838383839750975097509750505050509193509193565b600080600080849250602d9150600090505b600781101561338f57600260008473ffffffffffffffffffffffffffffffffffffffff1673ffffffffffffffffffffffffffffffffffffffff16815260200190815260200160002060009054906101000a900473ffffffffffffffffffffffffffffffffffffffff169250600073ffffffffffffffffffffffffffffffffffffffff168373ffffffffffffffffffffffffffffffffffffffff161415612ee15761338f565b6000811415612f8a576103e860148702811515612efa57fe5b04600b60008573ffffffffffffffffffffffffffffffffffffffff1673ffffffffffffffffffffffffffffffffffffffff1681526020019081526020016000205401600b60008573ffffffffffffffffffffffffffffffffffffffff1673ffffffffffffffffffffffffffffffffffffffff16815260200190815260200160002081905550601482039150613382565b6001811415613033576103e8600a8702811515612fa357fe5b04600b60008573ffffffffffffffffffffffffffffffffffffffff1673ffffffffffffffffffffffffffffffffffffffff1681526020019081526020016000205401600b60008573ffffffffffffffffffffffffffffffffffffffff1673ffffffffffffffffffffffffffffffffffffffff16815260200190815260200160002081905550600a82039150613381565b60028114156130dc576103e86005870281151561304c57fe5b04600b60008573ffffffffffffffffffffffffffffffffffffffff1673ffffffffffffffffffffffffffffffffffffffff1681526020019081526020016000205401600b60008573ffffffffffffffffffffffffffffffffffffffff1673ffffffffffffffffffffffffffffffffffffffff16815260200190815260200160002081905550600582039150613380565b6003811415613185576103e8600487028115156130f557fe5b04600b60008573ffffffffffffffffffffffffffffffffffffffff1673ffffffffffffffffffffffffffffffffffffffff1681526020019081526020016000205401600b60008573ffffffffffffffffffffffffffffffffffffffff1673ffffffffffffffffffffffffffffffffffffffff1681526020019081526020016000208190555060048203915061337f565b600481141561322e576103e86003870281151561319e57fe5b04600b60008573ffffffffffffffffffffffffffffffffffffffff1673ffffffffffffffffffffffffffffffffffffffff1681526020019081526020016000205401600b60008573ffffffffffffffffffffffffffffffffffffffff1673ffffffffffffffffffffffffffffffffffffffff1681526020019081526020016000208190555060038203915061337e565b60058114156132d7576103e86002870281151561324757fe5b04600b60008573ffffffffffffffffffffffffffffffffffffffff1673ffffffffffffffffffffffffffffffffffffffff1681526020019081526020016000205401600b60008573ffffffffffffffffffffffffffffffffffffffff1673ffffffffffffffffffffffffffffffffffffffff1681526020019081526020016000208190555060028203915061337d565b600681141561337c576103e8600187028115156132f057fe5b04600b60008573ffffffffffffffffffffffffffffffffffffffff1673ffffffffffffffffffffffffffffffffffffffff1681526020019081526020016000205401600b60008573ffffffffffffffffffffffffffffffffffffffff1673ffffffffffffffffffffffffffffffffffffffff168152602001908152602001600020819055506001820391505b5b5b5b5b5b5b8080600101915050612e3c565b6103e882870281151561339e57fe5b04600b6000600a60009054906101000a900473ffffffffffffffffffffffffffffffffffffffff1673ffffffffffffffffffffffffffffffffffffffff1673ffffffffffffffffffffffffffffffffffffffff1681526020019081526020016000205401600b6000600a60009054906101000a900473ffffffffffffffffffffffffffffffffffffffff1673ffffffffffffffffffffffffffffffffffffffff1673ffffffffffffffffffffffffffffffffffffffff16815260200190815260200160002081905550349350505050929150505600a165627a7a72305820bec423fb49e1a959a9361fd790fa7a7fd218d54c3ef1794a38971d7c68e43a5c0029",
  "source": "pragma solidity ^0.4.21;\n//import \"./Event.sol\";\nimport \"./Layer.sol\";\nimport \"./Layerprofit.sol\";\nimport \"./Random.sol\";\nimport \"./Teambonus.sol\";\nimport \"./ContractInfo.sol\";\ncontract Crazy50 is layer, layerprofit, random, ContractInfo{\n    uint public pooln_Crazy50;\n    uint public poolp_Crazy50= 0;\n    uint revenuc50 = 5 ether;\n    uint public lotteryinittime_Crazy50 = now;\n    struct poolinfo_Crazy50{\n        uint time;\n        address player;\n    }\n\n    mapping(uint => poolinfo_Crazy50) public pool_Crazy50;\n    mapping(uint => uint) public lotterybalance_C50;\n    mapping(uint => address) public winner_C50;\n    mapping(uint => uint) public winnerTime_C50;\n    uint public settle_C50;\n\n    function changeTime_C50(uint target)onlyOwner public{\n        lotteryinittime_Crazy50 = lotteryinittime_Crazy50 +target;\n    }\n\n    function crazygun50() payable public returns (address){\n            require(msg.value == 5.001 ether);\n            pool_Crazy50[pooln_Crazy50].player = msg.sender;\n            pool_Crazy50[pooln_Crazy50].time = block.timestamp;\n            allocateProfit(5 ether,msg.sender);\n            profit[contractAddress] = profit[contractAddress]+revenuc50*5/1000;\n            pooln_Crazy50 = pooln_Crazy50+1;\n    }\n    function search_C50(uint target) public constant returns(uint,uint,uint,uint,uint,address){\n        return ((now-lotteryinittime_Crazy50)/21600, settle_C50, pooln_Crazy50, poolp_Crazy50, lotterybalance_C50[target],winner_C50[(now-lotteryinittime_Crazy50)/21600]);\n    }\n    function crazyprofit_lucky50()public{\n        if((lotteryinittime_Crazy50+21600*(settle_C50+1))<=now){\n            if(winner_C50[settle_C50]!=0x0000000000000000000000000000000000000000){\n                winner_C50[settle_C50].transfer(lotterybalance_C50[settle_C50]/2);\n                lotterybalance_C50[settle_C50+1] = lotterybalance_C50[settle_C50+1] + lotterybalance_C50[settle_C50]/2;\n            }else{\n                lotterybalance_C50[settle_C50+1] = lotterybalance_C50[settle_C50+1] + lotterybalance_C50[settle_C50];                \n            }\n            emit CrazyLotteryEvent(settle_C50, winner_C50[settle_C50], lotterybalance_C50[settle_C50+1]);\n            settle_C50 = settle_C50+1;\n        }\n    }\n    function crazygunprofit50() public{\n        assert(pooln_Crazy50>=poolp_Crazy50+6);\n        uint winnerc50;\n        uint loserc50;\n        uint loser2c50;\n        uint loser3c50;\n        (winnerc50, loserc50, loser2c50, loser3c50) = randomCrazy(1);\n        if(winnerTime_C50[(now-lotteryinittime_Crazy50)/21600] < (pool_Crazy50[poolp_Crazy50+5].time- pool_Crazy50[poolp_Crazy50].time)){\n            winner_C50[(now-lotteryinittime_Crazy50)/21600] = pool_Crazy50[poolp_Crazy50+5].player;\n            winnerTime_C50[(now-lotteryinittime_Crazy50)/21600] = (pool_Crazy50[poolp_Crazy50+5].time- pool_Crazy50[poolp_Crazy50].time);\n        }\n        for(uint i = 0;i < 6; i++){\n            if(i != winnerc50 && i!= loserc50 && i!= loser2c50 && i!= loser3c50){\n                pool_Crazy50[poolp_Crazy50+i].player.transfer(7.5 ether);\n                emit NProfitEvent(poolp_Crazy50+i,msg.sender, 1, 5, 7.5 ether);\n            }\n            else if(i == winnerc50){\n                pool_Crazy50[poolp_Crazy50+i].player.transfer(13 ether);\n                emit NProfitEvent(poolp_Crazy50+i,msg.sender, 2, 5, 13 ether);\n            }\n        }\n        poolp_Crazy50 = poolp_Crazy50+6;\n        lotterybalance_C50[(now-lotteryinittime_Crazy50)/21600] = lotterybalance_C50[(now-lotteryinittime_Crazy50)/21600] + revenuc50/10;\n    }\n\n}",
  "sourcePath": "/home/tung/language/python/contractControl/deployContract/contracts/Crazy50.sol",
  "compiler": {
    "name": "solc",
    "version": "0.4.24+commit.e67f0147.Emscripten.clang"
  },
  "schemaVersion": "2.0.1",
  "updatedAt": "2018-09-25T10:10:35.108Z"
}