{
  "contractName": "layerprofit",
  "abi": [
    {
      "constant": true,
      "inputs": [
        {
          "name": "",
          "type": "address"
        }
      ],
      "name": "profit",
      "outputs": [
        {
          "name": "",
          "type": "uint256"
        }
      ],
      "payable": false,
      "stateMutability": "view",
      "type": "function"
    },
    {
      "constant": true,
      "inputs": [],
      "name": "layercontract",
      "outputs": [
        {
          "name": "",
          "type": "address"
        }
      ],
      "payable": false,
      "stateMutability": "view",
      "type": "function"
    },
    {
      "constant": true,
      "inputs": [
        {
          "name": "",
          "type": "address"
        }
      ],
      "name": "inviteInquire",
      "outputs": [
        {
          "name": "",
          "type": "uint256"
        }
      ],
      "payable": false,
      "stateMutability": "view",
      "type": "function"
    },
    {
      "constant": true,
      "inputs": [
        {
          "name": "",
          "type": "uint256"
        }
      ],
      "name": "inviteNumber",
      "outputs": [
        {
          "name": "",
          "type": "address"
        }
      ],
      "payable": false,
      "stateMutability": "view",
      "type": "function"
    },
    {
      "constant": true,
      "inputs": [
        {
          "name": "target",
          "type": "address"
        }
      ],
      "name": "getlayer",
      "outputs": [
        {
          "name": "",
          "type": "address"
        }
      ],
      "payable": false,
      "stateMutability": "view",
      "type": "function"
    },
    {
      "constant": false,
      "inputs": [
        {
          "name": "newOwner",
          "type": "address"
        }
      ],
      "name": "transferAdmin",
      "outputs": [],
      "payable": false,
      "stateMutability": "nonpayable",
      "type": "function"
    },
    {
      "constant": true,
      "inputs": [
        {
          "name": "",
          "type": "address"
        }
      ],
      "name": "downlineMap",
      "outputs": [
        {
          "name": "downAmount",
          "type": "uint256"
        }
      ],
      "payable": false,
      "stateMutability": "view",
      "type": "function"
    },
    {
      "constant": true,
      "inputs": [],
      "name": "owner",
      "outputs": [
        {
          "name": "",
          "type": "address"
        }
      ],
      "payable": false,
      "stateMutability": "view",
      "type": "function"
    },
    {
      "constant": true,
      "inputs": [
        {
          "name": "target",
          "type": "address"
        }
      ],
      "name": "inviteinquire",
      "outputs": [
        {
          "name": "",
          "type": "uint256"
        }
      ],
      "payable": false,
      "stateMutability": "view",
      "type": "function"
    },
    {
      "constant": true,
      "inputs": [],
      "name": "contractInquire",
      "outputs": [
        {
          "name": "",
          "type": "address"
        }
      ],
      "payable": false,
      "stateMutability": "view",
      "type": "function"
    },
    {
      "constant": true,
      "inputs": [
        {
          "name": "",
          "type": "uint256"
        }
      ],
      "name": "player",
      "outputs": [
        {
          "name": "",
          "type": "address"
        }
      ],
      "payable": false,
      "stateMutability": "view",
      "type": "function"
    },
    {
      "constant": true,
      "inputs": [],
      "name": "inviteAmount",
      "outputs": [
        {
          "name": "",
          "type": "uint256"
        }
      ],
      "payable": false,
      "stateMutability": "view",
      "type": "function"
    },
    {
      "constant": true,
      "inputs": [
        {
          "name": "target",
          "type": "address"
        },
        {
          "name": "downnumber",
          "type": "uint256"
        }
      ],
      "name": "downlineSearch",
      "outputs": [
        {
          "name": "",
          "type": "address"
        },
        {
          "name": "",
          "type": "uint256"
        }
      ],
      "payable": false,
      "stateMutability": "view",
      "type": "function"
    },
    {
      "constant": false,
      "inputs": [],
      "name": "regist",
      "outputs": [],
      "payable": true,
      "stateMutability": "payable",
      "type": "function"
    },
    {
      "constant": true,
      "inputs": [
        {
          "name": "num",
          "type": "uint256"
        }
      ],
      "name": "getinviteNumber",
      "outputs": [
        {
          "name": "",
          "type": "address"
        }
      ],
      "payable": false,
      "stateMutability": "view",
      "type": "function"
    },
    {
      "constant": true,
      "inputs": [
        {
          "name": "",
          "type": "address"
        }
      ],
      "name": "layermap",
      "outputs": [
        {
          "name": "",
          "type": "address"
        }
      ],
      "payable": false,
      "stateMutability": "view",
      "type": "function"
    },
    {
      "constant": false,
      "inputs": [
        {
          "name": "newOwner",
          "type": "address"
        }
      ],
      "name": "transferOwnership",
      "outputs": [],
      "payable": false,
      "stateMutability": "nonpayable",
      "type": "function"
    },
    {
      "constant": true,
      "inputs": [],
      "name": "admin",
      "outputs": [
        {
          "name": "",
          "type": "address"
        }
      ],
      "payable": false,
      "stateMutability": "view",
      "type": "function"
    },
    {
      "constant": false,
      "inputs": [
        {
          "name": "newAddress",
          "type": "address"
        }
      ],
      "name": "changeAddress",
      "outputs": [],
      "payable": false,
      "stateMutability": "nonpayable",
      "type": "function"
    },
    {
      "anonymous": false,
      "inputs": [
        {
          "indexed": false,
          "name": "pool",
          "type": "uint256"
        },
        {
          "indexed": true,
          "name": "player",
          "type": "address"
        },
        {
          "indexed": false,
          "name": "status",
          "type": "uint256"
        },
        {
          "indexed": false,
          "name": "types",
          "type": "uint256"
        },
        {
          "indexed": false,
          "name": "balance",
          "type": "uint256"
        }
      ],
      "name": "NProfitEvent",
      "type": "event"
    },
    {
      "anonymous": false,
      "inputs": [
        {
          "indexed": true,
          "name": "player",
          "type": "address"
        },
        {
          "indexed": false,
          "name": "balance",
          "type": "uint256"
        }
      ],
      "name": "LProfitEvent",
      "type": "event"
    },
    {
      "anonymous": false,
      "inputs": [
        {
          "indexed": true,
          "name": "player",
          "type": "address"
        },
        {
          "indexed": false,
          "name": "inputNumber",
          "type": "uint256"
        },
        {
          "indexed": false,
          "name": "registNumber",
          "type": "uint256"
        },
        {
          "indexed": false,
          "name": "upline",
          "type": "address"
        }
      ],
      "name": "RegistEvent",
      "type": "event"
    },
    {
      "anonymous": false,
      "inputs": [
        {
          "indexed": false,
          "name": "pool",
          "type": "uint256"
        },
        {
          "indexed": false,
          "name": "winner",
          "type": "uint256"
        },
        {
          "indexed": false,
          "name": "loser",
          "type": "uint256"
        }
      ],
      "name": "LuckyProfitEvent",
      "type": "event"
    },
    {
      "anonymous": false,
      "inputs": [
        {
          "indexed": false,
          "name": "pool",
          "type": "uint256"
        },
        {
          "indexed": false,
          "name": "winner",
          "type": "uint256"
        },
        {
          "indexed": false,
          "name": "loser1",
          "type": "uint256"
        },
        {
          "indexed": false,
          "name": "loser2",
          "type": "uint256"
        },
        {
          "indexed": false,
          "name": "loser3",
          "type": "uint256"
        }
      ],
      "name": "CrazyProfitEvent",
      "type": "event"
    },
    {
      "anonymous": false,
      "inputs": [
        {
          "indexed": false,
          "name": "pool",
          "type": "uint256"
        },
        {
          "indexed": false,
          "name": "winner",
          "type": "address"
        },
        {
          "indexed": false,
          "name": "loser",
          "type": "address"
        },
        {
          "indexed": false,
          "name": "balance",
          "type": "uint256"
        }
      ],
      "name": "LuckyLotteryEvent",
      "type": "event"
    },
    {
      "anonymous": false,
      "inputs": [
        {
          "indexed": false,
          "name": "pool",
          "type": "uint256"
        },
        {
          "indexed": false,
          "name": "winner",
          "type": "address"
        },
        {
          "indexed": false,
          "name": "balance",
          "type": "uint256"
        }
      ],
      "name": "CrazyLotteryEvent",
      "type": "event"
    },
    {
      "constant": true,
      "inputs": [
        {
          "name": "target",
          "type": "address"
        }
      ],
      "name": "inquire",
      "outputs": [
        {
          "name": "",
          "type": "uint256"
        }
      ],
      "payable": false,
      "stateMutability": "view",
      "type": "function"
    },
    {
      "constant": false,
      "inputs": [],
      "name": "getProfitout",
      "outputs": [],
      "payable": false,
      "stateMutability": "nonpayable",
      "type": "function"
    },
    {
      "constant": false,
      "inputs": [],
      "name": "getadminProfitout",
      "outputs": [],
      "payable": false,
      "stateMutability": "nonpayable",
      "type": "function"
    }
  ],
  "bytecode": "0x608060405260058054600160a060020a0319908116733ee8ae904830a51a4cbf7588b02f05a33f870576908117909255600a80548216909217909155600080548216339081178255600180548416909117905560026020527f18f1d23d7a10cac9f2cff6e1bc2ef966f346d94e1184ea3e7b3d28cd54f832b18054831673ca35b7d915458ef540ade6068dfe2f44e8fa733c9081179091557f607777b8448e550d2f696346b44302d0d20fbbf153248130a07986371a4e73b4805484167314723a09acff6d2a60dcdf7aa4aff308fddc160c1790557ffb612a231b0162d240ed546c8f3107c6367b8eb46a76ad4b0875aea09104737780548416734b0897b0513fdc7c541b6d9d7e929c4e5364d2db1790557f98d1541b15506a8f982c558cf5652ea207c0b443b27ca7c43de33942a088a4238054841673583031d1113ad414f02576bd6afabfb3021402251790557f0f074079ac900e74abbceed97ddd566c2fd1c9a1ab4935abacb04e18f9d87f3f8054841673dd870fa1b7c4700f2bd7f44238821c26f73921481790557fbfffd67dd3d8d8f0e0b6fd4f34d5fc0f06e3b6ce39c5f1eb451475bf10b548e58054841672a0a0dce3ea7b5529b878e1a832362fcffe6510179055733e5c27761215232ca0b298ef87e0cbecbc0da1fd9091527f26ee6f658328d33f1ff942b986ea38d5a5a5707098bad82c05ae0a89f2fa725880549092161790556108c1806102176000396000f3006080604052600436106101275763ffffffff7c01000000000000000000000000000000000000000000000000000000006000350416630101ec86811461012c57806302550e4d146101435780630e283f35146101765780633f91d2cb146101a7578063429ee4dc146101c85780637510ecdc146101e057806375829def146102015780638542b7f8146102225780638da5cb5b146102435780638ed10dc814610258578063971b1c261461027957806399b72aac1461028e5780639a30c185146102a35780639e0551c6146102c4578063a54fa82f146102dc578063bec27be0146102f1578063cb4b6b8a14610338578063ceb73a9114610340578063f0f1b03314610358578063f2fde38b14610379578063f851a4401461039a578063fe64d6ff146103af575b600080fd5b34801561013857600080fd5b506101416103d0565b005b34801561014f57600080fd5b50610164600160a060020a036004351661040a565b60408051918252519081900360200190f35b34801561018257600080fd5b5061018b61041c565b60408051600160a060020a039092168252519081900360200190f35b3480156101b357600080fd5b50610164600160a060020a036004351661042b565b3480156101d457600080fd5b5061018b60043561043d565b3480156101ec57600080fd5b5061018b600160a060020a0360043516610458565b34801561020d57600080fd5b50610141600160a060020a0360043516610476565b34801561022e57600080fd5b50610164600160a060020a03600435166104d1565b34801561024f57600080fd5b5061018b6104e3565b34801561026457600080fd5b50610164600160a060020a03600435166104f2565b34801561028557600080fd5b5061018b61050d565b34801561029a57600080fd5b5061014161051c565b3480156102af57600080fd5b50610164600160a060020a036004351661055e565b3480156102d057600080fd5b5061018b600435610579565b3480156102e857600080fd5b50610164610594565b3480156102fd57600080fd5b50610315600160a060020a036004351660243561059a565b60408051600160a060020a03909316835260208301919091528051918290030190f35b6101416105cf565b34801561034c57600080fd5b5061018b60043561079a565b34801561036457600080fd5b5061018b600160a060020a03600435166107b5565b34801561038557600080fd5b50610141600160a060020a03600435166107d0565b3480156103a657600080fd5b5061018b61082b565b3480156103bb57600080fd5b50610141600160a060020a036004351661083a565b336000818152600b602052604080822054905181156108fc0292818181858888f19350505050158015610407573d6000803e3d6000fd5b50565b600b6020526000908152604090205481565b600454600160a060020a031681565b60076020526000908152604090205481565b600660205260009081526040902054600160a060020a031681565b600160a060020a039081166000908152600260205260409020541690565b600054600160a060020a0316331461048d57600080fd5b600160a060020a03811615156104a257600080fd5b6001805473ffffffffffffffffffffffffffffffffffffffff1916600160a060020a0392909216919091179055565b60096020526000908152604090205481565b600054600160a060020a031681565b600160a060020a031660009081526007602052604090205490565b600a54600160a060020a031690565b600a54600160a060020a03166000818152600b602052604080822054905181156108fc0292818181858888f19350505050158015610407573d6000803e3d6000fd5b600160a060020a03166000908152600b602052604090205490565b600360205260009081526040902054600160a060020a031681565b60085481565b600160a060020a0391821660008181526009602081815260408084209584526001860182528320549390925290529054911691565b674563918244f400006064340210156105e757600080fd5b336000908152600760205260409020541561060157600080fd5b6402540be40066b1a2bc2ec4ffff19340104600090815260066020526040902054600160a060020a031633141561063757600080fd5b6402540be4003466b1a2bc2ec4ffff19810191909104600090815260066020818152604080842080543380875260028552838720805473ffffffffffffffffffffffffffffffffffffffff19908116600160a060020a0394851617909155600880548952968652848820805482168317905586548289526007875285892055835483168852600980875285892080548a5260019081018852868a2080549093169093179091559254821687529190935281852080548201905583540190925560055491519116926108fc81150292909190818181858888f19350505050158015610725573d6000803e3d6000fd5b50337f09371afb4578ee0c3f43accbe50410e7c3382f6678dbf0584b31633820acb9e36402540be40066b1a2bc2ec4ffff19340160085433600090815260026020908152604091829020548251959094048552840191909152600160a060020a039190911682820152519081900360600190a2565b600090815260066020526040902054600160a060020a031690565b600260205260009081526040902054600160a060020a031681565b600054600160a060020a031633146107e757600080fd5b600160a060020a03811615156107fc57600080fd5b6000805473ffffffffffffffffffffffffffffffffffffffff1916600160a060020a0392909216919091179055565b600154600160a060020a031681565b600054600160a060020a0316331461085157600080fd5b600160a060020a038116151561086657600080fd5b600a805473ffffffffffffffffffffffffffffffffffffffff1916600160a060020a03929092169190911790555600a165627a7a72305820c6dc8ce9999ec9f5eed3356b00e36de12abb00494fd251440cbbf2cb1930f7720029",
  "source": "pragma solidity ^0.4.21;\n\nimport \"./Layer.sol\";\nimport \"./Teambonus.sol\";\n\ncontract layerprofit is layer,teambonus{\n    mapping(address => uint) public profit;\n        //uint allo = 45;\n    function inquire(address target) public constant returns(uint){\n        return profit[target];\n    }\n\n    function getProfitout()public{\n        msg.sender.transfer(profit[msg.sender]);\n    }\n    function getadminProfitout()public{\n        contractAddress.transfer(profit[contractAddress]);\n    }\n\n    \n    //獎金分布測試\n    function allocateProfit(uint balance,address player) internal returns (uint){\n        address dy = player;\n        uint allo = 45;\n        for(uint i = 0;i < 7; i++){\n            dy = layermap[dy];\n            if(dy == 0x0000000000000000000000000000000000000000)break;\n            //2%、1%、0.5%、0.4%、0.3%、0.2%、0.1%\n            //2%\n            if(i == 0){\n                //dy.transfer(balance*20/1000);\n                profit[dy] = profit[dy]+balance*20/1000;\n                allo = allo -20;\n            }\n            //1%\n            else if(i == 1){\n                //dy.transfer(balance*10/1000);\n                profit[dy] = profit[dy]+balance*10/1000;\n                allo = allo - 10;\n            }\n            //0.5%\n            else if(i == 2){\n                //dy.transfer(balance*5/1000);\n                profit[dy] = profit[dy]+balance*5/1000;\n                allo = allo -5;\n            }\n            //0.4%\n            else if(i == 3){\n                //dy.transfer(balance*4/1000);\n                profit[dy] = profit[dy]+balance*4/1000;\n                allo = allo -4;\n            }\n            //0.3%\n            else if(i == 4){\n                //dy.transfer(balance*3/1000);\n                profit[dy] = profit[dy]+balance*3/1000;\n                allo = allo -3;\n            }\n            //0.2%\n            else if(i == 5){\n                //dy.transfer(balance*2/1000);\n                profit[dy] = profit[dy]+balance*2/1000;\n                allo = allo -2;\n            }\n            //0.1%\n            else if(i == 6){\n                //dy.transfer(balance*1/1000);\n                profit[dy] = profit[dy]+balance*1/1000;\n                allo = allo -1;\n            }\n        }\n        profit[contractAddress] = profit[contractAddress]+balance*allo/1000;\n        //contractAddress.transfer((balance*allo/1000));\n        return msg.value;\n    }\n    //將分層獎金領出\n    /*\n    function getProfitout(address target) public{\n        return target.transfer(profit[target]);\n    }\n    */\n    \n    \n}",
  "sourcePath": "/home/tung/language/python/contractControl/deployContract/contracts/Layerprofit.sol",
  "compiler": {
    "name": "solc",
    "version": "0.4.24+commit.e67f0147.Emscripten.clang"
  },
  "schemaVersion": "2.0.1",
  "updatedAt": "2018-09-25T10:33:16.080Z"
}