{
  "contractName": "layer",
  "abi": [
    {
      "constant": true,
      "inputs": [],
      "name": "layercontract",
      "outputs": [
        {
          "name": "",
          "type": "address"
        }
      ],
      "payable": false,
      "stateMutability": "view",
      "type": "function"
    },
    {
      "constant": true,
      "inputs": [
        {
          "name": "",
          "type": "address"
        }
      ],
      "name": "inviteInquire",
      "outputs": [
        {
          "name": "",
          "type": "uint256"
        }
      ],
      "payable": false,
      "stateMutability": "view",
      "type": "function"
    },
    {
      "constant": true,
      "inputs": [
        {
          "name": "",
          "type": "uint256"
        }
      ],
      "name": "inviteNumber",
      "outputs": [
        {
          "name": "",
          "type": "address"
        }
      ],
      "payable": false,
      "stateMutability": "view",
      "type": "function"
    },
    {
      "constant": false,
      "inputs": [
        {
          "name": "newOwner",
          "type": "address"
        }
      ],
      "name": "transferAdmin",
      "outputs": [],
      "payable": false,
      "stateMutability": "nonpayable",
      "type": "function"
    },
    {
      "constant": true,
      "inputs": [
        {
          "name": "",
          "type": "address"
        }
      ],
      "name": "downlineMap",
      "outputs": [
        {
          "name": "downAmount",
          "type": "uint256"
        }
      ],
      "payable": false,
      "stateMutability": "view",
      "type": "function"
    },
    {
      "constant": true,
      "inputs": [],
      "name": "owner",
      "outputs": [
        {
          "name": "",
          "type": "address"
        }
      ],
      "payable": false,
      "stateMutability": "view",
      "type": "function"
    },
    {
      "constant": true,
      "inputs": [
        {
          "name": "",
          "type": "uint256"
        }
      ],
      "name": "player",
      "outputs": [
        {
          "name": "",
          "type": "address"
        }
      ],
      "payable": false,
      "stateMutability": "view",
      "type": "function"
    },
    {
      "constant": true,
      "inputs": [],
      "name": "inviteAmount",
      "outputs": [
        {
          "name": "",
          "type": "uint256"
        }
      ],
      "payable": false,
      "stateMutability": "view",
      "type": "function"
    },
    {
      "constant": true,
      "inputs": [
        {
          "name": "",
          "type": "address"
        }
      ],
      "name": "layermap",
      "outputs": [
        {
          "name": "",
          "type": "address"
        }
      ],
      "payable": false,
      "stateMutability": "view",
      "type": "function"
    },
    {
      "constant": false,
      "inputs": [
        {
          "name": "newOwner",
          "type": "address"
        }
      ],
      "name": "transferOwnership",
      "outputs": [],
      "payable": false,
      "stateMutability": "nonpayable",
      "type": "function"
    },
    {
      "constant": true,
      "inputs": [],
      "name": "admin",
      "outputs": [
        {
          "name": "",
          "type": "address"
        }
      ],
      "payable": false,
      "stateMutability": "view",
      "type": "function"
    },
    {
      "inputs": [],
      "payable": false,
      "stateMutability": "nonpayable",
      "type": "constructor"
    },
    {
      "anonymous": false,
      "inputs": [
        {
          "indexed": false,
          "name": "pool",
          "type": "uint256"
        },
        {
          "indexed": true,
          "name": "player",
          "type": "address"
        },
        {
          "indexed": false,
          "name": "status",
          "type": "uint256"
        },
        {
          "indexed": false,
          "name": "types",
          "type": "uint256"
        },
        {
          "indexed": false,
          "name": "balance",
          "type": "uint256"
        }
      ],
      "name": "NProfitEvent",
      "type": "event"
    },
    {
      "anonymous": false,
      "inputs": [
        {
          "indexed": true,
          "name": "player",
          "type": "address"
        },
        {
          "indexed": false,
          "name": "balance",
          "type": "uint256"
        }
      ],
      "name": "LProfitEvent",
      "type": "event"
    },
    {
      "anonymous": false,
      "inputs": [
        {
          "indexed": true,
          "name": "player",
          "type": "address"
        },
        {
          "indexed": false,
          "name": "inputNumber",
          "type": "uint256"
        },
        {
          "indexed": false,
          "name": "registNumber",
          "type": "uint256"
        },
        {
          "indexed": false,
          "name": "upline",
          "type": "address"
        }
      ],
      "name": "RegistEvent",
      "type": "event"
    },
    {
      "anonymous": false,
      "inputs": [
        {
          "indexed": false,
          "name": "pool",
          "type": "uint256"
        },
        {
          "indexed": false,
          "name": "winner",
          "type": "uint256"
        },
        {
          "indexed": false,
          "name": "loser",
          "type": "uint256"
        }
      ],
      "name": "LuckyProfitEvent",
      "type": "event"
    },
    {
      "anonymous": false,
      "inputs": [
        {
          "indexed": false,
          "name": "pool",
          "type": "uint256"
        },
        {
          "indexed": false,
          "name": "winner",
          "type": "uint256"
        },
        {
          "indexed": false,
          "name": "loser1",
          "type": "uint256"
        },
        {
          "indexed": false,
          "name": "loser2",
          "type": "uint256"
        },
        {
          "indexed": false,
          "name": "loser3",
          "type": "uint256"
        }
      ],
      "name": "CrazyProfitEvent",
      "type": "event"
    },
    {
      "anonymous": false,
      "inputs": [
        {
          "indexed": false,
          "name": "pool",
          "type": "uint256"
        },
        {
          "indexed": false,
          "name": "winner",
          "type": "address"
        },
        {
          "indexed": false,
          "name": "loser",
          "type": "address"
        },
        {
          "indexed": false,
          "name": "balance",
          "type": "uint256"
        }
      ],
      "name": "LuckyLotteryEvent",
      "type": "event"
    },
    {
      "anonymous": false,
      "inputs": [
        {
          "indexed": false,
          "name": "pool",
          "type": "uint256"
        },
        {
          "indexed": false,
          "name": "winner",
          "type": "address"
        },
        {
          "indexed": false,
          "name": "balance",
          "type": "uint256"
        }
      ],
      "name": "CrazyLotteryEvent",
      "type": "event"
    },
    {
      "constant": true,
      "inputs": [
        {
          "name": "target",
          "type": "address"
        },
        {
          "name": "downnumber",
          "type": "uint256"
        }
      ],
      "name": "downlineSearch",
      "outputs": [
        {
          "name": "",
          "type": "address"
        },
        {
          "name": "",
          "type": "uint256"
        }
      ],
      "payable": false,
      "stateMutability": "view",
      "type": "function"
    },
    {
      "constant": true,
      "inputs": [
        {
          "name": "target",
          "type": "address"
        }
      ],
      "name": "inviteinquire",
      "outputs": [
        {
          "name": "",
          "type": "uint256"
        }
      ],
      "payable": false,
      "stateMutability": "view",
      "type": "function"
    },
    {
      "constant": false,
      "inputs": [],
      "name": "regist",
      "outputs": [],
      "payable": true,
      "stateMutability": "payable",
      "type": "function"
    },
    {
      "constant": true,
      "inputs": [
        {
          "name": "num",
          "type": "uint256"
        }
      ],
      "name": "getinviteNumber",
      "outputs": [
        {
          "name": "",
          "type": "address"
        }
      ],
      "payable": false,
      "stateMutability": "view",
      "type": "function"
    },
    {
      "constant": true,
      "inputs": [
        {
          "name": "target",
          "type": "address"
        }
      ],
      "name": "getlayer",
      "outputs": [
        {
          "name": "",
          "type": "address"
        }
      ],
      "payable": false,
      "stateMutability": "view",
      "type": "function"
    }
  ],
  "bytecode": "0x608060405260058054600160a060020a031916733ee8ae904830a51a4cbf7588b02f05a33f87057617905534801561003657600080fd5b5060008054600160a060020a0319908116339081178355600180548316909117905560026020527f18f1d23d7a10cac9f2cff6e1bc2ef966f346d94e1184ea3e7b3d28cd54f832b18054821673ca35b7d915458ef540ade6068dfe2f44e8fa733c9081179091557f607777b8448e550d2f696346b44302d0d20fbbf153248130a07986371a4e73b4805483167314723a09acff6d2a60dcdf7aa4aff308fddc160c1790557ffb612a231b0162d240ed546c8f3107c6367b8eb46a76ad4b0875aea09104737780548316734b0897b0513fdc7c541b6d9d7e929c4e5364d2db1790557f98d1541b15506a8f982c558cf5652ea207c0b443b27ca7c43de33942a088a4238054831673583031d1113ad414f02576bd6afabfb3021402251790557f0f074079ac900e74abbceed97ddd566c2fd1c9a1ab4935abacb04e18f9d87f3f8054831673dd870fa1b7c4700f2bd7f44238821c26f73921481790557fbfffd67dd3d8d8f0e0b6fd4f34d5fc0f06e3b6ce39c5f1eb451475bf10b548e58054831672a0a0dce3ea7b5529b878e1a832362fcffe6510179055733e5c27761215232ca0b298ef87e0cbecbc0da1fd9092527f26ee6f658328d33f1ff942b986ea38d5a5a5707098bad82c05ae0a89f2fa7258805490911690911790556108438061021f6000396000f3006080604052600436106100e55763ffffffff7c01000000000000000000000000000000000000000000000000000000006000350416630e283f3581146100ea5780633f91d2cb14610128578063429ee4dc146101685780637510ecdc1461018057806375829def146101ae5780638542b7f8146101de5780638da5cb5b1461020c5780638ed10dc8146102215780639e0551c61461024f578063a54fa82f14610267578063bec27be01461027c578063cb4b6b8a146102dd578063ceb73a91146102e5578063f0f1b033146102fd578063f2fde38b1461032b578063f851a44014610359575b600080fd5b3480156100f657600080fd5b506100ff61036e565b6040805173ffffffffffffffffffffffffffffffffffffffff9092168252519081900360200190f35b34801561013457600080fd5b5061015673ffffffffffffffffffffffffffffffffffffffff6004351661038a565b60408051918252519081900360200190f35b34801561017457600080fd5b506100ff60043561039c565b34801561018c57600080fd5b506100ff73ffffffffffffffffffffffffffffffffffffffff600435166103c4565b3480156101ba57600080fd5b506101dc73ffffffffffffffffffffffffffffffffffffffff600435166103ef565b005b3480156101ea57600080fd5b5061015673ffffffffffffffffffffffffffffffffffffffff60043516610471565b34801561021857600080fd5b506100ff610483565b34801561022d57600080fd5b5061015673ffffffffffffffffffffffffffffffffffffffff6004351661049f565b34801561025b57600080fd5b506100ff6004356104c7565b34801561027357600080fd5b506101566104ef565b34801561028857600080fd5b506102ad73ffffffffffffffffffffffffffffffffffffffff600435166024356104f5565b6040805173ffffffffffffffffffffffffffffffffffffffff909316835260208301919091528051918290030190f35b6101dc610537565b3480156102f157600080fd5b506100ff600435610729565b34801561030957600080fd5b506100ff73ffffffffffffffffffffffffffffffffffffffff60043516610751565b34801561033757600080fd5b506101dc73ffffffffffffffffffffffffffffffffffffffff60043516610779565b34801561036557600080fd5b506100ff6107fb565b60045473ffffffffffffffffffffffffffffffffffffffff1681565b60076020526000908152604090205481565b60066020526000908152604090205473ffffffffffffffffffffffffffffffffffffffff1681565b73ffffffffffffffffffffffffffffffffffffffff9081166000908152600260205260409020541690565b60005473ffffffffffffffffffffffffffffffffffffffff16331461041357600080fd5b73ffffffffffffffffffffffffffffffffffffffff8116151561043557600080fd5b6001805473ffffffffffffffffffffffffffffffffffffffff191673ffffffffffffffffffffffffffffffffffffffff92909216919091179055565b60096020526000908152604090205481565b60005473ffffffffffffffffffffffffffffffffffffffff1681565b73ffffffffffffffffffffffffffffffffffffffff1660009081526007602052604090205490565b60036020526000908152604090205473ffffffffffffffffffffffffffffffffffffffff1681565b60085481565b73ffffffffffffffffffffffffffffffffffffffff91821660008181526009602081815260408084209584526001860182528320549390925290529054911691565b674563918244f4000060643402101561054f57600080fd5b336000908152600760205260409020541561056957600080fd5b6402540be40066b1a2bc2ec4ffff1934010460009081526006602052604090205473ffffffffffffffffffffffffffffffffffffffff163314156105ac57600080fd5b6402540be4003466b1a2bc2ec4ffff19810191909104600090815260066020818152604080842080543380875260028552838720805473ffffffffffffffffffffffffffffffffffffffff1990811673ffffffffffffffffffffffffffffffffffffffff94851617909155600880548952968652848820805482168317905586548289526007875285892055835483168852600980875285892080548a5260019081018852868a2080549093169093179091559254821687529190935281852080548201905583540190925560055491519116926108fc81150292909190818181858888f193505050501580156106a7573d6000803e3d6000fd5b50337f09371afb4578ee0c3f43accbe50410e7c3382f6678dbf0584b31633820acb9e36402540be40066b1a2bc2ec4ffff1934016008543360009081526002602090815260409182902054825195909404855284019190915273ffffffffffffffffffffffffffffffffffffffff9190911682820152519081900360600190a2565b60009081526006602052604090205473ffffffffffffffffffffffffffffffffffffffff1690565b60026020526000908152604090205473ffffffffffffffffffffffffffffffffffffffff1681565b60005473ffffffffffffffffffffffffffffffffffffffff16331461079d57600080fd5b73ffffffffffffffffffffffffffffffffffffffff811615156107bf57600080fd5b6000805473ffffffffffffffffffffffffffffffffffffffff191673ffffffffffffffffffffffffffffffffffffffff92909216919091179055565b60015473ffffffffffffffffffffffffffffffffffffffff16815600a165627a7a72305820a030c1e550e654998b24046aa7e1f8df8402ece386f19b1a38d9b59c7a46d8140029",
  "source": "pragma solidity ^0.4.21;\nimport \"./Event.sol\";\nimport \"./Ownable.sol\";\n//event RegistEvent(address indexed player, uint registNumber, address upline)\ncontract layer is Ownable, Event{\n    mapping(address => address) public layermap;\n    mapping(uint => address) public player;\n    \n    address public layercontract;\n\n    //分層測試\n    \n    constructor() public {\n        layermap[0x47ED2C6cAE34FDB231B82Ec8D666646085ea3A92] = 0xca35b7d915458ef540ade6068dfe2f44e8fa733c;\n        layermap[0xca35b7d915458ef540ade6068dfe2f44e8fa733c] = 0x14723a09acff6d2a60dcdf7aa4aff308fddc160c;\n        layermap[0x14723a09acff6d2a60dcdf7aa4aff308fddc160c] = 0x4b0897b0513fdc7c541b6d9d7e929c4e5364d2db;\n        layermap[0x4b0897b0513fdc7c541b6d9d7e929c4e5364d2db] = 0x583031d1113ad414f02576bd6afabfb302140225;\n        layermap[0x583031d1113ad414f02576bd6afabfb302140225] = 0xdd870fa1b7c4700f2bd7f44238821c26f7392148;\n        layermap[0xdd870fa1b7c4700f2bd7f44238821c26f7392148] = 0x00a0a0dce3ea7b5529b878e1a832362fcffe6510;\n        \n        layermap[0x3e5c27761215232ca0b298ef87e0cbecbc0da1fd] = 0xca35b7d915458ef540ade6068dfe2f44e8fa733c;\n    }\n    address invester = 0x3Ee8ae904830A51A4cBF7588B02f05a33f870576;\n    mapping(uint => address) public inviteNumber;\n    mapping(address => uint) public inviteInquire;\n    uint public inviteAmount;\n\n    struct downlineStructAddress{\n        address downaddress;\n    }\n\n    struct downlineStructMap{\n        uint downAmount;\n        mapping(uint => downlineStructAddress)  downlineNumber;\n    }\n    \n    mapping(address => downlineStructMap) public downlineMap;\n    \n    //回傳第幾位下線是誰與現有的下線數量\n    function downlineSearch(address target,uint downnumber) public constant returns(address,uint){\n        return (downlineMap[target].downlineNumber[downnumber].downaddress,downlineMap[target].downAmount);\n    }\n\n    function inviteinquire(address target) public constant returns(uint){\n        return inviteInquire[target];\n    }\n\n    function regist() payable public {\n        //註冊費大於0.05\n        require(msg.value*100 >= 5 ether);\n        //傳輸者必須沒註冊過\n        require(inviteInquire[msg.sender] == 0);\n        //推薦者不能推薦自己\n        require(msg.sender != inviteNumber[(msg.value-0.05 ether)/10000000000]);\n        //判斷有無輸入上線\n\n        //require(invite[head] == );\n        layermap[msg.sender] = inviteNumber[(msg.value-0.05 ether)/10000000000];\n\n        inviteNumber[inviteAmount]=msg.sender;\n        inviteInquire[msg.sender]=inviteAmount;\n\n        downlineMap[inviteNumber[(msg.value-0.05 ether)/10000000000]].downlineNumber[downlineMap[inviteNumber[(msg.value-0.05 ether)/10000000000]].downAmount].downaddress=msg.sender;\n        downlineMap[inviteNumber[(msg.value-0.05 ether)/10000000000]].downAmount = downlineMap[inviteNumber[(msg.value-0.05 ether)/10000000000]].downAmount+1;\n        \n        inviteAmount = inviteAmount+1;\n        invester.transfer(msg.value);\n        emit RegistEvent(msg.sender, (msg.value-0.05 ether)/10000000000, inviteAmount, layermap[msg.sender]);\n    }\n    //獲得層次資訊\n    function getinviteNumber(uint num) constant public returns (address){\n        return inviteNumber[num];\n    }\n    //獲得層次資訊\n    function getlayer(address target) constant public returns (address){\n        return layermap[target];\n\n    }\n\n}\n",
  "sourcePath": "/home/tung/language/python/contractControl/deployContract/contracts/Layer.sol",
  "compiler": {
    "name": "solc",
    "version": "0.4.24+commit.e67f0147.Emscripten.clang"
  },
  "schemaVersion": "2.0.1",
  "updatedAt": "2018-09-25T10:33:16.072Z"
}