{
  "contractName": "Lucky10",
  "abi": [
    {
      "constant": false,
      "inputs": [],
      "name": "getProfitout",
      "outputs": [],
      "payable": false,
      "stateMutability": "nonpayable",
      "type": "function"
    },
    {
      "constant": true,
      "inputs": [
        {
          "name": "",
          "type": "address"
        }
      ],
      "name": "profit",
      "outputs": [
        {
          "name": "",
          "type": "uint256"
        }
      ],
      "payable": false,
      "stateMutability": "view",
      "type": "function"
    },
    {
      "constant": true,
      "inputs": [],
      "name": "layercontract",
      "outputs": [
        {
          "name": "",
          "type": "address"
        }
      ],
      "payable": false,
      "stateMutability": "view",
      "type": "function"
    },
    {
      "constant": true,
      "inputs": [],
      "name": "poolp_lucky10",
      "outputs": [
        {
          "name": "",
          "type": "uint256"
        }
      ],
      "payable": false,
      "stateMutability": "view",
      "type": "function"
    },
    {
      "constant": true,
      "inputs": [
        {
          "name": "",
          "type": "uint256"
        }
      ],
      "name": "pool_lucky10",
      "outputs": [
        {
          "name": "player",
          "type": "address"
        }
      ],
      "payable": false,
      "stateMutability": "view",
      "type": "function"
    },
    {
      "constant": true,
      "inputs": [],
      "name": "lotteryinittime_lucky10",
      "outputs": [
        {
          "name": "",
          "type": "uint256"
        }
      ],
      "payable": false,
      "stateMutability": "view",
      "type": "function"
    },
    {
      "constant": true,
      "inputs": [],
      "name": "lotterybalance_L10",
      "outputs": [
        {
          "name": "",
          "type": "uint256"
        }
      ],
      "payable": false,
      "stateMutability": "view",
      "type": "function"
    },
    {
      "constant": true,
      "inputs": [
        {
          "name": "",
          "type": "address"
        }
      ],
      "name": "inviteInquire",
      "outputs": [
        {
          "name": "",
          "type": "uint256"
        }
      ],
      "payable": false,
      "stateMutability": "view",
      "type": "function"
    },
    {
      "constant": true,
      "inputs": [
        {
          "name": "",
          "type": "uint256"
        }
      ],
      "name": "inviteNumber",
      "outputs": [
        {
          "name": "",
          "type": "address"
        }
      ],
      "payable": false,
      "stateMutability": "view",
      "type": "function"
    },
    {
      "constant": false,
      "inputs": [
        {
          "name": "target",
          "type": "address"
        }
      ],
      "name": "setLose",
      "outputs": [],
      "payable": false,
      "stateMutability": "nonpayable",
      "type": "function"
    },
    {
      "constant": true,
      "inputs": [
        {
          "name": "",
          "type": "uint256"
        }
      ],
      "name": "resultMap_L10",
      "outputs": [
        {
          "name": "winner",
          "type": "uint256"
        },
        {
          "name": "loser",
          "type": "uint256"
        },
        {
          "name": "common1",
          "type": "uint256"
        },
        {
          "name": "common2",
          "type": "uint256"
        },
        {
          "name": "common3",
          "type": "uint256"
        },
        {
          "name": "common4",
          "type": "uint256"
        }
      ],
      "payable": false,
      "stateMutability": "view",
      "type": "function"
    },
    {
      "constant": true,
      "inputs": [
        {
          "name": "target",
          "type": "address"
        }
      ],
      "name": "getlayer",
      "outputs": [
        {
          "name": "",
          "type": "address"
        }
      ],
      "payable": false,
      "stateMutability": "view",
      "type": "function"
    },
    {
      "constant": false,
      "inputs": [
        {
          "name": "newOwner",
          "type": "address"
        }
      ],
      "name": "transferAdmin",
      "outputs": [],
      "payable": false,
      "stateMutability": "nonpayable",
      "type": "function"
    },
    {
      "constant": true,
      "inputs": [],
      "name": "lotteryPeopleNum_L10",
      "outputs": [
        {
          "name": "",
          "type": "int256"
        }
      ],
      "payable": false,
      "stateMutability": "view",
      "type": "function"
    },
    {
      "constant": true,
      "inputs": [
        {
          "name": "",
          "type": "address"
        }
      ],
      "name": "downlineMap",
      "outputs": [
        {
          "name": "downAmount",
          "type": "uint256"
        }
      ],
      "payable": false,
      "stateMutability": "view",
      "type": "function"
    },
    {
      "constant": false,
      "inputs": [
        {
          "name": "target",
          "type": "address"
        }
      ],
      "name": "setTime",
      "outputs": [],
      "payable": false,
      "stateMutability": "nonpayable",
      "type": "function"
    },
    {
      "constant": true,
      "inputs": [],
      "name": "owner",
      "outputs": [
        {
          "name": "",
          "type": "address"
        }
      ],
      "payable": false,
      "stateMutability": "view",
      "type": "function"
    },
    {
      "constant": true,
      "inputs": [
        {
          "name": "target",
          "type": "address"
        }
      ],
      "name": "inviteinquire",
      "outputs": [
        {
          "name": "",
          "type": "uint256"
        }
      ],
      "payable": false,
      "stateMutability": "view",
      "type": "function"
    },
    {
      "constant": true,
      "inputs": [
        {
          "name": "rand",
          "type": "uint256"
        },
        {
          "name": "amount",
          "type": "uint256"
        }
      ],
      "name": "randomLottery",
      "outputs": [
        {
          "name": "",
          "type": "uint256"
        }
      ],
      "payable": false,
      "stateMutability": "view",
      "type": "function"
    },
    {
      "constant": true,
      "inputs": [],
      "name": "contractInquire",
      "outputs": [
        {
          "name": "",
          "type": "address"
        }
      ],
      "payable": false,
      "stateMutability": "view",
      "type": "function"
    },
    {
      "constant": false,
      "inputs": [],
      "name": "getadminProfitout",
      "outputs": [],
      "payable": false,
      "stateMutability": "nonpayable",
      "type": "function"
    },
    {
      "constant": true,
      "inputs": [
        {
          "name": "target",
          "type": "address"
        }
      ],
      "name": "inquire",
      "outputs": [
        {
          "name": "",
          "type": "uint256"
        }
      ],
      "payable": false,
      "stateMutability": "view",
      "type": "function"
    },
    {
      "constant": true,
      "inputs": [
        {
          "name": "",
          "type": "uint256"
        }
      ],
      "name": "player",
      "outputs": [
        {
          "name": "",
          "type": "address"
        }
      ],
      "payable": false,
      "stateMutability": "view",
      "type": "function"
    },
    {
      "constant": true,
      "inputs": [],
      "name": "inviteAmount",
      "outputs": [
        {
          "name": "",
          "type": "uint256"
        }
      ],
      "payable": false,
      "stateMutability": "view",
      "type": "function"
    },
    {
      "constant": true,
      "inputs": [],
      "name": "pooln_lucky10",
      "outputs": [
        {
          "name": "",
          "type": "uint256"
        }
      ],
      "payable": false,
      "stateMutability": "view",
      "type": "function"
    },
    {
      "constant": true,
      "inputs": [
        {
          "name": "rand",
          "type": "uint256"
        }
      ],
      "name": "randomNewLucky",
      "outputs": [
        {
          "name": "",
          "type": "uint256"
        },
        {
          "name": "",
          "type": "uint256"
        },
        {
          "name": "",
          "type": "uint256"
        },
        {
          "name": "",
          "type": "uint256"
        },
        {
          "name": "",
          "type": "uint256"
        },
        {
          "name": "",
          "type": "uint256"
        }
      ],
      "payable": false,
      "stateMutability": "view",
      "type": "function"
    },
    {
      "constant": true,
      "inputs": [
        {
          "name": "target",
          "type": "address"
        },
        {
          "name": "downnumber",
          "type": "uint256"
        }
      ],
      "name": "downlineSearch",
      "outputs": [
        {
          "name": "",
          "type": "address"
        },
        {
          "name": "",
          "type": "uint256"
        }
      ],
      "payable": false,
      "stateMutability": "view",
      "type": "function"
    },
    {
      "constant": false,
      "inputs": [
        {
          "name": "target",
          "type": "address"
        }
      ],
      "name": "setWin",
      "outputs": [],
      "payable": false,
      "stateMutability": "nonpayable",
      "type": "function"
    },
    {
      "constant": false,
      "inputs": [],
      "name": "regist",
      "outputs": [],
      "payable": true,
      "stateMutability": "payable",
      "type": "function"
    },
    {
      "constant": true,
      "inputs": [
        {
          "name": "num",
          "type": "uint256"
        }
      ],
      "name": "getinviteNumber",
      "outputs": [
        {
          "name": "",
          "type": "address"
        }
      ],
      "payable": false,
      "stateMutability": "view",
      "type": "function"
    },
    {
      "constant": true,
      "inputs": [
        {
          "name": "",
          "type": "address"
        }
      ],
      "name": "layermap",
      "outputs": [
        {
          "name": "",
          "type": "address"
        }
      ],
      "payable": false,
      "stateMutability": "view",
      "type": "function"
    },
    {
      "constant": false,
      "inputs": [
        {
          "name": "newOwner",
          "type": "address"
        }
      ],
      "name": "transferOwnership",
      "outputs": [],
      "payable": false,
      "stateMutability": "nonpayable",
      "type": "function"
    },
    {
      "constant": true,
      "inputs": [],
      "name": "admin",
      "outputs": [
        {
          "name": "",
          "type": "address"
        }
      ],
      "payable": false,
      "stateMutability": "view",
      "type": "function"
    },
    {
      "constant": false,
      "inputs": [
        {
          "name": "newAddress",
          "type": "address"
        }
      ],
      "name": "changeAddress",
      "outputs": [],
      "payable": false,
      "stateMutability": "nonpayable",
      "type": "function"
    },
    {
      "constant": false,
      "inputs": [
        {
          "name": "target",
          "type": "address"
        },
        {
          "name": "balance",
          "type": "uint256"
        }
      ],
      "name": "setProfit",
      "outputs": [],
      "payable": false,
      "stateMutability": "nonpayable",
      "type": "function"
    },
    {
      "anonymous": false,
      "inputs": [
        {
          "indexed": false,
          "name": "pool",
          "type": "uint256"
        },
        {
          "indexed": true,
          "name": "player",
          "type": "address"
        },
        {
          "indexed": false,
          "name": "status",
          "type": "uint256"
        },
        {
          "indexed": false,
          "name": "types",
          "type": "uint256"
        },
        {
          "indexed": false,
          "name": "balance",
          "type": "uint256"
        }
      ],
      "name": "NProfitEvent",
      "type": "event"
    },
    {
      "anonymous": false,
      "inputs": [
        {
          "indexed": true,
          "name": "player",
          "type": "address"
        },
        {
          "indexed": false,
          "name": "balance",
          "type": "uint256"
        }
      ],
      "name": "LProfitEvent",
      "type": "event"
    },
    {
      "anonymous": false,
      "inputs": [
        {
          "indexed": true,
          "name": "player",
          "type": "address"
        },
        {
          "indexed": false,
          "name": "inputNumber",
          "type": "uint256"
        },
        {
          "indexed": false,
          "name": "registNumber",
          "type": "uint256"
        },
        {
          "indexed": false,
          "name": "upline",
          "type": "address"
        }
      ],
      "name": "RegistEvent",
      "type": "event"
    },
    {
      "anonymous": false,
      "inputs": [
        {
          "indexed": false,
          "name": "pool",
          "type": "uint256"
        },
        {
          "indexed": false,
          "name": "winner",
          "type": "uint256"
        },
        {
          "indexed": false,
          "name": "loser",
          "type": "uint256"
        }
      ],
      "name": "LuckyProfitEvent",
      "type": "event"
    },
    {
      "anonymous": false,
      "inputs": [
        {
          "indexed": false,
          "name": "pool",
          "type": "uint256"
        },
        {
          "indexed": false,
          "name": "winner",
          "type": "uint256"
        },
        {
          "indexed": false,
          "name": "loser1",
          "type": "uint256"
        },
        {
          "indexed": false,
          "name": "loser2",
          "type": "uint256"
        },
        {
          "indexed": false,
          "name": "loser3",
          "type": "uint256"
        }
      ],
      "name": "CrazyProfitEvent",
      "type": "event"
    },
    {
      "anonymous": false,
      "inputs": [
        {
          "indexed": false,
          "name": "pool",
          "type": "uint256"
        },
        {
          "indexed": false,
          "name": "winner",
          "type": "address"
        },
        {
          "indexed": false,
          "name": "loser",
          "type": "address"
        },
        {
          "indexed": false,
          "name": "balance",
          "type": "uint256"
        }
      ],
      "name": "LuckyLotteryEvent",
      "type": "event"
    },
    {
      "anonymous": false,
      "inputs": [
        {
          "indexed": false,
          "name": "pool",
          "type": "uint256"
        },
        {
          "indexed": false,
          "name": "winner",
          "type": "address"
        },
        {
          "indexed": false,
          "name": "balance",
          "type": "uint256"
        }
      ],
      "name": "CrazyLotteryEvent",
      "type": "event"
    },
    {
      "constant": false,
      "inputs": [
        {
          "name": "target",
          "type": "uint256"
        }
      ],
      "name": "changeTime_L10",
      "outputs": [],
      "payable": false,
      "stateMutability": "nonpayable",
      "type": "function"
    },
    {
      "constant": false,
      "inputs": [],
      "name": "gun_lucky10",
      "outputs": [
        {
          "name": "",
          "type": "address"
        }
      ],
      "payable": true,
      "stateMutability": "payable",
      "type": "function"
    },
    {
      "constant": true,
      "inputs": [
        {
          "name": "target",
          "type": "uint256"
        }
      ],
      "name": "search_L10",
      "outputs": [
        {
          "name": "",
          "type": "uint256"
        },
        {
          "name": "",
          "type": "uint256"
        },
        {
          "name": "",
          "type": "uint256"
        },
        {
          "name": "",
          "type": "uint256"
        },
        {
          "name": "",
          "type": "uint256"
        }
      ],
      "payable": false,
      "stateMutability": "view",
      "type": "function"
    }
  ],
  "bytecode": "0x608060405260058054600160a060020a0319908116733ee8ae904830a51a4cbf7588b02f05a33f870576908117909255600a805482169092179091556000600f81905542601055670de0b6b3a764000060115560016014819055815483163390811783558154841617905560026020527f18f1d23d7a10cac9f2cff6e1bc2ef966f346d94e1184ea3e7b3d28cd54f832b18054831673ca35b7d915458ef540ade6068dfe2f44e8fa733c9081179091557f607777b8448e550d2f696346b44302d0d20fbbf153248130a07986371a4e73b4805484167314723a09acff6d2a60dcdf7aa4aff308fddc160c1790557ffb612a231b0162d240ed546c8f3107c6367b8eb46a76ad4b0875aea09104737780548416734b0897b0513fdc7c541b6d9d7e929c4e5364d2db1790557f98d1541b15506a8f982c558cf5652ea207c0b443b27ca7c43de33942a088a4238054841673583031d1113ad414f02576bd6afabfb3021402251790557f0f074079ac900e74abbceed97ddd566c2fd1c9a1ab4935abacb04e18f9d87f3f8054841673dd870fa1b7c4700f2bd7f44238821c26f73921481790557fbfffd67dd3d8d8f0e0b6fd4f34d5fc0f06e3b6ce39c5f1eb451475bf10b548e58054841672a0a0dce3ea7b5529b878e1a832362fcffe6510179055733e5c27761215232ca0b298ef87e0cbecbc0da1fd9091527f26ee6f658328d33f1ff942b986ea38d5a5a5707098bad82c05ae0a89f2fa725880549092161790556117258061022f6000396000f3006080604052600436106101d75763ffffffff7c01000000000000000000000000000000000000000000000000000000006000350416630101ec8681146101dc57806302550e4d146101f35780630e283f351461022657806328c60978146102575780632ec4bff21461026c5780633cf3f0d6146102845780633e19f66a146102995780633f91d2cb146102ae578063429ee4dc146102cf57806348d0934b146102e75780635568b0ae146102ff578063640f085d146103205780637510ecdc1461036b57806375829def1461038c57806384155102146103ad5780638542b7f8146103c25780638cb32352146103e35780638da5cb5b146104045780638ed10dc8146104195780639435245e1461043a578063971b1c261461045557806399b72aac1461046a5780639a30c1851461047f5780639e0551c6146104a0578063a54fa82f146104b8578063b9386052146104cd578063be86618b146104e2578063bec27be0146104fa578063c041b05914610541578063cb4b6b8a14610562578063ceb73a911461056a578063f0f1b03314610582578063f20593d7146105a3578063f2fde38b146105e6578063f6af1bfb14610607578063f851a4401461060f578063fe64d6ff14610624578063fee73e8614610645575b600080fd5b3480156101e857600080fd5b506101f1610669565b005b3480156101ff57600080fd5b50610214600160a060020a03600435166106a3565b60408051918252519081900360200190f35b34801561023257600080fd5b5061023b6106b5565b60408051600160a060020a039092168252519081900360200190f35b34801561026357600080fd5b506102146106c4565b34801561027857600080fd5b5061023b6004356106ca565b34801561029057600080fd5b506102146106e5565b3480156102a557600080fd5b506102146106eb565b3480156102ba57600080fd5b50610214600160a060020a03600435166106f1565b3480156102db57600080fd5b5061023b600435610703565b3480156102f357600080fd5b506101f160043561071e565b34801561030b57600080fd5b506101f1600160a060020a0360043516610741565b34801561032c57600080fd5b50610338600435610766565b604080519687526020870195909552858501939093526060850191909152608084015260a0830152519081900360c00190f35b34801561037757600080fd5b5061023b600160a060020a036004351661079b565b34801561039857600080fd5b506101f1600160a060020a03600435166107b9565b3480156103b957600080fd5b50610214610814565b3480156103ce57600080fd5b50610214600160a060020a036004351661081a565b3480156103ef57600080fd5b506101f1600160a060020a036004351661082c565b34801561041057600080fd5b5061023b61084c565b34801561042557600080fd5b50610214600160a060020a036004351661085b565b34801561044657600080fd5b50610214600435602435610876565b34801561046157600080fd5b5061023b61090c565b34801561047657600080fd5b506101f161091b565b34801561048b57600080fd5b50610214600160a060020a036004351661095d565b3480156104ac57600080fd5b5061023b600435610978565b3480156104c457600080fd5b50610214610993565b3480156104d957600080fd5b50610214610999565b3480156104ee57600080fd5b5061033860043561099f565b34801561050657600080fd5b5061051e600160a060020a0360043516602435610bd8565b60408051600160a060020a03909316835260208301919091528051918290030190f35b34801561054d57600080fd5b506101f1600160a060020a0360043516610c0d565b6101f1610c2d565b34801561057657600080fd5b5061023b600435610df8565b34801561058e57600080fd5b5061023b600160a060020a0360043516610e13565b3480156105af57600080fd5b506105bb600435610e2e565b6040805195865260208601949094528484019290925260608401526080830152519081900360a00190f35b3480156105f257600080fd5b506101f1600160a060020a0360043516610e76565b61023b610ed1565b34801561061b57600080fd5b5061023b61145e565b34801561063057600080fd5b506101f1600160a060020a036004351661146d565b34801561065157600080fd5b506101f1600160a060020a03600435166024356114c8565b336000818152600b602052604080822054905181156108fc0292818181858888f193505050501580156106a0573d6000803e3d6000fd5b50565b600b6020526000908152604090205481565b600454600160a060020a031681565b600f5481565b601260205260009081526040902054600160a060020a031681565b60105481565b60135481565b60076020526000908152604090205481565b600660205260009081526040902054600160a060020a031681565b600054600160a060020a0316331461073557600080fd5b60108054919091039055565b600160a060020a03166000908152600d60205260409020600190810180549091019055565b601560205260009081526040902080546001820154600283015460038401546004850154600590950154939492939192909186565b600160a060020a039081166000908152600260205260409020541690565b600054600160a060020a031633146107d057600080fd5b600160a060020a03811615156107e557600080fd5b6001805473ffffffffffffffffffffffffffffffffffffffff1916600160a060020a0392909216919091179055565b60145481565b60096020526000908152604090205481565b600160a060020a03166000908152600d6020526040902042600290910155565b600054600160a060020a031681565b600160a060020a031660009081526007602052604090205490565b604080516020808201859052434082840152825180830384018152606090920192839052815160009384938693909282918401908083835b602083106108cd5780518252601f1990920191602091820191016108ae565b5181516020939093036101000a600019018019909116921691909117905260405192018290039091209250505081151561090357fe5b06949350505050565b600a54600160a060020a031690565b600a54600160a060020a03166000818152600b602052604080822054905181156108fc0292818181858888f193505050501580156106a0573d6000803e3d6000fd5b600160a060020a03166000908152600b602052604090205490565b600360205260009081526040902054600160a060020a031681565b60085481565b600e5481565b60008060008060008060008060008060068b4340604051602001808381526020018260001916600019168152602001925050506040516020818303038152906040526040518082805190602001908083835b60208310610a105780518252601f1990920191602091820191016109f1565b5181516020939093036101000a6000190180199091169216919091179052604051920182900390912092505050811515610a4657fe5b604080519290910660208084018290524340848401528251808503840181526060909401928390528351919750600693929182918401908083835b60208310610aa05780518252601f199092019160209182019101610a81565b5181516020939093036101000a6000190180199091169216919091179052604051920182900390912092505050811515610ad657fe5b0692506000915082841415610aef576006600185010692505b5060005b60068111610b3057838114158015610b0b5750828114155b15610b28576000828152600c602052604090208190556001909101905b600101610af3565b5050600c6020527f13649b2456f1b42fef0f0040b3aaeabcd21a76a0f3f5defd4f583839455116e8547fd421a5181c571bba3f01190c922c3b2a896fc1d84e86c9f17ac10e67ebef8b5c547f5d6016397a73f5e079297ac5a36fef17b4d9c3831618e63ab105738020ddd7205460036000527fc0da782485e77ae272268ae0a3ff44c1552ecb60b3743924de17a815e0a3cfd754949c939b5091995097509550909350915050565b600160a060020a0391821660008181526009602081815260408084209584526001860182528320549390925290529054911691565b600160a060020a03166000908152600d6020526040902080546001019055565b674563918244f40000606434021015610c4557600080fd5b3360009081526007602052604090205415610c5f57600080fd5b6402540be40066b1a2bc2ec4ffff19340104600090815260066020526040902054600160a060020a0316331415610c9557600080fd5b6402540be4003466b1a2bc2ec4ffff19810191909104600090815260066020818152604080842080543380875260028552838720805473ffffffffffffffffffffffffffffffffffffffff19908116600160a060020a0394851617909155600880548952968652848820805482168317905586548289526007875285892055835483168852600980875285892080548a5260019081018852868a2080549093169093179091559254821687529190935281852080548201905583540190925560055491519116926108fc81150292909190818181858888f19350505050158015610d83573d6000803e3d6000fd5b50337f09371afb4578ee0c3f43accbe50410e7c3382f6678dbf0584b31633820acb9e36402540be40066b1a2bc2ec4ffff19340160085433600090815260026020908152604091829020548251959094048552840191909152600160a060020a039190911682820152519081900360600190a2565b600090815260066020526040902054600160a060020a031690565b600260205260009081526040902054600160a060020a031681565b60008060008060006154606010544203811515610e4757fe5b046000600e546006600e54811515610e5b57fe5b600e54601354959c949b509299500690039550909350915050565b600054600160a060020a03163314610e8d57600080fd5b600160a060020a0381161515610ea257600080fd5b6000805473ffffffffffffffffffffffffffffffffffffffff1916600160a060020a0392909216919091179055565b6000670de0b6b3a76400003414610ee757600080fd5b6010546154600142118015610efe57506001601454135b15610f875760126000610f18612710600160145403610876565b600e54038152602081019190915260400160002054601354600160a060020a03909116906108fc90606490603202049081150290604051600060405180830381858888f19350505050158015610f72573d6000803e3d6000fd5b50600160145560135460029004601355426010555b600e546000908152601260205260409020805473ffffffffffffffffffffffffffffffffffffffff1916331790556011546103e890600502600a54600160a060020a03166000908152600b602052604090208054929091049091019055610ff6670de0b6b3a7640000336114ed565b50611001600161099f565b601560006006600e5481151561101357fe5b0681526020019081526020016000206000016000601560006006600e5481151561103957fe5b0681526020019081526020016000206001016000601560006006600e5481151561105f57fe5b0681526020019081526020016000206002016000601560006006600e5481151561108557fe5b0681526020019081526020016000206003016000601560006006600e548115156110ab57fe5b0681526020019081526020016000206004016000601560006006600e548115156110d157fe5b06815260208101919091526040016000206005019a909a5599909955989098559790975596909655959095555050600e54600611925061143591505057600e54600690061515611194577fa31547ce6245cdb9ecea19cf8c7eb9f5974025bb4075011409251ae855b30aed54600e546006810690030160051901600090815260126020526040808220549051600160a060020a0390911691906710a741a4627800009082818181858883f19350505050158015611192573d6000803e3d6000fd5b505b600e546006900660011415611215577fa31547ce6245cdb9ecea19cf8c7eb9f5974025bb4075011409251ae855b30aee54600e546006810690030160051901600090815260126020526040808220549051600160a060020a03909116919060019082818181858883f19350505050158015611213573d6000803e3d6000fd5b505b600e54600690066002141561129d577fa31547ce6245cdb9ecea19cf8c7eb9f5974025bb4075011409251ae855b30aef54600e546006810690030160051901600090815260126020526040808220549051600160a060020a039091169190670f43fc2c04ee00009082818181858883f1935050505015801561129b573d6000803e3d6000fd5b505b600e546006900660031415611325577fa31547ce6245cdb9ecea19cf8c7eb9f5974025bb4075011409251ae855b30af054600e546006810690030160051901600090815260126020526040808220549051600160a060020a039091169190670f43fc2c04ee00009082818181858883f19350505050158015611323573d6000803e3d6000fd5b505b600e5460069006600414156113ad577fa31547ce6245cdb9ecea19cf8c7eb9f5974025bb4075011409251ae855b30af154600e546006810690030160051901600090815260126020526040808220549051600160a060020a039091169190670f43fc2c04ee00009082818181858883f193505050501580156113ab573d6000803e3d6000fd5b505b600e546006900660051415611435577fa31547ce6245cdb9ecea19cf8c7eb9f5974025bb4075011409251ae855b30af254600e546006810690030160051901600090815260126020526040808220549051600160a060020a039091169190670f43fc2c04ee00009082818181858883f19350505050158015611433573d6000803e3d6000fd5b505b601480546001019055601154603c900460135401601381905550600e54600101600e8190555090565b600154600160a060020a031681565b600054600160a060020a0316331461148457600080fd5b600160a060020a038116151561149957600080fd5b600a805473ffffffffffffffffffffffffffffffffffffffff1916600160a060020a0392909216919091179055565b600160a060020a039091166000908152600d6020526040902060030180549091019055565b600081602d825b60078110156116c357600160a060020a0392831660009081526002602052604090205490921691821515611527576116c3565b80151561156057600160a060020a0383166000908152600b6020526040902080546103e8601489020401905560131991909101906116bb565b806001141561159b57600160a060020a0383166000908152600b6020526040902080546103e8600a89020401905560091991909101906116bb565b80600214156115d657600160a060020a0383166000908152600b6020526040902080546103e8600589020401905560041991909101906116bb565b806003141561161157600160a060020a0383166000908152600b6020526040902080546103e8600489020401905560031991909101906116bb565b806004141561164c57600160a060020a0383166000908152600b6020526040902080546103e8600389020401905560021991909101906116bb565b806005141561168757600160a060020a0383166000908152600b6020526040902080546103e8600289020401905560011991909101906116bb565b80600614156116bb57600160a060020a0383166000908152600b6020526040902080546103e8880401905560001991909101905b6001016114f4565b6103e8868302600a54600160a060020a03166000908152600b6020526040902080549290910490910190555034959450505050505600a165627a7a7230582079bfc1d6ea2b42278363be1b9d480704b0213713429cf51ef89324d70fcf41aa0029",
  "source": "pragma solidity ^0.4.21;\n//import \"./Event.sol\";\nimport \"./Layer.sol\";\nimport \"./Layerprofit.sol\";\nimport \"./Random.sol\";\nimport \"./Teambonus.sol\";\nimport \"./ContractInfo.sol\";\ncontract Lucky10 is layer, layerprofit, random, ContractInfo{\n    uint public pooln_lucky10;\n    uint public poolp_lucky10=0;\n    uint public lotteryinittime_lucky10 = now;\n    uint revenul10 = 1 ether;\n    struct poolinfo_lucky10{\n        address player;\n    }\n    mapping(uint => poolinfo_lucky10) public pool_lucky10;\n    uint public lotterybalance_L10;\n    int public lotteryPeopleNum_L10 =1;\n    function changeTime_L10(uint target)onlyOwner public{\n        lotteryinittime_lucky10 = lotteryinittime_lucky10 -target;\n    }\n    struct resultInfo_L10{\n        uint winner;\n        uint loser;\n        uint common1;\n        uint common2;\n        uint common3;\n        uint common4;\n    }\n    mapping(uint => resultInfo_L10) public resultMap_L10;\n    function gun_lucky10() public payable returns (address){\n            require(msg.value == 1 ether);\n            if(now>lotteryinittime_lucky10+21600&&lotteryPeopleNum_L10>1){\n                //if(pool_lucky10[pooln_lucky10 - randomLottery(10000,uint(lotteryPeopleNum_L10-1))].player!=0x0000000000000000000000000000000000000000){\n                    pool_lucky10[pooln_lucky10 - randomLottery(10000,uint(lotteryPeopleNum_L10-1))].player.transfer(lotterybalance_L10*50/100);\n                    lotteryPeopleNum_L10 = 1;\n                    lotterybalance_L10 = lotterybalance_L10/2;\n                    lotteryinittime_lucky10 = now;\n                //}\n            }\n            pool_lucky10[pooln_lucky10].player = msg.sender;\n            profit[contractAddress] = profit[contractAddress]+revenul10*5/1000;\n            allocateProfit(1 ether,msg.sender);\n            (resultMap_L10[pooln_lucky10%6].winner,\n            resultMap_L10[pooln_lucky10%6].loser,\n            resultMap_L10[pooln_lucky10%6].common1,\n            resultMap_L10[pooln_lucky10%6].common2,\n            resultMap_L10[pooln_lucky10%6].common3,\n            resultMap_L10[pooln_lucky10%6].common4) = randomNewLucky(1);\n            if(pooln_lucky10>=6){\n                if(pooln_lucky10%6==0){\n                    pool_lucky10[((pooln_lucky10-(pooln_lucky10%6))+resultMap_L10[0].winner)-6].player.transfer(1.2 ether);\n                }\n                if(pooln_lucky10%6==1){\n                    pool_lucky10[((pooln_lucky10-(pooln_lucky10%6))+resultMap_L10[0].loser)-6].player.transfer(1 wei);\n                }\n                if(pooln_lucky10%6==2){\n                    pool_lucky10[((pooln_lucky10-(pooln_lucky10%6))+resultMap_L10[0].common1)-6].player.transfer(1.1 ether);\n                }\n                if(pooln_lucky10%6==3){\n                    pool_lucky10[((pooln_lucky10-(pooln_lucky10%6))+resultMap_L10[0].common2)-6].player.transfer(1.1 ether);\n                }\n                if(pooln_lucky10%6==4){\n                    pool_lucky10[((pooln_lucky10-(pooln_lucky10%6))+resultMap_L10[0].common3)-6].player.transfer(1.1 ether);\n                }\n                if(pooln_lucky10%6==5){\n                    pool_lucky10[((pooln_lucky10-(pooln_lucky10%6))+resultMap_L10[0].common4)-6].player.transfer(1.1 ether);\n                }\n            }\n            lotteryPeopleNum_L10 = lotteryPeopleNum_L10+1;\n            lotterybalance_L10 = lotterybalance_L10 + revenul10/60;\n            pooln_lucky10 = pooln_lucky10+1;\n    }\n    \n    //..\n    function search_L10(uint target) public constant returns(uint,uint,uint,uint,uint){\n        return ((now-lotteryinittime_lucky10)/21600, 0, pooln_lucky10, pooln_lucky10 - pooln_lucky10%6, lotterybalance_L10);\n    }\n}",
  "sourcePath": "/home/tung/language/python/contractControl/deployContract/contracts/Lucky10.sol",
  "compiler": {
    "name": "solc",
    "version": "0.4.24+commit.e67f0147.Emscripten.clang"
  },
  "schemaVersion": "2.0.1",
  "updatedAt": "2018-09-25T10:33:16.111Z"
}