{
  "contractName": "Lucky1",
  "abi": [
    {
      "constant": false,
      "inputs": [],
      "name": "getProfitout",
      "outputs": [],
      "payable": false,
      "stateMutability": "nonpayable",
      "type": "function"
    },
    {
      "constant": true,
      "inputs": [
        {
          "name": "",
          "type": "address"
        }
      ],
      "name": "profit",
      "outputs": [
        {
          "name": "",
          "type": "uint256"
        }
      ],
      "payable": false,
      "stateMutability": "view",
      "type": "function"
    },
    {
      "constant": true,
      "inputs": [],
      "name": "lotterybalance_L1",
      "outputs": [
        {
          "name": "",
          "type": "uint256"
        }
      ],
      "payable": false,
      "stateMutability": "view",
      "type": "function"
    },
    {
      "constant": true,
      "inputs": [],
      "name": "layercontract",
      "outputs": [
        {
          "name": "",
          "type": "address"
        }
      ],
      "payable": false,
      "stateMutability": "view",
      "type": "function"
    },
    {
      "constant": true,
      "inputs": [],
      "name": "lotteryinittime_lucky1",
      "outputs": [
        {
          "name": "",
          "type": "uint256"
        }
      ],
      "payable": false,
      "stateMutability": "view",
      "type": "function"
    },
    {
      "constant": true,
      "inputs": [
        {
          "name": "",
          "type": "address"
        }
      ],
      "name": "inviteInquire",
      "outputs": [
        {
          "name": "",
          "type": "uint256"
        }
      ],
      "payable": false,
      "stateMutability": "view",
      "type": "function"
    },
    {
      "constant": true,
      "inputs": [
        {
          "name": "",
          "type": "uint256"
        }
      ],
      "name": "inviteNumber",
      "outputs": [
        {
          "name": "",
          "type": "address"
        }
      ],
      "payable": false,
      "stateMutability": "view",
      "type": "function"
    },
    {
      "constant": true,
      "inputs": [
        {
          "name": "",
          "type": "uint256"
        }
      ],
      "name": "resultMap_L1",
      "outputs": [
        {
          "name": "winner",
          "type": "uint256"
        },
        {
          "name": "loser",
          "type": "uint256"
        },
        {
          "name": "common1",
          "type": "uint256"
        },
        {
          "name": "common2",
          "type": "uint256"
        },
        {
          "name": "common3",
          "type": "uint256"
        },
        {
          "name": "common4",
          "type": "uint256"
        }
      ],
      "payable": false,
      "stateMutability": "view",
      "type": "function"
    },
    {
      "constant": false,
      "inputs": [
        {
          "name": "target",
          "type": "address"
        }
      ],
      "name": "setLose",
      "outputs": [],
      "payable": false,
      "stateMutability": "nonpayable",
      "type": "function"
    },
    {
      "constant": true,
      "inputs": [],
      "name": "poolp_lucky1",
      "outputs": [
        {
          "name": "",
          "type": "uint256"
        }
      ],
      "payable": false,
      "stateMutability": "view",
      "type": "function"
    },
    {
      "constant": true,
      "inputs": [
        {
          "name": "target",
          "type": "address"
        }
      ],
      "name": "getlayer",
      "outputs": [
        {
          "name": "",
          "type": "address"
        }
      ],
      "payable": false,
      "stateMutability": "view",
      "type": "function"
    },
    {
      "constant": false,
      "inputs": [
        {
          "name": "newOwner",
          "type": "address"
        }
      ],
      "name": "transferAdmin",
      "outputs": [],
      "payable": false,
      "stateMutability": "nonpayable",
      "type": "function"
    },
    {
      "constant": true,
      "inputs": [
        {
          "name": "",
          "type": "address"
        }
      ],
      "name": "downlineMap",
      "outputs": [
        {
          "name": "downAmount",
          "type": "uint256"
        }
      ],
      "payable": false,
      "stateMutability": "view",
      "type": "function"
    },
    {
      "constant": false,
      "inputs": [
        {
          "name": "target",
          "type": "address"
        }
      ],
      "name": "setTime",
      "outputs": [],
      "payable": false,
      "stateMutability": "nonpayable",
      "type": "function"
    },
    {
      "constant": true,
      "inputs": [],
      "name": "owner",
      "outputs": [
        {
          "name": "",
          "type": "address"
        }
      ],
      "payable": false,
      "stateMutability": "view",
      "type": "function"
    },
    {
      "constant": true,
      "inputs": [
        {
          "name": "target",
          "type": "address"
        }
      ],
      "name": "inviteinquire",
      "outputs": [
        {
          "name": "",
          "type": "uint256"
        }
      ],
      "payable": false,
      "stateMutability": "view",
      "type": "function"
    },
    {
      "constant": true,
      "inputs": [
        {
          "name": "rand",
          "type": "uint256"
        },
        {
          "name": "amount",
          "type": "uint256"
        }
      ],
      "name": "randomLottery",
      "outputs": [
        {
          "name": "",
          "type": "uint256"
        }
      ],
      "payable": false,
      "stateMutability": "view",
      "type": "function"
    },
    {
      "constant": true,
      "inputs": [],
      "name": "contractInquire",
      "outputs": [
        {
          "name": "",
          "type": "address"
        }
      ],
      "payable": false,
      "stateMutability": "view",
      "type": "function"
    },
    {
      "constant": false,
      "inputs": [],
      "name": "getadminProfitout",
      "outputs": [],
      "payable": false,
      "stateMutability": "nonpayable",
      "type": "function"
    },
    {
      "constant": true,
      "inputs": [
        {
          "name": "target",
          "type": "address"
        }
      ],
      "name": "inquire",
      "outputs": [
        {
          "name": "",
          "type": "uint256"
        }
      ],
      "payable": false,
      "stateMutability": "view",
      "type": "function"
    },
    {
      "constant": true,
      "inputs": [
        {
          "name": "",
          "type": "uint256"
        }
      ],
      "name": "player",
      "outputs": [
        {
          "name": "",
          "type": "address"
        }
      ],
      "payable": false,
      "stateMutability": "view",
      "type": "function"
    },
    {
      "constant": true,
      "inputs": [],
      "name": "inviteAmount",
      "outputs": [
        {
          "name": "",
          "type": "uint256"
        }
      ],
      "payable": false,
      "stateMutability": "view",
      "type": "function"
    },
    {
      "constant": true,
      "inputs": [
        {
          "name": "",
          "type": "uint256"
        }
      ],
      "name": "pool_lucky1",
      "outputs": [
        {
          "name": "player",
          "type": "address"
        }
      ],
      "payable": false,
      "stateMutability": "view",
      "type": "function"
    },
    {
      "constant": true,
      "inputs": [],
      "name": "lotteryPeopleNum_L1",
      "outputs": [
        {
          "name": "",
          "type": "int256"
        }
      ],
      "payable": false,
      "stateMutability": "view",
      "type": "function"
    },
    {
      "constant": true,
      "inputs": [
        {
          "name": "rand",
          "type": "uint256"
        }
      ],
      "name": "randomNewLucky",
      "outputs": [
        {
          "name": "",
          "type": "uint256"
        },
        {
          "name": "",
          "type": "uint256"
        },
        {
          "name": "",
          "type": "uint256"
        },
        {
          "name": "",
          "type": "uint256"
        },
        {
          "name": "",
          "type": "uint256"
        },
        {
          "name": "",
          "type": "uint256"
        }
      ],
      "payable": false,
      "stateMutability": "view",
      "type": "function"
    },
    {
      "constant": true,
      "inputs": [
        {
          "name": "target",
          "type": "address"
        },
        {
          "name": "downnumber",
          "type": "uint256"
        }
      ],
      "name": "downlineSearch",
      "outputs": [
        {
          "name": "",
          "type": "address"
        },
        {
          "name": "",
          "type": "uint256"
        }
      ],
      "payable": false,
      "stateMutability": "view",
      "type": "function"
    },
    {
      "constant": false,
      "inputs": [
        {
          "name": "target",
          "type": "address"
        }
      ],
      "name": "setWin",
      "outputs": [],
      "payable": false,
      "stateMutability": "nonpayable",
      "type": "function"
    },
    {
      "constant": false,
      "inputs": [],
      "name": "regist",
      "outputs": [],
      "payable": true,
      "stateMutability": "payable",
      "type": "function"
    },
    {
      "constant": true,
      "inputs": [
        {
          "name": "num",
          "type": "uint256"
        }
      ],
      "name": "getinviteNumber",
      "outputs": [
        {
          "name": "",
          "type": "address"
        }
      ],
      "payable": false,
      "stateMutability": "view",
      "type": "function"
    },
    {
      "constant": true,
      "inputs": [],
      "name": "pooln_lucky1",
      "outputs": [
        {
          "name": "",
          "type": "uint256"
        }
      ],
      "payable": false,
      "stateMutability": "view",
      "type": "function"
    },
    {
      "constant": true,
      "inputs": [
        {
          "name": "",
          "type": "address"
        }
      ],
      "name": "layermap",
      "outputs": [
        {
          "name": "",
          "type": "address"
        }
      ],
      "payable": false,
      "stateMutability": "view",
      "type": "function"
    },
    {
      "constant": false,
      "inputs": [
        {
          "name": "newOwner",
          "type": "address"
        }
      ],
      "name": "transferOwnership",
      "outputs": [],
      "payable": false,
      "stateMutability": "nonpayable",
      "type": "function"
    },
    {
      "constant": true,
      "inputs": [],
      "name": "admin",
      "outputs": [
        {
          "name": "",
          "type": "address"
        }
      ],
      "payable": false,
      "stateMutability": "view",
      "type": "function"
    },
    {
      "constant": false,
      "inputs": [
        {
          "name": "newAddress",
          "type": "address"
        }
      ],
      "name": "changeAddress",
      "outputs": [],
      "payable": false,
      "stateMutability": "nonpayable",
      "type": "function"
    },
    {
      "constant": false,
      "inputs": [
        {
          "name": "target",
          "type": "address"
        },
        {
          "name": "balance",
          "type": "uint256"
        }
      ],
      "name": "setProfit",
      "outputs": [],
      "payable": false,
      "stateMutability": "nonpayable",
      "type": "function"
    },
    {
      "anonymous": false,
      "inputs": [
        {
          "indexed": false,
          "name": "pool",
          "type": "uint256"
        },
        {
          "indexed": true,
          "name": "player",
          "type": "address"
        },
        {
          "indexed": false,
          "name": "status",
          "type": "uint256"
        },
        {
          "indexed": false,
          "name": "types",
          "type": "uint256"
        },
        {
          "indexed": false,
          "name": "balance",
          "type": "uint256"
        }
      ],
      "name": "NProfitEvent",
      "type": "event"
    },
    {
      "anonymous": false,
      "inputs": [
        {
          "indexed": true,
          "name": "player",
          "type": "address"
        },
        {
          "indexed": false,
          "name": "balance",
          "type": "uint256"
        }
      ],
      "name": "LProfitEvent",
      "type": "event"
    },
    {
      "anonymous": false,
      "inputs": [
        {
          "indexed": true,
          "name": "player",
          "type": "address"
        },
        {
          "indexed": false,
          "name": "inputNumber",
          "type": "uint256"
        },
        {
          "indexed": false,
          "name": "registNumber",
          "type": "uint256"
        },
        {
          "indexed": false,
          "name": "upline",
          "type": "address"
        }
      ],
      "name": "RegistEvent",
      "type": "event"
    },
    {
      "anonymous": false,
      "inputs": [
        {
          "indexed": false,
          "name": "pool",
          "type": "uint256"
        },
        {
          "indexed": false,
          "name": "winner",
          "type": "uint256"
        },
        {
          "indexed": false,
          "name": "loser",
          "type": "uint256"
        }
      ],
      "name": "LuckyProfitEvent",
      "type": "event"
    },
    {
      "anonymous": false,
      "inputs": [
        {
          "indexed": false,
          "name": "pool",
          "type": "uint256"
        },
        {
          "indexed": false,
          "name": "winner",
          "type": "uint256"
        },
        {
          "indexed": false,
          "name": "loser1",
          "type": "uint256"
        },
        {
          "indexed": false,
          "name": "loser2",
          "type": "uint256"
        },
        {
          "indexed": false,
          "name": "loser3",
          "type": "uint256"
        }
      ],
      "name": "CrazyProfitEvent",
      "type": "event"
    },
    {
      "anonymous": false,
      "inputs": [
        {
          "indexed": false,
          "name": "pool",
          "type": "uint256"
        },
        {
          "indexed": false,
          "name": "winner",
          "type": "address"
        },
        {
          "indexed": false,
          "name": "loser",
          "type": "address"
        },
        {
          "indexed": false,
          "name": "balance",
          "type": "uint256"
        }
      ],
      "name": "LuckyLotteryEvent",
      "type": "event"
    },
    {
      "anonymous": false,
      "inputs": [
        {
          "indexed": false,
          "name": "pool",
          "type": "uint256"
        },
        {
          "indexed": false,
          "name": "winner",
          "type": "address"
        },
        {
          "indexed": false,
          "name": "balance",
          "type": "uint256"
        }
      ],
      "name": "CrazyLotteryEvent",
      "type": "event"
    },
    {
      "constant": false,
      "inputs": [
        {
          "name": "target",
          "type": "uint256"
        }
      ],
      "name": "changeTime_L1",
      "outputs": [],
      "payable": false,
      "stateMutability": "nonpayable",
      "type": "function"
    },
    {
      "constant": false,
      "inputs": [],
      "name": "gun_lucky1",
      "outputs": [
        {
          "name": "",
          "type": "address"
        }
      ],
      "payable": true,
      "stateMutability": "payable",
      "type": "function"
    },
    {
      "constant": true,
      "inputs": [
        {
          "name": "target",
          "type": "uint256"
        }
      ],
      "name": "search_L1",
      "outputs": [
        {
          "name": "",
          "type": "uint256"
        },
        {
          "name": "",
          "type": "uint256"
        },
        {
          "name": "",
          "type": "uint256"
        },
        {
          "name": "",
          "type": "uint256"
        },
        {
          "name": "",
          "type": "uint256"
        }
      ],
      "payable": false,
      "stateMutability": "view",
      "type": "function"
    }
  ],
  "bytecode": "0x608060405260058054600160a060020a0319908116733ee8ae904830a51a4cbf7588b02f05a33f870576908117909255600a805482169092179091556000600f8190554260105567016345785d8a000060115560016014819055815483163390811783558154841617905560026020527f18f1d23d7a10cac9f2cff6e1bc2ef966f346d94e1184ea3e7b3d28cd54f832b18054831673ca35b7d915458ef540ade6068dfe2f44e8fa733c9081179091557f607777b8448e550d2f696346b44302d0d20fbbf153248130a07986371a4e73b4805484167314723a09acff6d2a60dcdf7aa4aff308fddc160c1790557ffb612a231b0162d240ed546c8f3107c6367b8eb46a76ad4b0875aea09104737780548416734b0897b0513fdc7c541b6d9d7e929c4e5364d2db1790557f98d1541b15506a8f982c558cf5652ea207c0b443b27ca7c43de33942a088a4238054841673583031d1113ad414f02576bd6afabfb3021402251790557f0f074079ac900e74abbceed97ddd566c2fd1c9a1ab4935abacb04e18f9d87f3f8054841673dd870fa1b7c4700f2bd7f44238821c26f73921481790557fbfffd67dd3d8d8f0e0b6fd4f34d5fc0f06e3b6ce39c5f1eb451475bf10b548e58054841672a0a0dce3ea7b5529b878e1a832362fcffe6510179055733e5c27761215232ca0b298ef87e0cbecbc0da1fd9091527f26ee6f658328d33f1ff942b986ea38d5a5a5707098bad82c05ae0a89f2fa725880549092161790556117228061022f6000396000f3006080604052600436106101d75763ffffffff7c01000000000000000000000000000000000000000000000000000000006000350416630101ec8681146101dc57806302550e4d146101f35780630821fc01146102265780630e283f351461023b5780631798fdc51461026c5780632954a701146102af5780633f91d2cb146102c4578063429ee4dc146102e55780634780adc8146102fd5780635568b0ae14610348578063654425ea146103695780637510ecdc1461037e57806375829def1461039f57806384dee713146103c05780638542b7f8146103c85780638cb32352146103e95780638da5cb5b1461040a5780638ed10dc81461041f5780639435245e14610440578063971b1c261461045b57806399b72aac146104705780639a30c185146104855780639e0551c6146104a6578063a20b0858146104be578063a54fa82f146104d6578063a90792c6146104eb578063b452a31914610503578063be86618b14610518578063bec27be014610530578063c041b05914610577578063cb4b6b8a14610598578063ceb73a91146105a0578063e30abc60146105b8578063f0f1b033146105cd578063f2fde38b146105ee578063f851a4401461060f578063fe64d6ff14610624578063fee73e8614610645575b600080fd5b3480156101e857600080fd5b506101f1610669565b005b3480156101ff57600080fd5b50610214600160a060020a03600435166106a3565b60408051918252519081900360200190f35b34801561023257600080fd5b506102146106b5565b34801561024757600080fd5b506102506106bb565b60408051600160a060020a039092168252519081900360200190f35b34801561027857600080fd5b506102846004356106ca565b6040805195865260208601949094528484019290925260608401526080830152519081900360a00190f35b3480156102bb57600080fd5b50610214610712565b3480156102d057600080fd5b50610214600160a060020a0360043516610718565b3480156102f157600080fd5b5061025060043561072a565b34801561030957600080fd5b50610315600435610745565b604080519687526020870195909552858501939093526060850191909152608084015260a0830152519081900360c00190f35b34801561035457600080fd5b506101f1600160a060020a036004351661077a565b34801561037557600080fd5b5061021461079f565b34801561038a57600080fd5b50610250600160a060020a03600435166107a5565b3480156103ab57600080fd5b506101f1600160a060020a03600435166107c3565b61025061081e565b3480156103d457600080fd5b50610214600160a060020a0360043516610da8565b3480156103f557600080fd5b506101f1600160a060020a0360043516610dba565b34801561041657600080fd5b50610250610dda565b34801561042b57600080fd5b50610214600160a060020a0360043516610de9565b34801561044c57600080fd5b50610214600435602435610e04565b34801561046757600080fd5b50610250610e9a565b34801561047c57600080fd5b506101f1610ea9565b34801561049157600080fd5b50610214600160a060020a0360043516610eeb565b3480156104b257600080fd5b50610250600435610f06565b3480156104ca57600080fd5b506101f1600435610f21565b3480156104e257600080fd5b50610214610f44565b3480156104f757600080fd5b50610250600435610f4a565b34801561050f57600080fd5b50610214610f65565b34801561052457600080fd5b50610315600435610f6b565b34801561053c57600080fd5b50610554600160a060020a03600435166024356111a4565b60408051600160a060020a03909316835260208301919091528051918290030190f35b34801561058357600080fd5b506101f1600160a060020a03600435166111d9565b6101f16111f9565b3480156105ac57600080fd5b506102506004356113c4565b3480156105c457600080fd5b506102146113df565b3480156105d957600080fd5b50610250600160a060020a03600435166113e5565b3480156105fa57600080fd5b506101f1600160a060020a0360043516611400565b34801561061b57600080fd5b5061025061145b565b34801561063057600080fd5b506101f1600160a060020a036004351661146a565b34801561065157600080fd5b506101f1600160a060020a03600435166024356114c5565b336000818152600b602052604080822054905181156108fc0292818181858888f193505050501580156106a0573d6000803e3d6000fd5b50565b600b6020526000908152604090205481565b60135481565b600454600160a060020a031681565b600080600080600061546060105442038115156106e357fe5b046000600e546006600e548115156106f757fe5b600e54601354959c949b509299500690039550909350915050565b60105481565b60076020526000908152604090205481565b600660205260009081526040902054600160a060020a031681565b601560205260009081526040902080546001820154600283015460038401546004850154600590950154939492939192909186565b600160a060020a03166000908152600d60205260409020600190810180549091019055565b600f5481565b600160a060020a039081166000908152600260205260409020541690565b600054600160a060020a031633146107da57600080fd5b600160a060020a03811615156107ef57600080fd5b6001805473ffffffffffffffffffffffffffffffffffffffff1916600160a060020a0392909216919091179055565b600067016345785d8a0000341461083457600080fd5b601054615460014211801561084b57506001601454135b156108d15760126000610862612710601454610e04565b600e54038152602081019190915260400160002054601354600160a060020a03909116906108fc90606490603202049081150290604051600060405180830381858888f193505050501580156108bc573d6000803e3d6000fd5b50600160145560135460029004601355426010555b600e546000908152601260205260409020805473ffffffffffffffffffffffffffffffffffffffff1916331790556011546103e890600502600a54600160a060020a03166000908152600b60205260409020805492909104909101905561094067016345785d8a0000336114ea565b5061094b6001610f6b565b601560006006600e5481151561095d57fe5b0681526020019081526020016000206000016000601560006006600e5481151561098357fe5b0681526020019081526020016000206001016000601560006006600e548115156109a957fe5b0681526020019081526020016000206002016000601560006006600e548115156109cf57fe5b0681526020019081526020016000206003016000601560006006600e548115156109f557fe5b0681526020019081526020016000206004016000601560006006600e54811515610a1b57fe5b06815260208101919091526040016000206005019a909a5599909955989098559790975596909655959095555050600e546006119250610d7f91505057600e54600690061515610ade577fa31547ce6245cdb9ecea19cf8c7eb9f5974025bb4075011409251ae855b30aed54600e546006810690030160051901600090815260126020526040808220549051600160a060020a0390911691906701aa535d3d0c00009082818181858883f19350505050158015610adc573d6000803e3d6000fd5b505b600e546006900660011415610b5f577fa31547ce6245cdb9ecea19cf8c7eb9f5974025bb4075011409251ae855b30aee54600e546006810690030160051901600090815260126020526040808220549051600160a060020a03909116919060019082818181858883f19350505050158015610b5d573d6000803e3d6000fd5b505b600e546006900660021415610be7577fa31547ce6245cdb9ecea19cf8c7eb9f5974025bb4075011409251ae855b30aef54600e546006810690030160051901600090815260126020526040808220549051600160a060020a039091169190670186cc6acd4b00009082818181858883f19350505050158015610be5573d6000803e3d6000fd5b505b600e546006900660031415610c6f577fa31547ce6245cdb9ecea19cf8c7eb9f5974025bb4075011409251ae855b30af054600e546006810690030160051901600090815260126020526040808220549051600160a060020a039091169190670186cc6acd4b00009082818181858883f19350505050158015610c6d573d6000803e3d6000fd5b505b600e546006900660041415610cf7577fa31547ce6245cdb9ecea19cf8c7eb9f5974025bb4075011409251ae855b30af154600e546006810690030160051901600090815260126020526040808220549051600160a060020a039091169190670186cc6acd4b00009082818181858883f19350505050158015610cf5573d6000803e3d6000fd5b505b600e546006900660051415610d7f577fa31547ce6245cdb9ecea19cf8c7eb9f5974025bb4075011409251ae855b30af254600e546006810690030160051901600090815260126020526040808220549051600160a060020a039091169190670186cc6acd4b00009082818181858883f19350505050158015610d7d573d6000803e3d6000fd5b505b601480546001019055601154603c900460135401601381905550600e54600101600e8190555090565b60096020526000908152604090205481565b600160a060020a03166000908152600d6020526040902042600290910155565b600054600160a060020a031681565b600160a060020a031660009081526007602052604090205490565b604080516020808201859052434082840152825180830384018152606090920192839052815160009384938693909282918401908083835b60208310610e5b5780518252601f199092019160209182019101610e3c565b5181516020939093036101000a6000190180199091169216919091179052604051920182900390912092505050811515610e9157fe5b06949350505050565b600a54600160a060020a031690565b600a54600160a060020a03166000818152600b602052604080822054905181156108fc0292818181858888f193505050501580156106a0573d6000803e3d6000fd5b600160a060020a03166000908152600b602052604090205490565b600360205260009081526040902054600160a060020a031681565b600054600160a060020a03163314610f3857600080fd5b60108054919091039055565b60085481565b601260205260009081526040902054600160a060020a031681565b60145481565b60008060008060008060008060008060068b4340604051602001808381526020018260001916600019168152602001925050506040516020818303038152906040526040518082805190602001908083835b60208310610fdc5780518252601f199092019160209182019101610fbd565b5181516020939093036101000a600019018019909116921691909117905260405192018290039091209250505081151561101257fe5b604080519290910660208084018290524340848401528251808503840181526060909401928390528351919750600693929182918401908083835b6020831061106c5780518252601f19909201916020918201910161104d565b5181516020939093036101000a60001901801990911692169190911790526040519201829003909120925050508115156110a257fe5b06925060009150828414156110bb576006600185010692505b5060005b600681116110fc578381141580156110d75750828114155b156110f4576000828152600c602052604090208190556001909101905b6001016110bf565b5050600c6020527f13649b2456f1b42fef0f0040b3aaeabcd21a76a0f3f5defd4f583839455116e8547fd421a5181c571bba3f01190c922c3b2a896fc1d84e86c9f17ac10e67ebef8b5c547f5d6016397a73f5e079297ac5a36fef17b4d9c3831618e63ab105738020ddd7205460036000527fc0da782485e77ae272268ae0a3ff44c1552ecb60b3743924de17a815e0a3cfd754949c939b5091995097509550909350915050565b600160a060020a0391821660008181526009602081815260408084209584526001860182528320549390925290529054911691565b600160a060020a03166000908152600d6020526040902080546001019055565b674563918244f4000060643402101561121157600080fd5b336000908152600760205260409020541561122b57600080fd5b6402540be40066b1a2bc2ec4ffff19340104600090815260066020526040902054600160a060020a031633141561126157600080fd5b6402540be4003466b1a2bc2ec4ffff19810191909104600090815260066020818152604080842080543380875260028552838720805473ffffffffffffffffffffffffffffffffffffffff19908116600160a060020a0394851617909155600880548952968652848820805482168317905586548289526007875285892055835483168852600980875285892080548a5260019081018852868a2080549093169093179091559254821687529190935281852080548201905583540190925560055491519116926108fc81150292909190818181858888f1935050505015801561134f573d6000803e3d6000fd5b50337f09371afb4578ee0c3f43accbe50410e7c3382f6678dbf0584b31633820acb9e36402540be40066b1a2bc2ec4ffff19340160085433600090815260026020908152604091829020548251959094048552840191909152600160a060020a039190911682820152519081900360600190a2565b600090815260066020526040902054600160a060020a031690565b600e5481565b600260205260009081526040902054600160a060020a031681565b600054600160a060020a0316331461141757600080fd5b600160a060020a038116151561142c57600080fd5b6000805473ffffffffffffffffffffffffffffffffffffffff1916600160a060020a0392909216919091179055565b600154600160a060020a031681565b600054600160a060020a0316331461148157600080fd5b600160a060020a038116151561149657600080fd5b600a805473ffffffffffffffffffffffffffffffffffffffff1916600160a060020a0392909216919091179055565b600160a060020a039091166000908152600d6020526040902060030180549091019055565b600081602d825b60078110156116c057600160a060020a0392831660009081526002602052604090205490921691821515611524576116c0565b80151561155d57600160a060020a0383166000908152600b6020526040902080546103e8601489020401905560131991909101906116b8565b806001141561159857600160a060020a0383166000908152600b6020526040902080546103e8600a89020401905560091991909101906116b8565b80600214156115d357600160a060020a0383166000908152600b6020526040902080546103e8600589020401905560041991909101906116b8565b806003141561160e57600160a060020a0383166000908152600b6020526040902080546103e8600489020401905560031991909101906116b8565b806004141561164957600160a060020a0383166000908152600b6020526040902080546103e8600389020401905560021991909101906116b8565b806005141561168457600160a060020a0383166000908152600b6020526040902080546103e8600289020401905560011991909101906116b8565b80600614156116b857600160a060020a0383166000908152600b6020526040902080546103e8880401905560001991909101905b6001016114f1565b6103e8868302600a54600160a060020a03166000908152600b6020526040902080549290910490910190555034959450505050505600a165627a7a72305820276bdda03b59ec87f356dd283a192fb23cd25d1db01900bdd9d8275af0add3540029",
  "source": "pragma solidity ^0.4.21;\n//import \"./Event.sol\";\nimport \"./Layer.sol\";\nimport \"./Layerprofit.sol\";\nimport \"./Random.sol\";\nimport \"./Teambonus.sol\";\nimport \"./ContractInfo.sol\";\ncontract Lucky1 is layer, layerprofit, random, ContractInfo{\n    uint public pooln_lucky1;\n    uint public poolp_lucky1=0;\n    uint public lotteryinittime_lucky1 = now;\n    uint revenul1 = 0.1 ether;\n    struct poolinfo_lucky1{\n        address player;\n    }\n    mapping(uint => poolinfo_lucky1) public pool_lucky1;\n    uint public lotterybalance_L1;\n    int public lotteryPeopleNum_L1 =1;\n    function changeTime_L1(uint target)onlyOwner public{\n        lotteryinittime_lucky1 = lotteryinittime_lucky1 -target;\n    }\n    struct resultInfo_L1{\n        uint winner;\n        uint loser;\n        uint common1;\n        uint common2;\n        uint common3;\n        uint common4;\n    }\n    mapping(uint => resultInfo_L1) public resultMap_L1;\n    function gun_lucky1() public payable returns (address){\n            require(msg.value == 0.1 ether);\n            if(now>lotteryinittime_lucky1+21600&&lotteryPeopleNum_L1>1){\n                //if(pool_lucky1[pooln_lucky1 - randomLottery(10000,uint(lotteryPeopleNum_L1-1))].player!=0x0000000000000000000000000000000000000000){\n                    pool_lucky1[pooln_lucky1 - randomLottery(10000,uint(lotteryPeopleNum_L1))].player.transfer(lotterybalance_L1*50/100);\n                    lotteryPeopleNum_L1 = 1;\n                    lotterybalance_L1 = lotterybalance_L1/2;\n                    lotteryinittime_lucky1 = now;\n                //}\n            }\n            pool_lucky1[pooln_lucky1].player = msg.sender;\n            profit[contractAddress] = profit[contractAddress]+revenul1*5/1000;\n            allocateProfit(0.1 ether,msg.sender);\n            (resultMap_L1[pooln_lucky1%6].winner,\n            resultMap_L1[pooln_lucky1%6].loser,\n            resultMap_L1[pooln_lucky1%6].common1,\n            resultMap_L1[pooln_lucky1%6].common2,\n            resultMap_L1[pooln_lucky1%6].common3,\n            resultMap_L1[pooln_lucky1%6].common4) = randomNewLucky(1);\n            if(pooln_lucky1>=6){\n                if(pooln_lucky1%6==0){\n                    pool_lucky1[((pooln_lucky1-(pooln_lucky1)%6)+resultMap_L1[0].winner)-6].player.transfer(0.12 ether);\n                }\n                if(pooln_lucky1%6==1){\n                    pool_lucky1[((pooln_lucky1-(pooln_lucky1)%6)+resultMap_L1[0].loser)-6].player.transfer(1 wei);\n                }\n                if(pooln_lucky1%6==2){\n                    pool_lucky1[((pooln_lucky1-(pooln_lucky1)%6)+resultMap_L1[0].common1)-6].player.transfer(0.11 ether);\n                }\n                if(pooln_lucky1%6==3){\n                    pool_lucky1[((pooln_lucky1-(pooln_lucky1)%6)+resultMap_L1[0].common2)-6].player.transfer(0.11 ether);\n                }\n                if(pooln_lucky1%6==4){\n                    pool_lucky1[((pooln_lucky1-(pooln_lucky1)%6)+resultMap_L1[0].common3)-6].player.transfer(0.11 ether);\n                }\n                if(pooln_lucky1%6==5){\n                    pool_lucky1[((pooln_lucky1-(pooln_lucky1)%6)+resultMap_L1[0].common4)-6].player.transfer(0.11 ether);\n                }\n            }\n            lotteryPeopleNum_L1 = lotteryPeopleNum_L1+1;\n            lotterybalance_L1 = lotterybalance_L1 + revenul1/60;\n            pooln_lucky1 = pooln_lucky1+1;\n    }\n    \n    //..\n    function search_L1(uint target) public constant returns(uint,uint,uint,uint,uint){\n        return ((now-lotteryinittime_lucky1)/21600, 0, pooln_lucky1, pooln_lucky1-pooln_lucky1%6, lotterybalance_L1);\n    }\n}",
  "sourcePath": "/home/tung/language/python/contractControl/deployContract/contracts/Lucky1.sol",
  "compiler": {
    "name": "solc",
    "version": "0.4.24+commit.e67f0147.Emscripten.clang"
  },
  "schemaVersion": "2.0.1",
  "updatedAt": "2018-09-25T10:33:16.101Z"
}