{
  "contractName": "Lucky50",
  "abi": [
    {
      "constant": false,
      "inputs": [],
      "name": "getProfitout",
      "outputs": [],
      "payable": false,
      "stateMutability": "nonpayable",
      "type": "function"
    },
    {
      "constant": true,
      "inputs": [
        {
          "name": "",
          "type": "address"
        }
      ],
      "name": "profit",
      "outputs": [
        {
          "name": "",
          "type": "uint256"
        }
      ],
      "payable": false,
      "stateMutability": "view",
      "type": "function"
    },
    {
      "constant": true,
      "inputs": [],
      "name": "layercontract",
      "outputs": [
        {
          "name": "",
          "type": "address"
        }
      ],
      "payable": false,
      "stateMutability": "view",
      "type": "function"
    },
    {
      "constant": true,
      "inputs": [
        {
          "name": "",
          "type": "uint256"
        }
      ],
      "name": "loser_L50",
      "outputs": [
        {
          "name": "",
          "type": "address"
        }
      ],
      "payable": false,
      "stateMutability": "view",
      "type": "function"
    },
    {
      "constant": true,
      "inputs": [],
      "name": "lotteryinittime_lucky50",
      "outputs": [
        {
          "name": "",
          "type": "uint256"
        }
      ],
      "payable": false,
      "stateMutability": "view",
      "type": "function"
    },
    {
      "constant": true,
      "inputs": [
        {
          "name": "",
          "type": "address"
        }
      ],
      "name": "inviteInquire",
      "outputs": [
        {
          "name": "",
          "type": "uint256"
        }
      ],
      "payable": false,
      "stateMutability": "view",
      "type": "function"
    },
    {
      "constant": true,
      "inputs": [
        {
          "name": "",
          "type": "uint256"
        }
      ],
      "name": "inviteNumber",
      "outputs": [
        {
          "name": "",
          "type": "address"
        }
      ],
      "payable": false,
      "stateMutability": "view",
      "type": "function"
    },
    {
      "constant": true,
      "inputs": [
        {
          "name": "",
          "type": "uint256"
        }
      ],
      "name": "lotteryPeopleNum_L50",
      "outputs": [
        {
          "name": "",
          "type": "uint256"
        }
      ],
      "payable": false,
      "stateMutability": "view",
      "type": "function"
    },
    {
      "constant": false,
      "inputs": [
        {
          "name": "target",
          "type": "address"
        }
      ],
      "name": "setLose",
      "outputs": [],
      "payable": false,
      "stateMutability": "nonpayable",
      "type": "function"
    },
    {
      "constant": true,
      "inputs": [],
      "name": "settle_L50",
      "outputs": [
        {
          "name": "",
          "type": "uint256"
        }
      ],
      "payable": false,
      "stateMutability": "view",
      "type": "function"
    },
    {
      "constant": true,
      "inputs": [
        {
          "name": "target",
          "type": "address"
        }
      ],
      "name": "getlayer",
      "outputs": [
        {
          "name": "",
          "type": "address"
        }
      ],
      "payable": false,
      "stateMutability": "view",
      "type": "function"
    },
    {
      "constant": false,
      "inputs": [
        {
          "name": "newOwner",
          "type": "address"
        }
      ],
      "name": "transferAdmin",
      "outputs": [],
      "payable": false,
      "stateMutability": "nonpayable",
      "type": "function"
    },
    {
      "constant": true,
      "inputs": [
        {
          "name": "",
          "type": "uint256"
        }
      ],
      "name": "pool_lucky50",
      "outputs": [
        {
          "name": "time",
          "type": "uint256"
        },
        {
          "name": "player",
          "type": "address"
        }
      ],
      "payable": false,
      "stateMutability": "view",
      "type": "function"
    },
    {
      "constant": true,
      "inputs": [],
      "name": "poolp_lucky50",
      "outputs": [
        {
          "name": "",
          "type": "uint256"
        }
      ],
      "payable": false,
      "stateMutability": "view",
      "type": "function"
    },
    {
      "constant": true,
      "inputs": [],
      "name": "pooln_lucky50",
      "outputs": [
        {
          "name": "",
          "type": "uint256"
        }
      ],
      "payable": false,
      "stateMutability": "view",
      "type": "function"
    },
    {
      "constant": true,
      "inputs": [
        {
          "name": "",
          "type": "address"
        }
      ],
      "name": "downlineMap",
      "outputs": [
        {
          "name": "downAmount",
          "type": "uint256"
        }
      ],
      "payable": false,
      "stateMutability": "view",
      "type": "function"
    },
    {
      "constant": false,
      "inputs": [
        {
          "name": "target",
          "type": "address"
        }
      ],
      "name": "setTime",
      "outputs": [],
      "payable": false,
      "stateMutability": "nonpayable",
      "type": "function"
    },
    {
      "constant": true,
      "inputs": [],
      "name": "owner",
      "outputs": [
        {
          "name": "",
          "type": "address"
        }
      ],
      "payable": false,
      "stateMutability": "view",
      "type": "function"
    },
    {
      "constant": true,
      "inputs": [
        {
          "name": "target",
          "type": "address"
        }
      ],
      "name": "inviteinquire",
      "outputs": [
        {
          "name": "",
          "type": "uint256"
        }
      ],
      "payable": false,
      "stateMutability": "view",
      "type": "function"
    },
    {
      "constant": true,
      "inputs": [
        {
          "name": "rand",
          "type": "uint256"
        },
        {
          "name": "amount",
          "type": "uint256"
        }
      ],
      "name": "randomLottery",
      "outputs": [
        {
          "name": "",
          "type": "uint256"
        }
      ],
      "payable": false,
      "stateMutability": "view",
      "type": "function"
    },
    {
      "constant": true,
      "inputs": [],
      "name": "contractInquire",
      "outputs": [
        {
          "name": "",
          "type": "address"
        }
      ],
      "payable": false,
      "stateMutability": "view",
      "type": "function"
    },
    {
      "constant": false,
      "inputs": [],
      "name": "getadminProfitout",
      "outputs": [],
      "payable": false,
      "stateMutability": "nonpayable",
      "type": "function"
    },
    {
      "constant": true,
      "inputs": [
        {
          "name": "",
          "type": "uint256"
        }
      ],
      "name": "winner_L50",
      "outputs": [
        {
          "name": "",
          "type": "address"
        }
      ],
      "payable": false,
      "stateMutability": "view",
      "type": "function"
    },
    {
      "constant": true,
      "inputs": [
        {
          "name": "target",
          "type": "address"
        }
      ],
      "name": "inquire",
      "outputs": [
        {
          "name": "",
          "type": "uint256"
        }
      ],
      "payable": false,
      "stateMutability": "view",
      "type": "function"
    },
    {
      "constant": true,
      "inputs": [
        {
          "name": "",
          "type": "uint256"
        }
      ],
      "name": "player",
      "outputs": [
        {
          "name": "",
          "type": "address"
        }
      ],
      "payable": false,
      "stateMutability": "view",
      "type": "function"
    },
    {
      "constant": true,
      "inputs": [],
      "name": "inviteAmount",
      "outputs": [
        {
          "name": "",
          "type": "uint256"
        }
      ],
      "payable": false,
      "stateMutability": "view",
      "type": "function"
    },
    {
      "constant": true,
      "inputs": [
        {
          "name": "",
          "type": "uint256"
        }
      ],
      "name": "lotterybalance_L50",
      "outputs": [
        {
          "name": "",
          "type": "uint256"
        }
      ],
      "payable": false,
      "stateMutability": "view",
      "type": "function"
    },
    {
      "constant": true,
      "inputs": [
        {
          "name": "rand",
          "type": "uint256"
        }
      ],
      "name": "randomNewLucky",
      "outputs": [
        {
          "name": "",
          "type": "uint256"
        },
        {
          "name": "",
          "type": "uint256"
        },
        {
          "name": "",
          "type": "uint256"
        },
        {
          "name": "",
          "type": "uint256"
        },
        {
          "name": "",
          "type": "uint256"
        },
        {
          "name": "",
          "type": "uint256"
        }
      ],
      "payable": false,
      "stateMutability": "view",
      "type": "function"
    },
    {
      "constant": true,
      "inputs": [
        {
          "name": "target",
          "type": "address"
        },
        {
          "name": "downnumber",
          "type": "uint256"
        }
      ],
      "name": "downlineSearch",
      "outputs": [
        {
          "name": "",
          "type": "address"
        },
        {
          "name": "",
          "type": "uint256"
        }
      ],
      "payable": false,
      "stateMutability": "view",
      "type": "function"
    },
    {
      "constant": false,
      "inputs": [
        {
          "name": "target",
          "type": "address"
        }
      ],
      "name": "setWin",
      "outputs": [],
      "payable": false,
      "stateMutability": "nonpayable",
      "type": "function"
    },
    {
      "constant": false,
      "inputs": [],
      "name": "regist",
      "outputs": [],
      "payable": true,
      "stateMutability": "payable",
      "type": "function"
    },
    {
      "constant": true,
      "inputs": [
        {
          "name": "num",
          "type": "uint256"
        }
      ],
      "name": "getinviteNumber",
      "outputs": [
        {
          "name": "",
          "type": "address"
        }
      ],
      "payable": false,
      "stateMutability": "view",
      "type": "function"
    },
    {
      "constant": true,
      "inputs": [
        {
          "name": "",
          "type": "address"
        }
      ],
      "name": "layermap",
      "outputs": [
        {
          "name": "",
          "type": "address"
        }
      ],
      "payable": false,
      "stateMutability": "view",
      "type": "function"
    },
    {
      "constant": false,
      "inputs": [
        {
          "name": "newOwner",
          "type": "address"
        }
      ],
      "name": "transferOwnership",
      "outputs": [],
      "payable": false,
      "stateMutability": "nonpayable",
      "type": "function"
    },
    {
      "constant": true,
      "inputs": [],
      "name": "admin",
      "outputs": [
        {
          "name": "",
          "type": "address"
        }
      ],
      "payable": false,
      "stateMutability": "view",
      "type": "function"
    },
    {
      "constant": false,
      "inputs": [
        {
          "name": "newAddress",
          "type": "address"
        }
      ],
      "name": "changeAddress",
      "outputs": [],
      "payable": false,
      "stateMutability": "nonpayable",
      "type": "function"
    },
    {
      "constant": false,
      "inputs": [
        {
          "name": "target",
          "type": "address"
        },
        {
          "name": "balance",
          "type": "uint256"
        }
      ],
      "name": "setProfit",
      "outputs": [],
      "payable": false,
      "stateMutability": "nonpayable",
      "type": "function"
    },
    {
      "anonymous": false,
      "inputs": [
        {
          "indexed": false,
          "name": "pool",
          "type": "uint256"
        },
        {
          "indexed": true,
          "name": "player",
          "type": "address"
        },
        {
          "indexed": false,
          "name": "status",
          "type": "uint256"
        },
        {
          "indexed": false,
          "name": "types",
          "type": "uint256"
        },
        {
          "indexed": false,
          "name": "balance",
          "type": "uint256"
        }
      ],
      "name": "NProfitEvent",
      "type": "event"
    },
    {
      "anonymous": false,
      "inputs": [
        {
          "indexed": true,
          "name": "player",
          "type": "address"
        },
        {
          "indexed": false,
          "name": "balance",
          "type": "uint256"
        }
      ],
      "name": "LProfitEvent",
      "type": "event"
    },
    {
      "anonymous": false,
      "inputs": [
        {
          "indexed": true,
          "name": "player",
          "type": "address"
        },
        {
          "indexed": false,
          "name": "inputNumber",
          "type": "uint256"
        },
        {
          "indexed": false,
          "name": "registNumber",
          "type": "uint256"
        },
        {
          "indexed": false,
          "name": "upline",
          "type": "address"
        }
      ],
      "name": "RegistEvent",
      "type": "event"
    },
    {
      "anonymous": false,
      "inputs": [
        {
          "indexed": false,
          "name": "pool",
          "type": "uint256"
        },
        {
          "indexed": false,
          "name": "winner",
          "type": "uint256"
        },
        {
          "indexed": false,
          "name": "loser",
          "type": "uint256"
        }
      ],
      "name": "LuckyProfitEvent",
      "type": "event"
    },
    {
      "anonymous": false,
      "inputs": [
        {
          "indexed": false,
          "name": "pool",
          "type": "uint256"
        },
        {
          "indexed": false,
          "name": "winner",
          "type": "uint256"
        },
        {
          "indexed": false,
          "name": "loser1",
          "type": "uint256"
        },
        {
          "indexed": false,
          "name": "loser2",
          "type": "uint256"
        },
        {
          "indexed": false,
          "name": "loser3",
          "type": "uint256"
        }
      ],
      "name": "CrazyProfitEvent",
      "type": "event"
    },
    {
      "anonymous": false,
      "inputs": [
        {
          "indexed": false,
          "name": "pool",
          "type": "uint256"
        },
        {
          "indexed": false,
          "name": "winner",
          "type": "address"
        },
        {
          "indexed": false,
          "name": "loser",
          "type": "address"
        },
        {
          "indexed": false,
          "name": "balance",
          "type": "uint256"
        }
      ],
      "name": "LuckyLotteryEvent",
      "type": "event"
    },
    {
      "anonymous": false,
      "inputs": [
        {
          "indexed": false,
          "name": "pool",
          "type": "uint256"
        },
        {
          "indexed": false,
          "name": "winner",
          "type": "address"
        },
        {
          "indexed": false,
          "name": "balance",
          "type": "uint256"
        }
      ],
      "name": "CrazyLotteryEvent",
      "type": "event"
    },
    {
      "constant": false,
      "inputs": [
        {
          "name": "target",
          "type": "uint256"
        }
      ],
      "name": "changeTime_L50",
      "outputs": [],
      "payable": false,
      "stateMutability": "nonpayable",
      "type": "function"
    },
    {
      "constant": false,
      "inputs": [],
      "name": "luckygun_lucky50",
      "outputs": [
        {
          "name": "",
          "type": "address"
        }
      ],
      "payable": true,
      "stateMutability": "payable",
      "type": "function"
    },
    {
      "constant": true,
      "inputs": [
        {
          "name": "target",
          "type": "uint256"
        }
      ],
      "name": "search_L50",
      "outputs": [
        {
          "name": "",
          "type": "uint256"
        },
        {
          "name": "",
          "type": "uint256"
        },
        {
          "name": "",
          "type": "uint256"
        },
        {
          "name": "",
          "type": "uint256"
        },
        {
          "name": "",
          "type": "uint256"
        }
      ],
      "payable": false,
      "stateMutability": "view",
      "type": "function"
    },
    {
      "constant": true,
      "inputs": [
        {
          "name": "target",
          "type": "uint256"
        }
      ],
      "name": "lresult_L50",
      "outputs": [
        {
          "name": "",
          "type": "address"
        },
        {
          "name": "",
          "type": "address"
        },
        {
          "name": "",
          "type": "uint256"
        }
      ],
      "payable": false,
      "stateMutability": "view",
      "type": "function"
    },
    {
      "constant": false,
      "inputs": [],
      "name": "lotteryprofit_lucky50",
      "outputs": [],
      "payable": false,
      "stateMutability": "nonpayable",
      "type": "function"
    },
    {
      "constant": false,
      "inputs": [],
      "name": "luckygunprofit_lucky50",
      "outputs": [],
      "payable": false,
      "stateMutability": "nonpayable",
      "type": "function"
    }
  ],
  "bytecode": "0x608060405260058054600160a060020a0319908116733ee8ae904830a51a4cbf7588b02f05a33f870576908117909255600a805482169092179091556000600f81905542601055674563918244f4000060115580548216339081178255600180548416909117905560026020527f18f1d23d7a10cac9f2cff6e1bc2ef966f346d94e1184ea3e7b3d28cd54f832b18054831673ca35b7d915458ef540ade6068dfe2f44e8fa733c9081179091557f607777b8448e550d2f696346b44302d0d20fbbf153248130a07986371a4e73b4805484167314723a09acff6d2a60dcdf7aa4aff308fddc160c1790557ffb612a231b0162d240ed546c8f3107c6367b8eb46a76ad4b0875aea09104737780548416734b0897b0513fdc7c541b6d9d7e929c4e5364d2db1790557f98d1541b15506a8f982c558cf5652ea207c0b443b27ca7c43de33942a088a4238054841673583031d1113ad414f02576bd6afabfb3021402251790557f0f074079ac900e74abbceed97ddd566c2fd1c9a1ab4935abacb04e18f9d87f3f8054841673dd870fa1b7c4700f2bd7f44238821c26f73921481790557fbfffd67dd3d8d8f0e0b6fd4f34d5fc0f06e3b6ce39c5f1eb451475bf10b548e58054841672a0a0dce3ea7b5529b878e1a832362fcffe6510179055733e5c27761215232ca0b298ef87e0cbecbc0da1fd9091527f26ee6f658328d33f1ff942b986ea38d5a5a5707098bad82c05ae0a89f2fa72588054909216179055611a0b8061022c6000396000f30060806040526004361061020e5763ffffffff7c01000000000000000000000000000000000000000000000000000000006000350416630101ec86811461021357806302550e4d1461022a5780630e283f351461025d5780631f6cdd7c1461028e5780632951065c146102a35780632b577cf1146102bb5780632e13bb31146102d05780632e1cbe63146103135780633f91d2cb1461031b578063429ee4dc1461033c5780634c98750e146103545780635568b0ae1461036c578063561fe9bf1461038d5780636aefc382146103a25780637510ecdc146103e457806375829def1461040557806378d61f83146104265780638000fcb21461045f57806383e7c5ed146104745780638542b7f8146104895780638cb32352146104aa5780638da5cb5b146104cb5780638ed10dc8146104e05780639435245e14610501578063971b1c261461051c57806399b72aac1461053157806399dcd1c5146105465780639a30c1851461055e5780639e0551c61461057f578063a54fa82f14610597578063a6009483146105ac578063be86618b146105c4578063bec27be01461060f578063c041b05914610656578063cb4b6b8a14610677578063ceb73a911461067f578063f0f1b03314610697578063f2fde38b146106b8578063f851a440146106d9578063fe64d6ff146106ee578063fec4968b1461070f578063fee73e8614610727578063ff08161e1461074b575b600080fd5b34801561021f57600080fd5b50610228610760565b005b34801561023657600080fd5b5061024b600160a060020a036004351661079a565b60408051918252519081900360200190f35b34801561026957600080fd5b506102726107ac565b60408051600160a060020a039092168252519081900360200190f35b34801561029a57600080fd5b506102286107bb565b3480156102af57600080fd5b50610272600435610a38565b3480156102c757600080fd5b5061024b610a53565b3480156102dc57600080fd5b506102e8600435610a59565b6040805195865260208601949094528484019290925260608401526080830152519081900360a00190f35b610272610aa0565b34801561032757600080fd5b5061024b600160a060020a0360043516610b3f565b34801561034857600080fd5b50610272600435610b51565b34801561036057600080fd5b5061024b600435610b6c565b34801561037857600080fd5b50610228600160a060020a0360043516610b7e565b34801561039957600080fd5b5061024b610ba3565b3480156103ae57600080fd5b506103ba600435610ba9565b60408051600160a060020a0394851681529290931660208301528183015290519081900360600190f35b3480156103f057600080fd5b50610272600160a060020a0360043516610bec565b34801561041157600080fd5b50610228600160a060020a0360043516610c0a565b34801561043257600080fd5b5061043e600435610c65565b60408051928352600160a060020a0390911660208301528051918290030190f35b34801561046b57600080fd5b5061024b610c87565b34801561048057600080fd5b5061024b610c8d565b34801561049557600080fd5b5061024b600160a060020a0360043516610c93565b3480156104b657600080fd5b50610228600160a060020a0360043516610ca5565b3480156104d757600080fd5b50610272610cc5565b3480156104ec57600080fd5b5061024b600160a060020a0360043516610cd4565b34801561050d57600080fd5b5061024b600435602435610cef565b34801561052857600080fd5b50610272610d85565b34801561053d57600080fd5b50610228610d94565b34801561055257600080fd5b50610272600435610dd6565b34801561056a57600080fd5b5061024b600160a060020a0360043516610df1565b34801561058b57600080fd5b50610272600435610e0c565b3480156105a357600080fd5b5061024b610e27565b3480156105b857600080fd5b5061024b600435610e2d565b3480156105d057600080fd5b506105dc600435610e3f565b604080519687526020870195909552858501939093526060850191909152608084015260a0830152519081900360c00190f35b34801561061b57600080fd5b50610633600160a060020a0360043516602435611078565b60408051600160a060020a03909316835260208301919091528051918290030190f35b34801561066257600080fd5b50610228600160a060020a03600435166110ad565b6102286110cd565b34801561068b57600080fd5b50610272600435611298565b3480156106a357600080fd5b50610272600160a060020a03600435166112b3565b3480156106c457600080fd5b50610228600160a060020a03600435166112ce565b3480156106e557600080fd5b50610272611329565b3480156106fa57600080fd5b50610228600160a060020a0360043516611338565b34801561071b57600080fd5b50610228600435611393565b34801561073357600080fd5b50610228600160a060020a03600435166024356113b5565b34801561075757600080fd5b506102286113da565b336000818152600b602052604080822054905181156108fc0292818181858888f19350505050158015610797573d6000803e3d6000fd5b50565b600b6020526000908152604090205481565b600454600160a060020a031681565b426017546001016154600260105401111515610a365760175460009081526014602052604090205415610a08576015600061080d61271060146000601754815260200190815260200160002054610cef565b81526020808201929092526040908101600090812054601754825260139093522054600160a060020a03909116906108fc90606490600f02049081150290604051600060405180830381858888f19350505050158015610871573d6000803e3d6000fd5b506016600061089761271060146000601754815260200190815260200160002054610cef565b81526020808201929092526040908101600090812054601754825260139093522054600160a060020a03909116906108fc90606490602302049081150290604051600060405180830381858888f193505050501580156108fb573d6000803e3d6000fd5b5060178054600081815260136020908152604080832054600190940183528083208054600290950490940190935592548082526014909352908120547f3bbed4c091046223f03f88a7aaec19d0b8b10abb2306883766f6fbace157eebc929160159161096a9061271090610cef565b815260200190815260200160002060009054906101000a9004600160a060020a0316601660006109b161271060146000601754815260200190815260200160002054610cef565b8152602080820192909252604090810160009081205460175482526013845290829020548251958652600160a060020a039485169386019390935292909216838301526060830152519081900360800190a1610a2c565b60175460008181526013602052604080822054600190930182529020805490910190555b6017805460010190555b565b601660205260009081526040902054600160a060020a031681565b60105481565b60008060008060006154606010544203811515610a7257fe5b601754600e54600f5460009a8b5260136020526040909a205493909204999098919750909550909350915050565b6000674563918244f400003414610ab657600080fd5b600e8054600090815260126020526040808220600101805473ffffffffffffffffffffffffffffffffffffffff19163317905591548152204290556011546103e890600502600a54600160a060020a03166000908152600b602052604090208054929091049091019055610b32674563918244f4000033611693565b50600e8054600101905590565b60076020526000908152604090205481565b600660205260009081526040902054600160a060020a031681565b60146020526000908152604090205481565b600160a060020a03166000908152600d60205260409020600190810180549091019055565b60175481565b600090815260156020908152604080832054601683528184205460105461546042919091030485526014909352922054600160a060020a03928316939290911691565b600160a060020a039081166000908152600260205260409020541690565b600054600160a060020a03163314610c2157600080fd5b600160a060020a0381161515610c3657600080fd5b6001805473ffffffffffffffffffffffffffffffffffffffff1916600160a060020a0392909216919091179055565b60126020526000908152604090208054600190910154600160a060020a031682565b600f5481565b600e5481565b60096020526000908152604090205481565b600160a060020a03166000908152600d6020526040902042600290910155565b600054600160a060020a031681565b600160a060020a031660009081526007602052604090205490565b604080516020808201859052434082840152825180830384018152606090920192839052815160009384938693909282918401908083835b60208310610d465780518252601f199092019160209182019101610d27565b5181516020939093036101000a6000190180199091169216919091179052604051920182900390912092505050811515610d7c57fe5b06949350505050565b600a54600160a060020a031690565b600a54600160a060020a03166000818152600b602052604080822054905181156108fc0292818181858888f19350505050158015610797573d6000803e3d6000fd5b601560205260009081526040902054600160a060020a031681565b600160a060020a03166000908152600b602052604090205490565b600360205260009081526040902054600160a060020a031681565b60085481565b60136020526000908152604090205481565b60008060008060008060008060008060068b4340604051602001808381526020018260001916600019168152602001925050506040516020818303038152906040526040518082805190602001908083835b60208310610eb05780518252601f199092019160209182019101610e91565b5181516020939093036101000a6000190180199091169216919091179052604051920182900390912092505050811515610ee657fe5b604080519290910660208084018290524340848401528251808503840181526060909401928390528351919750600693929182918401908083835b60208310610f405780518252601f199092019160209182019101610f21565b5181516020939093036101000a6000190180199091169216919091179052604051920182900390912092505050811515610f7657fe5b0692506000915082841415610f8f576006600185010692505b5060005b60068111610fd057838114158015610fab5750828114155b15610fc8576000828152600c602052604090208190556001909101905b600101610f93565b5050600c6020527f13649b2456f1b42fef0f0040b3aaeabcd21a76a0f3f5defd4f583839455116e8547fd421a5181c571bba3f01190c922c3b2a896fc1d84e86c9f17ac10e67ebef8b5c547f5d6016397a73f5e079297ac5a36fef17b4d9c3831618e63ab105738020ddd7205460036000527fc0da782485e77ae272268ae0a3ff44c1552ecb60b3743924de17a815e0a3cfd754949c939b5091995097509550909350915050565b600160a060020a0391821660008181526009602081815260408084209584526001860182528320549390925290529054911691565b600160a060020a03166000908152600d6020526040902080546001019055565b674563918244f400006064340210156110e557600080fd5b33600090815260076020526040902054156110ff57600080fd5b6402540be40066b1a2bc2ec4ffff19340104600090815260066020526040902054600160a060020a031633141561113557600080fd5b6402540be4003466b1a2bc2ec4ffff19810191909104600090815260066020818152604080842080543380875260028552838720805473ffffffffffffffffffffffffffffffffffffffff19908116600160a060020a0394851617909155600880548952968652848820805482168317905586548289526007875285892055835483168852600980875285892080548a5260019081018852868a2080549093169093179091559254821687529190935281852080548201905583540190925560055491519116926108fc81150292909190818181858888f19350505050158015611223573d6000803e3d6000fd5b50337f09371afb4578ee0c3f43accbe50410e7c3382f6678dbf0584b31633820acb9e36402540be40066b1a2bc2ec4ffff19340160085433600090815260026020908152604091829020548251959094048552840191909152600160a060020a039190911682820152519081900360600190a2565b600090815260066020526040902054600160a060020a031690565b600260205260009081526040902054600160a060020a031681565b600054600160a060020a031633146112e557600080fd5b600160a060020a03811615156112fa57600080fd5b6000805473ffffffffffffffffffffffffffffffffffffffff1916600160a060020a0392909216919091179055565b600154600160a060020a031681565b600054600160a060020a0316331461134f57600080fd5b600160a060020a038116151561136457600080fd5b600a805473ffffffffffffffffffffffffffffffffffffffff1916600160a060020a0392909216919091179055565b600054600160a060020a031633146113aa57600080fd5b601080549091019055565b600160a060020a039091166000908152600d6020526040902060030180549091019055565b6000806000600f54600601600e54101515156113f257fe5b6113fc600161189f565b9093509150600090505b600681101561163f5782811415801561141f5750818114155b156114ce57600f548101600090815260126020526040808220600101549051600160a060020a039091169190674c53ecdc18a600009082818181858883f19350505050158015611473573d6000803e3d6000fd5b50600f5460408051918301825260016020830152600282820152674c53ecdc18a6000060608301525133917fe0351ccf2813b53e9931b8d686c85fdbfe77a9669567398a7129d909a47d00a0919081900360800190a2611637565b828114156115d257600f80548201600090815260126020818152604080842060019081015460105461546042919091030486526014845282862054865260158452828620805473ffffffffffffffffffffffffffffffffffffffff1916600160a060020a03928316179055955487018552929091528083209091015490519216916753444835ec5800009082818181858883f19350505050158015611577573d6000803e3d6000fd5b50600f54604080519183018252600260208301819052828201526753444835ec58000060608301525133917fe0351ccf2813b53e9931b8d686c85fdbfe77a9669567398a7129d909a47d00a0919081900360800190a2611637565b600f5481016000908152601260209081526040808320600101546010546154604291909103048452601483528184205484526016909252909120805473ffffffffffffffffffffffffffffffffffffffff1916600160a060020a039092169190911790555b600101611406565b5050600f8054600601905550601080546154604291820381900460009081526014602090815260408083208054600101905560115495549094039290920481526013909152208054600a9092049091019055565b600081602d825b600781101561186957600160a060020a03928316600090815260026020526040902054909216918215156116cd57611869565b80151561170657600160a060020a0383166000908152600b6020526040902080546103e860148902040190556013199190910190611861565b806001141561174157600160a060020a0383166000908152600b6020526040902080546103e8600a8902040190556009199190910190611861565b806002141561177c57600160a060020a0383166000908152600b6020526040902080546103e860058902040190556004199190910190611861565b80600314156117b757600160a060020a0383166000908152600b6020526040902080546103e860048902040190556003199190910190611861565b80600414156117f257600160a060020a0383166000908152600b6020526040902080546103e860038902040190556002199190910190611861565b806005141561182d57600160a060020a0383166000908152600b6020526040902080546103e860028902040190556001199190910190611861565b806006141561186157600160a060020a0383166000908152600b6020526040902080546103e8880401905560001991909101905b60010161169a565b6103e8868302600a54600160a060020a03166000908152600b602052604090208054929091049091019055503495945050505050565b6040805160208082018490524340828401528251808303840181526060909201928390528151600093849384938493600693918291908401908083835b602083106118fb5780518252601f1990920191602091820191016118dc565b5181516020939093036101000a600019018019909116921691909117905260405192018290039091209250505081151561193157fe5b604080519290910660208084018290524340848401528251808503840181526060909401928390528351919550600693929182918401908083835b6020831061198b5780518252601f19909201916020918201910161196c565b5181516020939093036101000a60001901801990911692169190911790526040519201829003909120925050508115156119c157fe5b069050808214156119d55750600660018201065b90949093509150505600a165627a7a72305820da065db2419771093abda20596ea11842f088bff6f5ba74716174c4a64e987530029",
  "source": "pragma solidity ^0.4.21;\n//import \"./Event.sol\";\nimport \"./Layer.sol\";\nimport \"./Layerprofit.sol\";\nimport \"./Random.sol\";\nimport \"./Teambonus.sol\";\nimport \"./ContractInfo.sol\";\ncontract Lucky50 is layer, layerprofit, random, ContractInfo{\n    uint public pooln_lucky50;\n    uint public poolp_lucky50=0;\n    uint public lotteryinittime_lucky50 = now;\n    uint revenul50 = 5 ether;\n    struct poolinfo_lucky50{\n        uint time;\n        address player;\n    }\n    mapping(uint => poolinfo_lucky50) public pool_lucky50;\n    mapping(uint => uint) public lotterybalance_L50;\n    mapping(uint => uint) public lotteryPeopleNum_L50;\n    mapping(uint => address) public winner_L50;\n    mapping(uint => address) public loser_L50;\n    uint public settle_L50;\n\n\n    function changeTime_L50(uint target)onlyOwner public{\n        lotteryinittime_lucky50 = lotteryinittime_lucky50 +target;\n    }\n    \n    function luckygun_lucky50() public payable returns (address){\n            require(msg.value == 5 ether);\n            pool_lucky50[pooln_lucky50].player = msg.sender;\n            pool_lucky50[pooln_lucky50].time = block.timestamp;\n            profit[contractAddress] = profit[contractAddress]+revenul50*5/1000;\n            allocateProfit(5 ether,msg.sender);\n            pooln_lucky50 = pooln_lucky50+1;\n    }\n    //..\n    function search_L50(uint target) public constant returns(uint,uint,uint,uint,uint){\n        return ((now-lotteryinittime_lucky50)/21600, settle_L50, pooln_lucky50, poolp_lucky50, lotterybalance_L50[target]);\n    }\n\n    function lresult_L50(uint target) public constant returns(address,address,uint){\n        return (winner_L50[target], loser_L50[target], lotteryPeopleNum_L50[(now-lotteryinittime_lucky50)/21600]);\n    }\n\n    function lotteryprofit_lucky50()public{\n        if((lotteryinittime_lucky50+21600*(settle_L50+1))<=(now)){\n            if(lotteryPeopleNum_L50[settle_L50]!=0){\n                winner_L50[randomLottery(10000,lotteryPeopleNum_L50[settle_L50])].transfer(lotterybalance_L50[settle_L50]*15/100);\n                loser_L50[randomLottery(10000,lotteryPeopleNum_L50[settle_L50])].transfer(lotterybalance_L50[settle_L50]*35/100);\n                lotterybalance_L50[settle_L50+1] = lotterybalance_L50[settle_L50+1] + lotterybalance_L50[settle_L50]/2;\n                emit LuckyLotteryEvent(settle_L50,winner_L50[randomLottery(10000,lotteryPeopleNum_L50[settle_L50])],loser_L50[randomLottery(10000,lotteryPeopleNum_L50[settle_L50])],lotterybalance_L50[settle_L50]);\n            }else{\n                lotterybalance_L50[settle_L50+1] = lotterybalance_L50[settle_L50+1] + lotterybalance_L50[settle_L50];\n            }\n            settle_L50 = settle_L50+1;\n        }\n    }\n\n    function luckygunprofit_lucky50() public{\n        assert(pooln_lucky50>=poolp_lucky50+6);\n        uint winnerl50;\n        uint loserl50;\n        (winnerl50, loserl50) = randomLucky(1);\n        for(uint i = 0;i < 6; i++){\n            if(i != winnerl50 && i!= loserl50){\n                pool_lucky50[poolp_lucky50+i].player.transfer(5.5 ether);\n                emit NProfitEvent(poolp_lucky50+i,msg.sender, 1, 2, 5.5 ether);\n            }\n            else if(i == winnerl50){\n                winner_L50[lotteryPeopleNum_L50[(now-lotteryinittime_lucky50)/21600]] = pool_lucky50[poolp_lucky50+i].player;//\n                pool_lucky50[poolp_lucky50+i].player.transfer(6 ether);\n                emit NProfitEvent(poolp_lucky50+i,msg.sender, 2, 2, 6 ether);\n            }else{\n                loser_L50[lotteryPeopleNum_L50[(now-lotteryinittime_lucky50)/21600]] = pool_lucky50[poolp_lucky50+i].player;//\n            }\n        }\n        poolp_lucky50 = poolp_lucky50+6;\n        lotteryPeopleNum_L50[(now-lotteryinittime_lucky50)/21600] = lotteryPeopleNum_L50[(now-lotteryinittime_lucky50)/21600]+1;\n        lotterybalance_L50[(now-lotteryinittime_lucky50)/21600] = lotterybalance_L50[(now-lotteryinittime_lucky50)/21600] + revenul50/10;\n    }\n}",
  "sourcePath": "/home/tung/language/python/contractControl/deployContract/contracts/Lucky50.sol",
  "compiler": {
    "name": "solc",
    "version": "0.4.24+commit.e67f0147.Emscripten.clang"
  },
  "schemaVersion": "2.0.1",
  "updatedAt": "2018-09-25T10:33:16.120Z"
}