{
  "contractName": "Lucky10",
  "abi": [
    {
      "constant": false,
      "inputs": [],
      "name": "getProfitout",
      "outputs": [],
      "payable": false,
      "stateMutability": "nonpayable",
      "type": "function"
    },
    {
      "constant": true,
      "inputs": [
        {
          "name": "",
          "type": "address"
        }
      ],
      "name": "profit",
      "outputs": [
        {
          "name": "",
          "type": "uint256"
        }
      ],
      "payable": false,
      "stateMutability": "view",
      "type": "function"
    },
    {
      "constant": true,
      "inputs": [],
      "name": "layercontract",
      "outputs": [
        {
          "name": "",
          "type": "address"
        }
      ],
      "payable": false,
      "stateMutability": "view",
      "type": "function"
    },
    {
      "constant": true,
      "inputs": [],
      "name": "poolp_lucky10",
      "outputs": [
        {
          "name": "",
          "type": "uint256"
        }
      ],
      "payable": false,
      "stateMutability": "view",
      "type": "function"
    },
    {
      "constant": true,
      "inputs": [
        {
          "name": "",
          "type": "uint256"
        }
      ],
      "name": "pool_lucky10",
      "outputs": [
        {
          "name": "player",
          "type": "address"
        }
      ],
      "payable": false,
      "stateMutability": "view",
      "type": "function"
    },
    {
      "constant": true,
      "inputs": [],
      "name": "lotteryinittime_lucky10",
      "outputs": [
        {
          "name": "",
          "type": "uint256"
        }
      ],
      "payable": false,
      "stateMutability": "view",
      "type": "function"
    },
    {
      "constant": true,
      "inputs": [],
      "name": "lotterybalance_L10",
      "outputs": [
        {
          "name": "",
          "type": "uint256"
        }
      ],
      "payable": false,
      "stateMutability": "view",
      "type": "function"
    },
    {
      "constant": true,
      "inputs": [
        {
          "name": "",
          "type": "address"
        }
      ],
      "name": "inviteInquire",
      "outputs": [
        {
          "name": "",
          "type": "uint256"
        }
      ],
      "payable": false,
      "stateMutability": "view",
      "type": "function"
    },
    {
      "constant": true,
      "inputs": [
        {
          "name": "",
          "type": "uint256"
        }
      ],
      "name": "inviteNumber",
      "outputs": [
        {
          "name": "",
          "type": "address"
        }
      ],
      "payable": false,
      "stateMutability": "view",
      "type": "function"
    },
    {
      "constant": false,
      "inputs": [
        {
          "name": "target",
          "type": "address"
        }
      ],
      "name": "setLose",
      "outputs": [],
      "payable": false,
      "stateMutability": "nonpayable",
      "type": "function"
    },
    {
      "constant": true,
      "inputs": [
        {
          "name": "",
          "type": "uint256"
        }
      ],
      "name": "resultMap_L10",
      "outputs": [
        {
          "name": "winner",
          "type": "uint256"
        },
        {
          "name": "loser",
          "type": "uint256"
        },
        {
          "name": "common1",
          "type": "uint256"
        },
        {
          "name": "common2",
          "type": "uint256"
        },
        {
          "name": "common3",
          "type": "uint256"
        },
        {
          "name": "common4",
          "type": "uint256"
        }
      ],
      "payable": false,
      "stateMutability": "view",
      "type": "function"
    },
    {
      "constant": true,
      "inputs": [
        {
          "name": "target",
          "type": "address"
        }
      ],
      "name": "getlayer",
      "outputs": [
        {
          "name": "",
          "type": "address"
        }
      ],
      "payable": false,
      "stateMutability": "view",
      "type": "function"
    },
    {
      "constant": false,
      "inputs": [
        {
          "name": "newOwner",
          "type": "address"
        }
      ],
      "name": "transferAdmin",
      "outputs": [],
      "payable": false,
      "stateMutability": "nonpayable",
      "type": "function"
    },
    {
      "constant": true,
      "inputs": [],
      "name": "lotteryPeopleNum_L10",
      "outputs": [
        {
          "name": "",
          "type": "int256"
        }
      ],
      "payable": false,
      "stateMutability": "view",
      "type": "function"
    },
    {
      "constant": true,
      "inputs": [
        {
          "name": "",
          "type": "address"
        }
      ],
      "name": "downlineMap",
      "outputs": [
        {
          "name": "downAmount",
          "type": "uint256"
        }
      ],
      "payable": false,
      "stateMutability": "view",
      "type": "function"
    },
    {
      "constant": false,
      "inputs": [
        {
          "name": "target",
          "type": "address"
        }
      ],
      "name": "setTime",
      "outputs": [],
      "payable": false,
      "stateMutability": "nonpayable",
      "type": "function"
    },
    {
      "constant": true,
      "inputs": [],
      "name": "owner",
      "outputs": [
        {
          "name": "",
          "type": "address"
        }
      ],
      "payable": false,
      "stateMutability": "view",
      "type": "function"
    },
    {
      "constant": true,
      "inputs": [
        {
          "name": "target",
          "type": "address"
        }
      ],
      "name": "inviteinquire",
      "outputs": [
        {
          "name": "",
          "type": "uint256"
        }
      ],
      "payable": false,
      "stateMutability": "view",
      "type": "function"
    },
    {
      "constant": true,
      "inputs": [
        {
          "name": "rand",
          "type": "uint256"
        },
        {
          "name": "amount",
          "type": "uint256"
        }
      ],
      "name": "randomLottery",
      "outputs": [
        {
          "name": "",
          "type": "uint256"
        }
      ],
      "payable": false,
      "stateMutability": "view",
      "type": "function"
    },
    {
      "constant": true,
      "inputs": [],
      "name": "contractInquire",
      "outputs": [
        {
          "name": "",
          "type": "address"
        }
      ],
      "payable": false,
      "stateMutability": "view",
      "type": "function"
    },
    {
      "constant": false,
      "inputs": [],
      "name": "getadminProfitout",
      "outputs": [],
      "payable": false,
      "stateMutability": "nonpayable",
      "type": "function"
    },
    {
      "constant": true,
      "inputs": [
        {
          "name": "target",
          "type": "address"
        }
      ],
      "name": "inquire",
      "outputs": [
        {
          "name": "",
          "type": "uint256"
        }
      ],
      "payable": false,
      "stateMutability": "view",
      "type": "function"
    },
    {
      "constant": true,
      "inputs": [
        {
          "name": "",
          "type": "uint256"
        }
      ],
      "name": "player",
      "outputs": [
        {
          "name": "",
          "type": "address"
        }
      ],
      "payable": false,
      "stateMutability": "view",
      "type": "function"
    },
    {
      "constant": true,
      "inputs": [],
      "name": "inviteAmount",
      "outputs": [
        {
          "name": "",
          "type": "uint256"
        }
      ],
      "payable": false,
      "stateMutability": "view",
      "type": "function"
    },
    {
      "constant": true,
      "inputs": [],
      "name": "pooln_lucky10",
      "outputs": [
        {
          "name": "",
          "type": "uint256"
        }
      ],
      "payable": false,
      "stateMutability": "view",
      "type": "function"
    },
    {
      "constant": true,
      "inputs": [
        {
          "name": "rand",
          "type": "uint256"
        }
      ],
      "name": "randomNewLucky",
      "outputs": [
        {
          "name": "",
          "type": "uint256"
        },
        {
          "name": "",
          "type": "uint256"
        },
        {
          "name": "",
          "type": "uint256"
        },
        {
          "name": "",
          "type": "uint256"
        },
        {
          "name": "",
          "type": "uint256"
        },
        {
          "name": "",
          "type": "uint256"
        }
      ],
      "payable": false,
      "stateMutability": "view",
      "type": "function"
    },
    {
      "constant": true,
      "inputs": [
        {
          "name": "target",
          "type": "address"
        },
        {
          "name": "downnumber",
          "type": "uint256"
        }
      ],
      "name": "downlineSearch",
      "outputs": [
        {
          "name": "",
          "type": "address"
        },
        {
          "name": "",
          "type": "uint256"
        }
      ],
      "payable": false,
      "stateMutability": "view",
      "type": "function"
    },
    {
      "constant": false,
      "inputs": [
        {
          "name": "target",
          "type": "address"
        }
      ],
      "name": "setWin",
      "outputs": [],
      "payable": false,
      "stateMutability": "nonpayable",
      "type": "function"
    },
    {
      "constant": false,
      "inputs": [],
      "name": "regist",
      "outputs": [],
      "payable": true,
      "stateMutability": "payable",
      "type": "function"
    },
    {
      "constant": true,
      "inputs": [
        {
          "name": "num",
          "type": "uint256"
        }
      ],
      "name": "getinviteNumber",
      "outputs": [
        {
          "name": "",
          "type": "address"
        }
      ],
      "payable": false,
      "stateMutability": "view",
      "type": "function"
    },
    {
      "constant": true,
      "inputs": [
        {
          "name": "",
          "type": "address"
        }
      ],
      "name": "layermap",
      "outputs": [
        {
          "name": "",
          "type": "address"
        }
      ],
      "payable": false,
      "stateMutability": "view",
      "type": "function"
    },
    {
      "constant": false,
      "inputs": [
        {
          "name": "newOwner",
          "type": "address"
        }
      ],
      "name": "transferOwnership",
      "outputs": [],
      "payable": false,
      "stateMutability": "nonpayable",
      "type": "function"
    },
    {
      "constant": true,
      "inputs": [],
      "name": "admin",
      "outputs": [
        {
          "name": "",
          "type": "address"
        }
      ],
      "payable": false,
      "stateMutability": "view",
      "type": "function"
    },
    {
      "constant": false,
      "inputs": [
        {
          "name": "newAddress",
          "type": "address"
        }
      ],
      "name": "changeAddress",
      "outputs": [],
      "payable": false,
      "stateMutability": "nonpayable",
      "type": "function"
    },
    {
      "constant": false,
      "inputs": [
        {
          "name": "target",
          "type": "address"
        },
        {
          "name": "balance",
          "type": "uint256"
        }
      ],
      "name": "setProfit",
      "outputs": [],
      "payable": false,
      "stateMutability": "nonpayable",
      "type": "function"
    },
    {
      "anonymous": false,
      "inputs": [
        {
          "indexed": false,
          "name": "pool",
          "type": "uint256"
        },
        {
          "indexed": true,
          "name": "player",
          "type": "address"
        },
        {
          "indexed": false,
          "name": "status",
          "type": "uint256"
        },
        {
          "indexed": false,
          "name": "types",
          "type": "uint256"
        },
        {
          "indexed": false,
          "name": "balance",
          "type": "uint256"
        }
      ],
      "name": "NProfitEvent",
      "type": "event"
    },
    {
      "anonymous": false,
      "inputs": [
        {
          "indexed": true,
          "name": "player",
          "type": "address"
        },
        {
          "indexed": false,
          "name": "balance",
          "type": "uint256"
        }
      ],
      "name": "LProfitEvent",
      "type": "event"
    },
    {
      "anonymous": false,
      "inputs": [
        {
          "indexed": true,
          "name": "player",
          "type": "address"
        },
        {
          "indexed": false,
          "name": "inputNumber",
          "type": "uint256"
        },
        {
          "indexed": false,
          "name": "registNumber",
          "type": "uint256"
        },
        {
          "indexed": false,
          "name": "upline",
          "type": "address"
        }
      ],
      "name": "RegistEvent",
      "type": "event"
    },
    {
      "anonymous": false,
      "inputs": [
        {
          "indexed": false,
          "name": "pool",
          "type": "uint256"
        },
        {
          "indexed": false,
          "name": "winner",
          "type": "uint256"
        },
        {
          "indexed": false,
          "name": "loser",
          "type": "uint256"
        }
      ],
      "name": "LuckyProfitEvent",
      "type": "event"
    },
    {
      "anonymous": false,
      "inputs": [
        {
          "indexed": false,
          "name": "pool",
          "type": "uint256"
        },
        {
          "indexed": false,
          "name": "winner",
          "type": "uint256"
        },
        {
          "indexed": false,
          "name": "loser1",
          "type": "uint256"
        },
        {
          "indexed": false,
          "name": "loser2",
          "type": "uint256"
        },
        {
          "indexed": false,
          "name": "loser3",
          "type": "uint256"
        }
      ],
      "name": "CrazyProfitEvent",
      "type": "event"
    },
    {
      "anonymous": false,
      "inputs": [
        {
          "indexed": false,
          "name": "pool",
          "type": "uint256"
        },
        {
          "indexed": false,
          "name": "winner",
          "type": "address"
        },
        {
          "indexed": false,
          "name": "loser",
          "type": "address"
        },
        {
          "indexed": false,
          "name": "balance",
          "type": "uint256"
        }
      ],
      "name": "LuckyLotteryEvent",
      "type": "event"
    },
    {
      "anonymous": false,
      "inputs": [
        {
          "indexed": false,
          "name": "pool",
          "type": "uint256"
        },
        {
          "indexed": false,
          "name": "winner",
          "type": "address"
        },
        {
          "indexed": false,
          "name": "balance",
          "type": "uint256"
        }
      ],
      "name": "CrazyLotteryEvent",
      "type": "event"
    },
    {
      "constant": false,
      "inputs": [
        {
          "name": "target",
          "type": "uint256"
        }
      ],
      "name": "changeTime_L10",
      "outputs": [],
      "payable": false,
      "stateMutability": "nonpayable",
      "type": "function"
    },
    {
      "constant": false,
      "inputs": [],
      "name": "gun_lucky10",
      "outputs": [
        {
          "name": "",
          "type": "address"
        }
      ],
      "payable": true,
      "stateMutability": "payable",
      "type": "function"
    },
    {
      "constant": true,
      "inputs": [
        {
          "name": "target",
          "type": "uint256"
        }
      ],
      "name": "search_L10",
      "outputs": [
        {
          "name": "",
          "type": "uint256"
        },
        {
          "name": "",
          "type": "uint256"
        },
        {
          "name": "",
          "type": "uint256"
        },
        {
          "name": "",
          "type": "uint256"
        },
        {
          "name": "",
          "type": "uint256"
        }
      ],
      "payable": false,
      "stateMutability": "view",
      "type": "function"
    }
  ],
  "bytecode": "0x6080604052733ee8ae904830a51a4cbf7588b02f05a33f870576600560006101000a81548173ffffffffffffffffffffffffffffffffffffffff021916908373ffffffffffffffffffffffffffffffffffffffff160217905550733ee8ae904830a51a4cbf7588b02f05a33f870576600a60006101000a81548173ffffffffffffffffffffffffffffffffffffffff021916908373ffffffffffffffffffffffffffffffffffffffff1602179055506000600f5542601055670de0b6b3a76400006011556001601455336000806101000a81548173ffffffffffffffffffffffffffffffffffffffff021916908373ffffffffffffffffffffffffffffffffffffffff16021790555033600160006101000a81548173ffffffffffffffffffffffffffffffffffffffff021916908373ffffffffffffffffffffffffffffffffffffffff16021790555073ca35b7d915458ef540ade6068dfe2f44e8fa733c600260007347ed2c6cae34fdb231b82ec8d666646085ea3a9273ffffffffffffffffffffffffffffffffffffffff1673ffffffffffffffffffffffffffffffffffffffff16815260200190815260200160002060006101000a81548173ffffffffffffffffffffffffffffffffffffffff021916908373ffffffffffffffffffffffffffffffffffffffff1602179055507314723a09acff6d2a60dcdf7aa4aff308fddc160c6002600073ca35b7d915458ef540ade6068dfe2f44e8fa733c73ffffffffffffffffffffffffffffffffffffffff16815260200190815260200160002060006101000a81548173ffffffffffffffffffffffffffffffffffffffff021916908373ffffffffffffffffffffffffffffffffffffffff160217905550734b0897b0513fdc7c541b6d9d7e929c4e5364d2db600260007314723a09acff6d2a60dcdf7aa4aff308fddc160c73ffffffffffffffffffffffffffffffffffffffff16815260200190815260200160002060006101000a81548173ffffffffffffffffffffffffffffffffffffffff021916908373ffffffffffffffffffffffffffffffffffffffff16021790555073583031d1113ad414f02576bd6afabfb30214022560026000734b0897b0513fdc7c541b6d9d7e929c4e5364d2db73ffffffffffffffffffffffffffffffffffffffff16815260200190815260200160002060006101000a81548173ffffffffffffffffffffffffffffffffffffffff021916908373ffffffffffffffffffffffffffffffffffffffff16021790555073dd870fa1b7c4700f2bd7f44238821c26f73921486002600073583031d1113ad414f02576bd6afabfb30214022573ffffffffffffffffffffffffffffffffffffffff16815260200190815260200160002060006101000a81548173ffffffffffffffffffffffffffffffffffffffff021916908373ffffffffffffffffffffffffffffffffffffffff16021790555072a0a0dce3ea7b5529b878e1a832362fcffe65106002600073dd870fa1b7c4700f2bd7f44238821c26f739214873ffffffffffffffffffffffffffffffffffffffff16815260200190815260200160002060006101000a81548173ffffffffffffffffffffffffffffffffffffffff021916908373ffffffffffffffffffffffffffffffffffffffff16021790555073ca35b7d915458ef540ade6068dfe2f44e8fa733c60026000733e5c27761215232ca0b298ef87e0cbecbc0da1fd73ffffffffffffffffffffffffffffffffffffffff16815260200190815260200160002060006101000a81548173ffffffffffffffffffffffffffffffffffffffff021916908373ffffffffffffffffffffffffffffffffffffffff160217905550612ff28061055d6000396000f3006080604052600436106101d8576000357c0100000000000000000000000000000000000000000000000000000000900463ffffffff1680630101ec86146101dd57806302550e4d146101f45780630e283f351461024b57806328c60978146102a25780632ec4bff2146102cd5780633cf3f0d61461033a5780633e19f66a146103655780633f91d2cb14610390578063429ee4dc146103e757806348d0934b146104545780635568b0ae14610481578063640f085d146104c45780637510ecdc1461052857806375829def146105ab57806384155102146105ee5780638542b7f8146106195780638cb32352146106705780638da5cb5b146106b35780638ed10dc81461070a5780639435245e14610761578063971b1c26146107ac57806399b72aac146108035780639a30c1851461081a5780639e0551c614610871578063a54fa82f146108de578063b938605214610909578063be86618b14610934578063bec27be014610998578063c041b05914610a2c578063cb4b6b8a14610a6f578063ceb73a9114610a79578063f0f1b03314610ae6578063f20593d714610b69578063f2fde38b14610bc6578063f6af1bfb14610c09578063f851a44014610c53578063fe64d6ff14610caa578063fee73e8614610ced575b600080fd5b3480156101e957600080fd5b506101f2610d3a565b005b34801561020057600080fd5b50610235600480360381019080803573ffffffffffffffffffffffffffffffffffffffff169060200190929190505050610dc2565b6040518082815260200191505060405180910390f35b34801561025757600080fd5b50610260610dda565b604051808273ffffffffffffffffffffffffffffffffffffffff1673ffffffffffffffffffffffffffffffffffffffff16815260200191505060405180910390f35b3480156102ae57600080fd5b506102b7610e00565b6040518082815260200191505060405180910390f35b3480156102d957600080fd5b506102f860048036038101908080359060200190929190505050610e06565b604051808273ffffffffffffffffffffffffffffffffffffffff1673ffffffffffffffffffffffffffffffffffffffff16815260200191505060405180910390f35b34801561034657600080fd5b5061034f610e44565b6040518082815260200191505060405180910390f35b34801561037157600080fd5b5061037a610e4a565b6040518082815260200191505060405180910390f35b34801561039c57600080fd5b506103d1600480360381019080803573ffffffffffffffffffffffffffffffffffffffff169060200190929190505050610e50565b6040518082815260200191505060405180910390f35b3480156103f357600080fd5b5061041260048036038101908080359060200190929190505050610e68565b604051808273ffffffffffffffffffffffffffffffffffffffff1673ffffffffffffffffffffffffffffffffffffffff16815260200191505060405180910390f35b34801561046057600080fd5b5061047f60048036038101908080359060200190929190505050610e9b565b005b34801561048d57600080fd5b506104c2600480360381019080803573ffffffffffffffffffffffffffffffffffffffff169060200190929190505050610f04565b005b3480156104d057600080fd5b506104ef60048036038101908080359060200190929190505050610f93565b60405180878152602001868152602001858152602001848152602001838152602001828152602001965050505050505060405180910390f35b34801561053457600080fd5b50610569600480360381019080803573ffffffffffffffffffffffffffffffffffffffff169060200190929190505050610fcf565b604051808273ffffffffffffffffffffffffffffffffffffffff1673ffffffffffffffffffffffffffffffffffffffff16815260200191505060405180910390f35b3480156105b757600080fd5b506105ec600480360381019080803573ffffffffffffffffffffffffffffffffffffffff169060200190929190505050611038565b005b3480156105fa57600080fd5b50610603611113565b6040518082815260200191505060405180910390f35b34801561062557600080fd5b5061065a600480360381019080803573ffffffffffffffffffffffffffffffffffffffff169060200190929190505050611119565b6040518082815260200191505060405180910390f35b34801561067c57600080fd5b506106b1600480360381019080803573ffffffffffffffffffffffffffffffffffffffff169060200190929190505050611137565b005b3480156106bf57600080fd5b506106c8611181565b604051808273ffffffffffffffffffffffffffffffffffffffff1673ffffffffffffffffffffffffffffffffffffffff16815260200191505060405180910390f35b34801561071657600080fd5b5061074b600480360381019080803573ffffffffffffffffffffffffffffffffffffffff1690602001909291905050506111a6565b6040518082815260200191505060405180910390f35b34801561076d57600080fd5b5061079660048036038101908080359060200190929190803590602001909291905050506111ef565b6040518082815260200191505060405180910390f35b3480156107b857600080fd5b506107c16112a0565b604051808273ffffffffffffffffffffffffffffffffffffffff1673ffffffffffffffffffffffffffffffffffffffff16815260200191505060405180910390f35b34801561080f57600080fd5b506108186112ca565b005b34801561082657600080fd5b5061085b600480360381019080803573ffffffffffffffffffffffffffffffffffffffff169060200190929190505050611396565b6040518082815260200191505060405180910390f35b34801561087d57600080fd5b5061089c600480360381019080803590602001909291905050506113df565b604051808273ffffffffffffffffffffffffffffffffffffffff1673ffffffffffffffffffffffffffffffffffffffff16815260200191505060405180910390f35b3480156108ea57600080fd5b506108f3611412565b6040518082815260200191505060405180910390f35b34801561091557600080fd5b5061091e611418565b6040518082815260200191505060405180910390f35b34801561094057600080fd5b5061095f6004803603810190808035906020019092919050505061141e565b60405180878152602001868152602001858152602001848152602001838152602001828152602001965050505050505060405180910390f35b3480156109a457600080fd5b506109e3600480360381019080803573ffffffffffffffffffffffffffffffffffffffff16906020019092919080359060200190929190505050611658565b604051808373ffffffffffffffffffffffffffffffffffffffff1673ffffffffffffffffffffffffffffffffffffffff1681526020018281526020019250505060405180910390f35b348015610a3857600080fd5b50610a6d600480360381019080803573ffffffffffffffffffffffffffffffffffffffff169060200190929190505050611720565b005b610a776117af565b005b348015610a8557600080fd5b50610aa460048036038101908080359060200190929190505050611e10565b604051808273ffffffffffffffffffffffffffffffffffffffff1673ffffffffffffffffffffffffffffffffffffffff16815260200191505060405180910390f35b348015610af257600080fd5b50610b27600480360381019080803573ffffffffffffffffffffffffffffffffffffffff169060200190929190505050611e4d565b604051808273ffffffffffffffffffffffffffffffffffffffff1673ffffffffffffffffffffffffffffffffffffffff16815260200191505060405180910390f35b348015610b7557600080fd5b50610b9460048036038101908080359060200190929190505050611e80565b604051808681526020018581526020018481526020018381526020018281526020019550505050505060405180910390f35b348015610bd257600080fd5b50610c07600480360381019080803573ffffffffffffffffffffffffffffffffffffffff169060200190929190505050611ecb565b005b610c11611fa5565b604051808273ffffffffffffffffffffffffffffffffffffffff1673ffffffffffffffffffffffffffffffffffffffff16815260200191505060405180910390f35b348015610c5f57600080fd5b50610c686127ed565b604051808273ffffffffffffffffffffffffffffffffffffffff1673ffffffffffffffffffffffffffffffffffffffff16815260200191505060405180910390f35b348015610cb657600080fd5b50610ceb600480360381019080803573ffffffffffffffffffffffffffffffffffffffff169060200190929190505050612813565b005b348015610cf957600080fd5b50610d38600480360381019080803573ffffffffffffffffffffffffffffffffffffffff169060200190929190803590602001909291905050506128ee565b005b3373ffffffffffffffffffffffffffffffffffffffff166108fc600b60003373ffffffffffffffffffffffffffffffffffffffff1673ffffffffffffffffffffffffffffffffffffffff168152602001908152602001600020549081150290604051600060405180830381858888f19350505050158015610dbf573d6000803e3d6000fd5b50565b600b6020528060005260406000206000915090505481565b600460009054906101000a900473ffffffffffffffffffffffffffffffffffffffff1681565b600f5481565b60126020528060005260406000206000915090508060000160009054906101000a900473ffffffffffffffffffffffffffffffffffffffff16905081565b60105481565b60135481565b60076020528060005260406000206000915090505481565b60066020528060005260406000206000915054906101000a900473ffffffffffffffffffffffffffffffffffffffff1681565b6000809054906101000a900473ffffffffffffffffffffffffffffffffffffffff1673ffffffffffffffffffffffffffffffffffffffff163373ffffffffffffffffffffffffffffffffffffffff16141515610ef657600080fd5b806010540360108190555050565b6001600d60008373ffffffffffffffffffffffffffffffffffffffff1673ffffffffffffffffffffffffffffffffffffffff1681526020019081526020016000206001015401600d60008373ffffffffffffffffffffffffffffffffffffffff1673ffffffffffffffffffffffffffffffffffffffff1681526020019081526020016000206001018190555050565b60156020528060005260406000206000915090508060000154908060010154908060020154908060030154908060040154908060050154905086565b6000600260008373ffffffffffffffffffffffffffffffffffffffff1673ffffffffffffffffffffffffffffffffffffffff16815260200190815260200160002060009054906101000a900473ffffffffffffffffffffffffffffffffffffffff169050919050565b6000809054906101000a900473ffffffffffffffffffffffffffffffffffffffff1673ffffffffffffffffffffffffffffffffffffffff163373ffffffffffffffffffffffffffffffffffffffff1614151561109357600080fd5b600073ffffffffffffffffffffffffffffffffffffffff168173ffffffffffffffffffffffffffffffffffffffff16141515156110cf57600080fd5b80600160006101000a81548173ffffffffffffffffffffffffffffffffffffffff021916908373ffffffffffffffffffffffffffffffffffffffff16021790555050565b60145481565b60096020528060005260406000206000915090508060000154905081565b42600d60008373ffffffffffffffffffffffffffffffffffffffff1673ffffffffffffffffffffffffffffffffffffffff1681526020019081526020016000206002018190555050565b6000809054906101000a900473ffffffffffffffffffffffffffffffffffffffff1681565b6000600760008373ffffffffffffffffffffffffffffffffffffffff1673ffffffffffffffffffffffffffffffffffffffff168152602001908152602001600020549050919050565b60008082844340604051602001808381526020018260001916600019168152602001925050506040516020818303038152906040526040518082805190602001908083835b6020831015156112595780518252602082019150602081019050602083039250611234565b6001836020036101000a03801982511681845116808217855250505050505090500191505060405180910390206001900481151561129357fe5b0690508091505092915050565b6000600a60009054906101000a900473ffffffffffffffffffffffffffffffffffffffff16905090565b600a60009054906101000a900473ffffffffffffffffffffffffffffffffffffffff1673ffffffffffffffffffffffffffffffffffffffff166108fc600b6000600a60009054906101000a900473ffffffffffffffffffffffffffffffffffffffff1673ffffffffffffffffffffffffffffffffffffffff1673ffffffffffffffffffffffffffffffffffffffff168152602001908152602001600020549081150290604051600060405180830381858888f19350505050158015611393573d6000803e3d6000fd5b50565b6000600b60008373ffffffffffffffffffffffffffffffffffffffff1673ffffffffffffffffffffffffffffffffffffffff168152602001908152602001600020549050919050565b60036020528060005260406000206000915054906101000a900473ffffffffffffffffffffffffffffffffffffffff1681565b60085481565b600e5481565b60008060008060008060008060008060068b4340604051602001808381526020018260001916600019168152602001925050506040516020818303038152906040526040518082805190602001908083835b6020831015156114955780518252602082019150602081019050602083039250611470565b6001836020036101000a0380198251168184511680821785525050505050509050019150506040518091039020600190048115156114cf57fe5b0693506006844340604051602001808381526020018260001916600019168152602001925050506040516020818303038152906040526040518082805190602001908083835b60208310151561153a5780518252602082019150602081019050602083039250611515565b6001836020036101000a03801982511681845116808217855250505050505090500191505060405180910390206001900481151561157457fe5b06925060009150828414156115965760066001850181151561159257fe5b0692505b600090505b6006811115156115e6578381141580156115b55750828114155b156115d95780600c6000848152602001908152602001600020819055506001820191505b808060010191505061159b565b600091508383600c600080815260200190815260200160002054600c60006001815260200190815260200160002054600c60006002815260200190815260200160002054600c600060038152602001908152602001600020549950995099509950995099505050505091939550919395565b600080600960008573ffffffffffffffffffffffffffffffffffffffff1673ffffffffffffffffffffffffffffffffffffffff168152602001908152602001600020600101600084815260200190815260200160002060000160009054906101000a900473ffffffffffffffffffffffffffffffffffffffff16600960008673ffffffffffffffffffffffffffffffffffffffff1673ffffffffffffffffffffffffffffffffffffffff16815260200190815260200160002060000154915091509250929050565b6001600d60008373ffffffffffffffffffffffffffffffffffffffff1673ffffffffffffffffffffffffffffffffffffffff1681526020019081526020016000206000015401600d60008373ffffffffffffffffffffffffffffffffffffffff1673ffffffffffffffffffffffffffffffffffffffff1681526020019081526020016000206000018190555050565b674563918244f4000060643402101515156117c957600080fd5b6000600760003373ffffffffffffffffffffffffffffffffffffffff1673ffffffffffffffffffffffffffffffffffffffff1681526020019081526020016000205414151561181757600080fd5b600660006402540be40066b1a2bc2ec50000340381151561183457fe5b04815260200190815260200160002060009054906101000a900473ffffffffffffffffffffffffffffffffffffffff1673ffffffffffffffffffffffffffffffffffffffff163373ffffffffffffffffffffffffffffffffffffffff161415151561189e57600080fd5b600660006402540be40066b1a2bc2ec5000034038115156118bb57fe5b04815260200190815260200160002060009054906101000a900473ffffffffffffffffffffffffffffffffffffffff16600260003373ffffffffffffffffffffffffffffffffffffffff1673ffffffffffffffffffffffffffffffffffffffff16815260200190815260200160002060006101000a81548173ffffffffffffffffffffffffffffffffffffffff021916908373ffffffffffffffffffffffffffffffffffffffff1602179055503360066000600854815260200190815260200160002060006101000a81548173ffffffffffffffffffffffffffffffffffffffff021916908373ffffffffffffffffffffffffffffffffffffffff160217905550600854600760003373ffffffffffffffffffffffffffffffffffffffff1673ffffffffffffffffffffffffffffffffffffffff168152602001908152602001600020819055503360096000600660006402540be40066b1a2bc2ec500003403811515611a2457fe5b04815260200190815260200160002060009054906101000a900473ffffffffffffffffffffffffffffffffffffffff1673ffffffffffffffffffffffffffffffffffffffff1673ffffffffffffffffffffffffffffffffffffffff168152602001908152602001600020600101600060096000600660006402540be40066b1a2bc2ec500003403811515611ab457fe5b04815260200190815260200160002060009054906101000a900473ffffffffffffffffffffffffffffffffffffffff1673ffffffffffffffffffffffffffffffffffffffff1673ffffffffffffffffffffffffffffffffffffffff16815260200190815260200160002060000154815260200190815260200160002060000160006101000a81548173ffffffffffffffffffffffffffffffffffffffff021916908373ffffffffffffffffffffffffffffffffffffffff160217905550600160096000600660006402540be40066b1a2bc2ec500003403811515611b9457fe5b04815260200190815260200160002060009054906101000a900473ffffffffffffffffffffffffffffffffffffffff1673ffffffffffffffffffffffffffffffffffffffff1673ffffffffffffffffffffffffffffffffffffffff168152602001908152602001600020600001540160096000600660006402540be40066b1a2bc2ec500003403811515611c2457fe5b04815260200190815260200160002060009054906101000a900473ffffffffffffffffffffffffffffffffffffffff1673ffffffffffffffffffffffffffffffffffffffff1673ffffffffffffffffffffffffffffffffffffffff16815260200190815260200160002060000181905550600160085401600881905550600560009054906101000a900473ffffffffffffffffffffffffffffffffffffffff1673ffffffffffffffffffffffffffffffffffffffff166108fc349081150290604051600060405180830381858888f19350505050158015611d09573d6000803e3d6000fd5b503373ffffffffffffffffffffffffffffffffffffffff167f09371afb4578ee0c3f43accbe50410e7c3382f6678dbf0584b31633820acb9e36402540be40066b1a2bc2ec500003403811515611d5b57fe5b04600854600260003373ffffffffffffffffffffffffffffffffffffffff1673ffffffffffffffffffffffffffffffffffffffff16815260200190815260200160002060009054906101000a900473ffffffffffffffffffffffffffffffffffffffff16604051808481526020018381526020018273ffffffffffffffffffffffffffffffffffffffff1673ffffffffffffffffffffffffffffffffffffffff168152602001935050505060405180910390a2565b60006006600083815260200190815260200160002060009054906101000a900473ffffffffffffffffffffffffffffffffffffffff169050919050565b60026020528060005260406000206000915054906101000a900473ffffffffffffffffffffffffffffffffffffffff1681565b60008060008060006154606010544203811515611e9957fe5b046000600e546006600e54811515611ead57fe5b06600e54036013548393509450945094509450945091939590929450565b6000809054906101000a900473ffffffffffffffffffffffffffffffffffffffff1673ffffffffffffffffffffffffffffffffffffffff163373ffffffffffffffffffffffffffffffffffffffff16141515611f2657600080fd5b600073ffffffffffffffffffffffffffffffffffffffff168173ffffffffffffffffffffffffffffffffffffffff1614151515611f6257600080fd5b806000806101000a81548173ffffffffffffffffffffffffffffffffffffffff021916908373ffffffffffffffffffffffffffffffffffffffff16021790555050565b6000670de0b6b3a764000034141515611fbd57600080fd5b6154606010540142118015611fd457506001601454135b156120a05760126000611fee6127106001601454036111ef565b600e5403815260200190815260200160002060000160009054906101000a900473ffffffffffffffffffffffffffffffffffffffff1673ffffffffffffffffffffffffffffffffffffffff166108fc606460326013540281151561204e57fe5b049081150290604051600060405180830381858888f1935050505015801561207a573d6000803e3d6000fd5b506001601481905550600260135481151561209157fe5b04601381905550426010819055505b3360126000600e54815260200190815260200160002060000160006101000a81548173ffffffffffffffffffffffffffffffffffffffff021916908373ffffffffffffffffffffffffffffffffffffffff1602179055506103e860056011540281151561210957fe5b04600b6000600a60009054906101000a900473ffffffffffffffffffffffffffffffffffffffff1673ffffffffffffffffffffffffffffffffffffffff1673ffffffffffffffffffffffffffffffffffffffff1681526020019081526020016000205401600b6000600a60009054906101000a900473ffffffffffffffffffffffffffffffffffffffff1673ffffffffffffffffffffffffffffffffffffffff1673ffffffffffffffffffffffffffffffffffffffff168152602001908152602001600020819055506121e4670de0b6b3a76400003361297d565b506121ef600161141e565b601560006006600e5481151561220157fe5b0681526020019081526020016000206000016000601560006006600e5481151561222757fe5b0681526020019081526020016000206001016000601560006006600e5481151561224d57fe5b0681526020019081526020016000206002016000601560006006600e5481151561227357fe5b0681526020019081526020016000206003016000601560006006600e5481151561229957fe5b0681526020019081526020016000206004016000601560006006600e548115156122bf57fe5b06815260200190815260200160002060050160008c919050558b919050558a919050558991905055889190505587919050555050505050506006600e541015156127b95760006006600e5481151561231357fe5b0614156123cd5760126000600660156000808152602001908152602001600020600001546006600e5481151561234557fe5b06600e54030103815260200190815260200160002060000160009054906101000a900473ffffffffffffffffffffffffffffffffffffffff1673ffffffffffffffffffffffffffffffffffffffff166108fc6710a741a4627800009081150290604051600060405180830381858888f193505050501580156123cb573d6000803e3d6000fd5b505b60016006600e548115156123dd57fe5b0614156124905760126000600660156000808152602001908152602001600020600101546006600e5481151561240f57fe5b06600e54030103815260200190815260200160002060000160009054906101000a900473ffffffffffffffffffffffffffffffffffffffff1673ffffffffffffffffffffffffffffffffffffffff166108fc60019081150290604051600060405180830381858888f1935050505015801561248e573d6000803e3d6000fd5b505b60026006600e548115156124a057fe5b06141561255a5760126000600660156000808152602001908152602001600020600201546006600e548115156124d257fe5b06600e54030103815260200190815260200160002060000160009054906101000a900473ffffffffffffffffffffffffffffffffffffffff1673ffffffffffffffffffffffffffffffffffffffff166108fc670f43fc2c04ee00009081150290604051600060405180830381858888f19350505050158015612558573d6000803e3d6000fd5b505b60036006600e5481151561256a57fe5b0614156126245760126000600660156000808152602001908152602001600020600301546006600e5481151561259c57fe5b06600e54030103815260200190815260200160002060000160009054906101000a900473ffffffffffffffffffffffffffffffffffffffff1673ffffffffffffffffffffffffffffffffffffffff166108fc670f43fc2c04ee00009081150290604051600060405180830381858888f19350505050158015612622573d6000803e3d6000fd5b505b60046006600e5481151561263457fe5b0614156126ee5760126000600660156000808152602001908152602001600020600401546006600e5481151561266657fe5b06600e54030103815260200190815260200160002060000160009054906101000a900473ffffffffffffffffffffffffffffffffffffffff1673ffffffffffffffffffffffffffffffffffffffff166108fc670f43fc2c04ee00009081150290604051600060405180830381858888f193505050501580156126ec573d6000803e3d6000fd5b505b60056006600e548115156126fe57fe5b0614156127b85760126000600660156000808152602001908152602001600020600501546006600e5481151561273057fe5b06600e54030103815260200190815260200160002060000160009054906101000a900473ffffffffffffffffffffffffffffffffffffffff1673ffffffffffffffffffffffffffffffffffffffff166108fc670f43fc2c04ee00009081150290604051600060405180830381858888f193505050501580156127b6573d6000803e3d6000fd5b505b5b600160145401601481905550603c6011548115156127d357fe5b04601354016013819055506001600e5401600e8190555090565b600160009054906101000a900473ffffffffffffffffffffffffffffffffffffffff1681565b6000809054906101000a900473ffffffffffffffffffffffffffffffffffffffff1673ffffffffffffffffffffffffffffffffffffffff163373ffffffffffffffffffffffffffffffffffffffff1614151561286e57600080fd5b600073ffffffffffffffffffffffffffffffffffffffff168173ffffffffffffffffffffffffffffffffffffffff16141515156128aa57600080fd5b80600a60006101000a81548173ffffffffffffffffffffffffffffffffffffffff021916908373ffffffffffffffffffffffffffffffffffffffff16021790555050565b80600d60008473ffffffffffffffffffffffffffffffffffffffff1673ffffffffffffffffffffffffffffffffffffffff1681526020019081526020016000206003015401600d60008473ffffffffffffffffffffffffffffffffffffffff1673ffffffffffffffffffffffffffffffffffffffff168152602001908152602001600020600301819055505050565b600080600080849250602d9150600090505b6007811015612ee257600260008473ffffffffffffffffffffffffffffffffffffffff1673ffffffffffffffffffffffffffffffffffffffff16815260200190815260200160002060009054906101000a900473ffffffffffffffffffffffffffffffffffffffff169250600073ffffffffffffffffffffffffffffffffffffffff168373ffffffffffffffffffffffffffffffffffffffff161415612a3457612ee2565b6000811415612add576103e860148702811515612a4d57fe5b04600b60008573ffffffffffffffffffffffffffffffffffffffff1673ffffffffffffffffffffffffffffffffffffffff1681526020019081526020016000205401600b60008573ffffffffffffffffffffffffffffffffffffffff1673ffffffffffffffffffffffffffffffffffffffff16815260200190815260200160002081905550601482039150612ed5565b6001811415612b86576103e8600a8702811515612af657fe5b04600b60008573ffffffffffffffffffffffffffffffffffffffff1673ffffffffffffffffffffffffffffffffffffffff1681526020019081526020016000205401600b60008573ffffffffffffffffffffffffffffffffffffffff1673ffffffffffffffffffffffffffffffffffffffff16815260200190815260200160002081905550600a82039150612ed4565b6002811415612c2f576103e860058702811515612b9f57fe5b04600b60008573ffffffffffffffffffffffffffffffffffffffff1673ffffffffffffffffffffffffffffffffffffffff1681526020019081526020016000205401600b60008573ffffffffffffffffffffffffffffffffffffffff1673ffffffffffffffffffffffffffffffffffffffff16815260200190815260200160002081905550600582039150612ed3565b6003811415612cd8576103e860048702811515612c4857fe5b04600b60008573ffffffffffffffffffffffffffffffffffffffff1673ffffffffffffffffffffffffffffffffffffffff1681526020019081526020016000205401600b60008573ffffffffffffffffffffffffffffffffffffffff1673ffffffffffffffffffffffffffffffffffffffff16815260200190815260200160002081905550600482039150612ed2565b6004811415612d81576103e860038702811515612cf157fe5b04600b60008573ffffffffffffffffffffffffffffffffffffffff1673ffffffffffffffffffffffffffffffffffffffff1681526020019081526020016000205401600b60008573ffffffffffffffffffffffffffffffffffffffff1673ffffffffffffffffffffffffffffffffffffffff16815260200190815260200160002081905550600382039150612ed1565b6005811415612e2a576103e860028702811515612d9a57fe5b04600b60008573ffffffffffffffffffffffffffffffffffffffff1673ffffffffffffffffffffffffffffffffffffffff1681526020019081526020016000205401600b60008573ffffffffffffffffffffffffffffffffffffffff1673ffffffffffffffffffffffffffffffffffffffff16815260200190815260200160002081905550600282039150612ed0565b6006811415612ecf576103e860018702811515612e4357fe5b04600b60008573ffffffffffffffffffffffffffffffffffffffff1673ffffffffffffffffffffffffffffffffffffffff1681526020019081526020016000205401600b60008573ffffffffffffffffffffffffffffffffffffffff1673ffffffffffffffffffffffffffffffffffffffff168152602001908152602001600020819055506001820391505b5b5b5b5b5b5b808060010191505061298f565b6103e8828702811515612ef157fe5b04600b6000600a60009054906101000a900473ffffffffffffffffffffffffffffffffffffffff1673ffffffffffffffffffffffffffffffffffffffff1673ffffffffffffffffffffffffffffffffffffffff1681526020019081526020016000205401600b6000600a60009054906101000a900473ffffffffffffffffffffffffffffffffffffffff1673ffffffffffffffffffffffffffffffffffffffff1673ffffffffffffffffffffffffffffffffffffffff16815260200190815260200160002081905550349350505050929150505600a165627a7a7230582091874ee56ea583d6a82a126b1b4134ae48c27671a7e4fae603e3b255915ada110029",
  "source": "pragma solidity ^0.4.21;\n//import \"./Event.sol\";\nimport \"./Layer.sol\";\nimport \"./Layerprofit.sol\";\nimport \"./Random.sol\";\nimport \"./Teambonus.sol\";\nimport \"./ContractInfo.sol\";\ncontract Lucky10 is layer, layerprofit, random, ContractInfo{\n    uint public pooln_lucky10;\n    uint public poolp_lucky10=0;\n    uint public lotteryinittime_lucky10 = now;\n    uint revenul10 = 1 ether;\n    struct poolinfo_lucky10{\n        address player;\n    }\n    mapping(uint => poolinfo_lucky10) public pool_lucky10;\n    uint public lotterybalance_L10;\n    int public lotteryPeopleNum_L10 =1;\n    function changeTime_L10(uint target)onlyOwner public{\n        lotteryinittime_lucky10 = lotteryinittime_lucky10 -target;\n    }\n    struct resultInfo_L10{\n        uint winner;\n        uint loser;\n        uint common1;\n        uint common2;\n        uint common3;\n        uint common4;\n    }\n    mapping(uint => resultInfo_L10) public resultMap_L10;\n    function gun_lucky10() public payable returns (address){\n            require(msg.value == 1 ether);\n            if(now>lotteryinittime_lucky10+21600&&lotteryPeopleNum_L10>1){\n                //if(pool_lucky10[pooln_lucky10 - randomLottery(10000,uint(lotteryPeopleNum_L10-1))].player!=0x0000000000000000000000000000000000000000){\n                    pool_lucky10[pooln_lucky10 - randomLottery(10000,uint(lotteryPeopleNum_L10-1))].player.transfer(lotterybalance_L10*50/100);\n                    lotteryPeopleNum_L10 = 1;\n                    lotterybalance_L10 = lotterybalance_L10/2;\n                    lotteryinittime_lucky10 = now;\n                //}\n            }\n            pool_lucky10[pooln_lucky10].player = msg.sender;\n            profit[contractAddress] = profit[contractAddress]+revenul10*5/1000;\n            allocateProfit(1 ether,msg.sender);\n            (resultMap_L10[pooln_lucky10%6].winner,\n            resultMap_L10[pooln_lucky10%6].loser,\n            resultMap_L10[pooln_lucky10%6].common1,\n            resultMap_L10[pooln_lucky10%6].common2,\n            resultMap_L10[pooln_lucky10%6].common3,\n            resultMap_L10[pooln_lucky10%6].common4) = randomNewLucky(1);\n            if(pooln_lucky10>=6){\n                if(pooln_lucky10%6==0){\n                    pool_lucky10[((pooln_lucky10-(pooln_lucky10%6))+resultMap_L10[0].winner)-6].player.transfer(1.2 ether);\n                }\n                if(pooln_lucky10%6==1){\n                    pool_lucky10[((pooln_lucky10-(pooln_lucky10%6))+resultMap_L10[0].loser)-6].player.transfer(1 wei);\n                }\n                if(pooln_lucky10%6==2){\n                    pool_lucky10[((pooln_lucky10-(pooln_lucky10%6))+resultMap_L10[0].common1)-6].player.transfer(1.1 ether);\n                }\n                if(pooln_lucky10%6==3){\n                    pool_lucky10[((pooln_lucky10-(pooln_lucky10%6))+resultMap_L10[0].common2)-6].player.transfer(1.1 ether);\n                }\n                if(pooln_lucky10%6==4){\n                    pool_lucky10[((pooln_lucky10-(pooln_lucky10%6))+resultMap_L10[0].common3)-6].player.transfer(1.1 ether);\n                }\n                if(pooln_lucky10%6==5){\n                    pool_lucky10[((pooln_lucky10-(pooln_lucky10%6))+resultMap_L10[0].common4)-6].player.transfer(1.1 ether);\n                }\n            }\n            lotteryPeopleNum_L10 = lotteryPeopleNum_L10+1;\n            lotterybalance_L10 = lotterybalance_L10 + revenul10/60;\n            pooln_lucky10 = pooln_lucky10+1;\n    }\n    \n    //..\n    function search_L10(uint target) public constant returns(uint,uint,uint,uint,uint){\n        return ((now-lotteryinittime_lucky10)/21600, 0, pooln_lucky10, pooln_lucky10 - pooln_lucky10%6, lotterybalance_L10);\n    }\n}",
  "sourcePath": "/home/tung/language/python/contractControl/deployContract/contracts/Lucky10.sol",
  "compiler": {
    "name": "solc",
    "version": "0.4.24+commit.e67f0147.Emscripten.clang"
  },
  "schemaVersion": "2.0.1",
  "updatedAt": "2018-09-25T10:10:35.114Z"
}