{
  "contractName": "Lucky1",
  "abi": [
    {
      "constant": false,
      "inputs": [],
      "name": "getProfitout",
      "outputs": [],
      "payable": false,
      "stateMutability": "nonpayable",
      "type": "function"
    },
    {
      "constant": true,
      "inputs": [
        {
          "name": "",
          "type": "address"
        }
      ],
      "name": "profit",
      "outputs": [
        {
          "name": "",
          "type": "uint256"
        }
      ],
      "payable": false,
      "stateMutability": "view",
      "type": "function"
    },
    {
      "constant": true,
      "inputs": [],
      "name": "lotterybalance_L1",
      "outputs": [
        {
          "name": "",
          "type": "uint256"
        }
      ],
      "payable": false,
      "stateMutability": "view",
      "type": "function"
    },
    {
      "constant": true,
      "inputs": [],
      "name": "layercontract",
      "outputs": [
        {
          "name": "",
          "type": "address"
        }
      ],
      "payable": false,
      "stateMutability": "view",
      "type": "function"
    },
    {
      "constant": true,
      "inputs": [],
      "name": "lotteryinittime_lucky1",
      "outputs": [
        {
          "name": "",
          "type": "uint256"
        }
      ],
      "payable": false,
      "stateMutability": "view",
      "type": "function"
    },
    {
      "constant": true,
      "inputs": [
        {
          "name": "",
          "type": "address"
        }
      ],
      "name": "inviteInquire",
      "outputs": [
        {
          "name": "",
          "type": "uint256"
        }
      ],
      "payable": false,
      "stateMutability": "view",
      "type": "function"
    },
    {
      "constant": true,
      "inputs": [
        {
          "name": "",
          "type": "uint256"
        }
      ],
      "name": "inviteNumber",
      "outputs": [
        {
          "name": "",
          "type": "address"
        }
      ],
      "payable": false,
      "stateMutability": "view",
      "type": "function"
    },
    {
      "constant": true,
      "inputs": [
        {
          "name": "",
          "type": "uint256"
        }
      ],
      "name": "resultMap_L1",
      "outputs": [
        {
          "name": "winner",
          "type": "uint256"
        },
        {
          "name": "loser",
          "type": "uint256"
        },
        {
          "name": "common1",
          "type": "uint256"
        },
        {
          "name": "common2",
          "type": "uint256"
        },
        {
          "name": "common3",
          "type": "uint256"
        },
        {
          "name": "common4",
          "type": "uint256"
        }
      ],
      "payable": false,
      "stateMutability": "view",
      "type": "function"
    },
    {
      "constant": false,
      "inputs": [
        {
          "name": "target",
          "type": "address"
        }
      ],
      "name": "setLose",
      "outputs": [],
      "payable": false,
      "stateMutability": "nonpayable",
      "type": "function"
    },
    {
      "constant": true,
      "inputs": [],
      "name": "poolp_lucky1",
      "outputs": [
        {
          "name": "",
          "type": "uint256"
        }
      ],
      "payable": false,
      "stateMutability": "view",
      "type": "function"
    },
    {
      "constant": true,
      "inputs": [
        {
          "name": "target",
          "type": "address"
        }
      ],
      "name": "getlayer",
      "outputs": [
        {
          "name": "",
          "type": "address"
        }
      ],
      "payable": false,
      "stateMutability": "view",
      "type": "function"
    },
    {
      "constant": false,
      "inputs": [
        {
          "name": "newOwner",
          "type": "address"
        }
      ],
      "name": "transferAdmin",
      "outputs": [],
      "payable": false,
      "stateMutability": "nonpayable",
      "type": "function"
    },
    {
      "constant": true,
      "inputs": [
        {
          "name": "",
          "type": "address"
        }
      ],
      "name": "downlineMap",
      "outputs": [
        {
          "name": "downAmount",
          "type": "uint256"
        }
      ],
      "payable": false,
      "stateMutability": "view",
      "type": "function"
    },
    {
      "constant": false,
      "inputs": [
        {
          "name": "target",
          "type": "address"
        }
      ],
      "name": "setTime",
      "outputs": [],
      "payable": false,
      "stateMutability": "nonpayable",
      "type": "function"
    },
    {
      "constant": true,
      "inputs": [],
      "name": "owner",
      "outputs": [
        {
          "name": "",
          "type": "address"
        }
      ],
      "payable": false,
      "stateMutability": "view",
      "type": "function"
    },
    {
      "constant": true,
      "inputs": [
        {
          "name": "target",
          "type": "address"
        }
      ],
      "name": "inviteinquire",
      "outputs": [
        {
          "name": "",
          "type": "uint256"
        }
      ],
      "payable": false,
      "stateMutability": "view",
      "type": "function"
    },
    {
      "constant": true,
      "inputs": [
        {
          "name": "rand",
          "type": "uint256"
        },
        {
          "name": "amount",
          "type": "uint256"
        }
      ],
      "name": "randomLottery",
      "outputs": [
        {
          "name": "",
          "type": "uint256"
        }
      ],
      "payable": false,
      "stateMutability": "view",
      "type": "function"
    },
    {
      "constant": true,
      "inputs": [],
      "name": "contractInquire",
      "outputs": [
        {
          "name": "",
          "type": "address"
        }
      ],
      "payable": false,
      "stateMutability": "view",
      "type": "function"
    },
    {
      "constant": false,
      "inputs": [],
      "name": "getadminProfitout",
      "outputs": [],
      "payable": false,
      "stateMutability": "nonpayable",
      "type": "function"
    },
    {
      "constant": true,
      "inputs": [
        {
          "name": "target",
          "type": "address"
        }
      ],
      "name": "inquire",
      "outputs": [
        {
          "name": "",
          "type": "uint256"
        }
      ],
      "payable": false,
      "stateMutability": "view",
      "type": "function"
    },
    {
      "constant": true,
      "inputs": [
        {
          "name": "",
          "type": "uint256"
        }
      ],
      "name": "player",
      "outputs": [
        {
          "name": "",
          "type": "address"
        }
      ],
      "payable": false,
      "stateMutability": "view",
      "type": "function"
    },
    {
      "constant": true,
      "inputs": [],
      "name": "inviteAmount",
      "outputs": [
        {
          "name": "",
          "type": "uint256"
        }
      ],
      "payable": false,
      "stateMutability": "view",
      "type": "function"
    },
    {
      "constant": true,
      "inputs": [
        {
          "name": "",
          "type": "uint256"
        }
      ],
      "name": "pool_lucky1",
      "outputs": [
        {
          "name": "player",
          "type": "address"
        }
      ],
      "payable": false,
      "stateMutability": "view",
      "type": "function"
    },
    {
      "constant": true,
      "inputs": [],
      "name": "lotteryPeopleNum_L1",
      "outputs": [
        {
          "name": "",
          "type": "int256"
        }
      ],
      "payable": false,
      "stateMutability": "view",
      "type": "function"
    },
    {
      "constant": true,
      "inputs": [
        {
          "name": "rand",
          "type": "uint256"
        }
      ],
      "name": "randomNewLucky",
      "outputs": [
        {
          "name": "",
          "type": "uint256"
        },
        {
          "name": "",
          "type": "uint256"
        },
        {
          "name": "",
          "type": "uint256"
        },
        {
          "name": "",
          "type": "uint256"
        },
        {
          "name": "",
          "type": "uint256"
        },
        {
          "name": "",
          "type": "uint256"
        }
      ],
      "payable": false,
      "stateMutability": "view",
      "type": "function"
    },
    {
      "constant": true,
      "inputs": [
        {
          "name": "target",
          "type": "address"
        },
        {
          "name": "downnumber",
          "type": "uint256"
        }
      ],
      "name": "downlineSearch",
      "outputs": [
        {
          "name": "",
          "type": "address"
        },
        {
          "name": "",
          "type": "uint256"
        }
      ],
      "payable": false,
      "stateMutability": "view",
      "type": "function"
    },
    {
      "constant": false,
      "inputs": [
        {
          "name": "target",
          "type": "address"
        }
      ],
      "name": "setWin",
      "outputs": [],
      "payable": false,
      "stateMutability": "nonpayable",
      "type": "function"
    },
    {
      "constant": false,
      "inputs": [],
      "name": "regist",
      "outputs": [],
      "payable": true,
      "stateMutability": "payable",
      "type": "function"
    },
    {
      "constant": true,
      "inputs": [
        {
          "name": "num",
          "type": "uint256"
        }
      ],
      "name": "getinviteNumber",
      "outputs": [
        {
          "name": "",
          "type": "address"
        }
      ],
      "payable": false,
      "stateMutability": "view",
      "type": "function"
    },
    {
      "constant": true,
      "inputs": [],
      "name": "pooln_lucky1",
      "outputs": [
        {
          "name": "",
          "type": "uint256"
        }
      ],
      "payable": false,
      "stateMutability": "view",
      "type": "function"
    },
    {
      "constant": true,
      "inputs": [
        {
          "name": "",
          "type": "address"
        }
      ],
      "name": "layermap",
      "outputs": [
        {
          "name": "",
          "type": "address"
        }
      ],
      "payable": false,
      "stateMutability": "view",
      "type": "function"
    },
    {
      "constant": false,
      "inputs": [
        {
          "name": "newOwner",
          "type": "address"
        }
      ],
      "name": "transferOwnership",
      "outputs": [],
      "payable": false,
      "stateMutability": "nonpayable",
      "type": "function"
    },
    {
      "constant": true,
      "inputs": [],
      "name": "admin",
      "outputs": [
        {
          "name": "",
          "type": "address"
        }
      ],
      "payable": false,
      "stateMutability": "view",
      "type": "function"
    },
    {
      "constant": false,
      "inputs": [
        {
          "name": "newAddress",
          "type": "address"
        }
      ],
      "name": "changeAddress",
      "outputs": [],
      "payable": false,
      "stateMutability": "nonpayable",
      "type": "function"
    },
    {
      "constant": false,
      "inputs": [
        {
          "name": "target",
          "type": "address"
        },
        {
          "name": "balance",
          "type": "uint256"
        }
      ],
      "name": "setProfit",
      "outputs": [],
      "payable": false,
      "stateMutability": "nonpayable",
      "type": "function"
    },
    {
      "anonymous": false,
      "inputs": [
        {
          "indexed": false,
          "name": "pool",
          "type": "uint256"
        },
        {
          "indexed": true,
          "name": "player",
          "type": "address"
        },
        {
          "indexed": false,
          "name": "status",
          "type": "uint256"
        },
        {
          "indexed": false,
          "name": "types",
          "type": "uint256"
        },
        {
          "indexed": false,
          "name": "balance",
          "type": "uint256"
        }
      ],
      "name": "NProfitEvent",
      "type": "event"
    },
    {
      "anonymous": false,
      "inputs": [
        {
          "indexed": true,
          "name": "player",
          "type": "address"
        },
        {
          "indexed": false,
          "name": "balance",
          "type": "uint256"
        }
      ],
      "name": "LProfitEvent",
      "type": "event"
    },
    {
      "anonymous": false,
      "inputs": [
        {
          "indexed": true,
          "name": "player",
          "type": "address"
        },
        {
          "indexed": false,
          "name": "inputNumber",
          "type": "uint256"
        },
        {
          "indexed": false,
          "name": "registNumber",
          "type": "uint256"
        },
        {
          "indexed": false,
          "name": "upline",
          "type": "address"
        }
      ],
      "name": "RegistEvent",
      "type": "event"
    },
    {
      "anonymous": false,
      "inputs": [
        {
          "indexed": false,
          "name": "pool",
          "type": "uint256"
        },
        {
          "indexed": false,
          "name": "winner",
          "type": "uint256"
        },
        {
          "indexed": false,
          "name": "loser",
          "type": "uint256"
        }
      ],
      "name": "LuckyProfitEvent",
      "type": "event"
    },
    {
      "anonymous": false,
      "inputs": [
        {
          "indexed": false,
          "name": "pool",
          "type": "uint256"
        },
        {
          "indexed": false,
          "name": "winner",
          "type": "uint256"
        },
        {
          "indexed": false,
          "name": "loser1",
          "type": "uint256"
        },
        {
          "indexed": false,
          "name": "loser2",
          "type": "uint256"
        },
        {
          "indexed": false,
          "name": "loser3",
          "type": "uint256"
        }
      ],
      "name": "CrazyProfitEvent",
      "type": "event"
    },
    {
      "anonymous": false,
      "inputs": [
        {
          "indexed": false,
          "name": "pool",
          "type": "uint256"
        },
        {
          "indexed": false,
          "name": "winner",
          "type": "address"
        },
        {
          "indexed": false,
          "name": "loser",
          "type": "address"
        },
        {
          "indexed": false,
          "name": "balance",
          "type": "uint256"
        }
      ],
      "name": "LuckyLotteryEvent",
      "type": "event"
    },
    {
      "anonymous": false,
      "inputs": [
        {
          "indexed": false,
          "name": "pool",
          "type": "uint256"
        },
        {
          "indexed": false,
          "name": "winner",
          "type": "address"
        },
        {
          "indexed": false,
          "name": "balance",
          "type": "uint256"
        }
      ],
      "name": "CrazyLotteryEvent",
      "type": "event"
    },
    {
      "constant": false,
      "inputs": [
        {
          "name": "target",
          "type": "uint256"
        }
      ],
      "name": "changeTime_L1",
      "outputs": [],
      "payable": false,
      "stateMutability": "nonpayable",
      "type": "function"
    },
    {
      "constant": false,
      "inputs": [],
      "name": "gun_lucky1",
      "outputs": [
        {
          "name": "",
          "type": "address"
        }
      ],
      "payable": true,
      "stateMutability": "payable",
      "type": "function"
    },
    {
      "constant": true,
      "inputs": [
        {
          "name": "target",
          "type": "uint256"
        }
      ],
      "name": "search_L1",
      "outputs": [
        {
          "name": "",
          "type": "uint256"
        },
        {
          "name": "",
          "type": "uint256"
        },
        {
          "name": "",
          "type": "uint256"
        },
        {
          "name": "",
          "type": "uint256"
        },
        {
          "name": "",
          "type": "uint256"
        }
      ],
      "payable": false,
      "stateMutability": "view",
      "type": "function"
    }
  ],
  "bytecode": "0x6080604052733ee8ae904830a51a4cbf7588b02f05a33f870576600560006101000a81548173ffffffffffffffffffffffffffffffffffffffff021916908373ffffffffffffffffffffffffffffffffffffffff160217905550733ee8ae904830a51a4cbf7588b02f05a33f870576600a60006101000a81548173ffffffffffffffffffffffffffffffffffffffff021916908373ffffffffffffffffffffffffffffffffffffffff1602179055506000600f554260105567016345785d8a00006011556001601455336000806101000a81548173ffffffffffffffffffffffffffffffffffffffff021916908373ffffffffffffffffffffffffffffffffffffffff16021790555033600160006101000a81548173ffffffffffffffffffffffffffffffffffffffff021916908373ffffffffffffffffffffffffffffffffffffffff16021790555073ca35b7d915458ef540ade6068dfe2f44e8fa733c600260007347ed2c6cae34fdb231b82ec8d666646085ea3a9273ffffffffffffffffffffffffffffffffffffffff1673ffffffffffffffffffffffffffffffffffffffff16815260200190815260200160002060006101000a81548173ffffffffffffffffffffffffffffffffffffffff021916908373ffffffffffffffffffffffffffffffffffffffff1602179055507314723a09acff6d2a60dcdf7aa4aff308fddc160c6002600073ca35b7d915458ef540ade6068dfe2f44e8fa733c73ffffffffffffffffffffffffffffffffffffffff16815260200190815260200160002060006101000a81548173ffffffffffffffffffffffffffffffffffffffff021916908373ffffffffffffffffffffffffffffffffffffffff160217905550734b0897b0513fdc7c541b6d9d7e929c4e5364d2db600260007314723a09acff6d2a60dcdf7aa4aff308fddc160c73ffffffffffffffffffffffffffffffffffffffff16815260200190815260200160002060006101000a81548173ffffffffffffffffffffffffffffffffffffffff021916908373ffffffffffffffffffffffffffffffffffffffff16021790555073583031d1113ad414f02576bd6afabfb30214022560026000734b0897b0513fdc7c541b6d9d7e929c4e5364d2db73ffffffffffffffffffffffffffffffffffffffff16815260200190815260200160002060006101000a81548173ffffffffffffffffffffffffffffffffffffffff021916908373ffffffffffffffffffffffffffffffffffffffff16021790555073dd870fa1b7c4700f2bd7f44238821c26f73921486002600073583031d1113ad414f02576bd6afabfb30214022573ffffffffffffffffffffffffffffffffffffffff16815260200190815260200160002060006101000a81548173ffffffffffffffffffffffffffffffffffffffff021916908373ffffffffffffffffffffffffffffffffffffffff16021790555072a0a0dce3ea7b5529b878e1a832362fcffe65106002600073dd870fa1b7c4700f2bd7f44238821c26f739214873ffffffffffffffffffffffffffffffffffffffff16815260200190815260200160002060006101000a81548173ffffffffffffffffffffffffffffffffffffffff021916908373ffffffffffffffffffffffffffffffffffffffff16021790555073ca35b7d915458ef540ade6068dfe2f44e8fa733c60026000733e5c27761215232ca0b298ef87e0cbecbc0da1fd73ffffffffffffffffffffffffffffffffffffffff16815260200190815260200160002060006101000a81548173ffffffffffffffffffffffffffffffffffffffff021916908373ffffffffffffffffffffffffffffffffffffffff160217905550612fef8061055d6000396000f3006080604052600436106101d8576000357c0100000000000000000000000000000000000000000000000000000000900463ffffffff1680630101ec86146101dd57806302550e4d146101f45780630821fc011461024b5780630e283f35146102765780631798fdc5146102cd5780632954a7011461032a5780633f91d2cb14610355578063429ee4dc146103ac5780634780adc8146104195780635568b0ae1461047d578063654425ea146104c05780637510ecdc146104eb57806375829def1461056e57806384dee713146105b15780638542b7f8146105fb5780638cb32352146106525780638da5cb5b146106955780638ed10dc8146106ec5780639435245e14610743578063971b1c261461078e57806399b72aac146107e55780639a30c185146107fc5780639e0551c614610853578063a20b0858146108c0578063a54fa82f146108ed578063a90792c614610918578063b452a31914610985578063be86618b146109b0578063bec27be014610a14578063c041b05914610aa8578063cb4b6b8a14610aeb578063ceb73a9114610af5578063e30abc6014610b62578063f0f1b03314610b8d578063f2fde38b14610c10578063f851a44014610c53578063fe64d6ff14610caa578063fee73e8614610ced575b600080fd5b3480156101e957600080fd5b506101f2610d3a565b005b34801561020057600080fd5b50610235600480360381019080803573ffffffffffffffffffffffffffffffffffffffff169060200190929190505050610dc2565b6040518082815260200191505060405180910390f35b34801561025757600080fd5b50610260610dda565b6040518082815260200191505060405180910390f35b34801561028257600080fd5b5061028b610de0565b604051808273ffffffffffffffffffffffffffffffffffffffff1673ffffffffffffffffffffffffffffffffffffffff16815260200191505060405180910390f35b3480156102d957600080fd5b506102f860048036038101908080359060200190929190505050610e06565b604051808681526020018581526020018481526020018381526020018281526020019550505050505060405180910390f35b34801561033657600080fd5b5061033f610e51565b6040518082815260200191505060405180910390f35b34801561036157600080fd5b50610396600480360381019080803573ffffffffffffffffffffffffffffffffffffffff169060200190929190505050610e57565b6040518082815260200191505060405180910390f35b3480156103b857600080fd5b506103d760048036038101908080359060200190929190505050610e6f565b604051808273ffffffffffffffffffffffffffffffffffffffff1673ffffffffffffffffffffffffffffffffffffffff16815260200191505060405180910390f35b34801561042557600080fd5b5061044460048036038101908080359060200190929190505050610ea2565b60405180878152602001868152602001858152602001848152602001838152602001828152602001965050505050505060405180910390f35b34801561048957600080fd5b506104be600480360381019080803573ffffffffffffffffffffffffffffffffffffffff169060200190929190505050610ede565b005b3480156104cc57600080fd5b506104d5610f6d565b6040518082815260200191505060405180910390f35b3480156104f757600080fd5b5061052c600480360381019080803573ffffffffffffffffffffffffffffffffffffffff169060200190929190505050610f73565b604051808273ffffffffffffffffffffffffffffffffffffffff1673ffffffffffffffffffffffffffffffffffffffff16815260200191505060405180910390f35b34801561057a57600080fd5b506105af600480360381019080803573ffffffffffffffffffffffffffffffffffffffff169060200190929190505050610fdc565b005b6105b96110b7565b604051808273ffffffffffffffffffffffffffffffffffffffff1673ffffffffffffffffffffffffffffffffffffffff16815260200191505060405180910390f35b34801561060757600080fd5b5061063c600480360381019080803573ffffffffffffffffffffffffffffffffffffffff1690602001909291905050506118fc565b6040518082815260200191505060405180910390f35b34801561065e57600080fd5b50610693600480360381019080803573ffffffffffffffffffffffffffffffffffffffff16906020019092919050505061191a565b005b3480156106a157600080fd5b506106aa611964565b604051808273ffffffffffffffffffffffffffffffffffffffff1673ffffffffffffffffffffffffffffffffffffffff16815260200191505060405180910390f35b3480156106f857600080fd5b5061072d600480360381019080803573ffffffffffffffffffffffffffffffffffffffff169060200190929190505050611989565b6040518082815260200191505060405180910390f35b34801561074f57600080fd5b5061077860048036038101908080359060200190929190803590602001909291905050506119d2565b6040518082815260200191505060405180910390f35b34801561079a57600080fd5b506107a3611a83565b604051808273ffffffffffffffffffffffffffffffffffffffff1673ffffffffffffffffffffffffffffffffffffffff16815260200191505060405180910390f35b3480156107f157600080fd5b506107fa611aad565b005b34801561080857600080fd5b5061083d600480360381019080803573ffffffffffffffffffffffffffffffffffffffff169060200190929190505050611b79565b6040518082815260200191505060405180910390f35b34801561085f57600080fd5b5061087e60048036038101908080359060200190929190505050611bc2565b604051808273ffffffffffffffffffffffffffffffffffffffff1673ffffffffffffffffffffffffffffffffffffffff16815260200191505060405180910390f35b3480156108cc57600080fd5b506108eb60048036038101908080359060200190929190505050611bf5565b005b3480156108f957600080fd5b50610902611c5e565b6040518082815260200191505060405180910390f35b34801561092457600080fd5b5061094360048036038101908080359060200190929190505050611c64565b604051808273ffffffffffffffffffffffffffffffffffffffff1673ffffffffffffffffffffffffffffffffffffffff16815260200191505060405180910390f35b34801561099157600080fd5b5061099a611ca2565b6040518082815260200191505060405180910390f35b3480156109bc57600080fd5b506109db60048036038101908080359060200190929190505050611ca8565b60405180878152602001868152602001858152602001848152602001838152602001828152602001965050505050505060405180910390f35b348015610a2057600080fd5b50610a5f600480360381019080803573ffffffffffffffffffffffffffffffffffffffff16906020019092919080359060200190929190505050611ee2565b604051808373ffffffffffffffffffffffffffffffffffffffff1673ffffffffffffffffffffffffffffffffffffffff1681526020018281526020019250505060405180910390f35b348015610ab457600080fd5b50610ae9600480360381019080803573ffffffffffffffffffffffffffffffffffffffff169060200190929190505050611faa565b005b610af3612039565b005b348015610b0157600080fd5b50610b206004803603810190808035906020019092919050505061269a565b604051808273ffffffffffffffffffffffffffffffffffffffff1673ffffffffffffffffffffffffffffffffffffffff16815260200191505060405180910390f35b348015610b6e57600080fd5b50610b776126d7565b6040518082815260200191505060405180910390f35b348015610b9957600080fd5b50610bce600480360381019080803573ffffffffffffffffffffffffffffffffffffffff1690602001909291905050506126dd565b604051808273ffffffffffffffffffffffffffffffffffffffff1673ffffffffffffffffffffffffffffffffffffffff16815260200191505060405180910390f35b348015610c1c57600080fd5b50610c51600480360381019080803573ffffffffffffffffffffffffffffffffffffffff169060200190929190505050612710565b005b348015610c5f57600080fd5b50610c686127ea565b604051808273ffffffffffffffffffffffffffffffffffffffff1673ffffffffffffffffffffffffffffffffffffffff16815260200191505060405180910390f35b348015610cb657600080fd5b50610ceb600480360381019080803573ffffffffffffffffffffffffffffffffffffffff169060200190929190505050612810565b005b348015610cf957600080fd5b50610d38600480360381019080803573ffffffffffffffffffffffffffffffffffffffff169060200190929190803590602001909291905050506128eb565b005b3373ffffffffffffffffffffffffffffffffffffffff166108fc600b60003373ffffffffffffffffffffffffffffffffffffffff1673ffffffffffffffffffffffffffffffffffffffff168152602001908152602001600020549081150290604051600060405180830381858888f19350505050158015610dbf573d6000803e3d6000fd5b50565b600b6020528060005260406000206000915090505481565b60135481565b600460009054906101000a900473ffffffffffffffffffffffffffffffffffffffff1681565b60008060008060006154606010544203811515610e1f57fe5b046000600e546006600e54811515610e3357fe5b06600e54036013548393509450945094509450945091939590929450565b60105481565b60076020528060005260406000206000915090505481565b60066020528060005260406000206000915054906101000a900473ffffffffffffffffffffffffffffffffffffffff1681565b60156020528060005260406000206000915090508060000154908060010154908060020154908060030154908060040154908060050154905086565b6001600d60008373ffffffffffffffffffffffffffffffffffffffff1673ffffffffffffffffffffffffffffffffffffffff1681526020019081526020016000206001015401600d60008373ffffffffffffffffffffffffffffffffffffffff1673ffffffffffffffffffffffffffffffffffffffff1681526020019081526020016000206001018190555050565b600f5481565b6000600260008373ffffffffffffffffffffffffffffffffffffffff1673ffffffffffffffffffffffffffffffffffffffff16815260200190815260200160002060009054906101000a900473ffffffffffffffffffffffffffffffffffffffff169050919050565b6000809054906101000a900473ffffffffffffffffffffffffffffffffffffffff1673ffffffffffffffffffffffffffffffffffffffff163373ffffffffffffffffffffffffffffffffffffffff1614151561103757600080fd5b600073ffffffffffffffffffffffffffffffffffffffff168173ffffffffffffffffffffffffffffffffffffffff161415151561107357600080fd5b80600160006101000a81548173ffffffffffffffffffffffffffffffffffffffff021916908373ffffffffffffffffffffffffffffffffffffffff16021790555050565b600067016345785d8a0000341415156110cf57600080fd5b61546060105401421180156110e657506001601454135b156111af57601260006110fd6127106014546119d2565b600e5403815260200190815260200160002060000160009054906101000a900473ffffffffffffffffffffffffffffffffffffffff1673ffffffffffffffffffffffffffffffffffffffff166108fc606460326013540281151561115d57fe5b049081150290604051600060405180830381858888f19350505050158015611189573d6000803e3d6000fd5b50600160148190555060026013548115156111a057fe5b04601381905550426010819055505b3360126000600e54815260200190815260200160002060000160006101000a81548173ffffffffffffffffffffffffffffffffffffffff021916908373ffffffffffffffffffffffffffffffffffffffff1602179055506103e860056011540281151561121857fe5b04600b6000600a60009054906101000a900473ffffffffffffffffffffffffffffffffffffffff1673ffffffffffffffffffffffffffffffffffffffff1673ffffffffffffffffffffffffffffffffffffffff1681526020019081526020016000205401600b6000600a60009054906101000a900473ffffffffffffffffffffffffffffffffffffffff1673ffffffffffffffffffffffffffffffffffffffff1673ffffffffffffffffffffffffffffffffffffffff168152602001908152602001600020819055506112f367016345785d8a00003361297a565b506112fe6001611ca8565b601560006006600e5481151561131057fe5b0681526020019081526020016000206000016000601560006006600e5481151561133657fe5b0681526020019081526020016000206001016000601560006006600e5481151561135c57fe5b0681526020019081526020016000206002016000601560006006600e5481151561138257fe5b0681526020019081526020016000206003016000601560006006600e548115156113a857fe5b0681526020019081526020016000206004016000601560006006600e548115156113ce57fe5b06815260200190815260200160002060050160008c919050558b919050558a919050558991905055889190505587919050555050505050506006600e541015156118c85760006006600e5481151561142257fe5b0614156114dc5760126000600660156000808152602001908152602001600020600001546006600e5481151561145457fe5b06600e54030103815260200190815260200160002060000160009054906101000a900473ffffffffffffffffffffffffffffffffffffffff1673ffffffffffffffffffffffffffffffffffffffff166108fc6701aa535d3d0c00009081150290604051600060405180830381858888f193505050501580156114da573d6000803e3d6000fd5b505b60016006600e548115156114ec57fe5b06141561159f5760126000600660156000808152602001908152602001600020600101546006600e5481151561151e57fe5b06600e54030103815260200190815260200160002060000160009054906101000a900473ffffffffffffffffffffffffffffffffffffffff1673ffffffffffffffffffffffffffffffffffffffff166108fc60019081150290604051600060405180830381858888f1935050505015801561159d573d6000803e3d6000fd5b505b60026006600e548115156115af57fe5b0614156116695760126000600660156000808152602001908152602001600020600201546006600e548115156115e157fe5b06600e54030103815260200190815260200160002060000160009054906101000a900473ffffffffffffffffffffffffffffffffffffffff1673ffffffffffffffffffffffffffffffffffffffff166108fc670186cc6acd4b00009081150290604051600060405180830381858888f19350505050158015611667573d6000803e3d6000fd5b505b60036006600e5481151561167957fe5b0614156117335760126000600660156000808152602001908152602001600020600301546006600e548115156116ab57fe5b06600e54030103815260200190815260200160002060000160009054906101000a900473ffffffffffffffffffffffffffffffffffffffff1673ffffffffffffffffffffffffffffffffffffffff166108fc670186cc6acd4b00009081150290604051600060405180830381858888f19350505050158015611731573d6000803e3d6000fd5b505b60046006600e5481151561174357fe5b0614156117fd5760126000600660156000808152602001908152602001600020600401546006600e5481151561177557fe5b06600e54030103815260200190815260200160002060000160009054906101000a900473ffffffffffffffffffffffffffffffffffffffff1673ffffffffffffffffffffffffffffffffffffffff166108fc670186cc6acd4b00009081150290604051600060405180830381858888f193505050501580156117fb573d6000803e3d6000fd5b505b60056006600e5481151561180d57fe5b0614156118c75760126000600660156000808152602001908152602001600020600501546006600e5481151561183f57fe5b06600e54030103815260200190815260200160002060000160009054906101000a900473ffffffffffffffffffffffffffffffffffffffff1673ffffffffffffffffffffffffffffffffffffffff166108fc670186cc6acd4b00009081150290604051600060405180830381858888f193505050501580156118c5573d6000803e3d6000fd5b505b5b600160145401601481905550603c6011548115156118e257fe5b04601354016013819055506001600e5401600e8190555090565b60096020528060005260406000206000915090508060000154905081565b42600d60008373ffffffffffffffffffffffffffffffffffffffff1673ffffffffffffffffffffffffffffffffffffffff1681526020019081526020016000206002018190555050565b6000809054906101000a900473ffffffffffffffffffffffffffffffffffffffff1681565b6000600760008373ffffffffffffffffffffffffffffffffffffffff1673ffffffffffffffffffffffffffffffffffffffff168152602001908152602001600020549050919050565b60008082844340604051602001808381526020018260001916600019168152602001925050506040516020818303038152906040526040518082805190602001908083835b602083101515611a3c5780518252602082019150602081019050602083039250611a17565b6001836020036101000a038019825116818451168082178552505050505050905001915050604051809103902060019004811515611a7657fe5b0690508091505092915050565b6000600a60009054906101000a900473ffffffffffffffffffffffffffffffffffffffff16905090565b600a60009054906101000a900473ffffffffffffffffffffffffffffffffffffffff1673ffffffffffffffffffffffffffffffffffffffff166108fc600b6000600a60009054906101000a900473ffffffffffffffffffffffffffffffffffffffff1673ffffffffffffffffffffffffffffffffffffffff1673ffffffffffffffffffffffffffffffffffffffff168152602001908152602001600020549081150290604051600060405180830381858888f19350505050158015611b76573d6000803e3d6000fd5b50565b6000600b60008373ffffffffffffffffffffffffffffffffffffffff1673ffffffffffffffffffffffffffffffffffffffff168152602001908152602001600020549050919050565b60036020528060005260406000206000915054906101000a900473ffffffffffffffffffffffffffffffffffffffff1681565b6000809054906101000a900473ffffffffffffffffffffffffffffffffffffffff1673ffffffffffffffffffffffffffffffffffffffff163373ffffffffffffffffffffffffffffffffffffffff16141515611c5057600080fd5b806010540360108190555050565b60085481565b60126020528060005260406000206000915090508060000160009054906101000a900473ffffffffffffffffffffffffffffffffffffffff16905081565b60145481565b60008060008060008060008060008060068b4340604051602001808381526020018260001916600019168152602001925050506040516020818303038152906040526040518082805190602001908083835b602083101515611d1f5780518252602082019150602081019050602083039250611cfa565b6001836020036101000a038019825116818451168082178552505050505050905001915050604051809103902060019004811515611d5957fe5b0693506006844340604051602001808381526020018260001916600019168152602001925050506040516020818303038152906040526040518082805190602001908083835b602083101515611dc45780518252602082019150602081019050602083039250611d9f565b6001836020036101000a038019825116818451168082178552505050505050905001915050604051809103902060019004811515611dfe57fe5b0692506000915082841415611e2057600660018501811515611e1c57fe5b0692505b600090505b600681111515611e7057838114158015611e3f5750828114155b15611e635780600c6000848152602001908152602001600020819055506001820191505b8080600101915050611e25565b600091508383600c600080815260200190815260200160002054600c60006001815260200190815260200160002054600c60006002815260200190815260200160002054600c600060038152602001908152602001600020549950995099509950995099505050505091939550919395565b600080600960008573ffffffffffffffffffffffffffffffffffffffff1673ffffffffffffffffffffffffffffffffffffffff168152602001908152602001600020600101600084815260200190815260200160002060000160009054906101000a900473ffffffffffffffffffffffffffffffffffffffff16600960008673ffffffffffffffffffffffffffffffffffffffff1673ffffffffffffffffffffffffffffffffffffffff16815260200190815260200160002060000154915091509250929050565b6001600d60008373ffffffffffffffffffffffffffffffffffffffff1673ffffffffffffffffffffffffffffffffffffffff1681526020019081526020016000206000015401600d60008373ffffffffffffffffffffffffffffffffffffffff1673ffffffffffffffffffffffffffffffffffffffff1681526020019081526020016000206000018190555050565b674563918244f40000606434021015151561205357600080fd5b6000600760003373ffffffffffffffffffffffffffffffffffffffff1673ffffffffffffffffffffffffffffffffffffffff168152602001908152602001600020541415156120a157600080fd5b600660006402540be40066b1a2bc2ec5000034038115156120be57fe5b04815260200190815260200160002060009054906101000a900473ffffffffffffffffffffffffffffffffffffffff1673ffffffffffffffffffffffffffffffffffffffff163373ffffffffffffffffffffffffffffffffffffffff161415151561212857600080fd5b600660006402540be40066b1a2bc2ec50000340381151561214557fe5b04815260200190815260200160002060009054906101000a900473ffffffffffffffffffffffffffffffffffffffff16600260003373ffffffffffffffffffffffffffffffffffffffff1673ffffffffffffffffffffffffffffffffffffffff16815260200190815260200160002060006101000a81548173ffffffffffffffffffffffffffffffffffffffff021916908373ffffffffffffffffffffffffffffffffffffffff1602179055503360066000600854815260200190815260200160002060006101000a81548173ffffffffffffffffffffffffffffffffffffffff021916908373ffffffffffffffffffffffffffffffffffffffff160217905550600854600760003373ffffffffffffffffffffffffffffffffffffffff1673ffffffffffffffffffffffffffffffffffffffff168152602001908152602001600020819055503360096000600660006402540be40066b1a2bc2ec5000034038115156122ae57fe5b04815260200190815260200160002060009054906101000a900473ffffffffffffffffffffffffffffffffffffffff1673ffffffffffffffffffffffffffffffffffffffff1673ffffffffffffffffffffffffffffffffffffffff168152602001908152602001600020600101600060096000600660006402540be40066b1a2bc2ec50000340381151561233e57fe5b04815260200190815260200160002060009054906101000a900473ffffffffffffffffffffffffffffffffffffffff1673ffffffffffffffffffffffffffffffffffffffff1673ffffffffffffffffffffffffffffffffffffffff16815260200190815260200160002060000154815260200190815260200160002060000160006101000a81548173ffffffffffffffffffffffffffffffffffffffff021916908373ffffffffffffffffffffffffffffffffffffffff160217905550600160096000600660006402540be40066b1a2bc2ec50000340381151561241e57fe5b04815260200190815260200160002060009054906101000a900473ffffffffffffffffffffffffffffffffffffffff1673ffffffffffffffffffffffffffffffffffffffff1673ffffffffffffffffffffffffffffffffffffffff168152602001908152602001600020600001540160096000600660006402540be40066b1a2bc2ec5000034038115156124ae57fe5b04815260200190815260200160002060009054906101000a900473ffffffffffffffffffffffffffffffffffffffff1673ffffffffffffffffffffffffffffffffffffffff1673ffffffffffffffffffffffffffffffffffffffff16815260200190815260200160002060000181905550600160085401600881905550600560009054906101000a900473ffffffffffffffffffffffffffffffffffffffff1673ffffffffffffffffffffffffffffffffffffffff166108fc349081150290604051600060405180830381858888f19350505050158015612593573d6000803e3d6000fd5b503373ffffffffffffffffffffffffffffffffffffffff167f09371afb4578ee0c3f43accbe50410e7c3382f6678dbf0584b31633820acb9e36402540be40066b1a2bc2ec5000034038115156125e557fe5b04600854600260003373ffffffffffffffffffffffffffffffffffffffff1673ffffffffffffffffffffffffffffffffffffffff16815260200190815260200160002060009054906101000a900473ffffffffffffffffffffffffffffffffffffffff16604051808481526020018381526020018273ffffffffffffffffffffffffffffffffffffffff1673ffffffffffffffffffffffffffffffffffffffff168152602001935050505060405180910390a2565b60006006600083815260200190815260200160002060009054906101000a900473ffffffffffffffffffffffffffffffffffffffff169050919050565b600e5481565b60026020528060005260406000206000915054906101000a900473ffffffffffffffffffffffffffffffffffffffff1681565b6000809054906101000a900473ffffffffffffffffffffffffffffffffffffffff1673ffffffffffffffffffffffffffffffffffffffff163373ffffffffffffffffffffffffffffffffffffffff1614151561276b57600080fd5b600073ffffffffffffffffffffffffffffffffffffffff168173ffffffffffffffffffffffffffffffffffffffff16141515156127a757600080fd5b806000806101000a81548173ffffffffffffffffffffffffffffffffffffffff021916908373ffffffffffffffffffffffffffffffffffffffff16021790555050565b600160009054906101000a900473ffffffffffffffffffffffffffffffffffffffff1681565b6000809054906101000a900473ffffffffffffffffffffffffffffffffffffffff1673ffffffffffffffffffffffffffffffffffffffff163373ffffffffffffffffffffffffffffffffffffffff1614151561286b57600080fd5b600073ffffffffffffffffffffffffffffffffffffffff168173ffffffffffffffffffffffffffffffffffffffff16141515156128a757600080fd5b80600a60006101000a81548173ffffffffffffffffffffffffffffffffffffffff021916908373ffffffffffffffffffffffffffffffffffffffff16021790555050565b80600d60008473ffffffffffffffffffffffffffffffffffffffff1673ffffffffffffffffffffffffffffffffffffffff1681526020019081526020016000206003015401600d60008473ffffffffffffffffffffffffffffffffffffffff1673ffffffffffffffffffffffffffffffffffffffff168152602001908152602001600020600301819055505050565b600080600080849250602d9150600090505b6007811015612edf57600260008473ffffffffffffffffffffffffffffffffffffffff1673ffffffffffffffffffffffffffffffffffffffff16815260200190815260200160002060009054906101000a900473ffffffffffffffffffffffffffffffffffffffff169250600073ffffffffffffffffffffffffffffffffffffffff168373ffffffffffffffffffffffffffffffffffffffff161415612a3157612edf565b6000811415612ada576103e860148702811515612a4a57fe5b04600b60008573ffffffffffffffffffffffffffffffffffffffff1673ffffffffffffffffffffffffffffffffffffffff1681526020019081526020016000205401600b60008573ffffffffffffffffffffffffffffffffffffffff1673ffffffffffffffffffffffffffffffffffffffff16815260200190815260200160002081905550601482039150612ed2565b6001811415612b83576103e8600a8702811515612af357fe5b04600b60008573ffffffffffffffffffffffffffffffffffffffff1673ffffffffffffffffffffffffffffffffffffffff1681526020019081526020016000205401600b60008573ffffffffffffffffffffffffffffffffffffffff1673ffffffffffffffffffffffffffffffffffffffff16815260200190815260200160002081905550600a82039150612ed1565b6002811415612c2c576103e860058702811515612b9c57fe5b04600b60008573ffffffffffffffffffffffffffffffffffffffff1673ffffffffffffffffffffffffffffffffffffffff1681526020019081526020016000205401600b60008573ffffffffffffffffffffffffffffffffffffffff1673ffffffffffffffffffffffffffffffffffffffff16815260200190815260200160002081905550600582039150612ed0565b6003811415612cd5576103e860048702811515612c4557fe5b04600b60008573ffffffffffffffffffffffffffffffffffffffff1673ffffffffffffffffffffffffffffffffffffffff1681526020019081526020016000205401600b60008573ffffffffffffffffffffffffffffffffffffffff1673ffffffffffffffffffffffffffffffffffffffff16815260200190815260200160002081905550600482039150612ecf565b6004811415612d7e576103e860038702811515612cee57fe5b04600b60008573ffffffffffffffffffffffffffffffffffffffff1673ffffffffffffffffffffffffffffffffffffffff1681526020019081526020016000205401600b60008573ffffffffffffffffffffffffffffffffffffffff1673ffffffffffffffffffffffffffffffffffffffff16815260200190815260200160002081905550600382039150612ece565b6005811415612e27576103e860028702811515612d9757fe5b04600b60008573ffffffffffffffffffffffffffffffffffffffff1673ffffffffffffffffffffffffffffffffffffffff1681526020019081526020016000205401600b60008573ffffffffffffffffffffffffffffffffffffffff1673ffffffffffffffffffffffffffffffffffffffff16815260200190815260200160002081905550600282039150612ecd565b6006811415612ecc576103e860018702811515612e4057fe5b04600b60008573ffffffffffffffffffffffffffffffffffffffff1673ffffffffffffffffffffffffffffffffffffffff1681526020019081526020016000205401600b60008573ffffffffffffffffffffffffffffffffffffffff1673ffffffffffffffffffffffffffffffffffffffff168152602001908152602001600020819055506001820391505b5b5b5b5b5b5b808060010191505061298c565b6103e8828702811515612eee57fe5b04600b6000600a60009054906101000a900473ffffffffffffffffffffffffffffffffffffffff1673ffffffffffffffffffffffffffffffffffffffff1673ffffffffffffffffffffffffffffffffffffffff1681526020019081526020016000205401600b6000600a60009054906101000a900473ffffffffffffffffffffffffffffffffffffffff1673ffffffffffffffffffffffffffffffffffffffff1673ffffffffffffffffffffffffffffffffffffffff16815260200190815260200160002081905550349350505050929150505600a165627a7a7230582028ccdfba05beb8a1b1c596727d5866eadc2710e85dd43e487a8dc505c3d703d30029",
  "source": "pragma solidity ^0.4.21;\n//import \"./Event.sol\";\nimport \"./Layer.sol\";\nimport \"./Layerprofit.sol\";\nimport \"./Random.sol\";\nimport \"./Teambonus.sol\";\nimport \"./ContractInfo.sol\";\ncontract Lucky1 is layer, layerprofit, random, ContractInfo{\n    uint public pooln_lucky1;\n    uint public poolp_lucky1=0;\n    uint public lotteryinittime_lucky1 = now;\n    uint revenul1 = 0.1 ether;\n    struct poolinfo_lucky1{\n        address player;\n    }\n    mapping(uint => poolinfo_lucky1) public pool_lucky1;\n    uint public lotterybalance_L1;\n    int public lotteryPeopleNum_L1 =1;\n    function changeTime_L1(uint target)onlyOwner public{\n        lotteryinittime_lucky1 = lotteryinittime_lucky1 -target;\n    }\n    struct resultInfo_L1{\n        uint winner;\n        uint loser;\n        uint common1;\n        uint common2;\n        uint common3;\n        uint common4;\n    }\n    mapping(uint => resultInfo_L1) public resultMap_L1;\n    function gun_lucky1() public payable returns (address){\n            require(msg.value == 0.1 ether);\n            if(now>lotteryinittime_lucky1+21600&&lotteryPeopleNum_L1>1){\n                //if(pool_lucky1[pooln_lucky1 - randomLottery(10000,uint(lotteryPeopleNum_L1-1))].player!=0x0000000000000000000000000000000000000000){\n                    pool_lucky1[pooln_lucky1 - randomLottery(10000,uint(lotteryPeopleNum_L1))].player.transfer(lotterybalance_L1*50/100);\n                    lotteryPeopleNum_L1 = 1;\n                    lotterybalance_L1 = lotterybalance_L1/2;\n                    lotteryinittime_lucky1 = now;\n                //}\n            }\n            pool_lucky1[pooln_lucky1].player = msg.sender;\n            profit[contractAddress] = profit[contractAddress]+revenul1*5/1000;\n            allocateProfit(0.1 ether,msg.sender);\n            (resultMap_L1[pooln_lucky1%6].winner,\n            resultMap_L1[pooln_lucky1%6].loser,\n            resultMap_L1[pooln_lucky1%6].common1,\n            resultMap_L1[pooln_lucky1%6].common2,\n            resultMap_L1[pooln_lucky1%6].common3,\n            resultMap_L1[pooln_lucky1%6].common4) = randomNewLucky(1);\n            if(pooln_lucky1>=6){\n                if(pooln_lucky1%6==0){\n                    pool_lucky1[((pooln_lucky1-(pooln_lucky1)%6)+resultMap_L1[0].winner)-6].player.transfer(0.12 ether);\n                }\n                if(pooln_lucky1%6==1){\n                    pool_lucky1[((pooln_lucky1-(pooln_lucky1)%6)+resultMap_L1[0].loser)-6].player.transfer(1 wei);\n                }\n                if(pooln_lucky1%6==2){\n                    pool_lucky1[((pooln_lucky1-(pooln_lucky1)%6)+resultMap_L1[0].common1)-6].player.transfer(0.11 ether);\n                }\n                if(pooln_lucky1%6==3){\n                    pool_lucky1[((pooln_lucky1-(pooln_lucky1)%6)+resultMap_L1[0].common2)-6].player.transfer(0.11 ether);\n                }\n                if(pooln_lucky1%6==4){\n                    pool_lucky1[((pooln_lucky1-(pooln_lucky1)%6)+resultMap_L1[0].common3)-6].player.transfer(0.11 ether);\n                }\n                if(pooln_lucky1%6==5){\n                    pool_lucky1[((pooln_lucky1-(pooln_lucky1)%6)+resultMap_L1[0].common4)-6].player.transfer(0.11 ether);\n                }\n            }\n            lotteryPeopleNum_L1 = lotteryPeopleNum_L1+1;\n            lotterybalance_L1 = lotterybalance_L1 + revenul1/60;\n            pooln_lucky1 = pooln_lucky1+1;\n    }\n    \n    //..\n    function search_L1(uint target) public constant returns(uint,uint,uint,uint,uint){\n        return ((now-lotteryinittime_lucky1)/21600, 0, pooln_lucky1, pooln_lucky1-pooln_lucky1%6, lotterybalance_L1);\n    }\n}",
  "sourcePath": "/home/tung/language/python/contractControl/deployContract/contracts/Lucky1.sol",
  "compiler": {
    "name": "solc",
    "version": "0.4.24+commit.e67f0147.Emscripten.clang"
  },
  "schemaVersion": "2.0.1",
  "updatedAt": "2018-09-25T10:22:09.599Z"
}