{
  "contractName": "main",
  "abi": [
    {
      "constant": false,
      "inputs": [
        {
          "name": "target",
          "type": "uint256"
        }
      ],
      "name": "changeTime_C1",
      "outputs": [],
      "payable": false,
      "stateMutability": "nonpayable",
      "type": "function"
    },
    {
      "constant": false,
      "inputs": [],
      "name": "getProfitout",
      "outputs": [],
      "payable": false,
      "stateMutability": "nonpayable",
      "type": "function"
    },
    {
      "constant": true,
      "inputs": [
        {
          "name": "",
          "type": "address"
        }
      ],
      "name": "profit",
      "outputs": [
        {
          "name": "",
          "type": "uint256"
        }
      ],
      "payable": false,
      "stateMutability": "view",
      "type": "function"
    },
    {
      "constant": true,
      "inputs": [],
      "name": "lotterybalance_L1",
      "outputs": [
        {
          "name": "",
          "type": "uint256"
        }
      ],
      "payable": false,
      "stateMutability": "view",
      "type": "function"
    },
    {
      "constant": true,
      "inputs": [],
      "name": "layercontract",
      "outputs": [
        {
          "name": "",
          "type": "address"
        }
      ],
      "payable": false,
      "stateMutability": "view",
      "type": "function"
    },
    {
      "constant": true,
      "inputs": [
        {
          "name": "target",
          "type": "uint256"
        }
      ],
      "name": "search_L1",
      "outputs": [
        {
          "name": "",
          "type": "uint256"
        },
        {
          "name": "",
          "type": "uint256"
        },
        {
          "name": "",
          "type": "uint256"
        },
        {
          "name": "",
          "type": "uint256"
        },
        {
          "name": "",
          "type": "uint256"
        }
      ],
      "payable": false,
      "stateMutability": "view",
      "type": "function"
    },
    {
      "constant": true,
      "inputs": [],
      "name": "winnerTime_C1",
      "outputs": [
        {
          "name": "",
          "type": "uint256"
        }
      ],
      "payable": false,
      "stateMutability": "view",
      "type": "function"
    },
    {
      "constant": true,
      "inputs": [],
      "name": "lotteryloser_C1",
      "outputs": [
        {
          "name": "",
          "type": "uint256"
        }
      ],
      "payable": false,
      "stateMutability": "view",
      "type": "function"
    },
    {
      "constant": true,
      "inputs": [],
      "name": "poolp_lucky10",
      "outputs": [
        {
          "name": "",
          "type": "uint256"
        }
      ],
      "payable": false,
      "stateMutability": "view",
      "type": "function"
    },
    {
      "constant": true,
      "inputs": [],
      "name": "lotteryinittime_lucky1",
      "outputs": [
        {
          "name": "",
          "type": "uint256"
        }
      ],
      "payable": false,
      "stateMutability": "view",
      "type": "function"
    },
    {
      "constant": true,
      "inputs": [
        {
          "name": "",
          "type": "uint256"
        }
      ],
      "name": "pool_lucky10",
      "outputs": [
        {
          "name": "player",
          "type": "address"
        }
      ],
      "payable": false,
      "stateMutability": "view",
      "type": "function"
    },
    {
      "constant": false,
      "inputs": [],
      "name": "gun_crazy1",
      "outputs": [
        {
          "name": "",
          "type": "address"
        }
      ],
      "payable": true,
      "stateMutability": "payable",
      "type": "function"
    },
    {
      "constant": true,
      "inputs": [],
      "name": "lotteryinittime_lucky10",
      "outputs": [
        {
          "name": "",
          "type": "uint256"
        }
      ],
      "payable": false,
      "stateMutability": "view",
      "type": "function"
    },
    {
      "constant": true,
      "inputs": [],
      "name": "lotterybalance_L10",
      "outputs": [
        {
          "name": "",
          "type": "uint256"
        }
      ],
      "payable": false,
      "stateMutability": "view",
      "type": "function"
    },
    {
      "constant": true,
      "inputs": [
        {
          "name": "",
          "type": "address"
        }
      ],
      "name": "inviteInquire",
      "outputs": [
        {
          "name": "",
          "type": "uint256"
        }
      ],
      "payable": false,
      "stateMutability": "view",
      "type": "function"
    },
    {
      "constant": true,
      "inputs": [],
      "name": "winnerTime_C10",
      "outputs": [
        {
          "name": "",
          "type": "uint256"
        }
      ],
      "payable": false,
      "stateMutability": "view",
      "type": "function"
    },
    {
      "constant": true,
      "inputs": [
        {
          "name": "",
          "type": "uint256"
        }
      ],
      "name": "inviteNumber",
      "outputs": [
        {
          "name": "",
          "type": "address"
        }
      ],
      "payable": false,
      "stateMutability": "view",
      "type": "function"
    },
    {
      "constant": true,
      "inputs": [
        {
          "name": "",
          "type": "uint256"
        }
      ],
      "name": "resultMap_L1",
      "outputs": [
        {
          "name": "winner",
          "type": "uint256"
        },
        {
          "name": "loser",
          "type": "uint256"
        },
        {
          "name": "common1",
          "type": "uint256"
        },
        {
          "name": "common2",
          "type": "uint256"
        },
        {
          "name": "common3",
          "type": "uint256"
        },
        {
          "name": "common4",
          "type": "uint256"
        }
      ],
      "payable": false,
      "stateMutability": "view",
      "type": "function"
    },
    {
      "constant": false,
      "inputs": [
        {
          "name": "target",
          "type": "uint256"
        }
      ],
      "name": "changeTime_L10",
      "outputs": [],
      "payable": false,
      "stateMutability": "nonpayable",
      "type": "function"
    },
    {
      "constant": true,
      "inputs": [],
      "name": "pooln_Crazy1",
      "outputs": [
        {
          "name": "",
          "type": "uint256"
        }
      ],
      "payable": false,
      "stateMutability": "view",
      "type": "function"
    },
    {
      "constant": true,
      "inputs": [],
      "name": "unusedTime_C1",
      "outputs": [
        {
          "name": "",
          "type": "uint256"
        }
      ],
      "payable": false,
      "stateMutability": "view",
      "type": "function"
    },
    {
      "constant": false,
      "inputs": [
        {
          "name": "target",
          "type": "address"
        }
      ],
      "name": "setLose",
      "outputs": [],
      "payable": false,
      "stateMutability": "nonpayable",
      "type": "function"
    },
    {
      "constant": true,
      "inputs": [],
      "name": "initTime_C10",
      "outputs": [
        {
          "name": "",
          "type": "uint256"
        }
      ],
      "payable": false,
      "stateMutability": "view",
      "type": "function"
    },
    {
      "constant": true,
      "inputs": [
        {
          "name": "",
          "type": "uint256"
        }
      ],
      "name": "resultMap_L10",
      "outputs": [
        {
          "name": "winner",
          "type": "uint256"
        },
        {
          "name": "loser",
          "type": "uint256"
        },
        {
          "name": "common1",
          "type": "uint256"
        },
        {
          "name": "common2",
          "type": "uint256"
        },
        {
          "name": "common3",
          "type": "uint256"
        },
        {
          "name": "common4",
          "type": "uint256"
        }
      ],
      "payable": false,
      "stateMutability": "view",
      "type": "function"
    },
    {
      "constant": true,
      "inputs": [],
      "name": "poolp_lucky1",
      "outputs": [
        {
          "name": "",
          "type": "uint256"
        }
      ],
      "payable": false,
      "stateMutability": "view",
      "type": "function"
    },
    {
      "constant": true,
      "inputs": [
        {
          "name": "",
          "type": "uint256"
        }
      ],
      "name": "pool_Crazy1",
      "outputs": [
        {
          "name": "player",
          "type": "address"
        }
      ],
      "payable": false,
      "stateMutability": "view",
      "type": "function"
    },
    {
      "constant": true,
      "inputs": [],
      "name": "finalTime_C1",
      "outputs": [
        {
          "name": "",
          "type": "uint256"
        }
      ],
      "payable": false,
      "stateMutability": "view",
      "type": "function"
    },
    {
      "constant": true,
      "inputs": [
        {
          "name": "",
          "type": "uint256"
        }
      ],
      "name": "resultMap_C10",
      "outputs": [
        {
          "name": "winner",
          "type": "uint256"
        },
        {
          "name": "loser",
          "type": "uint256"
        },
        {
          "name": "loser1",
          "type": "uint256"
        },
        {
          "name": "loser2",
          "type": "uint256"
        },
        {
          "name": "common3",
          "type": "uint256"
        },
        {
          "name": "common4",
          "type": "uint256"
        }
      ],
      "payable": false,
      "stateMutability": "view",
      "type": "function"
    },
    {
      "constant": true,
      "inputs": [],
      "name": "unusedTime_C10",
      "outputs": [
        {
          "name": "",
          "type": "uint256"
        }
      ],
      "payable": false,
      "stateMutability": "view",
      "type": "function"
    },
    {
      "constant": true,
      "inputs": [
        {
          "name": "target",
          "type": "address"
        }
      ],
      "name": "getlayer",
      "outputs": [
        {
          "name": "",
          "type": "address"
        }
      ],
      "payable": false,
      "stateMutability": "view",
      "type": "function"
    },
    {
      "constant": false,
      "inputs": [
        {
          "name": "newOwner",
          "type": "address"
        }
      ],
      "name": "transferAdmin",
      "outputs": [],
      "payable": false,
      "stateMutability": "nonpayable",
      "type": "function"
    },
    {
      "constant": true,
      "inputs": [
        {
          "name": "",
          "type": "uint256"
        }
      ],
      "name": "pool_Crazy10",
      "outputs": [
        {
          "name": "player",
          "type": "address"
        }
      ],
      "payable": false,
      "stateMutability": "view",
      "type": "function"
    },
    {
      "constant": true,
      "inputs": [],
      "name": "lotterywinner_C1",
      "outputs": [
        {
          "name": "",
          "type": "uint256"
        }
      ],
      "payable": false,
      "stateMutability": "view",
      "type": "function"
    },
    {
      "constant": true,
      "inputs": [],
      "name": "lotterywinner_C10",
      "outputs": [
        {
          "name": "",
          "type": "uint256"
        }
      ],
      "payable": false,
      "stateMutability": "view",
      "type": "function"
    },
    {
      "constant": true,
      "inputs": [],
      "name": "lotteryPeopleNum_L10",
      "outputs": [
        {
          "name": "",
          "type": "int256"
        }
      ],
      "payable": false,
      "stateMutability": "view",
      "type": "function"
    },
    {
      "constant": false,
      "inputs": [],
      "name": "gun_lucky1",
      "outputs": [
        {
          "name": "",
          "type": "address"
        }
      ],
      "payable": true,
      "stateMutability": "payable",
      "type": "function"
    },
    {
      "constant": true,
      "inputs": [
        {
          "name": "",
          "type": "address"
        }
      ],
      "name": "downlineMap",
      "outputs": [
        {
          "name": "downAmount",
          "type": "uint256"
        }
      ],
      "payable": false,
      "stateMutability": "view",
      "type": "function"
    },
    {
      "constant": true,
      "inputs": [],
      "name": "poolp_Crazy10",
      "outputs": [
        {
          "name": "",
          "type": "uint256"
        }
      ],
      "payable": false,
      "stateMutability": "view",
      "type": "function"
    },
    {
      "constant": false,
      "inputs": [
        {
          "name": "target",
          "type": "address"
        }
      ],
      "name": "setTime",
      "outputs": [],
      "payable": false,
      "stateMutability": "nonpayable",
      "type": "function"
    },
    {
      "constant": true,
      "inputs": [],
      "name": "owner",
      "outputs": [
        {
          "name": "",
          "type": "address"
        }
      ],
      "payable": false,
      "stateMutability": "view",
      "type": "function"
    },
    {
      "constant": true,
      "inputs": [
        {
          "name": "target",
          "type": "address"
        }
      ],
      "name": "inviteinquire",
      "outputs": [
        {
          "name": "",
          "type": "uint256"
        }
      ],
      "payable": false,
      "stateMutability": "view",
      "type": "function"
    },
    {
      "constant": true,
      "inputs": [
        {
          "name": "",
          "type": "uint256"
        }
      ],
      "name": "resultMap_C1",
      "outputs": [
        {
          "name": "winner",
          "type": "uint256"
        },
        {
          "name": "loser",
          "type": "uint256"
        },
        {
          "name": "loser1",
          "type": "uint256"
        },
        {
          "name": "loser2",
          "type": "uint256"
        },
        {
          "name": "common3",
          "type": "uint256"
        },
        {
          "name": "common4",
          "type": "uint256"
        }
      ],
      "payable": false,
      "stateMutability": "view",
      "type": "function"
    },
    {
      "constant": true,
      "inputs": [
        {
          "name": "rand",
          "type": "uint256"
        },
        {
          "name": "amount",
          "type": "uint256"
        }
      ],
      "name": "randomLottery",
      "outputs": [
        {
          "name": "",
          "type": "uint256"
        }
      ],
      "payable": false,
      "stateMutability": "view",
      "type": "function"
    },
    {
      "constant": true,
      "inputs": [],
      "name": "contractInquire",
      "outputs": [
        {
          "name": "",
          "type": "address"
        }
      ],
      "payable": false,
      "stateMutability": "view",
      "type": "function"
    },
    {
      "constant": true,
      "inputs": [],
      "name": "finalTime_C10",
      "outputs": [
        {
          "name": "",
          "type": "uint256"
        }
      ],
      "payable": false,
      "stateMutability": "view",
      "type": "function"
    },
    {
      "constant": false,
      "inputs": [],
      "name": "getadminProfitout",
      "outputs": [],
      "payable": false,
      "stateMutability": "nonpayable",
      "type": "function"
    },
    {
      "constant": true,
      "inputs": [
        {
          "name": "target",
          "type": "address"
        }
      ],
      "name": "inquire",
      "outputs": [
        {
          "name": "",
          "type": "uint256"
        }
      ],
      "payable": false,
      "stateMutability": "view",
      "type": "function"
    },
    {
      "constant": true,
      "inputs": [
        {
          "name": "",
          "type": "uint256"
        }
      ],
      "name": "player",
      "outputs": [
        {
          "name": "",
          "type": "address"
        }
      ],
      "payable": false,
      "stateMutability": "view",
      "type": "function"
    },
    {
      "constant": false,
      "inputs": [
        {
          "name": "target",
          "type": "uint256"
        }
      ],
      "name": "changeTime_C10",
      "outputs": [],
      "payable": false,
      "stateMutability": "nonpayable",
      "type": "function"
    },
    {
      "constant": false,
      "inputs": [
        {
          "name": "target",
          "type": "uint256"
        }
      ],
      "name": "changeTime_L1",
      "outputs": [],
      "payable": false,
      "stateMutability": "nonpayable",
      "type": "function"
    },
    {
      "constant": true,
      "inputs": [],
      "name": "inviteAmount",
      "outputs": [
        {
          "name": "",
          "type": "uint256"
        }
      ],
      "payable": false,
      "stateMutability": "view",
      "type": "function"
    },
    {
      "constant": true,
      "inputs": [],
      "name": "lotteryinittime_Crazy10",
      "outputs": [
        {
          "name": "",
          "type": "uint256"
        }
      ],
      "payable": false,
      "stateMutability": "view",
      "type": "function"
    },
    {
      "constant": true,
      "inputs": [
        {
          "name": "",
          "type": "uint256"
        }
      ],
      "name": "pool_lucky1",
      "outputs": [
        {
          "name": "player",
          "type": "address"
        }
      ],
      "payable": false,
      "stateMutability": "view",
      "type": "function"
    },
    {
      "constant": true,
      "inputs": [],
      "name": "lucky1contract",
      "outputs": [
        {
          "name": "",
          "type": "address"
        }
      ],
      "payable": false,
      "stateMutability": "view",
      "type": "function"
    },
    {
      "constant": true,
      "inputs": [],
      "name": "lotteryPeopleNum_L1",
      "outputs": [
        {
          "name": "",
          "type": "int256"
        }
      ],
      "payable": false,
      "stateMutability": "view",
      "type": "function"
    },
    {
      "constant": true,
      "inputs": [
        {
          "name": "target",
          "type": "uint256"
        }
      ],
      "name": "search_C1",
      "outputs": [
        {
          "name": "",
          "type": "uint256"
        },
        {
          "name": "",
          "type": "uint256"
        },
        {
          "name": "",
          "type": "uint256"
        },
        {
          "name": "",
          "type": "uint256"
        },
        {
          "name": "",
          "type": "uint256"
        }
      ],
      "payable": false,
      "stateMutability": "view",
      "type": "function"
    },
    {
      "constant": true,
      "inputs": [],
      "name": "pooln_lucky10",
      "outputs": [
        {
          "name": "",
          "type": "uint256"
        }
      ],
      "payable": false,
      "stateMutability": "view",
      "type": "function"
    },
    {
      "constant": true,
      "inputs": [
        {
          "name": "rand",
          "type": "uint256"
        }
      ],
      "name": "randomNewLucky",
      "outputs": [
        {
          "name": "",
          "type": "uint256"
        },
        {
          "name": "",
          "type": "uint256"
        },
        {
          "name": "",
          "type": "uint256"
        },
        {
          "name": "",
          "type": "uint256"
        },
        {
          "name": "",
          "type": "uint256"
        },
        {
          "name": "",
          "type": "uint256"
        }
      ],
      "payable": false,
      "stateMutability": "view",
      "type": "function"
    },
    {
      "constant": true,
      "inputs": [
        {
          "name": "target",
          "type": "address"
        },
        {
          "name": "downnumber",
          "type": "uint256"
        }
      ],
      "name": "downlineSearch",
      "outputs": [
        {
          "name": "",
          "type": "address"
        },
        {
          "name": "",
          "type": "uint256"
        }
      ],
      "payable": false,
      "stateMutability": "view",
      "type": "function"
    },
    {
      "constant": false,
      "inputs": [
        {
          "name": "target",
          "type": "address"
        }
      ],
      "name": "setWin",
      "outputs": [],
      "payable": false,
      "stateMutability": "nonpayable",
      "type": "function"
    },
    {
      "constant": true,
      "inputs": [],
      "name": "lotteryinittime_Crazy1",
      "outputs": [
        {
          "name": "",
          "type": "uint256"
        }
      ],
      "payable": false,
      "stateMutability": "view",
      "type": "function"
    },
    {
      "constant": true,
      "inputs": [],
      "name": "lotteryloser_C10",
      "outputs": [
        {
          "name": "",
          "type": "uint256"
        }
      ],
      "payable": false,
      "stateMutability": "view",
      "type": "function"
    },
    {
      "constant": false,
      "inputs": [],
      "name": "gun_crazy10",
      "outputs": [
        {
          "name": "",
          "type": "address"
        }
      ],
      "payable": true,
      "stateMutability": "payable",
      "type": "function"
    },
    {
      "constant": true,
      "inputs": [
        {
          "name": "target",
          "type": "uint256"
        }
      ],
      "name": "search_C10",
      "outputs": [
        {
          "name": "",
          "type": "uint256"
        },
        {
          "name": "",
          "type": "uint256"
        },
        {
          "name": "",
          "type": "uint256"
        },
        {
          "name": "",
          "type": "uint256"
        },
        {
          "name": "",
          "type": "uint256"
        }
      ],
      "payable": false,
      "stateMutability": "view",
      "type": "function"
    },
    {
      "constant": true,
      "inputs": [],
      "name": "poolp_Crazy1",
      "outputs": [
        {
          "name": "",
          "type": "uint256"
        }
      ],
      "payable": false,
      "stateMutability": "view",
      "type": "function"
    },
    {
      "constant": false,
      "inputs": [],
      "name": "regist",
      "outputs": [],
      "payable": true,
      "stateMutability": "payable",
      "type": "function"
    },
    {
      "constant": true,
      "inputs": [
        {
          "name": "num",
          "type": "uint256"
        }
      ],
      "name": "getinviteNumber",
      "outputs": [
        {
          "name": "",
          "type": "address"
        }
      ],
      "payable": false,
      "stateMutability": "view",
      "type": "function"
    },
    {
      "constant": true,
      "inputs": [],
      "name": "initTime_C1",
      "outputs": [
        {
          "name": "",
          "type": "uint256"
        }
      ],
      "payable": false,
      "stateMutability": "view",
      "type": "function"
    },
    {
      "constant": true,
      "inputs": [],
      "name": "pooln_lucky1",
      "outputs": [
        {
          "name": "",
          "type": "uint256"
        }
      ],
      "payable": false,
      "stateMutability": "view",
      "type": "function"
    },
    {
      "constant": true,
      "inputs": [],
      "name": "pooln_Crazy10",
      "outputs": [
        {
          "name": "",
          "type": "uint256"
        }
      ],
      "payable": false,
      "stateMutability": "view",
      "type": "function"
    },
    {
      "constant": true,
      "inputs": [],
      "name": "lotterybalance_C10",
      "outputs": [
        {
          "name": "",
          "type": "uint256"
        }
      ],
      "payable": false,
      "stateMutability": "view",
      "type": "function"
    },
    {
      "constant": true,
      "inputs": [
        {
          "name": "",
          "type": "address"
        }
      ],
      "name": "layermap",
      "outputs": [
        {
          "name": "",
          "type": "address"
        }
      ],
      "payable": false,
      "stateMutability": "view",
      "type": "function"
    },
    {
      "constant": true,
      "inputs": [
        {
          "name": "target",
          "type": "uint256"
        }
      ],
      "name": "search_L10",
      "outputs": [
        {
          "name": "",
          "type": "uint256"
        },
        {
          "name": "",
          "type": "uint256"
        },
        {
          "name": "",
          "type": "uint256"
        },
        {
          "name": "",
          "type": "uint256"
        },
        {
          "name": "",
          "type": "uint256"
        }
      ],
      "payable": false,
      "stateMutability": "view",
      "type": "function"
    },
    {
      "constant": false,
      "inputs": [
        {
          "name": "newOwner",
          "type": "address"
        }
      ],
      "name": "transferOwnership",
      "outputs": [],
      "payable": false,
      "stateMutability": "nonpayable",
      "type": "function"
    },
    {
      "constant": true,
      "inputs": [],
      "name": "lotterybalance_C1",
      "outputs": [
        {
          "name": "",
          "type": "uint256"
        }
      ],
      "payable": false,
      "stateMutability": "view",
      "type": "function"
    },
    {
      "constant": false,
      "inputs": [],
      "name": "gun_lucky10",
      "outputs": [
        {
          "name": "",
          "type": "address"
        }
      ],
      "payable": true,
      "stateMutability": "payable",
      "type": "function"
    },
    {
      "constant": true,
      "inputs": [],
      "name": "admin",
      "outputs": [
        {
          "name": "",
          "type": "address"
        }
      ],
      "payable": false,
      "stateMutability": "view",
      "type": "function"
    },
    {
      "constant": false,
      "inputs": [
        {
          "name": "newAddress",
          "type": "address"
        }
      ],
      "name": "changeAddress",
      "outputs": [],
      "payable": false,
      "stateMutability": "nonpayable",
      "type": "function"
    },
    {
      "constant": false,
      "inputs": [
        {
          "name": "target",
          "type": "address"
        },
        {
          "name": "balance",
          "type": "uint256"
        }
      ],
      "name": "setProfit",
      "outputs": [],
      "payable": false,
      "stateMutability": "nonpayable",
      "type": "function"
    },
    {
      "payable": true,
      "stateMutability": "payable",
      "type": "fallback"
    },
    {
      "anonymous": false,
      "inputs": [
        {
          "indexed": false,
          "name": "pool",
          "type": "uint256"
        },
        {
          "indexed": true,
          "name": "player",
          "type": "address"
        },
        {
          "indexed": false,
          "name": "status",
          "type": "uint256"
        },
        {
          "indexed": false,
          "name": "types",
          "type": "uint256"
        },
        {
          "indexed": false,
          "name": "balance",
          "type": "uint256"
        }
      ],
      "name": "NProfitEvent",
      "type": "event"
    },
    {
      "anonymous": false,
      "inputs": [
        {
          "indexed": true,
          "name": "player",
          "type": "address"
        },
        {
          "indexed": false,
          "name": "balance",
          "type": "uint256"
        }
      ],
      "name": "LProfitEvent",
      "type": "event"
    },
    {
      "anonymous": false,
      "inputs": [
        {
          "indexed": true,
          "name": "player",
          "type": "address"
        },
        {
          "indexed": false,
          "name": "inputNumber",
          "type": "uint256"
        },
        {
          "indexed": false,
          "name": "registNumber",
          "type": "uint256"
        },
        {
          "indexed": false,
          "name": "upline",
          "type": "address"
        }
      ],
      "name": "RegistEvent",
      "type": "event"
    },
    {
      "anonymous": false,
      "inputs": [
        {
          "indexed": false,
          "name": "pool",
          "type": "uint256"
        },
        {
          "indexed": false,
          "name": "winner",
          "type": "uint256"
        },
        {
          "indexed": false,
          "name": "loser",
          "type": "uint256"
        }
      ],
      "name": "LuckyProfitEvent",
      "type": "event"
    },
    {
      "anonymous": false,
      "inputs": [
        {
          "indexed": false,
          "name": "pool",
          "type": "uint256"
        },
        {
          "indexed": false,
          "name": "winner",
          "type": "uint256"
        },
        {
          "indexed": false,
          "name": "loser1",
          "type": "uint256"
        },
        {
          "indexed": false,
          "name": "loser2",
          "type": "uint256"
        },
        {
          "indexed": false,
          "name": "loser3",
          "type": "uint256"
        }
      ],
      "name": "CrazyProfitEvent",
      "type": "event"
    },
    {
      "anonymous": false,
      "inputs": [
        {
          "indexed": false,
          "name": "pool",
          "type": "uint256"
        },
        {
          "indexed": false,
          "name": "winner",
          "type": "address"
        },
        {
          "indexed": false,
          "name": "loser",
          "type": "address"
        },
        {
          "indexed": false,
          "name": "balance",
          "type": "uint256"
        }
      ],
      "name": "LuckyLotteryEvent",
      "type": "event"
    },
    {
      "anonymous": false,
      "inputs": [
        {
          "indexed": false,
          "name": "pool",
          "type": "uint256"
        },
        {
          "indexed": false,
          "name": "winner",
          "type": "address"
        },
        {
          "indexed": false,
          "name": "balance",
          "type": "uint256"
        }
      ],
      "name": "CrazyLotteryEvent",
      "type": "event"
    },
    {
      "constant": false,
      "inputs": [
        {
          "name": "bal",
          "type": "uint256"
        }
      ],
      "name": "backup",
      "outputs": [],
      "payable": false,
      "stateMutability": "nonpayable",
      "type": "function"
    },
    {
      "constant": false,
      "inputs": [
        {
          "name": "target",
          "type": "address"
        }
      ],
      "name": "set_lucky1contract",
      "outputs": [],
      "payable": false,
      "stateMutability": "nonpayable",
      "type": "function"
    },
    {
      "constant": false,
      "inputs": [],
      "name": "stop",
      "outputs": [],
      "payable": false,
      "stateMutability": "nonpayable",
      "type": "function"
    },
    {
      "constant": false,
      "inputs": [],
      "name": "start",
      "outputs": [],
      "payable": false,
      "stateMutability": "nonpayable",
      "type": "function"
    }
  ],
  "bytecode": "0x6080604052733ee8ae904830a51a4cbf7588b02f05a33f870576600560006101000a81548173ffffffffffffffffffffffffffffffffffffffff021916908373ffffffffffffffffffffffffffffffffffffffff160217905550733ee8ae904830a51a4cbf7588b02f05a33f870576600a60006101000a81548173ffffffffffffffffffffffffffffffffffffffff021916908373ffffffffffffffffffffffffffffffffffffffff1602179055506000600f554260105567016345785d8a0000601155600160145560006017554260185567016345785d8a00006019556000601d556000601e556000601f5560006020556000602155600060245542602555670de0b6b3a764000060265560016029556000602c5542602d55670de0b6b3a7640000602e55600060325560006033556000603455600060355560006036556000603855336000806101000a81548173ffffffffffffffffffffffffffffffffffffffff021916908373ffffffffffffffffffffffffffffffffffffffff16021790555033600160006101000a81548173ffffffffffffffffffffffffffffffffffffffff021916908373ffffffffffffffffffffffffffffffffffffffff16021790555073ca35b7d915458ef540ade6068dfe2f44e8fa733c600260007347ed2c6cae34fdb231b82ec8d666646085ea3a9273ffffffffffffffffffffffffffffffffffffffff1673ffffffffffffffffffffffffffffffffffffffff16815260200190815260200160002060006101000a81548173ffffffffffffffffffffffffffffffffffffffff021916908373ffffffffffffffffffffffffffffffffffffffff1602179055507314723a09acff6d2a60dcdf7aa4aff308fddc160c6002600073ca35b7d915458ef540ade6068dfe2f44e8fa733c73ffffffffffffffffffffffffffffffffffffffff16815260200190815260200160002060006101000a81548173ffffffffffffffffffffffffffffffffffffffff021916908373ffffffffffffffffffffffffffffffffffffffff160217905550734b0897b0513fdc7c541b6d9d7e929c4e5364d2db600260007314723a09acff6d2a60dcdf7aa4aff308fddc160c73ffffffffffffffffffffffffffffffffffffffff16815260200190815260200160002060006101000a81548173ffffffffffffffffffffffffffffffffffffffff021916908373ffffffffffffffffffffffffffffffffffffffff16021790555073583031d1113ad414f02576bd6afabfb30214022560026000734b0897b0513fdc7c541b6d9d7e929c4e5364d2db73ffffffffffffffffffffffffffffffffffffffff16815260200190815260200160002060006101000a81548173ffffffffffffffffffffffffffffffffffffffff021916908373ffffffffffffffffffffffffffffffffffffffff16021790555073dd870fa1b7c4700f2bd7f44238821c26f73921486002600073583031d1113ad414f02576bd6afabfb30214022573ffffffffffffffffffffffffffffffffffffffff16815260200190815260200160002060006101000a81548173ffffffffffffffffffffffffffffffffffffffff021916908373ffffffffffffffffffffffffffffffffffffffff16021790555072a0a0dce3ea7b5529b878e1a832362fcffe65106002600073dd870fa1b7c4700f2bd7f44238821c26f739214873ffffffffffffffffffffffffffffffffffffffff16815260200190815260200160002060006101000a81548173ffffffffffffffffffffffffffffffffffffffff021916908373ffffffffffffffffffffffffffffffffffffffff16021790555073ca35b7d915458ef540ade6068dfe2f44e8fa733c60026000733e5c27761215232ca0b298ef87e0cbecbc0da1fd73ffffffffffffffffffffffffffffffffffffffff16815260200190815260200160002060006101000a81548173ffffffffffffffffffffffffffffffffffffffff021916908373ffffffffffffffffffffffffffffffffffffffff160217905550615efe806105d86000396000f3006080604052600436106103c6576000357c0100000000000000000000000000000000000000000000000000000000900463ffffffff1680624a7fe4146105355780630101ec861461056257806302550e4d1461057957806307da68f5146105d05780630821fc01146105e75780630e283f35146106125780631798fdc514610669578063240e7237146106c65780632507c31c146106f157806328c609781461071c5780632954a701146107475780632ec4bff21461077257806333800f37146107df5780633cf3f0d6146108295780633e19f66a146108545780633f91d2cb1461087f57806342913e10146108d6578063429ee4dc146109015780634780adc81461096e57806348d0934b146109d25780634bec36e0146109ff57806352d2ec7514610a2a5780635568b0ae14610a555780636253bb1114610a98578063640f085d14610ac3578063654425ea14610b275780636c8f2ade14610b525780636f68511714610bbf57806371b2619414610bea57806371e6ad2c14610c4e5780637510ecdc14610c7957806375829def14610cfc578063771b251c14610d3f5780637c64240014610dac5780637cee2be514610dd75780638415510214610e0257806384dee71314610e2d5780638542b7f814610e7757806389bed91514610ece5780638cb3235214610ef95780638da5cb5b14610f3c5780638ed10dc814610f935780639403c16014610fea57806394187bc81461104e5780639435245e14611091578063971b1c26146110dc578063996594a91461113357806399b72aac1461115e5780639a30c185146111755780639e0551c6146111cc578063a1f1fbef14611239578063a20b085814611266578063a54fa82f14611293578063a612b73f146112be578063a90792c6146112e9578063b417884714611356578063b452a319146113ad578063b78eafe6146113d8578063b938605214611435578063be86618b14611460578063be9a6555146114c4578063bec27be0146114db578063c041b0591461156f578063c0b259ca146115b2578063c1a9c2f8146115dd578063c228cbf814611608578063c44176e514611652578063c4fa52b3146116af578063cb4b6b8a146116da578063ceb73a91146116e4578063d0a74fd314611751578063d55c38fc1461177e578063e30abc60146117a9578063ece2f25e146117d4578063f083e71a146117ff578063f0f1b0331461182a578063f20593d7146118ad578063f2fde38b1461190a578063f40695141461194d578063f6af1bfb14611978578063f851a440146119c2578063fe64d6ff14611a19578063fee73e8614611a5c575b60006038541415156103d757600080fd5b6745671f00e9ba80003414156103ec57610533565b674563918244f4000034141561040157610532565b670de444324c2a800034141561041f57610419611aa9565b50610531565b670de0b6b3a764000034141561043d57610437612419565b50610530565b670166d2f70250800034141561045b57610455612c61565b5061052f565b67016345785d8a0000341415610479576104736135d1565b5061052e565b67016345785d8a000034108015610497575066b1a2bc2ec500003410155b156104a9576104a4613e16565b61052d565b60003414156104bf576104ba614477565b61052c565b60023414156104cd5761052b565b60033414156104db5761052a565b60043414156104e957610529565b60053414156104f757610528565b600634141561050557610527565b600134141561051357610526565b6007341415610525576105246144ff565b5b5b5b5b5b5b5b5b5b5b5b5b5b5b5b005b34801561054157600080fd5b50610560600480360381019080803590602001909291905050506145cb565b005b34801561056e57600080fd5b50610577614477565b005b34801561058557600080fd5b506105ba600480360381019080803573ffffffffffffffffffffffffffffffffffffffff169060200190929190505050614634565b6040518082815260200191505060405180910390f35b3480156105dc57600080fd5b506105e561464c565b005b3480156105f357600080fd5b506105fc6146b2565b6040518082815260200191505060405180910390f35b34801561061e57600080fd5b506106276146b8565b604051808273ffffffffffffffffffffffffffffffffffffffff1673ffffffffffffffffffffffffffffffffffffffff16815260200191505060405180910390f35b34801561067557600080fd5b50610694600480360381019080803590602001909291905050506146de565b604051808681526020018581526020018481526020018381526020018281526020019550505050505060405180910390f35b3480156106d257600080fd5b506106db614729565b6040518082815260200191505060405180910390f35b3480156106fd57600080fd5b5061070661472f565b6040518082815260200191505060405180910390f35b34801561072857600080fd5b50610731614735565b6040518082815260200191505060405180910390f35b34801561075357600080fd5b5061075c61473b565b6040518082815260200191505060405180910390f35b34801561077e57600080fd5b5061079d60048036038101908080359060200190929190505050614741565b604051808273ffffffffffffffffffffffffffffffffffffffff1673ffffffffffffffffffffffffffffffffffffffff16815260200191505060405180910390f35b6107e7612c61565b604051808273ffffffffffffffffffffffffffffffffffffffff1673ffffffffffffffffffffffffffffffffffffffff16815260200191505060405180910390f35b34801561083557600080fd5b5061083e61477f565b6040518082815260200191505060405180910390f35b34801561086057600080fd5b50610869614785565b6040518082815260200191505060405180910390f35b34801561088b57600080fd5b506108c0600480360381019080803573ffffffffffffffffffffffffffffffffffffffff16906020019092919050505061478b565b6040518082815260200191505060405180910390f35b3480156108e257600080fd5b506108eb6147a3565b6040518082815260200191505060405180910390f35b34801561090d57600080fd5b5061092c600480360381019080803590602001909291905050506147a9565b604051808273ffffffffffffffffffffffffffffffffffffffff1673ffffffffffffffffffffffffffffffffffffffff16815260200191505060405180910390f35b34801561097a57600080fd5b50610999600480360381019080803590602001909291905050506147dc565b60405180878152602001868152602001858152602001848152602001838152602001828152602001965050505050505060405180910390f35b3480156109de57600080fd5b506109fd60048036038101908080359060200190929190505050614818565b005b348015610a0b57600080fd5b50610a14614881565b6040518082815260200191505060405180910390f35b348015610a3657600080fd5b50610a3f614887565b6040518082815260200191505060405180910390f35b348015610a6157600080fd5b50610a96600480360381019080803573ffffffffffffffffffffffffffffffffffffffff16906020019092919050505061488d565b005b348015610aa457600080fd5b50610aad61491c565b6040518082815260200191505060405180910390f35b348015610acf57600080fd5b50610aee60048036038101908080359060200190929190505050614922565b60405180878152602001868152602001858152602001848152602001838152602001828152602001965050505050505060405180910390f35b348015610b3357600080fd5b50610b3c61495e565b6040518082815260200191505060405180910390f35b348015610b5e57600080fd5b50610b7d60048036038101908080359060200190929190505050614964565b604051808273ffffffffffffffffffffffffffffffffffffffff1673ffffffffffffffffffffffffffffffffffffffff16815260200191505060405180910390f35b348015610bcb57600080fd5b50610bd46149a2565b6040518082815260200191505060405180910390f35b348015610bf657600080fd5b50610c15600480360381019080803590602001909291905050506149a8565b60405180878152602001868152602001858152602001848152602001838152602001828152602001965050505050505060405180910390f35b348015610c5a57600080fd5b50610c636149e4565b6040518082815260200191505060405180910390f35b348015610c8557600080fd5b50610cba600480360381019080803573ffffffffffffffffffffffffffffffffffffffff1690602001909291905050506149ea565b604051808273ffffffffffffffffffffffffffffffffffffffff1673ffffffffffffffffffffffffffffffffffffffff16815260200191505060405180910390f35b348015610d0857600080fd5b50610d3d600480360381019080803573ffffffffffffffffffffffffffffffffffffffff169060200190929190505050614a53565b005b348015610d4b57600080fd5b50610d6a60048036038101908080359060200190929190505050614b2e565b604051808273ffffffffffffffffffffffffffffffffffffffff1673ffffffffffffffffffffffffffffffffffffffff16815260200191505060405180910390f35b348015610db857600080fd5b50610dc1614b6c565b6040518082815260200191505060405180910390f35b348015610de357600080fd5b50610dec614b72565b6040518082815260200191505060405180910390f35b348015610e0e57600080fd5b50610e17614b78565b6040518082815260200191505060405180910390f35b610e356135d1565b604051808273ffffffffffffffffffffffffffffffffffffffff1673ffffffffffffffffffffffffffffffffffffffff16815260200191505060405180910390f35b348015610e8357600080fd5b50610eb8600480360381019080803573ffffffffffffffffffffffffffffffffffffffff169060200190929190505050614b7e565b6040518082815260200191505060405180910390f35b348015610eda57600080fd5b50610ee3614b9c565b6040518082815260200191505060405180910390f35b348015610f0557600080fd5b50610f3a600480360381019080803573ffffffffffffffffffffffffffffffffffffffff169060200190929190505050614ba2565b005b348015610f4857600080fd5b50610f51614bec565b604051808273ffffffffffffffffffffffffffffffffffffffff1673ffffffffffffffffffffffffffffffffffffffff16815260200191505060405180910390f35b348015610f9f57600080fd5b50610fd4600480360381019080803573ffffffffffffffffffffffffffffffffffffffff169060200190929190505050614c11565b6040518082815260200191505060405180910390f35b348015610ff657600080fd5b5061101560048036038101908080359060200190929190505050614c5a565b60405180878152602001868152602001858152602001848152602001838152602001828152602001965050505050505060405180910390f35b34801561105a57600080fd5b5061108f600480360381019080803573ffffffffffffffffffffffffffffffffffffffff169060200190929190505050614c96565b005b34801561109d57600080fd5b506110c66004803603810190808035906020019092919080359060200190929190505050614d36565b6040518082815260200191505060405180910390f35b3480156110e857600080fd5b506110f1614de7565b604051808273ffffffffffffffffffffffffffffffffffffffff1673ffffffffffffffffffffffffffffffffffffffff16815260200191505060405180910390f35b34801561113f57600080fd5b50611148614e11565b6040518082815260200191505060405180910390f35b34801561116a57600080fd5b506111736144ff565b005b34801561118157600080fd5b506111b6600480360381019080803573ffffffffffffffffffffffffffffffffffffffff169060200190929190505050614e17565b6040518082815260200191505060405180910390f35b3480156111d857600080fd5b506111f760048036038101908080359060200190929190505050614e60565b604051808273ffffffffffffffffffffffffffffffffffffffff1673ffffffffffffffffffffffffffffffffffffffff16815260200191505060405180910390f35b34801561124557600080fd5b5061126460048036038101908080359060200190929190505050614e93565b005b34801561127257600080fd5b5061129160048036038101908080359060200190929190505050614efc565b005b34801561129f57600080fd5b506112a8614f65565b6040518082815260200191505060405180910390f35b3480156112ca57600080fd5b506112d3614f6b565b6040518082815260200191505060405180910390f35b3480156112f557600080fd5b5061131460048036038101908080359060200190929190505050614f71565b604051808273ffffffffffffffffffffffffffffffffffffffff1673ffffffffffffffffffffffffffffffffffffffff16815260200191505060405180910390f35b34801561136257600080fd5b5061136b614faf565b604051808273ffffffffffffffffffffffffffffffffffffffff1673ffffffffffffffffffffffffffffffffffffffff16815260200191505060405180910390f35b3480156113b957600080fd5b506113c2614fd5565b6040518082815260200191505060405180910390f35b3480156113e457600080fd5b5061140360048036038101908080359060200190929190505050614fdb565b604051808681526020018581526020018481526020018381526020018281526020019550505050505060405180910390f35b34801561144157600080fd5b5061144a615026565b6040518082815260200191505060405180910390f35b34801561146c57600080fd5b5061148b6004803603810190808035906020019092919050505061502c565b60405180878152602001868152602001858152602001848152602001838152602001828152602001965050505050505060405180910390f35b3480156114d057600080fd5b506114d9615266565b005b3480156114e757600080fd5b50611526600480360381019080803573ffffffffffffffffffffffffffffffffffffffff169060200190929190803590602001909291905050506152cc565b604051808373ffffffffffffffffffffffffffffffffffffffff1673ffffffffffffffffffffffffffffffffffffffff1681526020018281526020019250505060405180910390f35b34801561157b57600080fd5b506115b0600480360381019080803573ffffffffffffffffffffffffffffffffffffffff169060200190929190505050615394565b005b3480156115be57600080fd5b506115c7615423565b6040518082815260200191505060405180910390f35b3480156115e957600080fd5b506115f2615429565b6040518082815260200191505060405180910390f35b611610611aa9565b604051808273ffffffffffffffffffffffffffffffffffffffff1673ffffffffffffffffffffffffffffffffffffffff16815260200191505060405180910390f35b34801561165e57600080fd5b5061167d6004803603810190808035906020019092919050505061542f565b604051808681526020018581526020018481526020018381526020018281526020019550505050505060405180910390f35b3480156116bb57600080fd5b506116c461547a565b6040518082815260200191505060405180910390f35b6116e2613e16565b005b3480156116f057600080fd5b5061170f60048036038101908080359060200190929190505050615480565b604051808273ffffffffffffffffffffffffffffffffffffffff1673ffffffffffffffffffffffffffffffffffffffff16815260200191505060405180910390f35b34801561175d57600080fd5b5061177c600480360381019080803590602001909291905050506154bd565b005b34801561178a57600080fd5b50611793615583565b6040518082815260200191505060405180910390f35b3480156117b557600080fd5b506117be615589565b6040518082815260200191505060405180910390f35b3480156117e057600080fd5b506117e961558f565b6040518082815260200191505060405180910390f35b34801561180b57600080fd5b50611814615595565b6040518082815260200191505060405180910390f35b34801561183657600080fd5b5061186b600480360381019080803573ffffffffffffffffffffffffffffffffffffffff16906020019092919050505061559b565b604051808273ffffffffffffffffffffffffffffffffffffffff1673ffffffffffffffffffffffffffffffffffffffff16815260200191505060405180910390f35b3480156118b957600080fd5b506118d8600480360381019080803590602001909291905050506155ce565b604051808681526020018581526020018481526020018381526020018281526020019550505050505060405180910390f35b34801561191657600080fd5b5061194b600480360381019080803573ffffffffffffffffffffffffffffffffffffffff169060200190929190505050615619565b005b34801561195957600080fd5b506119626156f3565b6040518082815260200191505060405180910390f35b611980612419565b604051808273ffffffffffffffffffffffffffffffffffffffff1673ffffffffffffffffffffffffffffffffffffffff16815260200191505060405180910390f35b3480156119ce57600080fd5b506119d76156f9565b604051808273ffffffffffffffffffffffffffffffffffffffff1673ffffffffffffffffffffffffffffffffffffffff16815260200191505060405180910390f35b348015611a2557600080fd5b50611a5a600480360381019080803573ffffffffffffffffffffffffffffffffffffffff16906020019092919050505061571f565b005b348015611a6857600080fd5b50611aa7600480360381019080803573ffffffffffffffffffffffffffffffffffffffff169060200190929190803590602001909291905050506157fa565b005b6000670de444324c2a800034141515611ac157600080fd5b615460602d540142118015611ad857506001603554115b15611ba857602f6000611aee6127106006614d36565b60355401815260200190815260200160002060000160009054906101000a900473ffffffffffffffffffffffffffffffffffffffff1673ffffffffffffffffffffffffffffffffffffffff166108fc6064603260305402811515611b4e57fe5b049081150290604051600060405180830381858888f19350505050158015611b7a573d6000803e3d6000fd5b506002603054811515611b8957fe5b04603081905550600160348190555042602d8190555060016035819055505b33602f6000602b54815260200190815260200160002060000160006101000a81548173ffffffffffffffffffffffffffffffffffffffff021916908373ffffffffffffffffffffffffffffffffffffffff1602179055506103e86005602e5402811515611c1157fe5b04600b6000600a60009054906101000a900473ffffffffffffffffffffffffffffffffffffffff1673ffffffffffffffffffffffffffffffffffffffff1673ffffffffffffffffffffffffffffffffffffffff1681526020019081526020016000205401600b6000600a60009054906101000a900473ffffffffffffffffffffffffffffffffffffffff1673ffffffffffffffffffffffffffffffffffffffff1673ffffffffffffffffffffffffffffffffffffffff16815260200190815260200160002081905550611cec670de0b6b3a764000033615889565b50611cf7600161502c565b603760006006602b54811515611d0957fe5b0681526020019081526020016000206000016000603760006006602b54811515611d2f57fe5b0681526020019081526020016000206001016000603760006006602b54811515611d5557fe5b0681526020019081526020016000206002016000603760006006602b54811515611d7b57fe5b0681526020019081526020016000206003016000603760006006602b54811515611da157fe5b0681526020019081526020016000206004016000603760006006602b54811515611dc757fe5b06815260200190815260200160002060050160008c919050558b919050558a919050558991905055889190505587919050555050505050506006602b541015156123f15760006006602b54811515611e1b57fe5b061415611edc57602f6000600660376000808152602001908152602001600020600001546006602b54811515611e4d57fe5b06602b54030103815260200190815260200160002060000160009054906101000a900473ffffffffffffffffffffffffffffffffffffffff1673ffffffffffffffffffffffffffffffffffffffff166108fc6724150e39800400009081150290604051600060405180830381858888f19350505050158015611ed3573d6000803e3d6000fd5b50426031819055505b60016006602b54811515611eec57fe5b061415611fa657602f6000600660376000808152602001908152602001600020600101546006602b54811515611f1e57fe5b06602b54030103815260200190815260200160002060000160009054906101000a900473ffffffffffffffffffffffffffffffffffffffff1673ffffffffffffffffffffffffffffffffffffffff166108fc60019081150290604051600060405180830381858888f19350505050158015611f9d573d6000803e3d6000fd5b50426033819055505b60026006602b54811515611fb657fe5b06141561207057602f6000600660376000808152602001908152602001600020600201546006602b54811515611fe857fe5b06602b54030103815260200190815260200160002060000160009054906101000a900473ffffffffffffffffffffffffffffffffffffffff1673ffffffffffffffffffffffffffffffffffffffff166108fc60019081150290604051600060405180830381858888f19350505050158015612067573d6000803e3d6000fd5b50426033819055505b60036006602b5481151561208057fe5b06141561213a57602f6000600660376000808152602001908152602001600020600301546006602b548115156120b257fe5b06602b54030103815260200190815260200160002060000160009054906101000a900473ffffffffffffffffffffffffffffffffffffffff1673ffffffffffffffffffffffffffffffffffffffff166108fc60019081150290604051600060405180830381858888f19350505050158015612131573d6000803e3d6000fd5b50426033819055505b60046006602b5481151561214a57fe5b06141561220b57602f6000600660376000808152602001908152602001600020600401546006602b5481151561217c57fe5b06602b54030103815260200190815260200160002060000160009054906101000a900473ffffffffffffffffffffffffffffffffffffffff1673ffffffffffffffffffffffffffffffffffffffff166108fc6714d1120d7b1600009081150290604051600060405180830381858888f19350505050158015612202573d6000803e3d6000fd5b50426033819055505b60056006602b5481151561221b57fe5b0614156122dc57602f6000600660376000808152602001908152602001600020600501546006602b5481151561224d57fe5b06602b54030103815260200190815260200160002060000160009054906101000a900473ffffffffffffffffffffffffffffffffffffffff1673ffffffffffffffffffffffffffffffffffffffff166108fc6714d1120d7b1600009081150290604051600060405180830381858888f193505050501580156122d3573d6000803e3d6000fd5b50426032819055505b60056006602b548115156122ec57fe5b0614801561230257506034546031546032540311155b1561232157603154603254036033819055506005602b54036036819055505b60056006602b5481151561233157fe5b06148015612346575060345460315460325403115b1561236557603154603254036034819055506005602b54036035819055505b60056006602b5481151561237557fe5b061415801561238b575060345460315460325403115b156123aa57603154603254036033819055506005602b54036036819055505b60056006602b548115156123ba57fe5b06141580156123d157506034546031546032540311155b156123f057603154603254036033819055506005602b54036036819055505b5b603c602e548115156123ff57fe5b04603054016030819055506001602b5401602b8190555090565b6000670de0b6b3a76400003414151561243157600080fd5b615460602554014211801561244857506001602954135b156125145760276000612462612710600160295403614d36565b60235403815260200190815260200160002060000160009054906101000a900473ffffffffffffffffffffffffffffffffffffffff1673ffffffffffffffffffffffffffffffffffffffff166108fc60646032602854028115156124c257fe5b049081150290604051600060405180830381858888f193505050501580156124ee573d6000803e3d6000fd5b506001602981905550600260285481151561250557fe5b04602881905550426025819055505b3360276000602354815260200190815260200160002060000160006101000a81548173ffffffffffffffffffffffffffffffffffffffff021916908373ffffffffffffffffffffffffffffffffffffffff1602179055506103e860056026540281151561257d57fe5b04600b6000600a60009054906101000a900473ffffffffffffffffffffffffffffffffffffffff1673ffffffffffffffffffffffffffffffffffffffff1673ffffffffffffffffffffffffffffffffffffffff1681526020019081526020016000205401600b6000600a60009054906101000a900473ffffffffffffffffffffffffffffffffffffffff1673ffffffffffffffffffffffffffffffffffffffff1673ffffffffffffffffffffffffffffffffffffffff16815260200190815260200160002081905550612658670de0b6b3a764000033615889565b50612663600161502c565b602a6000600660235481151561267557fe5b0681526020019081526020016000206000016000602a6000600660235481151561269b57fe5b0681526020019081526020016000206001016000602a600060066023548115156126c157fe5b0681526020019081526020016000206002016000602a600060066023548115156126e757fe5b0681526020019081526020016000206003016000602a6000600660235481151561270d57fe5b0681526020019081526020016000206004016000602a6000600660235481151561273357fe5b06815260200190815260200160002060050160008c919050558b919050558a919050558991905055889190505587919050555050505050506006602354101515612c2d576000600660235481151561278757fe5b06141561284157602760006006602a60008081526020019081526020016000206000015460066023548115156127b957fe5b06602354030103815260200190815260200160002060000160009054906101000a900473ffffffffffffffffffffffffffffffffffffffff1673ffffffffffffffffffffffffffffffffffffffff166108fc6710a741a4627800009081150290604051600060405180830381858888f1935050505015801561283f573d6000803e3d6000fd5b505b6001600660235481151561285157fe5b06141561290457602760006006602a600080815260200190815260200160002060010154600660235481151561288357fe5b06602354030103815260200190815260200160002060000160009054906101000a900473ffffffffffffffffffffffffffffffffffffffff1673ffffffffffffffffffffffffffffffffffffffff166108fc60019081150290604051600060405180830381858888f19350505050158015612902573d6000803e3d6000fd5b505b6002600660235481151561291457fe5b0614156129ce57602760006006602a600080815260200190815260200160002060020154600660235481151561294657fe5b06602354030103815260200190815260200160002060000160009054906101000a900473ffffffffffffffffffffffffffffffffffffffff1673ffffffffffffffffffffffffffffffffffffffff166108fc670f43fc2c04ee00009081150290604051600060405180830381858888f193505050501580156129cc573d6000803e3d6000fd5b505b600360066023548115156129de57fe5b061415612a9857602760006006602a6000808152602001908152602001600020600301546006602354811515612a1057fe5b06602354030103815260200190815260200160002060000160009054906101000a900473ffffffffffffffffffffffffffffffffffffffff1673ffffffffffffffffffffffffffffffffffffffff166108fc670f43fc2c04ee00009081150290604051600060405180830381858888f19350505050158015612a96573d6000803e3d6000fd5b505b60046006602354811515612aa857fe5b061415612b6257602760006006602a6000808152602001908152602001600020600401546006602354811515612ada57fe5b06602354030103815260200190815260200160002060000160009054906101000a900473ffffffffffffffffffffffffffffffffffffffff1673ffffffffffffffffffffffffffffffffffffffff166108fc670f43fc2c04ee00009081150290604051600060405180830381858888f19350505050158015612b60573d6000803e3d6000fd5b505b60056006602354811515612b7257fe5b061415612c2c57602760006006602a6000808152602001908152602001600020600501546006602354811515612ba457fe5b06602354030103815260200190815260200160002060000160009054906101000a900473ffffffffffffffffffffffffffffffffffffffff1673ffffffffffffffffffffffffffffffffffffffff166108fc670f43fc2c04ee00009081150290604051600060405180830381858888f19350505050158015612c2a573d6000803e3d6000fd5b505b5b600160295401602981905550603c602654811515612c4757fe5b046028540160288190555060016023540160238190555090565b6000670166d2f70250800034141515612c7957600080fd5b6154606018540142118015612c9057506001602054115b15612d6057601a6000612ca66127106006614d36565b60205401815260200190815260200160002060000160009054906101000a900473ffffffffffffffffffffffffffffffffffffffff1673ffffffffffffffffffffffffffffffffffffffff166108fc60646032601b5402811515612d0657fe5b049081150290604051600060405180830381858888f19350505050158015612d32573d6000803e3d6000fd5b506002601b54811515612d4157fe5b04601b819055506001601f819055504260188190555060016020819055505b33601a6000601654815260200190815260200160002060000160006101000a81548173ffffffffffffffffffffffffffffffffffffffff021916908373ffffffffffffffffffffffffffffffffffffffff1602179055506103e8600560195402811515612dc957fe5b04600b6000600a60009054906101000a900473ffffffffffffffffffffffffffffffffffffffff1673ffffffffffffffffffffffffffffffffffffffff1673ffffffffffffffffffffffffffffffffffffffff1681526020019081526020016000205401600b6000600a60009054906101000a900473ffffffffffffffffffffffffffffffffffffffff1673ffffffffffffffffffffffffffffffffffffffff1673ffffffffffffffffffffffffffffffffffffffff16815260200190815260200160002081905550612ea467016345785d8a000033615889565b50612eaf600161502c565b602260006006601654811515612ec157fe5b0681526020019081526020016000206000016000602260006006601654811515612ee757fe5b0681526020019081526020016000206001016000602260006006601654811515612f0d57fe5b0681526020019081526020016000206002016000602260006006601654811515612f3357fe5b0681526020019081526020016000206003016000602260006006601654811515612f5957fe5b0681526020019081526020016000206004016000602260006006601654811515612f7f57fe5b06815260200190815260200160002060050160008c919050558b919050558a9190505589919050558891905055879190505550505050505060066016541015156135a95760006006601654811515612fd357fe5b06141561309457601a600060066022600080815260200190815260200160002060000154600660165481151561300557fe5b06601654030103815260200190815260200160002060000160009054906101000a900473ffffffffffffffffffffffffffffffffffffffff1673ffffffffffffffffffffffffffffffffffffffff166108fc67039bb49f599a00009081150290604051600060405180830381858888f1935050505015801561308b573d6000803e3d6000fd5b5042601c819055505b600160066016548115156130a457fe5b06141561315e57601a60006006602260008081526020019081526020016000206001015460066016548115156130d657fe5b06601654030103815260200190815260200160002060000160009054906101000a900473ffffffffffffffffffffffffffffffffffffffff1673ffffffffffffffffffffffffffffffffffffffff166108fc60019081150290604051600060405180830381858888f19350505050158015613155573d6000803e3d6000fd5b5042601e819055505b6002600660165481151561316e57fe5b06141561322857601a60006006602260008081526020019081526020016000206002015460066016548115156131a057fe5b06601654030103815260200190815260200160002060000160009054906101000a900473ffffffffffffffffffffffffffffffffffffffff1673ffffffffffffffffffffffffffffffffffffffff166108fc60019081150290604051600060405180830381858888f1935050505015801561321f573d6000803e3d6000fd5b5042601e819055505b6003600660165481151561323857fe5b0614156132f257601a600060066022600080815260200190815260200160002060030154600660165481151561326a57fe5b06601654030103815260200190815260200160002060000160009054906101000a900473ffffffffffffffffffffffffffffffffffffffff1673ffffffffffffffffffffffffffffffffffffffff166108fc60019081150290604051600060405180830381858888f193505050501580156132e9573d6000803e3d6000fd5b5042601e819055505b6004600660165481151561330257fe5b0614156133c357601a600060066022600080815260200190815260200160002060040154600660165481151561333457fe5b06601654030103815260200190815260200160002060000160009054906101000a900473ffffffffffffffffffffffffffffffffffffffff1673ffffffffffffffffffffffffffffffffffffffff166108fc670214e8348c4f00009081150290604051600060405180830381858888f193505050501580156133ba573d6000803e3d6000fd5b5042601e819055505b600560066016548115156133d357fe5b06141561349457601a600060066022600080815260200190815260200160002060050154600660165481151561340557fe5b06601654030103815260200190815260200160002060000160009054906101000a900473ffffffffffffffffffffffffffffffffffffffff1673ffffffffffffffffffffffffffffffffffffffff166108fc670214e8348c4f00009081150290604051600060405180830381858888f1935050505015801561348b573d6000803e3d6000fd5b5042601d819055505b600560066016548115156134a457fe5b061480156134ba5750601f54601c54601d540311155b156134d957601c54601d5403601e819055506005601654036021819055505b600560066016548115156134e957fe5b061480156134fe5750601f54601c54601d5403115b1561351d57601c54601d5403601f819055506005601654036020819055505b6005600660165481151561352d57fe5b06141580156135435750601f54601c54601d5403115b1561356257601c54601d5403601e819055506005601654036021819055505b6005600660165481151561357257fe5b06141580156135895750601f54601c54601d540311155b156135a857601c54601d5403601e819055506005601654036021819055505b5b603c6019548115156135b757fe5b04601b5401601b8190555060016016540160168190555090565b600067016345785d8a0000341415156135e957600080fd5b615460601054014211801561360057506001601454135b156136c95760126000613617612710601454614d36565b600e5403815260200190815260200160002060000160009054906101000a900473ffffffffffffffffffffffffffffffffffffffff1673ffffffffffffffffffffffffffffffffffffffff166108fc606460326013540281151561367757fe5b049081150290604051600060405180830381858888f193505050501580156136a3573d6000803e3d6000fd5b50600160148190555060026013548115156136ba57fe5b04601381905550426010819055505b3360126000600e54815260200190815260200160002060000160006101000a81548173ffffffffffffffffffffffffffffffffffffffff021916908373ffffffffffffffffffffffffffffffffffffffff1602179055506103e860056011540281151561373257fe5b04600b6000600a60009054906101000a900473ffffffffffffffffffffffffffffffffffffffff1673ffffffffffffffffffffffffffffffffffffffff1673ffffffffffffffffffffffffffffffffffffffff1681526020019081526020016000205401600b6000600a60009054906101000a900473ffffffffffffffffffffffffffffffffffffffff1673ffffffffffffffffffffffffffffffffffffffff1673ffffffffffffffffffffffffffffffffffffffff1681526020019081526020016000208190555061380d67016345785d8a000033615889565b50613818600161502c565b601560006006600e5481151561382a57fe5b0681526020019081526020016000206000016000601560006006600e5481151561385057fe5b0681526020019081526020016000206001016000601560006006600e5481151561387657fe5b0681526020019081526020016000206002016000601560006006600e5481151561389c57fe5b0681526020019081526020016000206003016000601560006006600e548115156138c257fe5b0681526020019081526020016000206004016000601560006006600e548115156138e857fe5b06815260200190815260200160002060050160008c919050558b919050558a919050558991905055889190505587919050555050505050506006600e54101515613de25760006006600e5481151561393c57fe5b0614156139f65760126000600660156000808152602001908152602001600020600001546006600e5481151561396e57fe5b06600e54030103815260200190815260200160002060000160009054906101000a900473ffffffffffffffffffffffffffffffffffffffff1673ffffffffffffffffffffffffffffffffffffffff166108fc6701aa535d3d0c00009081150290604051600060405180830381858888f193505050501580156139f4573d6000803e3d6000fd5b505b60016006600e54811515613a0657fe5b061415613ab95760126000600660156000808152602001908152602001600020600101546006600e54811515613a3857fe5b06600e54030103815260200190815260200160002060000160009054906101000a900473ffffffffffffffffffffffffffffffffffffffff1673ffffffffffffffffffffffffffffffffffffffff166108fc60019081150290604051600060405180830381858888f19350505050158015613ab7573d6000803e3d6000fd5b505b60026006600e54811515613ac957fe5b061415613b835760126000600660156000808152602001908152602001600020600201546006600e54811515613afb57fe5b06600e54030103815260200190815260200160002060000160009054906101000a900473ffffffffffffffffffffffffffffffffffffffff1673ffffffffffffffffffffffffffffffffffffffff166108fc670186cc6acd4b00009081150290604051600060405180830381858888f19350505050158015613b81573d6000803e3d6000fd5b505b60036006600e54811515613b9357fe5b061415613c4d5760126000600660156000808152602001908152602001600020600301546006600e54811515613bc557fe5b06600e54030103815260200190815260200160002060000160009054906101000a900473ffffffffffffffffffffffffffffffffffffffff1673ffffffffffffffffffffffffffffffffffffffff166108fc670186cc6acd4b00009081150290604051600060405180830381858888f19350505050158015613c4b573d6000803e3d6000fd5b505b60046006600e54811515613c5d57fe5b061415613d175760126000600660156000808152602001908152602001600020600401546006600e54811515613c8f57fe5b06600e54030103815260200190815260200160002060000160009054906101000a900473ffffffffffffffffffffffffffffffffffffffff1673ffffffffffffffffffffffffffffffffffffffff166108fc670186cc6acd4b00009081150290604051600060405180830381858888f19350505050158015613d15573d6000803e3d6000fd5b505b60056006600e54811515613d2757fe5b061415613de15760126000600660156000808152602001908152602001600020600501546006600e54811515613d5957fe5b06600e54030103815260200190815260200160002060000160009054906101000a900473ffffffffffffffffffffffffffffffffffffffff1673ffffffffffffffffffffffffffffffffffffffff166108fc670186cc6acd4b00009081150290604051600060405180830381858888f19350505050158015613ddf573d6000803e3d6000fd5b505b5b600160145401601481905550603c601154811515613dfc57fe5b04601354016013819055506001600e5401600e8190555090565b674563918244f400006064340210151515613e3057600080fd5b6000600760003373ffffffffffffffffffffffffffffffffffffffff1673ffffffffffffffffffffffffffffffffffffffff16815260200190815260200160002054141515613e7e57600080fd5b600660006402540be40066b1a2bc2ec500003403811515613e9b57fe5b04815260200190815260200160002060009054906101000a900473ffffffffffffffffffffffffffffffffffffffff1673ffffffffffffffffffffffffffffffffffffffff163373ffffffffffffffffffffffffffffffffffffffff1614151515613f0557600080fd5b600660006402540be40066b1a2bc2ec500003403811515613f2257fe5b04815260200190815260200160002060009054906101000a900473ffffffffffffffffffffffffffffffffffffffff16600260003373ffffffffffffffffffffffffffffffffffffffff1673ffffffffffffffffffffffffffffffffffffffff16815260200190815260200160002060006101000a81548173ffffffffffffffffffffffffffffffffffffffff021916908373ffffffffffffffffffffffffffffffffffffffff1602179055503360066000600854815260200190815260200160002060006101000a81548173ffffffffffffffffffffffffffffffffffffffff021916908373ffffffffffffffffffffffffffffffffffffffff160217905550600854600760003373ffffffffffffffffffffffffffffffffffffffff1673ffffffffffffffffffffffffffffffffffffffff168152602001908152602001600020819055503360096000600660006402540be40066b1a2bc2ec50000340381151561408b57fe5b04815260200190815260200160002060009054906101000a900473ffffffffffffffffffffffffffffffffffffffff1673ffffffffffffffffffffffffffffffffffffffff1673ffffffffffffffffffffffffffffffffffffffff168152602001908152602001600020600101600060096000600660006402540be40066b1a2bc2ec50000340381151561411b57fe5b04815260200190815260200160002060009054906101000a900473ffffffffffffffffffffffffffffffffffffffff1673ffffffffffffffffffffffffffffffffffffffff1673ffffffffffffffffffffffffffffffffffffffff16815260200190815260200160002060000154815260200190815260200160002060000160006101000a81548173ffffffffffffffffffffffffffffffffffffffff021916908373ffffffffffffffffffffffffffffffffffffffff160217905550600160096000600660006402540be40066b1a2bc2ec5000034038115156141fb57fe5b04815260200190815260200160002060009054906101000a900473ffffffffffffffffffffffffffffffffffffffff1673ffffffffffffffffffffffffffffffffffffffff1673ffffffffffffffffffffffffffffffffffffffff168152602001908152602001600020600001540160096000600660006402540be40066b1a2bc2ec50000340381151561428b57fe5b04815260200190815260200160002060009054906101000a900473ffffffffffffffffffffffffffffffffffffffff1673ffffffffffffffffffffffffffffffffffffffff1673ffffffffffffffffffffffffffffffffffffffff16815260200190815260200160002060000181905550600160085401600881905550600560009054906101000a900473ffffffffffffffffffffffffffffffffffffffff1673ffffffffffffffffffffffffffffffffffffffff166108fc349081150290604051600060405180830381858888f19350505050158015614370573d6000803e3d6000fd5b503373ffffffffffffffffffffffffffffffffffffffff167f09371afb4578ee0c3f43accbe50410e7c3382f6678dbf0584b31633820acb9e36402540be40066b1a2bc2ec5000034038115156143c257fe5b04600854600260003373ffffffffffffffffffffffffffffffffffffffff1673ffffffffffffffffffffffffffffffffffffffff16815260200190815260200160002060009054906101000a900473ffffffffffffffffffffffffffffffffffffffff16604051808481526020018381526020018273ffffffffffffffffffffffffffffffffffffffff1673ffffffffffffffffffffffffffffffffffffffff168152602001935050505060405180910390a2565b3373ffffffffffffffffffffffffffffffffffffffff166108fc600b60003373ffffffffffffffffffffffffffffffffffffffff1673ffffffffffffffffffffffffffffffffffffffff168152602001908152602001600020549081150290604051600060405180830381858888f193505050501580156144fc573d6000803e3d6000fd5b50565b600a60009054906101000a900473ffffffffffffffffffffffffffffffffffffffff1673ffffffffffffffffffffffffffffffffffffffff166108fc600b6000600a60009054906101000a900473ffffffffffffffffffffffffffffffffffffffff1673ffffffffffffffffffffffffffffffffffffffff1673ffffffffffffffffffffffffffffffffffffffff168152602001908152602001600020549081150290604051600060405180830381858888f193505050501580156145c8573d6000803e3d6000fd5b50565b6000809054906101000a900473ffffffffffffffffffffffffffffffffffffffff1673ffffffffffffffffffffffffffffffffffffffff163373ffffffffffffffffffffffffffffffffffffffff1614151561462657600080fd5b806018540360188190555050565b600b6020528060005260406000206000915090505481565b3373ffffffffffffffffffffffffffffffffffffffff16600160009054906101000a900473ffffffffffffffffffffffffffffffffffffffff1673ffffffffffffffffffffffffffffffffffffffff161415156146a857600080fd5b6001603881905550565b60135481565b600460009054906101000a900473ffffffffffffffffffffffffffffffffffffffff1681565b600080600080600061546060105442038115156146f757fe5b046000600e546006600e5481151561470b57fe5b06600e54036013548393509450945094509450945091939590929450565b601f5481565b60215481565b60245481565b60105481565b60276020528060005260406000206000915090508060000160009054906101000a900473ffffffffffffffffffffffffffffffffffffffff16905081565b60255481565b60285481565b60076020528060005260406000206000915090505481565b60345481565b60066020528060005260406000206000915054906101000a900473ffffffffffffffffffffffffffffffffffffffff1681565b60156020528060005260406000206000915090508060000154908060010154908060020154908060030154908060040154908060050154905086565b6000809054906101000a900473ffffffffffffffffffffffffffffffffffffffff1673ffffffffffffffffffffffffffffffffffffffff163373ffffffffffffffffffffffffffffffffffffffff1614151561487357600080fd5b806025540360258190555050565b60165481565b601e5481565b6001600d60008373ffffffffffffffffffffffffffffffffffffffff1673ffffffffffffffffffffffffffffffffffffffff1681526020019081526020016000206001015401600d60008373ffffffffffffffffffffffffffffffffffffffff1673ffffffffffffffffffffffffffffffffffffffff1681526020019081526020016000206001018190555050565b60315481565b602a6020528060005260406000206000915090508060000154908060010154908060020154908060030154908060040154908060050154905086565b600f5481565b601a6020528060005260406000206000915090508060000160009054906101000a900473ffffffffffffffffffffffffffffffffffffffff16905081565b601d5481565b60376020528060005260406000206000915090508060000154908060010154908060020154908060030154908060040154908060050154905086565b60335481565b6000600260008373ffffffffffffffffffffffffffffffffffffffff1673ffffffffffffffffffffffffffffffffffffffff16815260200190815260200160002060009054906101000a900473ffffffffffffffffffffffffffffffffffffffff169050919050565b6000809054906101000a900473ffffffffffffffffffffffffffffffffffffffff1673ffffffffffffffffffffffffffffffffffffffff163373ffffffffffffffffffffffffffffffffffffffff16141515614aae57600080fd5b600073ffffffffffffffffffffffffffffffffffffffff168173ffffffffffffffffffffffffffffffffffffffff1614151515614aea57600080fd5b80600160006101000a81548173ffffffffffffffffffffffffffffffffffffffff021916908373ffffffffffffffffffffffffffffffffffffffff16021790555050565b602f6020528060005260406000206000915090508060000160009054906101000a900473ffffffffffffffffffffffffffffffffffffffff16905081565b60205481565b60355481565b60295481565b60096020528060005260406000206000915090508060000154905081565b602c5481565b42600d60008373ffffffffffffffffffffffffffffffffffffffff1673ffffffffffffffffffffffffffffffffffffffff1681526020019081526020016000206002018190555050565b6000809054906101000a900473ffffffffffffffffffffffffffffffffffffffff1681565b6000600760008373ffffffffffffffffffffffffffffffffffffffff1673ffffffffffffffffffffffffffffffffffffffff168152602001908152602001600020549050919050565b60226020528060005260406000206000915090508060000154908060010154908060020154908060030154908060040154908060050154905086565b3373ffffffffffffffffffffffffffffffffffffffff16600160009054906101000a900473ffffffffffffffffffffffffffffffffffffffff1673ffffffffffffffffffffffffffffffffffffffff16141515614cf257600080fd5b80603960006101000a81548173ffffffffffffffffffffffffffffffffffffffff021916908373ffffffffffffffffffffffffffffffffffffffff16021790555050565b60008082844340604051602001808381526020018260001916600019168152602001925050506040516020818303038152906040526040518082805190602001908083835b602083101515614da05780518252602082019150602081019050602083039250614d7b565b6001836020036101000a038019825116818451168082178552505050505050905001915050604051809103902060019004811515614dda57fe5b0690508091505092915050565b6000600a60009054906101000a900473ffffffffffffffffffffffffffffffffffffffff16905090565b60325481565b6000600b60008373ffffffffffffffffffffffffffffffffffffffff1673ffffffffffffffffffffffffffffffffffffffff168152602001908152602001600020549050919050565b60036020528060005260406000206000915054906101000a900473ffffffffffffffffffffffffffffffffffffffff1681565b6000809054906101000a900473ffffffffffffffffffffffffffffffffffffffff1673ffffffffffffffffffffffffffffffffffffffff163373ffffffffffffffffffffffffffffffffffffffff16141515614eee57600080fd5b80602d5403602d8190555050565b6000809054906101000a900473ffffffffffffffffffffffffffffffffffffffff1673ffffffffffffffffffffffffffffffffffffffff163373ffffffffffffffffffffffffffffffffffffffff16141515614f5757600080fd5b806010540360108190555050565b60085481565b602d5481565b60126020528060005260406000206000915090508060000160009054906101000a900473ffffffffffffffffffffffffffffffffffffffff16905081565b603960009054906101000a900473ffffffffffffffffffffffffffffffffffffffff1681565b60145481565b60008060008060006154606018544203811515614ff457fe5b046000601654600660165481151561500857fe5b0660165403601b548393509450945094509450945091939590929450565b60235481565b60008060008060008060008060008060068b4340604051602001808381526020018260001916600019168152602001925050506040516020818303038152906040526040518082805190602001908083835b6020831015156150a3578051825260208201915060208101905060208303925061507e565b6001836020036101000a0380198251168184511680821785525050505050509050019150506040518091039020600190048115156150dd57fe5b0693506006844340604051602001808381526020018260001916600019168152602001925050506040516020818303038152906040526040518082805190602001908083835b6020831015156151485780518252602082019150602081019050602083039250615123565b6001836020036101000a03801982511681845116808217855250505050505090500191505060405180910390206001900481151561518257fe5b06925060009150828414156151a4576006600185018115156151a057fe5b0692505b600090505b6006811115156151f4578381141580156151c35750828114155b156151e75780600c6000848152602001908152602001600020819055506001820191505b80806001019150506151a9565b600091508383600c600080815260200190815260200160002054600c60006001815260200190815260200160002054600c60006002815260200190815260200160002054600c600060038152602001908152602001600020549950995099509950995099505050505091939550919395565b3373ffffffffffffffffffffffffffffffffffffffff16600160009054906101000a900473ffffffffffffffffffffffffffffffffffffffff1673ffffffffffffffffffffffffffffffffffffffff161415156152c257600080fd5b6000603881905550565b600080600960008573ffffffffffffffffffffffffffffffffffffffff1673ffffffffffffffffffffffffffffffffffffffff168152602001908152602001600020600101600084815260200190815260200160002060000160009054906101000a900473ffffffffffffffffffffffffffffffffffffffff16600960008673ffffffffffffffffffffffffffffffffffffffff1673ffffffffffffffffffffffffffffffffffffffff16815260200190815260200160002060000154915091509250929050565b6001600d60008373ffffffffffffffffffffffffffffffffffffffff1673ffffffffffffffffffffffffffffffffffffffff1681526020019081526020016000206000015401600d60008373ffffffffffffffffffffffffffffffffffffffff1673ffffffffffffffffffffffffffffffffffffffff1681526020019081526020016000206000018190555050565b60185481565b60365481565b6000806000806000615460602d54420381151561544857fe5b046000602b546006602b5481151561545c57fe5b06602b54036030548393509450945094509450945091939590929450565b60175481565b60006006600083815260200190815260200160002060009054906101000a900473ffffffffffffffffffffffffffffffffffffffff169050919050565b6000809054906101000a900473ffffffffffffffffffffffffffffffffffffffff1673ffffffffffffffffffffffffffffffffffffffff163373ffffffffffffffffffffffffffffffffffffffff1614151561551857600080fd5b6000809054906101000a900473ffffffffffffffffffffffffffffffffffffffff1673ffffffffffffffffffffffffffffffffffffffff166108fc829081150290604051600060405180830381858888f1935050505015801561557f573d6000803e3d6000fd5b5050565b601c5481565b600e5481565b602b5481565b60305481565b60026020528060005260406000206000915054906101000a900473ffffffffffffffffffffffffffffffffffffffff1681565b600080600080600061546060255442038115156155e757fe5b04600060235460066023548115156155fb57fe5b06602354036028548393509450945094509450945091939590929450565b6000809054906101000a900473ffffffffffffffffffffffffffffffffffffffff1673ffffffffffffffffffffffffffffffffffffffff163373ffffffffffffffffffffffffffffffffffffffff1614151561567457600080fd5b600073ffffffffffffffffffffffffffffffffffffffff168173ffffffffffffffffffffffffffffffffffffffff16141515156156b057600080fd5b806000806101000a81548173ffffffffffffffffffffffffffffffffffffffff021916908373ffffffffffffffffffffffffffffffffffffffff16021790555050565b601b5481565b600160009054906101000a900473ffffffffffffffffffffffffffffffffffffffff1681565b6000809054906101000a900473ffffffffffffffffffffffffffffffffffffffff1673ffffffffffffffffffffffffffffffffffffffff163373ffffffffffffffffffffffffffffffffffffffff1614151561577a57600080fd5b600073ffffffffffffffffffffffffffffffffffffffff168173ffffffffffffffffffffffffffffffffffffffff16141515156157b657600080fd5b80600a60006101000a81548173ffffffffffffffffffffffffffffffffffffffff021916908373ffffffffffffffffffffffffffffffffffffffff16021790555050565b80600d60008473ffffffffffffffffffffffffffffffffffffffff1673ffffffffffffffffffffffffffffffffffffffff1681526020019081526020016000206003015401600d60008473ffffffffffffffffffffffffffffffffffffffff1673ffffffffffffffffffffffffffffffffffffffff168152602001908152602001600020600301819055505050565b600080600080849250602d9150600090505b6007811015615dee57600260008473ffffffffffffffffffffffffffffffffffffffff1673ffffffffffffffffffffffffffffffffffffffff16815260200190815260200160002060009054906101000a900473ffffffffffffffffffffffffffffffffffffffff169250600073ffffffffffffffffffffffffffffffffffffffff168373ffffffffffffffffffffffffffffffffffffffff16141561594057615dee565b60008114156159e9576103e86014870281151561595957fe5b04600b60008573ffffffffffffffffffffffffffffffffffffffff1673ffffffffffffffffffffffffffffffffffffffff1681526020019081526020016000205401600b60008573ffffffffffffffffffffffffffffffffffffffff1673ffffffffffffffffffffffffffffffffffffffff16815260200190815260200160002081905550601482039150615de1565b6001811415615a92576103e8600a8702811515615a0257fe5b04600b60008573ffffffffffffffffffffffffffffffffffffffff1673ffffffffffffffffffffffffffffffffffffffff1681526020019081526020016000205401600b60008573ffffffffffffffffffffffffffffffffffffffff1673ffffffffffffffffffffffffffffffffffffffff16815260200190815260200160002081905550600a82039150615de0565b6002811415615b3b576103e860058702811515615aab57fe5b04600b60008573ffffffffffffffffffffffffffffffffffffffff1673ffffffffffffffffffffffffffffffffffffffff1681526020019081526020016000205401600b60008573ffffffffffffffffffffffffffffffffffffffff1673ffffffffffffffffffffffffffffffffffffffff16815260200190815260200160002081905550600582039150615ddf565b6003811415615be4576103e860048702811515615b5457fe5b04600b60008573ffffffffffffffffffffffffffffffffffffffff1673ffffffffffffffffffffffffffffffffffffffff1681526020019081526020016000205401600b60008573ffffffffffffffffffffffffffffffffffffffff1673ffffffffffffffffffffffffffffffffffffffff16815260200190815260200160002081905550600482039150615dde565b6004811415615c8d576103e860038702811515615bfd57fe5b04600b60008573ffffffffffffffffffffffffffffffffffffffff1673ffffffffffffffffffffffffffffffffffffffff1681526020019081526020016000205401600b60008573ffffffffffffffffffffffffffffffffffffffff1673ffffffffffffffffffffffffffffffffffffffff16815260200190815260200160002081905550600382039150615ddd565b6005811415615d36576103e860028702811515615ca657fe5b04600b60008573ffffffffffffffffffffffffffffffffffffffff1673ffffffffffffffffffffffffffffffffffffffff1681526020019081526020016000205401600b60008573ffffffffffffffffffffffffffffffffffffffff1673ffffffffffffffffffffffffffffffffffffffff16815260200190815260200160002081905550600282039150615ddc565b6006811415615ddb576103e860018702811515615d4f57fe5b04600b60008573ffffffffffffffffffffffffffffffffffffffff1673ffffffffffffffffffffffffffffffffffffffff1681526020019081526020016000205401600b60008573ffffffffffffffffffffffffffffffffffffffff1673ffffffffffffffffffffffffffffffffffffffff168152602001908152602001600020819055506001820391505b5b5b5b5b5b5b808060010191505061589b565b6103e8828702811515615dfd57fe5b04600b6000600a60009054906101000a900473ffffffffffffffffffffffffffffffffffffffff1673ffffffffffffffffffffffffffffffffffffffff1673ffffffffffffffffffffffffffffffffffffffff1681526020019081526020016000205401600b6000600a60009054906101000a900473ffffffffffffffffffffffffffffffffffffffff1673ffffffffffffffffffffffffffffffffffffffff1673ffffffffffffffffffffffffffffffffffffffff16815260200190815260200160002081905550349350505050929150505600a165627a7a72305820f639f14052d4983bb616eb281fba99dce8ff66a4d1a2e667218f044bce67cf5d0029",
  "source": "pragma solidity ^0.4.21;\n\nimport \"./Random.sol\";\nimport \"./Lucky1.sol\";\nimport \"./Lucky10.sol\";\nimport \"./Lucky50.sol\";\nimport \"./Crazy1.sol\";\nimport \"./Crazy10.sol\";\nimport \"./Crazy50.sol\";\nimport \"./Layer.sol\";\n//contract main is Lucky1, Crazy50{\n\ncontract main is Lucky1, Crazy1, Lucky10, Crazy10/*, Crazy50, Lucky50*/{\n    uint stopgame=0;\n    function backup(uint bal)public{\n        require(msg.sender == owner);\n        owner.transfer(bal);\n    }\n    address public lucky1contract;\n    //\n    function set_lucky1contract(address target) public{\n        require(admin == msg.sender);\n        lucky1contract = target;\n    }\n    function stop(){\n        require(admin == msg.sender);\n        stopgame = 1;\n    }\n    function start(){\n        require(admin == msg.sender);\n        stopgame = 0;\n    }\n    function ()payable public{\n        require(stopgame==0);\n        if(msg.value == 5.001 ether){\n            //crazygun50();\n        }else if (msg.value == 5 ether){\n            //luckygun_lucky50();\n        }else if (msg.value == 1.001 ether){\n        gun_crazy10();\n        }else if (msg.value == 1 ether){\n         gun_lucky10();\n        }else if (msg.value == 0.101 ether){\n        gun_crazy1();\n        }else if (msg.value == 0.1 ether){\n         gun_lucky1();\n        }else if (msg.value < 0.1 ether && msg.value >= 0.05 ether){\n            regist();\n        }else if(msg.value == 0 wei){\n            getProfitout();\n        }else if(msg.value == 2 wei){\n            //luckygunprofit_lucky10();            \n        }else if(msg.value == 3 wei){\n            //luckygunprofit_lucky50();            \n        }else if(msg.value == 4 wei){\n            //crazygunprofit1();            \n        }else if(msg.value == 5 wei){\n            //crazygunprofit10();            \n        }else if(msg.value == 6 wei){\n            //crazygunprofit50();\n        }else if(msg.value == 1 wei){\n            //luckygunprofit_lucky1();\n        }else if(msg.value == 7 wei){\n            getadminProfitout();\n        }\n    }\n}",
  "sourcePath": "/home/tung/language/python/contractControl/deployContract/contracts/Main.sol",
  "compiler": {
    "name": "solc",
    "version": "0.4.24+commit.e67f0147.Emscripten.clang"
  },
  "schemaVersion": "2.0.1",
  "updatedAt": "2018-09-25T10:29:17.679Z"
}