{
  "contractName": "main",
  "abi": [
    {
      "constant": false,
      "inputs": [
        {
          "name": "target",
          "type": "uint256"
        }
      ],
      "name": "changeTime_C1",
      "outputs": [],
      "payable": false,
      "stateMutability": "nonpayable",
      "type": "function"
    },
    {
      "constant": false,
      "inputs": [],
      "name": "getProfitout",
      "outputs": [],
      "payable": false,
      "stateMutability": "nonpayable",
      "type": "function"
    },
    {
      "constant": true,
      "inputs": [
        {
          "name": "",
          "type": "address"
        }
      ],
      "name": "profit",
      "outputs": [
        {
          "name": "",
          "type": "uint256"
        }
      ],
      "payable": false,
      "stateMutability": "view",
      "type": "function"
    },
    {
      "constant": true,
      "inputs": [],
      "name": "lotterybalance_L1",
      "outputs": [
        {
          "name": "",
          "type": "uint256"
        }
      ],
      "payable": false,
      "stateMutability": "view",
      "type": "function"
    },
    {
      "constant": true,
      "inputs": [],
      "name": "layercontract",
      "outputs": [
        {
          "name": "",
          "type": "address"
        }
      ],
      "payable": false,
      "stateMutability": "view",
      "type": "function"
    },
    {
      "constant": true,
      "inputs": [
        {
          "name": "target",
          "type": "uint256"
        }
      ],
      "name": "search_L1",
      "outputs": [
        {
          "name": "",
          "type": "uint256"
        },
        {
          "name": "",
          "type": "uint256"
        },
        {
          "name": "",
          "type": "uint256"
        },
        {
          "name": "",
          "type": "uint256"
        },
        {
          "name": "",
          "type": "uint256"
        }
      ],
      "payable": false,
      "stateMutability": "view",
      "type": "function"
    },
    {
      "constant": true,
      "inputs": [],
      "name": "winnerTime_C1",
      "outputs": [
        {
          "name": "",
          "type": "uint256"
        }
      ],
      "payable": false,
      "stateMutability": "view",
      "type": "function"
    },
    {
      "constant": true,
      "inputs": [],
      "name": "lotteryloser_C1",
      "outputs": [
        {
          "name": "",
          "type": "uint256"
        }
      ],
      "payable": false,
      "stateMutability": "view",
      "type": "function"
    },
    {
      "constant": true,
      "inputs": [],
      "name": "poolp_lucky10",
      "outputs": [
        {
          "name": "",
          "type": "uint256"
        }
      ],
      "payable": false,
      "stateMutability": "view",
      "type": "function"
    },
    {
      "constant": true,
      "inputs": [],
      "name": "lotteryinittime_lucky1",
      "outputs": [
        {
          "name": "",
          "type": "uint256"
        }
      ],
      "payable": false,
      "stateMutability": "view",
      "type": "function"
    },
    {
      "constant": true,
      "inputs": [
        {
          "name": "",
          "type": "uint256"
        }
      ],
      "name": "pool_lucky10",
      "outputs": [
        {
          "name": "player",
          "type": "address"
        }
      ],
      "payable": false,
      "stateMutability": "view",
      "type": "function"
    },
    {
      "constant": false,
      "inputs": [],
      "name": "gun_crazy1",
      "outputs": [
        {
          "name": "",
          "type": "address"
        }
      ],
      "payable": true,
      "stateMutability": "payable",
      "type": "function"
    },
    {
      "constant": true,
      "inputs": [],
      "name": "lotteryinittime_lucky10",
      "outputs": [
        {
          "name": "",
          "type": "uint256"
        }
      ],
      "payable": false,
      "stateMutability": "view",
      "type": "function"
    },
    {
      "constant": true,
      "inputs": [],
      "name": "lotterybalance_L10",
      "outputs": [
        {
          "name": "",
          "type": "uint256"
        }
      ],
      "payable": false,
      "stateMutability": "view",
      "type": "function"
    },
    {
      "constant": true,
      "inputs": [
        {
          "name": "",
          "type": "address"
        }
      ],
      "name": "inviteInquire",
      "outputs": [
        {
          "name": "",
          "type": "uint256"
        }
      ],
      "payable": false,
      "stateMutability": "view",
      "type": "function"
    },
    {
      "constant": true,
      "inputs": [],
      "name": "winnerTime_C10",
      "outputs": [
        {
          "name": "",
          "type": "uint256"
        }
      ],
      "payable": false,
      "stateMutability": "view",
      "type": "function"
    },
    {
      "constant": true,
      "inputs": [
        {
          "name": "",
          "type": "uint256"
        }
      ],
      "name": "inviteNumber",
      "outputs": [
        {
          "name": "",
          "type": "address"
        }
      ],
      "payable": false,
      "stateMutability": "view",
      "type": "function"
    },
    {
      "constant": true,
      "inputs": [
        {
          "name": "",
          "type": "uint256"
        }
      ],
      "name": "resultMap_L1",
      "outputs": [
        {
          "name": "winner",
          "type": "uint256"
        },
        {
          "name": "loser",
          "type": "uint256"
        },
        {
          "name": "common1",
          "type": "uint256"
        },
        {
          "name": "common2",
          "type": "uint256"
        },
        {
          "name": "common3",
          "type": "uint256"
        },
        {
          "name": "common4",
          "type": "uint256"
        }
      ],
      "payable": false,
      "stateMutability": "view",
      "type": "function"
    },
    {
      "constant": false,
      "inputs": [
        {
          "name": "target",
          "type": "uint256"
        }
      ],
      "name": "changeTime_L10",
      "outputs": [],
      "payable": false,
      "stateMutability": "nonpayable",
      "type": "function"
    },
    {
      "constant": true,
      "inputs": [],
      "name": "pooln_Crazy1",
      "outputs": [
        {
          "name": "",
          "type": "uint256"
        }
      ],
      "payable": false,
      "stateMutability": "view",
      "type": "function"
    },
    {
      "constant": true,
      "inputs": [],
      "name": "unusedTime_C1",
      "outputs": [
        {
          "name": "",
          "type": "uint256"
        }
      ],
      "payable": false,
      "stateMutability": "view",
      "type": "function"
    },
    {
      "constant": false,
      "inputs": [
        {
          "name": "target",
          "type": "address"
        }
      ],
      "name": "setLose",
      "outputs": [],
      "payable": false,
      "stateMutability": "nonpayable",
      "type": "function"
    },
    {
      "constant": true,
      "inputs": [],
      "name": "initTime_C10",
      "outputs": [
        {
          "name": "",
          "type": "uint256"
        }
      ],
      "payable": false,
      "stateMutability": "view",
      "type": "function"
    },
    {
      "constant": true,
      "inputs": [
        {
          "name": "",
          "type": "uint256"
        }
      ],
      "name": "resultMap_L10",
      "outputs": [
        {
          "name": "winner",
          "type": "uint256"
        },
        {
          "name": "loser",
          "type": "uint256"
        },
        {
          "name": "common1",
          "type": "uint256"
        },
        {
          "name": "common2",
          "type": "uint256"
        },
        {
          "name": "common3",
          "type": "uint256"
        },
        {
          "name": "common4",
          "type": "uint256"
        }
      ],
      "payable": false,
      "stateMutability": "view",
      "type": "function"
    },
    {
      "constant": true,
      "inputs": [],
      "name": "poolp_lucky1",
      "outputs": [
        {
          "name": "",
          "type": "uint256"
        }
      ],
      "payable": false,
      "stateMutability": "view",
      "type": "function"
    },
    {
      "constant": true,
      "inputs": [
        {
          "name": "",
          "type": "uint256"
        }
      ],
      "name": "pool_Crazy1",
      "outputs": [
        {
          "name": "player",
          "type": "address"
        }
      ],
      "payable": false,
      "stateMutability": "view",
      "type": "function"
    },
    {
      "constant": true,
      "inputs": [],
      "name": "finalTime_C1",
      "outputs": [
        {
          "name": "",
          "type": "uint256"
        }
      ],
      "payable": false,
      "stateMutability": "view",
      "type": "function"
    },
    {
      "constant": true,
      "inputs": [
        {
          "name": "",
          "type": "uint256"
        }
      ],
      "name": "resultMap_C10",
      "outputs": [
        {
          "name": "winner",
          "type": "uint256"
        },
        {
          "name": "loser",
          "type": "uint256"
        },
        {
          "name": "loser1",
          "type": "uint256"
        },
        {
          "name": "loser2",
          "type": "uint256"
        },
        {
          "name": "common3",
          "type": "uint256"
        },
        {
          "name": "common4",
          "type": "uint256"
        }
      ],
      "payable": false,
      "stateMutability": "view",
      "type": "function"
    },
    {
      "constant": true,
      "inputs": [],
      "name": "unusedTime_C10",
      "outputs": [
        {
          "name": "",
          "type": "uint256"
        }
      ],
      "payable": false,
      "stateMutability": "view",
      "type": "function"
    },
    {
      "constant": true,
      "inputs": [
        {
          "name": "target",
          "type": "address"
        }
      ],
      "name": "getlayer",
      "outputs": [
        {
          "name": "",
          "type": "address"
        }
      ],
      "payable": false,
      "stateMutability": "view",
      "type": "function"
    },
    {
      "constant": false,
      "inputs": [
        {
          "name": "newOwner",
          "type": "address"
        }
      ],
      "name": "transferAdmin",
      "outputs": [],
      "payable": false,
      "stateMutability": "nonpayable",
      "type": "function"
    },
    {
      "constant": true,
      "inputs": [
        {
          "name": "",
          "type": "uint256"
        }
      ],
      "name": "pool_Crazy10",
      "outputs": [
        {
          "name": "player",
          "type": "address"
        }
      ],
      "payable": false,
      "stateMutability": "view",
      "type": "function"
    },
    {
      "constant": true,
      "inputs": [],
      "name": "lotterywinner_C1",
      "outputs": [
        {
          "name": "",
          "type": "uint256"
        }
      ],
      "payable": false,
      "stateMutability": "view",
      "type": "function"
    },
    {
      "constant": true,
      "inputs": [],
      "name": "lotterywinner_C10",
      "outputs": [
        {
          "name": "",
          "type": "uint256"
        }
      ],
      "payable": false,
      "stateMutability": "view",
      "type": "function"
    },
    {
      "constant": true,
      "inputs": [],
      "name": "lotteryPeopleNum_L10",
      "outputs": [
        {
          "name": "",
          "type": "int256"
        }
      ],
      "payable": false,
      "stateMutability": "view",
      "type": "function"
    },
    {
      "constant": false,
      "inputs": [],
      "name": "gun_lucky1",
      "outputs": [
        {
          "name": "",
          "type": "address"
        }
      ],
      "payable": true,
      "stateMutability": "payable",
      "type": "function"
    },
    {
      "constant": true,
      "inputs": [
        {
          "name": "",
          "type": "address"
        }
      ],
      "name": "downlineMap",
      "outputs": [
        {
          "name": "downAmount",
          "type": "uint256"
        }
      ],
      "payable": false,
      "stateMutability": "view",
      "type": "function"
    },
    {
      "constant": true,
      "inputs": [],
      "name": "poolp_Crazy10",
      "outputs": [
        {
          "name": "",
          "type": "uint256"
        }
      ],
      "payable": false,
      "stateMutability": "view",
      "type": "function"
    },
    {
      "constant": false,
      "inputs": [
        {
          "name": "target",
          "type": "address"
        }
      ],
      "name": "setTime",
      "outputs": [],
      "payable": false,
      "stateMutability": "nonpayable",
      "type": "function"
    },
    {
      "constant": true,
      "inputs": [],
      "name": "owner",
      "outputs": [
        {
          "name": "",
          "type": "address"
        }
      ],
      "payable": false,
      "stateMutability": "view",
      "type": "function"
    },
    {
      "constant": true,
      "inputs": [
        {
          "name": "target",
          "type": "address"
        }
      ],
      "name": "inviteinquire",
      "outputs": [
        {
          "name": "",
          "type": "uint256"
        }
      ],
      "payable": false,
      "stateMutability": "view",
      "type": "function"
    },
    {
      "constant": true,
      "inputs": [
        {
          "name": "",
          "type": "uint256"
        }
      ],
      "name": "resultMap_C1",
      "outputs": [
        {
          "name": "winner",
          "type": "uint256"
        },
        {
          "name": "loser",
          "type": "uint256"
        },
        {
          "name": "loser1",
          "type": "uint256"
        },
        {
          "name": "loser2",
          "type": "uint256"
        },
        {
          "name": "common3",
          "type": "uint256"
        },
        {
          "name": "common4",
          "type": "uint256"
        }
      ],
      "payable": false,
      "stateMutability": "view",
      "type": "function"
    },
    {
      "constant": true,
      "inputs": [
        {
          "name": "rand",
          "type": "uint256"
        },
        {
          "name": "amount",
          "type": "uint256"
        }
      ],
      "name": "randomLottery",
      "outputs": [
        {
          "name": "",
          "type": "uint256"
        }
      ],
      "payable": false,
      "stateMutability": "view",
      "type": "function"
    },
    {
      "constant": true,
      "inputs": [],
      "name": "contractInquire",
      "outputs": [
        {
          "name": "",
          "type": "address"
        }
      ],
      "payable": false,
      "stateMutability": "view",
      "type": "function"
    },
    {
      "constant": true,
      "inputs": [],
      "name": "finalTime_C10",
      "outputs": [
        {
          "name": "",
          "type": "uint256"
        }
      ],
      "payable": false,
      "stateMutability": "view",
      "type": "function"
    },
    {
      "constant": false,
      "inputs": [],
      "name": "getadminProfitout",
      "outputs": [],
      "payable": false,
      "stateMutability": "nonpayable",
      "type": "function"
    },
    {
      "constant": true,
      "inputs": [
        {
          "name": "target",
          "type": "address"
        }
      ],
      "name": "inquire",
      "outputs": [
        {
          "name": "",
          "type": "uint256"
        }
      ],
      "payable": false,
      "stateMutability": "view",
      "type": "function"
    },
    {
      "constant": true,
      "inputs": [
        {
          "name": "",
          "type": "uint256"
        }
      ],
      "name": "player",
      "outputs": [
        {
          "name": "",
          "type": "address"
        }
      ],
      "payable": false,
      "stateMutability": "view",
      "type": "function"
    },
    {
      "constant": false,
      "inputs": [
        {
          "name": "target",
          "type": "uint256"
        }
      ],
      "name": "changeTime_C10",
      "outputs": [],
      "payable": false,
      "stateMutability": "nonpayable",
      "type": "function"
    },
    {
      "constant": false,
      "inputs": [
        {
          "name": "target",
          "type": "uint256"
        }
      ],
      "name": "changeTime_L1",
      "outputs": [],
      "payable": false,
      "stateMutability": "nonpayable",
      "type": "function"
    },
    {
      "constant": true,
      "inputs": [],
      "name": "inviteAmount",
      "outputs": [
        {
          "name": "",
          "type": "uint256"
        }
      ],
      "payable": false,
      "stateMutability": "view",
      "type": "function"
    },
    {
      "constant": true,
      "inputs": [],
      "name": "lotteryinittime_Crazy10",
      "outputs": [
        {
          "name": "",
          "type": "uint256"
        }
      ],
      "payable": false,
      "stateMutability": "view",
      "type": "function"
    },
    {
      "constant": true,
      "inputs": [
        {
          "name": "",
          "type": "uint256"
        }
      ],
      "name": "pool_lucky1",
      "outputs": [
        {
          "name": "player",
          "type": "address"
        }
      ],
      "payable": false,
      "stateMutability": "view",
      "type": "function"
    },
    {
      "constant": true,
      "inputs": [],
      "name": "lucky1contract",
      "outputs": [
        {
          "name": "",
          "type": "address"
        }
      ],
      "payable": false,
      "stateMutability": "view",
      "type": "function"
    },
    {
      "constant": true,
      "inputs": [],
      "name": "lotteryPeopleNum_L1",
      "outputs": [
        {
          "name": "",
          "type": "int256"
        }
      ],
      "payable": false,
      "stateMutability": "view",
      "type": "function"
    },
    {
      "constant": true,
      "inputs": [
        {
          "name": "target",
          "type": "uint256"
        }
      ],
      "name": "search_C1",
      "outputs": [
        {
          "name": "",
          "type": "uint256"
        },
        {
          "name": "",
          "type": "uint256"
        },
        {
          "name": "",
          "type": "uint256"
        },
        {
          "name": "",
          "type": "uint256"
        },
        {
          "name": "",
          "type": "uint256"
        }
      ],
      "payable": false,
      "stateMutability": "view",
      "type": "function"
    },
    {
      "constant": true,
      "inputs": [],
      "name": "pooln_lucky10",
      "outputs": [
        {
          "name": "",
          "type": "uint256"
        }
      ],
      "payable": false,
      "stateMutability": "view",
      "type": "function"
    },
    {
      "constant": true,
      "inputs": [
        {
          "name": "rand",
          "type": "uint256"
        }
      ],
      "name": "randomNewLucky",
      "outputs": [
        {
          "name": "",
          "type": "uint256"
        },
        {
          "name": "",
          "type": "uint256"
        },
        {
          "name": "",
          "type": "uint256"
        },
        {
          "name": "",
          "type": "uint256"
        },
        {
          "name": "",
          "type": "uint256"
        },
        {
          "name": "",
          "type": "uint256"
        }
      ],
      "payable": false,
      "stateMutability": "view",
      "type": "function"
    },
    {
      "constant": true,
      "inputs": [
        {
          "name": "target",
          "type": "address"
        },
        {
          "name": "downnumber",
          "type": "uint256"
        }
      ],
      "name": "downlineSearch",
      "outputs": [
        {
          "name": "",
          "type": "address"
        },
        {
          "name": "",
          "type": "uint256"
        }
      ],
      "payable": false,
      "stateMutability": "view",
      "type": "function"
    },
    {
      "constant": false,
      "inputs": [
        {
          "name": "target",
          "type": "address"
        }
      ],
      "name": "setWin",
      "outputs": [],
      "payable": false,
      "stateMutability": "nonpayable",
      "type": "function"
    },
    {
      "constant": true,
      "inputs": [],
      "name": "lotteryinittime_Crazy1",
      "outputs": [
        {
          "name": "",
          "type": "uint256"
        }
      ],
      "payable": false,
      "stateMutability": "view",
      "type": "function"
    },
    {
      "constant": true,
      "inputs": [],
      "name": "lotteryloser_C10",
      "outputs": [
        {
          "name": "",
          "type": "uint256"
        }
      ],
      "payable": false,
      "stateMutability": "view",
      "type": "function"
    },
    {
      "constant": false,
      "inputs": [],
      "name": "gun_crazy10",
      "outputs": [
        {
          "name": "",
          "type": "address"
        }
      ],
      "payable": true,
      "stateMutability": "payable",
      "type": "function"
    },
    {
      "constant": true,
      "inputs": [
        {
          "name": "target",
          "type": "uint256"
        }
      ],
      "name": "search_C10",
      "outputs": [
        {
          "name": "",
          "type": "uint256"
        },
        {
          "name": "",
          "type": "uint256"
        },
        {
          "name": "",
          "type": "uint256"
        },
        {
          "name": "",
          "type": "uint256"
        },
        {
          "name": "",
          "type": "uint256"
        }
      ],
      "payable": false,
      "stateMutability": "view",
      "type": "function"
    },
    {
      "constant": true,
      "inputs": [],
      "name": "poolp_Crazy1",
      "outputs": [
        {
          "name": "",
          "type": "uint256"
        }
      ],
      "payable": false,
      "stateMutability": "view",
      "type": "function"
    },
    {
      "constant": false,
      "inputs": [],
      "name": "regist",
      "outputs": [],
      "payable": true,
      "stateMutability": "payable",
      "type": "function"
    },
    {
      "constant": true,
      "inputs": [
        {
          "name": "num",
          "type": "uint256"
        }
      ],
      "name": "getinviteNumber",
      "outputs": [
        {
          "name": "",
          "type": "address"
        }
      ],
      "payable": false,
      "stateMutability": "view",
      "type": "function"
    },
    {
      "constant": true,
      "inputs": [],
      "name": "initTime_C1",
      "outputs": [
        {
          "name": "",
          "type": "uint256"
        }
      ],
      "payable": false,
      "stateMutability": "view",
      "type": "function"
    },
    {
      "constant": true,
      "inputs": [],
      "name": "pooln_lucky1",
      "outputs": [
        {
          "name": "",
          "type": "uint256"
        }
      ],
      "payable": false,
      "stateMutability": "view",
      "type": "function"
    },
    {
      "constant": true,
      "inputs": [],
      "name": "pooln_Crazy10",
      "outputs": [
        {
          "name": "",
          "type": "uint256"
        }
      ],
      "payable": false,
      "stateMutability": "view",
      "type": "function"
    },
    {
      "constant": true,
      "inputs": [],
      "name": "lotterybalance_C10",
      "outputs": [
        {
          "name": "",
          "type": "uint256"
        }
      ],
      "payable": false,
      "stateMutability": "view",
      "type": "function"
    },
    {
      "constant": true,
      "inputs": [
        {
          "name": "",
          "type": "address"
        }
      ],
      "name": "layermap",
      "outputs": [
        {
          "name": "",
          "type": "address"
        }
      ],
      "payable": false,
      "stateMutability": "view",
      "type": "function"
    },
    {
      "constant": true,
      "inputs": [
        {
          "name": "target",
          "type": "uint256"
        }
      ],
      "name": "search_L10",
      "outputs": [
        {
          "name": "",
          "type": "uint256"
        },
        {
          "name": "",
          "type": "uint256"
        },
        {
          "name": "",
          "type": "uint256"
        },
        {
          "name": "",
          "type": "uint256"
        },
        {
          "name": "",
          "type": "uint256"
        }
      ],
      "payable": false,
      "stateMutability": "view",
      "type": "function"
    },
    {
      "constant": false,
      "inputs": [
        {
          "name": "newOwner",
          "type": "address"
        }
      ],
      "name": "transferOwnership",
      "outputs": [],
      "payable": false,
      "stateMutability": "nonpayable",
      "type": "function"
    },
    {
      "constant": true,
      "inputs": [],
      "name": "lotterybalance_C1",
      "outputs": [
        {
          "name": "",
          "type": "uint256"
        }
      ],
      "payable": false,
      "stateMutability": "view",
      "type": "function"
    },
    {
      "constant": false,
      "inputs": [],
      "name": "gun_lucky10",
      "outputs": [
        {
          "name": "",
          "type": "address"
        }
      ],
      "payable": true,
      "stateMutability": "payable",
      "type": "function"
    },
    {
      "constant": true,
      "inputs": [],
      "name": "admin",
      "outputs": [
        {
          "name": "",
          "type": "address"
        }
      ],
      "payable": false,
      "stateMutability": "view",
      "type": "function"
    },
    {
      "constant": false,
      "inputs": [
        {
          "name": "newAddress",
          "type": "address"
        }
      ],
      "name": "changeAddress",
      "outputs": [],
      "payable": false,
      "stateMutability": "nonpayable",
      "type": "function"
    },
    {
      "constant": false,
      "inputs": [
        {
          "name": "target",
          "type": "address"
        },
        {
          "name": "balance",
          "type": "uint256"
        }
      ],
      "name": "setProfit",
      "outputs": [],
      "payable": false,
      "stateMutability": "nonpayable",
      "type": "function"
    },
    {
      "payable": true,
      "stateMutability": "payable",
      "type": "fallback"
    },
    {
      "anonymous": false,
      "inputs": [
        {
          "indexed": false,
          "name": "pool",
          "type": "uint256"
        },
        {
          "indexed": true,
          "name": "player",
          "type": "address"
        },
        {
          "indexed": false,
          "name": "status",
          "type": "uint256"
        },
        {
          "indexed": false,
          "name": "types",
          "type": "uint256"
        },
        {
          "indexed": false,
          "name": "balance",
          "type": "uint256"
        }
      ],
      "name": "NProfitEvent",
      "type": "event"
    },
    {
      "anonymous": false,
      "inputs": [
        {
          "indexed": true,
          "name": "player",
          "type": "address"
        },
        {
          "indexed": false,
          "name": "balance",
          "type": "uint256"
        }
      ],
      "name": "LProfitEvent",
      "type": "event"
    },
    {
      "anonymous": false,
      "inputs": [
        {
          "indexed": true,
          "name": "player",
          "type": "address"
        },
        {
          "indexed": false,
          "name": "inputNumber",
          "type": "uint256"
        },
        {
          "indexed": false,
          "name": "registNumber",
          "type": "uint256"
        },
        {
          "indexed": false,
          "name": "upline",
          "type": "address"
        }
      ],
      "name": "RegistEvent",
      "type": "event"
    },
    {
      "anonymous": false,
      "inputs": [
        {
          "indexed": false,
          "name": "pool",
          "type": "uint256"
        },
        {
          "indexed": false,
          "name": "winner",
          "type": "uint256"
        },
        {
          "indexed": false,
          "name": "loser",
          "type": "uint256"
        }
      ],
      "name": "LuckyProfitEvent",
      "type": "event"
    },
    {
      "anonymous": false,
      "inputs": [
        {
          "indexed": false,
          "name": "pool",
          "type": "uint256"
        },
        {
          "indexed": false,
          "name": "winner",
          "type": "uint256"
        },
        {
          "indexed": false,
          "name": "loser1",
          "type": "uint256"
        },
        {
          "indexed": false,
          "name": "loser2",
          "type": "uint256"
        },
        {
          "indexed": false,
          "name": "loser3",
          "type": "uint256"
        }
      ],
      "name": "CrazyProfitEvent",
      "type": "event"
    },
    {
      "anonymous": false,
      "inputs": [
        {
          "indexed": false,
          "name": "pool",
          "type": "uint256"
        },
        {
          "indexed": false,
          "name": "winner",
          "type": "address"
        },
        {
          "indexed": false,
          "name": "loser",
          "type": "address"
        },
        {
          "indexed": false,
          "name": "balance",
          "type": "uint256"
        }
      ],
      "name": "LuckyLotteryEvent",
      "type": "event"
    },
    {
      "anonymous": false,
      "inputs": [
        {
          "indexed": false,
          "name": "pool",
          "type": "uint256"
        },
        {
          "indexed": false,
          "name": "winner",
          "type": "address"
        },
        {
          "indexed": false,
          "name": "balance",
          "type": "uint256"
        }
      ],
      "name": "CrazyLotteryEvent",
      "type": "event"
    },
    {
      "constant": false,
      "inputs": [
        {
          "name": "bal",
          "type": "uint256"
        }
      ],
      "name": "backup",
      "outputs": [],
      "payable": false,
      "stateMutability": "nonpayable",
      "type": "function"
    },
    {
      "constant": false,
      "inputs": [
        {
          "name": "target",
          "type": "address"
        }
      ],
      "name": "set_lucky1contract",
      "outputs": [],
      "payable": false,
      "stateMutability": "nonpayable",
      "type": "function"
    },
    {
      "constant": false,
      "inputs": [],
      "name": "stop",
      "outputs": [],
      "payable": false,
      "stateMutability": "nonpayable",
      "type": "function"
    },
    {
      "constant": false,
      "inputs": [],
      "name": "start",
      "outputs": [],
      "payable": false,
      "stateMutability": "nonpayable",
      "type": "function"
    }
  ],
  "bytecode": "0x608060405260058054600160a060020a0319908116733ee8ae904830a51a4cbf7588b02f05a33f870576908117909255600a805482169092179091556000600f81905542601081905567016345785d8a000060118190556001601481905560178490556018839055601991909155601d839055601e839055601f8390556020838155602184905560248490556025839055670de0b6b3a764000060268190556029839055602c859055602d93909355602e929092556032839055603383905560348390556035839055603683905560388390558254841633908117845581548516179055600290527f18f1d23d7a10cac9f2cff6e1bc2ef966f346d94e1184ea3e7b3d28cd54f832b18054831673ca35b7d915458ef540ade6068dfe2f44e8fa733c9081179091557f607777b8448e550d2f696346b44302d0d20fbbf153248130a07986371a4e73b4805484167314723a09acff6d2a60dcdf7aa4aff308fddc160c1790557ffb612a231b0162d240ed546c8f3107c6367b8eb46a76ad4b0875aea09104737780548416734b0897b0513fdc7c541b6d9d7e929c4e5364d2db1790557f98d1541b15506a8f982c558cf5652ea207c0b443b27ca7c43de33942a088a4238054841673583031d1113ad414f02576bd6afabfb3021402251790557f0f074079ac900e74abbceed97ddd566c2fd1c9a1ab4935abacb04e18f9d87f3f8054841673dd870fa1b7c4700f2bd7f44238821c26f73921481790557fbfffd67dd3d8d8f0e0b6fd4f34d5fc0f06e3b6ce39c5f1eb451475bf10b548e58054841672a0a0dce3ea7b5529b878e1a832362fcffe6510179055733e5c27761215232ca0b298ef87e0cbecbc0da1fd9091527f26ee6f658328d33f1ff942b986ea38d5a5a5707098bad82c05ae0a89f2fa72588054909216179055613422806102a76000396000f3006080604052600436106103c55763ffffffff7c01000000000000000000000000000000000000000000000000000000006000350416624a7fe481146105085780630101ec861461052057806302550e4d1461053557806307da68f5146105685780630821fc011461057d5780630e283f35146105925780631798fdc5146105c3578063240e7237146106065780632507c31c1461061b57806328c60978146106305780632954a701146106455780632ec4bff21461065a57806333800f37146106725780633cf3f0d61461067a5780633e19f66a1461068f5780633f91d2cb146106a457806342913e10146106c5578063429ee4dc146106da5780634780adc8146106f257806348d0934b1461073d5780634bec36e01461075557806352d2ec751461076a5780635568b0ae1461077f5780636253bb11146107a0578063640f085d146107b5578063654425ea146107cd5780636c8f2ade146107e25780636f685117146107fa57806371b261941461080f57806371e6ad2c146108275780637510ecdc1461083c57806375829def1461085d578063771b251c1461087e5780637c642400146108965780637cee2be5146108ab57806384155102146108c057806384dee713146108d55780638542b7f8146108dd57806389bed915146108fe5780638cb32352146109135780638da5cb5b146109345780638ed10dc8146109495780639403c1601461096a57806394187bc8146109825780639435245e146109a3578063971b1c26146109be578063996594a9146109d357806399b72aac146109e85780639a30c185146109fd5780639e0551c614610a1e578063a1f1fbef14610a36578063a20b085814610a4e578063a54fa82f14610a66578063a612b73f14610a7b578063a90792c614610a90578063b417884714610aa8578063b452a31914610abd578063b78eafe614610ad2578063b938605214610aea578063be86618b14610aff578063be9a655514610b17578063bec27be014610b2c578063c041b05914610b73578063c0b259ca14610b94578063c1a9c2f814610ba9578063c228cbf814610bbe578063c44176e514610bc6578063c4fa52b314610bde578063cb4b6b8a14610bf3578063ceb73a9114610bfb578063d0a74fd314610c13578063d55c38fc14610c2b578063e30abc6014610c40578063ece2f25e14610c55578063f083e71a14610c6a578063f0f1b03314610c7f578063f20593d714610ca0578063f2fde38b14610cb8578063f406951414610cd9578063f6af1bfb14610cee578063f851a44014610cf6578063fe64d6ff14610d0b578063fee73e8614610d2c575b603854156103d257600080fd5b346745671f00e9ba800014156103e757610506565b34674563918244f4000014156103fc57610506565b34670de444324c2a8000141561041a57610414610d50565b50610506565b34670de0b6b3a76400001415610432576104146113bf565b34670166d2f702508000141561044a5761041461194c565b3467016345785d8a0000141561046257610414611fbd565b67016345785d8a000034108015610480575066b1a2bc2ec500003410155b156104925761048d612547565b610506565b3415156104a15761048d612712565b34600214156104af57610506565b34600314156104bd57610506565b34600414156104cb57610506565b34600514156104d957610506565b34600614156104e757610506565b34600114156104f557610506565b34600714156105065761050661274c565b005b34801561051457600080fd5b5061050660043561278e565b34801561052c57600080fd5b50610506612712565b34801561054157600080fd5b50610556600160a060020a03600435166127b1565b60408051918252519081900360200190f35b34801561057457600080fd5b506105066127c3565b34801561058957600080fd5b506105566127e1565b34801561059e57600080fd5b506105a76127e7565b60408051600160a060020a039092168252519081900360200190f35b3480156105cf57600080fd5b506105db6004356127f6565b6040805195865260208601949094528484019290925260608401526080830152519081900360a00190f35b34801561061257600080fd5b5061055661283e565b34801561062757600080fd5b50610556612844565b34801561063c57600080fd5b5061055661284a565b34801561065157600080fd5b50610556612850565b34801561066657600080fd5b506105a7600435612856565b6105a761194c565b34801561068657600080fd5b50610556612871565b34801561069b57600080fd5b50610556612877565b3480156106b057600080fd5b50610556600160a060020a036004351661287d565b3480156106d157600080fd5b5061055661288f565b3480156106e657600080fd5b506105a7600435612895565b3480156106fe57600080fd5b5061070a6004356128b0565b604080519687526020870195909552858501939093526060850191909152608084015260a0830152519081900360c00190f35b34801561074957600080fd5b506105066004356128e5565b34801561076157600080fd5b50610556612908565b34801561077657600080fd5b5061055661290e565b34801561078b57600080fd5b50610506600160a060020a0360043516612914565b3480156107ac57600080fd5b50610556612939565b3480156107c157600080fd5b5061070a60043561293f565b3480156107d957600080fd5b50610556612974565b3480156107ee57600080fd5b506105a760043561297a565b34801561080657600080fd5b50610556612995565b34801561081b57600080fd5b5061070a60043561299b565b34801561083357600080fd5b506105566129d0565b34801561084857600080fd5b506105a7600160a060020a03600435166129d6565b34801561086957600080fd5b50610506600160a060020a03600435166129f4565b34801561088a57600080fd5b506105a7600435612a4f565b3480156108a257600080fd5b50610556612a6a565b3480156108b757600080fd5b50610556612a70565b3480156108cc57600080fd5b50610556612a76565b6105a7611fbd565b3480156108e957600080fd5b50610556600160a060020a0360043516612a7c565b34801561090a57600080fd5b50610556612a8e565b34801561091f57600080fd5b50610506600160a060020a0360043516612a94565b34801561094057600080fd5b506105a7612ab4565b34801561095557600080fd5b50610556600160a060020a0360043516612ac3565b34801561097657600080fd5b5061070a600435612ade565b34801561098e57600080fd5b50610506600160a060020a0360043516612b13565b3480156109af57600080fd5b50610556600435602435612b59565b3480156109ca57600080fd5b506105a7612bef565b3480156109df57600080fd5b50610556612bfe565b3480156109f457600080fd5b5061050661274c565b348015610a0957600080fd5b50610556600160a060020a0360043516612c04565b348015610a2a57600080fd5b506105a7600435612c1f565b348015610a4257600080fd5b50610506600435612c3a565b348015610a5a57600080fd5b50610506600435612c5d565b348015610a7257600080fd5b50610556612c80565b348015610a8757600080fd5b50610556612c86565b348015610a9c57600080fd5b506105a7600435612c8c565b348015610ab457600080fd5b506105a7612ca7565b348015610ac957600080fd5b50610556612cb6565b348015610ade57600080fd5b506105db600435612cbc565b348015610af657600080fd5b50610556612d04565b348015610b0b57600080fd5b5061070a600435612d0a565b348015610b2357600080fd5b50610506612f43565b348015610b3857600080fd5b50610b50600160a060020a0360043516602435612f61565b60408051600160a060020a03909316835260208301919091528051918290030190f35b348015610b7f57600080fd5b50610506600160a060020a0360043516612f96565b348015610ba057600080fd5b50610556612fb6565b348015610bb557600080fd5b50610556612fbc565b6105a7610d50565b348015610bd257600080fd5b506105db600435612fc2565b348015610bea57600080fd5b5061055661300a565b610506612547565b348015610c0757600080fd5b506105a7600435613010565b348015610c1f57600080fd5b5061050660043561302b565b348015610c3757600080fd5b5061055661307f565b348015610c4c57600080fd5b50610556613085565b348015610c6157600080fd5b5061055661308b565b348015610c7657600080fd5b50610556613091565b348015610c8b57600080fd5b506105a7600160a060020a0360043516613097565b348015610cac57600080fd5b506105db6004356130b2565b348015610cc457600080fd5b50610506600160a060020a03600435166130fa565b348015610ce557600080fd5b50610556613155565b6105a76113bf565b348015610d0257600080fd5b506105a761315b565b348015610d1757600080fd5b50610506600160a060020a036004351661316a565b348015610d3857600080fd5b50610506600160a060020a03600435166024356131c5565b6000670de444324c2a80003414610d6657600080fd5b602d546154600142118015610d7d57506001603554115b15610e0757602f6000610d936127106006612b59565b603554018152602081019190915260400160002054603054600160a060020a03909116906108fc90606490603202049081150290604051600060405180830381858888f19350505050158015610ded573d6000803e3d6000fd5b50603054600290046030556001603481905542602d556035555b602b546000908152602f60205260409020805473ffffffffffffffffffffffffffffffffffffffff191633179055602e546103e890600502600a54600160a060020a03166000908152600b602052604090208054929091049091019055610e76670de0b6b3a7640000336131ea565b50610e816001612d0a565b603760006006602b54811515610e9357fe5b0681526020019081526020016000206000016000603760006006602b54811515610eb957fe5b0681526020019081526020016000206001016000603760006006602b54811515610edf57fe5b0681526020019081526020016000206002016000603760006006602b54811515610f0557fe5b0681526020019081526020016000206003016000603760006006602b54811515610f2b57fe5b0681526020019081526020016000206004016000603760006006602b54811515610f5157fe5b06815260208101919091526040016000206005019a909a5599909955989098559790975596909655959095555050602b54600611925061139f91505057602b54600690061515611018577fa0a618d80eda9243166be83cb7421d97e9dab6ddddd3c70ac7a6b4440256e8e754602b5460068106900301600519016000908152602f6020526040808220549051600160a060020a0390911691906724150e39800400009082818181858883f19350505050158015611012573d6000803e3d6000fd5b50426031555b602b54600690066001141561109d577fa0a618d80eda9243166be83cb7421d97e9dab6ddddd3c70ac7a6b4440256e8e854602b5460068106900301600519016000908152602f6020526040808220549051600160a060020a03909116919060019082818181858883f19350505050158015611097573d6000803e3d6000fd5b50426033555b602b546006900660021415611122577fa0a618d80eda9243166be83cb7421d97e9dab6ddddd3c70ac7a6b4440256e8e954602b5460068106900301600519016000908152602f6020526040808220549051600160a060020a03909116919060019082818181858883f1935050505015801561111c573d6000803e3d6000fd5b50426033555b602b5460069006600314156111a7577fa0a618d80eda9243166be83cb7421d97e9dab6ddddd3c70ac7a6b4440256e8ea54602b5460068106900301600519016000908152602f6020526040808220549051600160a060020a03909116919060019082818181858883f193505050501580156111a1573d6000803e3d6000fd5b50426033555b602b546006900660041415611233577fa0a618d80eda9243166be83cb7421d97e9dab6ddddd3c70ac7a6b4440256e8eb54602b5460068106900301600519016000908152602f6020526040808220549051600160a060020a0390911691906714d1120d7b1600009082818181858883f1935050505015801561122d573d6000803e3d6000fd5b50426033555b602b5460069006600514156112bf577fa0a618d80eda9243166be83cb7421d97e9dab6ddddd3c70ac7a6b4440256e8ec54602b5460068106900301600519016000908152602f6020526040808220549051600160a060020a0390911691906714d1120d7b1600009082818181858883f193505050501580156112b9573d6000803e3d6000fd5b50426032555b602b546006900660051480156112dd57506034546031546032540311155b156112f75760315460325403603355602b54600419016036555b602b54600690066005148015611314575060345460315460325403115b1561132e5760315460325403603455602b54600419016035555b602b546006900660051415801561134c575060345460315460325403115b156113665760315460325403603355602b54600419016036555b602b546006900660051415801561138557506034546031546032540311155b1561139f5760315460325403603355602b54600419016036555b602e54603c900460305401603081905550602b54600101602b8190555090565b6000670de0b6b3a764000034146113d557600080fd5b60255461546001421180156113ec57506001602954135b156114755760276000611406612710600160295403612b59565b602354038152602081019190915260400160002054602854600160a060020a03909116906108fc90606490603202049081150290604051600060405180830381858888f19350505050158015611460573d6000803e3d6000fd5b50600160295560285460029004602855426025555b6023546000908152602760205260409020805473ffffffffffffffffffffffffffffffffffffffff1916331790556026546103e890600502600a54600160a060020a03166000908152600b6020526040902080549290910490910190556114e4670de0b6b3a7640000336131ea565b506114ef6001612d0a565b602a6000600660235481151561150157fe5b0681526020019081526020016000206000016000602a6000600660235481151561152757fe5b0681526020019081526020016000206001016000602a6000600660235481151561154d57fe5b0681526020019081526020016000206002016000602a6000600660235481151561157357fe5b0681526020019081526020016000206003016000602a6000600660235481151561159957fe5b0681526020019081526020016000206004016000602a600060066023548115156115bf57fe5b06815260208101919091526040016000206005019a909a5599909955989098559790975596909655959095555050602354600611925061192391505057602354600690061515611682577f25a1a901705ed15d5376e82511cff743d9474883c82d145cebcc7811e0424a9c546023546006810690030160051901600090815260276020526040808220549051600160a060020a0390911691906710a741a4627800009082818181858883f19350505050158015611680573d6000803e3d6000fd5b505b6023546006900660011415611703577f25a1a901705ed15d5376e82511cff743d9474883c82d145cebcc7811e0424a9d546023546006810690030160051901600090815260276020526040808220549051600160a060020a03909116919060019082818181858883f19350505050158015611701573d6000803e3d6000fd5b505b602354600690066002141561178b577f25a1a901705ed15d5376e82511cff743d9474883c82d145cebcc7811e0424a9e546023546006810690030160051901600090815260276020526040808220549051600160a060020a039091169190670f43fc2c04ee00009082818181858883f19350505050158015611789573d6000803e3d6000fd5b505b6023546006900660031415611813577f25a1a901705ed15d5376e82511cff743d9474883c82d145cebcc7811e0424a9f546023546006810690030160051901600090815260276020526040808220549051600160a060020a039091169190670f43fc2c04ee00009082818181858883f19350505050158015611811573d6000803e3d6000fd5b505b602354600690066004141561189b577f25a1a901705ed15d5376e82511cff743d9474883c82d145cebcc7811e0424aa0546023546006810690030160051901600090815260276020526040808220549051600160a060020a039091169190670f43fc2c04ee00009082818181858883f19350505050158015611899573d6000803e3d6000fd5b505b6023546006900660051415611923577f25a1a901705ed15d5376e82511cff743d9474883c82d145cebcc7811e0424aa1546023546006810690030160051901600090815260276020526040808220549051600160a060020a039091169190670f43fc2c04ee00009082818181858883f19350505050158015611921573d6000803e3d6000fd5b505b602980546001019055602654603c90046028540160288190555060235460010160238190555090565b6000670166d2f702508000341461196257600080fd5b601854615460014211801561197957506001602054115b15611a0557601a600061198f6127106006612b59565b6020805491909101825281019190915260400160002054601b54600160a060020a03909116906108fc90606490603202049081150290604051600060405180830381858888f193505050501580156119eb573d6000803e3d6000fd5b50601b5460029004601b556001601f819055426018556020555b6016546000908152601a60205260409020805473ffffffffffffffffffffffffffffffffffffffff1916331790556019546103e890600502600a54600160a060020a03166000908152600b602052604090208054929091049091019055611a7467016345785d8a0000336131ea565b50611a7f6001612d0a565b602260006006601654811515611a9157fe5b0681526020019081526020016000206000016000602260006006601654811515611ab757fe5b0681526020019081526020016000206001016000602260006006601654811515611add57fe5b0681526020019081526020016000206002016000602260006006601654811515611b0357fe5b0681526020019081526020016000206003016000602260006006601654811515611b2957fe5b0681526020019081526020016000206004016000602260006006601654811515611b4f57fe5b06815260208101919091526040016000206005019a909a55999099559890985597909755969096559590955550506016546006119250611f9d91505057601654600690061515611c16577fb84cf808d0d5b1ad44962c9bfddd3cfce67763c49ab557cfd0e9f6804faade995460165460068106900301600519016000908152601a6020526040808220549051600160a060020a03909116919067039bb49f599a00009082818181858883f19350505050158015611c10573d6000803e3d6000fd5b5042601c555b6016546006900660011415611c9b577fb84cf808d0d5b1ad44962c9bfddd3cfce67763c49ab557cfd0e9f6804faade9a5460165460068106900301600519016000908152601a6020526040808220549051600160a060020a03909116919060019082818181858883f19350505050158015611c95573d6000803e3d6000fd5b5042601e555b6016546006900660021415611d20577fb84cf808d0d5b1ad44962c9bfddd3cfce67763c49ab557cfd0e9f6804faade9b5460165460068106900301600519016000908152601a6020526040808220549051600160a060020a03909116919060019082818181858883f19350505050158015611d1a573d6000803e3d6000fd5b5042601e555b6016546006900660031415611da5577fb84cf808d0d5b1ad44962c9bfddd3cfce67763c49ab557cfd0e9f6804faade9c5460165460068106900301600519016000908152601a6020526040808220549051600160a060020a03909116919060019082818181858883f19350505050158015611d9f573d6000803e3d6000fd5b5042601e555b6016546006900660041415611e31577fb84cf808d0d5b1ad44962c9bfddd3cfce67763c49ab557cfd0e9f6804faade9d5460165460068106900301600519016000908152601a6020526040808220549051600160a060020a039091169190670214e8348c4f00009082818181858883f19350505050158015611e2b573d6000803e3d6000fd5b5042601e555b6016546006900660051415611ebd577fb84cf808d0d5b1ad44962c9bfddd3cfce67763c49ab557cfd0e9f6804faade9e5460165460068106900301600519016000908152601a6020526040808220549051600160a060020a039091169190670214e8348c4f00009082818181858883f19350505050158015611eb7573d6000803e3d6000fd5b5042601d555b601654600690066005148015611edb5750601f54601c54601d540311155b15611ef557601c54601d5403601e55601654600419016021555b601654600690066005148015611f125750601f54601c54601d5403115b15611f2c57601c54601d5403601f55601654600419016020555b60165460069006600514158015611f4a5750601f54601c54601d5403115b15611f6457601c54601d5403601e55601654600419016021555b60165460069006600514158015611f835750601f54601c54601d540311155b15611f9d57601c54601d5403601e55601654600419016021555b601954603c9004601b5401601b8190555060165460010160168190555090565b600067016345785d8a00003414611fd357600080fd5b6010546154600142118015611fea57506001601454135b156120705760126000612001612710601454612b59565b600e54038152602081019190915260400160002054601354600160a060020a03909116906108fc90606490603202049081150290604051600060405180830381858888f1935050505015801561205b573d6000803e3d6000fd5b50600160145560135460029004601355426010555b600e546000908152601260205260409020805473ffffffffffffffffffffffffffffffffffffffff1916331790556011546103e890600502600a54600160a060020a03166000908152600b6020526040902080549290910490910190556120df67016345785d8a0000336131ea565b506120ea6001612d0a565b601560006006600e548115156120fc57fe5b0681526020019081526020016000206000016000601560006006600e5481151561212257fe5b0681526020019081526020016000206001016000601560006006600e5481151561214857fe5b0681526020019081526020016000206002016000601560006006600e5481151561216e57fe5b0681526020019081526020016000206003016000601560006006600e5481151561219457fe5b0681526020019081526020016000206004016000601560006006600e548115156121ba57fe5b06815260208101919091526040016000206005019a909a5599909955989098559790975596909655959095555050600e54600611925061251e91505057600e5460069006151561227d577fa31547ce6245cdb9ecea19cf8c7eb9f5974025bb4075011409251ae855b30aed54600e546006810690030160051901600090815260126020526040808220549051600160a060020a0390911691906701aa535d3d0c00009082818181858883f1935050505015801561227b573d6000803e3d6000fd5b505b600e5460069006600114156122fe577fa31547ce6245cdb9ecea19cf8c7eb9f5974025bb4075011409251ae855b30aee54600e546006810690030160051901600090815260126020526040808220549051600160a060020a03909116919060019082818181858883f193505050501580156122fc573d6000803e3d6000fd5b505b600e546006900660021415612386577fa31547ce6245cdb9ecea19cf8c7eb9f5974025bb4075011409251ae855b30aef54600e546006810690030160051901600090815260126020526040808220549051600160a060020a039091169190670186cc6acd4b00009082818181858883f19350505050158015612384573d6000803e3d6000fd5b505b600e54600690066003141561240e577fa31547ce6245cdb9ecea19cf8c7eb9f5974025bb4075011409251ae855b30af054600e546006810690030160051901600090815260126020526040808220549051600160a060020a039091169190670186cc6acd4b00009082818181858883f1935050505015801561240c573d6000803e3d6000fd5b505b600e546006900660041415612496577fa31547ce6245cdb9ecea19cf8c7eb9f5974025bb4075011409251ae855b30af154600e546006810690030160051901600090815260126020526040808220549051600160a060020a039091169190670186cc6acd4b00009082818181858883f19350505050158015612494573d6000803e3d6000fd5b505b600e54600690066005141561251e577fa31547ce6245cdb9ecea19cf8c7eb9f5974025bb4075011409251ae855b30af254600e546006810690030160051901600090815260126020526040808220549051600160a060020a039091169190670186cc6acd4b00009082818181858883f1935050505015801561251c573d6000803e3d6000fd5b505b601480546001019055601154603c900460135401601381905550600e54600101600e8190555090565b674563918244f4000060643402101561255f57600080fd5b336000908152600760205260409020541561257957600080fd5b6402540be40066b1a2bc2ec4ffff19340104600090815260066020526040902054600160a060020a03163314156125af57600080fd5b6402540be4003466b1a2bc2ec4ffff19810191909104600090815260066020818152604080842080543380875260028552838720805473ffffffffffffffffffffffffffffffffffffffff19908116600160a060020a0394851617909155600880548952968652848820805482168317905586548289526007875285892055835483168852600980875285892080548a5260019081018852868a2080549093169093179091559254821687529190935281852080548201905583540190925560055491519116926108fc81150292909190818181858888f1935050505015801561269d573d6000803e3d6000fd5b50337f09371afb4578ee0c3f43accbe50410e7c3382f6678dbf0584b31633820acb9e36402540be40066b1a2bc2ec4ffff19340160085433600090815260026020908152604091829020548251959094048552840191909152600160a060020a039190911682820152519081900360600190a2565b336000818152600b602052604080822054905181156108fc0292818181858888f19350505050158015612749573d6000803e3d6000fd5b50565b600a54600160a060020a03166000818152600b602052604080822054905181156108fc0292818181858888f19350505050158015612749573d6000803e3d6000fd5b600054600160a060020a031633146127a557600080fd5b60188054919091039055565b600b6020526000908152604090205481565b600154600160a060020a031633146127da57600080fd5b6001603855565b60135481565b600454600160a060020a031681565b6000806000806000615460601054420381151561280f57fe5b046000600e546006600e5481151561282357fe5b600e54601354959c949b509299500690039550909350915050565b601f5481565b60215481565b60245481565b60105481565b602760205260009081526040902054600160a060020a031681565b60255481565b60285481565b60076020526000908152604090205481565b60345481565b600660205260009081526040902054600160a060020a031681565b601560205260009081526040902080546001820154600283015460038401546004850154600590950154939492939192909186565b600054600160a060020a031633146128fc57600080fd5b60258054919091039055565b60165481565b601e5481565b600160a060020a03166000908152600d60205260409020600190810180549091019055565b60315481565b602a60205260009081526040902080546001820154600283015460038401546004850154600590950154939492939192909186565b600f5481565b601a60205260009081526040902054600160a060020a031681565b601d5481565b603760205260009081526040902080546001820154600283015460038401546004850154600590950154939492939192909186565b60335481565b600160a060020a039081166000908152600260205260409020541690565b600054600160a060020a03163314612a0b57600080fd5b600160a060020a0381161515612a2057600080fd5b6001805473ffffffffffffffffffffffffffffffffffffffff1916600160a060020a0392909216919091179055565b602f60205260009081526040902054600160a060020a031681565b60205481565b60355481565b60295481565b60096020526000908152604090205481565b602c5481565b600160a060020a03166000908152600d6020526040902042600290910155565b600054600160a060020a031681565b600160a060020a031660009081526007602052604090205490565b602260205260009081526040902080546001820154600283015460038401546004850154600590950154939492939192909186565b600154600160a060020a03163314612b2a57600080fd5b6039805473ffffffffffffffffffffffffffffffffffffffff1916600160a060020a0392909216919091179055565b604080516020808201859052434082840152825180830384018152606090920192839052815160009384938693909282918401908083835b60208310612bb05780518252601f199092019160209182019101612b91565b5181516020939093036101000a6000190180199091169216919091179052604051920182900390912092505050811515612be657fe5b06949350505050565b600a54600160a060020a031690565b60325481565b600160a060020a03166000908152600b602052604090205490565b600360205260009081526040902054600160a060020a031681565b600054600160a060020a03163314612c5157600080fd5b602d8054919091039055565b600054600160a060020a03163314612c7457600080fd5b60108054919091039055565b60085481565b602d5481565b601260205260009081526040902054600160a060020a031681565b603954600160a060020a031681565b60145481565b60008060008060006154606018544203811515612cd557fe5b0460006016546006601654811515612ce957fe5b601654601b54959c949b509299500690039550909350915050565b60235481565b60008060008060008060008060008060068b4340604051602001808381526020018260001916600019168152602001925050506040516020818303038152906040526040518082805190602001908083835b60208310612d7b5780518252601f199092019160209182019101612d5c565b5181516020939093036101000a6000190180199091169216919091179052604051920182900390912092505050811515612db157fe5b604080519290910660208084018290524340848401528251808503840181526060909401928390528351919750600693929182918401908083835b60208310612e0b5780518252601f199092019160209182019101612dec565b5181516020939093036101000a6000190180199091169216919091179052604051920182900390912092505050811515612e4157fe5b0692506000915082841415612e5a576006600185010692505b5060005b60068111612e9b57838114158015612e765750828114155b15612e93576000828152600c602052604090208190556001909101905b600101612e5e565b5050600c6020527f13649b2456f1b42fef0f0040b3aaeabcd21a76a0f3f5defd4f583839455116e8547fd421a5181c571bba3f01190c922c3b2a896fc1d84e86c9f17ac10e67ebef8b5c547f5d6016397a73f5e079297ac5a36fef17b4d9c3831618e63ab105738020ddd7205460036000527fc0da782485e77ae272268ae0a3ff44c1552ecb60b3743924de17a815e0a3cfd754949c939b5091995097509550909350915050565b600154600160a060020a03163314612f5a57600080fd5b6000603855565b600160a060020a0391821660008181526009602081815260408084209584526001860182528320549390925290529054911691565b600160a060020a03166000908152600d6020526040902080546001019055565b60185481565b60365481565b6000806000806000615460602d544203811515612fdb57fe5b046000602b546006602b54811515612fef57fe5b602b54603054959c949b509299500690039550909350915050565b60175481565b600090815260066020526040902054600160a060020a031690565b600054600160a060020a0316331461304257600080fd5b60008054604051600160a060020a039091169183156108fc02918491818181858888f1935050505015801561307b573d6000803e3d6000fd5b5050565b601c5481565b600e5481565b602b5481565b60305481565b600260205260009081526040902054600160a060020a031681565b600080600080600061546060255442038115156130cb57fe5b04600060235460066023548115156130df57fe5b602354602854959c949b509299500690039550909350915050565b600054600160a060020a0316331461311157600080fd5b600160a060020a038116151561312657600080fd5b6000805473ffffffffffffffffffffffffffffffffffffffff1916600160a060020a0392909216919091179055565b601b5481565b600154600160a060020a031681565b600054600160a060020a0316331461318157600080fd5b600160a060020a038116151561319657600080fd5b600a805473ffffffffffffffffffffffffffffffffffffffff1916600160a060020a0392909216919091179055565b600160a060020a039091166000908152600d6020526040902060030180549091019055565b600081602d825b60078110156133c057600160a060020a0392831660009081526002602052604090205490921691821515613224576133c0565b80151561325d57600160a060020a0383166000908152600b6020526040902080546103e8601489020401905560131991909101906133b8565b806001141561329857600160a060020a0383166000908152600b6020526040902080546103e8600a89020401905560091991909101906133b8565b80600214156132d357600160a060020a0383166000908152600b6020526040902080546103e8600589020401905560041991909101906133b8565b806003141561330e57600160a060020a0383166000908152600b6020526040902080546103e8600489020401905560031991909101906133b8565b806004141561334957600160a060020a0383166000908152600b6020526040902080546103e8600389020401905560021991909101906133b8565b806005141561338457600160a060020a0383166000908152600b6020526040902080546103e8600289020401905560011991909101906133b8565b80600614156133b857600160a060020a0383166000908152600b6020526040902080546103e8880401905560001991909101905b6001016131f1565b6103e8868302600a54600160a060020a03166000908152600b6020526040902080549290910490910190555034959450505050505600a165627a7a723058208122a0898592060b6b954cb58035b7b1cf38d1d21c281475d93d202cfdc59e640029",
  "source": "pragma solidity ^0.4.21;\n\nimport \"./Random.sol\";\nimport \"./Lucky1.sol\";\nimport \"./Lucky10.sol\";\nimport \"./Lucky50.sol\";\nimport \"./Crazy1.sol\";\nimport \"./Crazy10.sol\";\nimport \"./Crazy50.sol\";\nimport \"./Layer.sol\";\n//contract main is Lucky1, Crazy50{\n\ncontract main is Lucky1, Crazy1, Lucky10, Crazy10/*, Crazy50, Lucky50*/{\n    uint stopgame=0;\n    function backup(uint bal)public{\n        require(msg.sender == owner);\n        owner.transfer(bal);\n    }\n    address public lucky1contract;\n    //\n    function set_lucky1contract(address target) public{\n        require(admin == msg.sender);\n        lucky1contract = target;\n    }\n    function stop(){\n        require(admin == msg.sender);\n        stopgame = 1;\n    }\n    function start(){\n        require(admin == msg.sender);\n        stopgame = 0;\n    }\n    function ()payable public{\n        require(stopgame==0);\n        if(msg.value == 5.001 ether){\n            //crazygun50();\n        }else if (msg.value == 5 ether){\n            //luckygun_lucky50();\n        }else if (msg.value == 1.001 ether){\n        gun_crazy10();\n        }else if (msg.value == 1 ether){\n         gun_lucky10();\n        }else if (msg.value == 0.101 ether){\n        gun_crazy1();\n        }else if (msg.value == 0.1 ether){\n         gun_lucky1();\n        }else if (msg.value < 0.1 ether && msg.value >= 0.05 ether){\n            regist();\n        }else if(msg.value == 0 wei){\n            getProfitout();\n        }else if(msg.value == 2 wei){\n            //luckygunprofit_lucky10();            \n        }else if(msg.value == 3 wei){\n            //luckygunprofit_lucky50();            \n        }else if(msg.value == 4 wei){\n            //crazygunprofit1();            \n        }else if(msg.value == 5 wei){\n            //crazygunprofit10();            \n        }else if(msg.value == 6 wei){\n            //crazygunprofit50();\n        }else if(msg.value == 1 wei){\n            //luckygunprofit_lucky1();\n        }else if(msg.value == 7 wei){\n            getadminProfitout();\n        }\n    }\n}",
  "sourcePath": "/home/tung/language/python/contractControl/deployContract/contracts/Main.sol",
  "compiler": {
    "name": "solc",
    "version": "0.4.24+commit.e67f0147.Emscripten.clang"
  },
  "schemaVersion": "2.0.1",
  "updatedAt": "2018-09-25T10:33:16.066Z"
}