{
  "contractName": "Ownable",
  "abi": [
    {
      "constant": true,
      "inputs": [],
      "name": "owner",
      "outputs": [
        {
          "name": "",
          "type": "address"
        }
      ],
      "payable": false,
      "stateMutability": "view",
      "type": "function"
    },
    {
      "constant": true,
      "inputs": [],
      "name": "admin",
      "outputs": [
        {
          "name": "",
          "type": "address"
        }
      ],
      "payable": false,
      "stateMutability": "view",
      "type": "function"
    },
    {
      "inputs": [],
      "payable": false,
      "stateMutability": "nonpayable",
      "type": "constructor"
    },
    {
      "constant": false,
      "inputs": [
        {
          "name": "newOwner",
          "type": "address"
        }
      ],
      "name": "transferOwnership",
      "outputs": [],
      "payable": false,
      "stateMutability": "nonpayable",
      "type": "function"
    },
    {
      "constant": false,
      "inputs": [
        {
          "name": "newOwner",
          "type": "address"
        }
      ],
      "name": "transferAdmin",
      "outputs": [],
      "payable": false,
      "stateMutability": "nonpayable",
      "type": "function"
    }
  ],
  "bytecode": "0x608060405234801561001057600080fd5b506000805433600160a060020a0319918216811783556001805490921617905561027f90819061004090396000f3006080604052600436106100615763ffffffff7c010000000000000000000000000000000000000000000000000000000060003504166375829def81146100665780638da5cb5b14610096578063f2fde38b146100d4578063f851a44014610102575b600080fd5b34801561007257600080fd5b5061009473ffffffffffffffffffffffffffffffffffffffff60043516610117565b005b3480156100a257600080fd5b506100ab610199565b6040805173ffffffffffffffffffffffffffffffffffffffff9092168252519081900360200190f35b3480156100e057600080fd5b5061009473ffffffffffffffffffffffffffffffffffffffff600435166101b5565b34801561010e57600080fd5b506100ab610237565b60005473ffffffffffffffffffffffffffffffffffffffff16331461013b57600080fd5b73ffffffffffffffffffffffffffffffffffffffff8116151561015d57600080fd5b6001805473ffffffffffffffffffffffffffffffffffffffff191673ffffffffffffffffffffffffffffffffffffffff92909216919091179055565b60005473ffffffffffffffffffffffffffffffffffffffff1681565b60005473ffffffffffffffffffffffffffffffffffffffff1633146101d957600080fd5b73ffffffffffffffffffffffffffffffffffffffff811615156101fb57600080fd5b6000805473ffffffffffffffffffffffffffffffffffffffff191673ffffffffffffffffffffffffffffffffffffffff92909216919091179055565b60015473ffffffffffffffffffffffffffffffffffffffff16815600a165627a7a72305820a7da845c6bf72246d71eb1e7201de61e568d5df0c3842276247df88d723f4f100029",
  "source": "pragma solidity ^0.4.18;\n\ncontract Ownable {\n  address public owner;\n  address public admin;\n  function Ownable() public {\n    owner = msg.sender;\n    admin = msg.sender;\n  }\n\n  modifier onlyOwner() {\n    require(msg.sender == owner);\n    _;\n  }\n\n  function transferOwnership(address newOwner) public onlyOwner {\n    require(newOwner != address(0));\n    owner = newOwner;\n  }\n  function transferAdmin(address newOwner) public onlyOwner {\n    require(newOwner != address(0));\n    admin = newOwner;\n  }\n}",
  "sourcePath": "/home/tung/language/python/contractControl/deployContract/contracts/Ownable.sol",
  "compiler": {
    "name": "solc",
    "version": "0.4.24+commit.e67f0147.Emscripten.clang"
  },
  "schemaVersion": "2.0.1",
  "updatedAt": "2018-09-25T10:33:16.059Z"
}