{
  "contractName": "random",
  "abi": [
    {
      "constant": true,
      "inputs": [
        {
          "name": "rand",
          "type": "uint256"
        },
        {
          "name": "amount",
          "type": "uint256"
        }
      ],
      "name": "randomLottery",
      "outputs": [
        {
          "name": "",
          "type": "uint256"
        }
      ],
      "payable": false,
      "stateMutability": "view",
      "type": "function"
    },
    {
      "constant": true,
      "inputs": [
        {
          "name": "rand",
          "type": "uint256"
        }
      ],
      "name": "randomNewLucky",
      "outputs": [
        {
          "name": "",
          "type": "uint256"
        },
        {
          "name": "",
          "type": "uint256"
        },
        {
          "name": "",
          "type": "uint256"
        },
        {
          "name": "",
          "type": "uint256"
        },
        {
          "name": "",
          "type": "uint256"
        },
        {
          "name": "",
          "type": "uint256"
        }
      ],
      "payable": false,
      "stateMutability": "view",
      "type": "function"
    }
  ],
  "bytecode": "0x608060405234801561001057600080fd5b50610412806100206000396000f30060806040526004361061004c576000357c0100000000000000000000000000000000000000000000000000000000900463ffffffff1680639435245e14610051578063be86618b1461009c575b600080fd5b34801561005d57600080fd5b506100866004803603810190808035906020019092919080359060200190929190505050610100565b6040518082815260200191505060405180910390f35b3480156100a857600080fd5b506100c7600480360381019080803590602001909291905050506101b1565b60405180878152602001868152602001858152602001848152602001838152602001828152602001965050505050505060405180910390f35b60008082844340604051602001808381526020018260001916600019168152602001925050506040516020818303038152906040526040518082805190602001908083835b60208310151561016a5780518252602082019150602081019050602083039250610145565b6001836020036101000a0380198251168184511680821785525050505050509050019150506040518091039020600190048115156101a457fe5b0690508091505092915050565b60008060008060008060008060008060068b4340604051602001808381526020018260001916600019168152602001925050506040516020818303038152906040526040518082805190602001908083835b6020831015156102285780518252602082019150602081019050602083039250610203565b6001836020036101000a03801982511681845116808217855250505050505090500191505060405180910390206001900481151561026257fe5b0693506006844340604051602001808381526020018260001916600019168152602001925050506040516020818303038152906040526040518082805190602001908083835b6020831015156102cd57805182526020820191506020810190506020830392506102a8565b6001836020036101000a03801982511681845116808217855250505050505090500191505060405180910390206001900481151561030757fe5b06925060009150828414156103295760066001850181151561032557fe5b0692505b600090505b600681111515610378578381141580156103485750828114155b1561036b5780600080848152602001908152602001600020819055506001820191505b808060010191505061032e565b6000915083836000808081526020019081526020016000205460008060018152602001908152602001600020546000806002815260200190815260200160002054600080600381526020019081526020016000205499509950995099509950995050505050919395509193955600a165627a7a72305820633c1c94d7a6f23f307887ca88de7698fdbeaa37e7f4f0a4d11a2fc156e2e0350029",
  "source": "pragma solidity ^0.4.21;\n\n\n\ncontract random {\n    mapping(uint => uint) commonRandom;\n    function randomLottery(uint rand, uint amount) constant returns (uint){\n        uint winner = uint(keccak256(abi.encodePacked(rand, blockhash(block.number))))%amount;\n        return (winner);\n    }\n    function randomLucky(uint rand) internal constant returns (uint,uint){\n        uint winner = uint(keccak256(abi.encodePacked(rand, blockhash(block.number))))%6;\n        uint loser = uint(keccak256(abi.encodePacked(winner, blockhash(block.number))))%6;\n        if(winner == loser){\n            loser = (winner+1)%6;\n        }\n        return (winner,loser);\n    }\n    function randomNewLucky(uint rand)  constant returns (uint,uint,uint,uint,uint,uint){\n        uint winner = uint(keccak256(abi.encodePacked(rand, blockhash(block.number))))%6;\n        uint loser = uint(keccak256(abi.encodePacked(winner, blockhash(block.number))))%6;\n\n        uint count=0;\n\n        if(winner == loser){\n            loser = (winner+1)%6;\n        }\n        for(uint i =0;i<=6;i++){\n            if(i!=winner&&i!=loser){\n                commonRandom[count] = i;\n                count = count+1;\n            }\n        }\n        count = 0;\n        return (winner,loser,commonRandom[0],commonRandom[1],commonRandom[2],commonRandom[3]);\n    }\n    function randomCrazy(uint rand) internal constant returns (uint,uint,uint,uint){\n        uint winner = uint(keccak256(abi.encodePacked(rand, blockhash(block.number))))%3;\n        uint loser = uint(keccak256(abi.encodePacked(winner, blockhash(block.number-1))))%2;\n        uint loser1 = uint(keccak256(abi.encodePacked(winner, blockhash(block.number-2))))%2+2;\n        uint loser2 = uint(keccak256(abi.encodePacked(winner, blockhash(block.number-3))))%2+4;\n        if(winner == 0){\n            if(loser == 0){\n                winner = 1;\n            }else{\n                winner = 0;\n            }\n        }\n        else if(winner == 1){\n            if(loser1 == 2){\n                winner = 3;\n            }else{\n                winner = 2;\n            }\n        }\n        else{\n            if(loser2 == 4){\n                winner = 5;\n            }else{\n                winner = 4;\n            }\n        }\n        return (winner,loser,loser1,loser2);\n    }   \n    \n}",
  "sourcePath": "/home/tung/language/python/contractControl/deployContract/contracts/Random.sol",
  "compiler": {
    "name": "solc",
    "version": "0.4.24+commit.e67f0147.Emscripten.clang"
  },
  "schemaVersion": "2.0.1",
  "updatedAt": "2018-09-25T10:10:35.122Z"
}