{
  "contractName": "random",
  "abi": [
    {
      "constant": true,
      "inputs": [
        {
          "name": "rand",
          "type": "uint256"
        },
        {
          "name": "amount",
          "type": "uint256"
        }
      ],
      "name": "randomLottery",
      "outputs": [
        {
          "name": "",
          "type": "uint256"
        }
      ],
      "payable": false,
      "stateMutability": "view",
      "type": "function"
    },
    {
      "constant": true,
      "inputs": [
        {
          "name": "rand",
          "type": "uint256"
        }
      ],
      "name": "randomNewLucky",
      "outputs": [
        {
          "name": "",
          "type": "uint256"
        },
        {
          "name": "",
          "type": "uint256"
        },
        {
          "name": "",
          "type": "uint256"
        },
        {
          "name": "",
          "type": "uint256"
        },
        {
          "name": "",
          "type": "uint256"
        },
        {
          "name": "",
          "type": "uint256"
        }
      ],
      "payable": false,
      "stateMutability": "view",
      "type": "function"
    }
  ],
  "bytecode": "0x608060405234801561001057600080fd5b506103c5806100206000396000f30060806040526004361061004b5763ffffffff7c01000000000000000000000000000000000000000000000000000000006000350416639435245e8114610050578063be86618b1461007d575b600080fd5b34801561005c57600080fd5b5061006b6004356024356100c8565b60408051918252519081900360200190f35b34801561008957600080fd5b5061009560043561015e565b604080519687526020870195909552858501939093526060850191909152608084015260a0830152519081900360c00190f35b604080516020808201859052434082840152825180830384018152606090920192839052815160009384938693909282918401908083835b6020831061011f5780518252601f199092019160209182019101610100565b5181516020939093036101000a600019018019909116921691909117905260405192018290039091209250505081151561015557fe5b06949350505050565b60008060008060008060008060008060068b4340604051602001808381526020018260001916600019168152602001925050506040516020818303038152906040526040518082805190602001908083835b602083106101cf5780518252601f1990920191602091820191016101b0565b5181516020939093036101000a600019018019909116921691909117905260405192018290039091209250505081151561020557fe5b604080519290910660208084018290524340848401528251808503840181526060909401928390528351919750600693929182918401908083835b6020831061025f5780518252601f199092019160209182019101610240565b5181516020939093036101000a600019018019909116921691909117905260405192018290039091209250505081151561029557fe5b06925060009150828414156102ae576006600185010692505b5060005b600681116102ef578381141580156102ca5750828114155b156102e75760008281526020819052604090208190556001909101905b6001016102b2565b5050600060208190527fad3228b676f7d3cd4284a5443f17f1962b36e491b30a40b2405849e597ba5fb5547fada5013122d395ba3c54772283fb069b10426056ef8ca54750cb9bb552a59e7d547fabbb5caa7dda850e60932de0934eb1f9d0f59695050f761dc64e443e5030a5695460039093527f101e368776582e57ab3d116ffe2517c0a585cd5b23174b01e275c2d8329c3d8354949c939b50909950975095509093509150505600a165627a7a723058202e0cbef82f4debfb0c936d10e1a09bc0cc078cb40b920bfd6a20c1999c63e47e0029",
  "source": "pragma solidity ^0.4.21;\n\n\n\ncontract random {\n    mapping(uint => uint) commonRandom;\n    function randomLottery(uint rand, uint amount) constant returns (uint){\n        uint winner = uint(keccak256(abi.encodePacked(rand, blockhash(block.number))))%amount;\n        return (winner);\n    }\n    function randomLucky(uint rand) internal constant returns (uint,uint){\n        uint winner = uint(keccak256(abi.encodePacked(rand, blockhash(block.number))))%6;\n        uint loser = uint(keccak256(abi.encodePacked(winner, blockhash(block.number))))%6;\n        if(winner == loser){\n            loser = (winner+1)%6;\n        }\n        return (winner,loser);\n    }\n    function randomNewLucky(uint rand)  constant returns (uint,uint,uint,uint,uint,uint){\n        uint winner = uint(keccak256(abi.encodePacked(rand, blockhash(block.number))))%6;\n        uint loser = uint(keccak256(abi.encodePacked(winner, blockhash(block.number))))%6;\n\n        uint count=0;\n\n        if(winner == loser){\n            loser = (winner+1)%6;\n        }\n        for(uint i =0;i<=6;i++){\n            if(i!=winner&&i!=loser){\n                commonRandom[count] = i;\n                count = count+1;\n            }\n        }\n        count = 0;\n        return (winner,loser,commonRandom[0],commonRandom[1],commonRandom[2],commonRandom[3]);\n    }\n    function randomCrazy(uint rand) internal constant returns (uint,uint,uint,uint){\n        uint winner = uint(keccak256(abi.encodePacked(rand, blockhash(block.number))))%3;\n        uint loser = uint(keccak256(abi.encodePacked(winner, blockhash(block.number-1))))%2;\n        uint loser1 = uint(keccak256(abi.encodePacked(winner, blockhash(block.number-2))))%2+2;\n        uint loser2 = uint(keccak256(abi.encodePacked(winner, blockhash(block.number-3))))%2+4;\n        if(winner == 0){\n            if(loser == 0){\n                winner = 1;\n            }else{\n                winner = 0;\n            }\n        }\n        else if(winner == 1){\n            if(loser1 == 2){\n                winner = 3;\n            }else{\n                winner = 2;\n            }\n        }\n        else{\n            if(loser2 == 4){\n                winner = 5;\n            }else{\n                winner = 4;\n            }\n        }\n        return (winner,loser,loser1,loser2);\n    }   \n    \n}",
  "sourcePath": "/home/tung/language/python/contractControl/deployContract/contracts/Random.sol",
  "compiler": {
    "name": "solc",
    "version": "0.4.24+commit.e67f0147.Emscripten.clang"
  },
  "schemaVersion": "2.0.1",
  "updatedAt": "2018-09-25T10:33:16.087Z"
}