{
  "contractName": "teambonus",
  "abi": [
    {
      "constant": false,
      "inputs": [
        {
          "name": "newOwner",
          "type": "address"
        }
      ],
      "name": "transferAdmin",
      "outputs": [],
      "payable": false,
      "stateMutability": "nonpayable",
      "type": "function"
    },
    {
      "constant": true,
      "inputs": [],
      "name": "owner",
      "outputs": [
        {
          "name": "",
          "type": "address"
        }
      ],
      "payable": false,
      "stateMutability": "view",
      "type": "function"
    },
    {
      "constant": false,
      "inputs": [
        {
          "name": "newOwner",
          "type": "address"
        }
      ],
      "name": "transferOwnership",
      "outputs": [],
      "payable": false,
      "stateMutability": "nonpayable",
      "type": "function"
    },
    {
      "constant": true,
      "inputs": [],
      "name": "admin",
      "outputs": [
        {
          "name": "",
          "type": "address"
        }
      ],
      "payable": false,
      "stateMutability": "view",
      "type": "function"
    },
    {
      "constant": false,
      "inputs": [
        {
          "name": "newAddress",
          "type": "address"
        }
      ],
      "name": "changeAddress",
      "outputs": [],
      "payable": false,
      "stateMutability": "nonpayable",
      "type": "function"
    },
    {
      "constant": true,
      "inputs": [],
      "name": "contractInquire",
      "outputs": [
        {
          "name": "",
          "type": "address"
        }
      ],
      "payable": false,
      "stateMutability": "view",
      "type": "function"
    }
  ],
  "bytecode": "0x608060405260028054600160a060020a0319908116733ee8ae904830a51a4cbf7588b02f05a33f870576179091556000805482163390811790915560018054909216179055610376806100536000396000f3006080604052600436106100775763ffffffff7c010000000000000000000000000000000000000000000000000000000060003504166375829def811461007c5780638da5cb5b146100ac578063971b1c26146100ea578063f2fde38b146100ff578063f851a4401461012d578063fe64d6ff14610142575b600080fd5b34801561008857600080fd5b506100aa73ffffffffffffffffffffffffffffffffffffffff60043516610170565b005b3480156100b857600080fd5b506100c16101f2565b6040805173ffffffffffffffffffffffffffffffffffffffff9092168252519081900360200190f35b3480156100f657600080fd5b506100c161020e565b34801561010b57600080fd5b506100aa73ffffffffffffffffffffffffffffffffffffffff6004351661022a565b34801561013957600080fd5b506100c16102ac565b34801561014e57600080fd5b506100aa73ffffffffffffffffffffffffffffffffffffffff600435166102c8565b60005473ffffffffffffffffffffffffffffffffffffffff16331461019457600080fd5b73ffffffffffffffffffffffffffffffffffffffff811615156101b657600080fd5b6001805473ffffffffffffffffffffffffffffffffffffffff191673ffffffffffffffffffffffffffffffffffffffff92909216919091179055565b60005473ffffffffffffffffffffffffffffffffffffffff1681565b60025473ffffffffffffffffffffffffffffffffffffffff1690565b60005473ffffffffffffffffffffffffffffffffffffffff16331461024e57600080fd5b73ffffffffffffffffffffffffffffffffffffffff8116151561027057600080fd5b6000805473ffffffffffffffffffffffffffffffffffffffff191673ffffffffffffffffffffffffffffffffffffffff92909216919091179055565b60015473ffffffffffffffffffffffffffffffffffffffff1681565b60005473ffffffffffffffffffffffffffffffffffffffff1633146102ec57600080fd5b73ffffffffffffffffffffffffffffffffffffffff8116151561030e57600080fd5b6002805473ffffffffffffffffffffffffffffffffffffffff191673ffffffffffffffffffffffffffffffffffffffff929092169190911790555600a165627a7a72305820315579d5ff9b35283b7c21ea0cb692a1cb432b566ed63570bf929e20549969f90029",
  "source": "pragma solidity ^0.4.21;\n\nimport \"./Ownable.sol\";\n\ncontract teambonus is Ownable {\n\n    address contractAddress = 0x3Ee8ae904830A51A4cBF7588B02f05a33f870576;\n\n  function changeAddress(address newAddress) public onlyOwner {\n    require(newAddress != address(0));\n    contractAddress = newAddress;\n  }\n  function contractInquire() public constant returns (address){\n      return contractAddress;\n  }\n}",
  "sourcePath": "/home/tung/language/python/contractControl/deployContract/contracts/Teambonus.sol",
  "compiler": {
    "name": "solc",
    "version": "0.4.24+commit.e67f0147.Emscripten.clang"
  },
  "schemaVersion": "2.0.1",
  "updatedAt": "2018-09-25T10:33:16.056Z"
}